{
	"contracts/Exercises/17-Twitter-Modifier-Exercise.sol": {
		"Twitter": {
			"abi": [
				{
					"inputs": [],
					"name": "MAX_TWEET_LENGTH",
					"outputs": [
						{
							"internalType": "uint16",
							"name": "",
							"type": "uint16"
						}
					],
					"stateMutability": "view",
					"type": "function"
				},
				{
					"inputs": [
						{
							"internalType": "uint16",
							"name": "_newTweetLength",
							"type": "uint16"
						}
					],
					"name": "changeTweetLength",
					"outputs": [],
					"stateMutability": "nonpayable",
					"type": "function"
				},
				{
					"inputs": [
						{
							"internalType": "string",
							"name": "_tweet",
							"type": "string"
						}
					],
					"name": "createTweet",
					"outputs": [],
					"stateMutability": "nonpayable",
					"type": "function"
				},
				{
					"inputs": [
						{
							"internalType": "address",
							"name": "_owner",
							"type": "address"
						}
					],
					"name": "getAllTweets",
					"outputs": [
						{
							"components": [
								{
									"internalType": "address",
									"name": "author",
									"type": "address"
								},
								{
									"internalType": "string",
									"name": "content",
									"type": "string"
								},
								{
									"internalType": "uint256",
									"name": "timestamp",
									"type": "uint256"
								},
								{
									"internalType": "uint256",
									"name": "likes",
									"type": "uint256"
								}
							],
							"internalType": "struct Twitter.Tweet[]",
							"name": "",
							"type": "tuple[]"
						}
					],
					"stateMutability": "view",
					"type": "function"
				},
				{
					"inputs": [
						{
							"internalType": "uint256",
							"name": "_i",
							"type": "uint256"
						}
					],
					"name": "getTweet",
					"outputs": [
						{
							"components": [
								{
									"internalType": "address",
									"name": "author",
									"type": "address"
								},
								{
									"internalType": "string",
									"name": "content",
									"type": "string"
								},
								{
									"internalType": "uint256",
									"name": "timestamp",
									"type": "uint256"
								},
								{
									"internalType": "uint256",
									"name": "likes",
									"type": "uint256"
								}
							],
							"internalType": "struct Twitter.Tweet",
							"name": "",
							"type": "tuple"
						}
					],
					"stateMutability": "view",
					"type": "function"
				},
				{
					"inputs": [],
					"name": "owner",
					"outputs": [
						{
							"internalType": "address",
							"name": "",
							"type": "address"
						}
					],
					"stateMutability": "view",
					"type": "function"
				},
				{
					"inputs": [
						{
							"internalType": "address",
							"name": "",
							"type": "address"
						},
						{
							"internalType": "uint256",
							"name": "",
							"type": "uint256"
						}
					],
					"name": "tweets",
					"outputs": [
						{
							"internalType": "address",
							"name": "author",
							"type": "address"
						},
						{
							"internalType": "string",
							"name": "content",
							"type": "string"
						},
						{
							"internalType": "uint256",
							"name": "timestamp",
							"type": "uint256"
						},
						{
							"internalType": "uint256",
							"name": "likes",
							"type": "uint256"
						}
					],
					"stateMutability": "view",
					"type": "function"
				}
			],
			"devdoc": {
				"kind": "dev",
				"methods": {},
				"version": 1
			},
			"evm": {
				"assembly": "    /* \"contracts/Exercises/17-Twitter-Modifier-Exercise.sol\":361:1341  contract Twitter {... */\n  mstore(0x40, 0x80)\n    /* \"contracts/Exercises/17-Twitter-Modifier-Exercise.sol\":418:421  280 */\n  0x0118\n    /* \"contracts/Exercises/17-Twitter-Modifier-Exercise.sol\":385:421  uint16 public MAX_TWEET_LENGTH = 280 */\n  0x00\n  dup1\n  0x0100\n  exp\n  dup2\n  sload\n  dup2\n  0xffff\n  mul\n  not\n  and\n  swap1\n  dup4\n  0xffff\n  and\n  mul\n  or\n  swap1\n  sstore\n  pop\n    /* \"contracts/Exercises/17-Twitter-Modifier-Exercise.sol\":361:1341  contract Twitter {... */\n  callvalue\n  dup1\n  iszero\n  tag_1\n  jumpi\n  0x00\n  dup1\n  revert\ntag_1:\n  pop\n  dataSize(sub_0)\n  dup1\n  dataOffset(sub_0)\n  0x00\n  codecopy\n  0x00\n  return\nstop\n\nsub_0: assembly {\n        /* \"contracts/Exercises/17-Twitter-Modifier-Exercise.sol\":361:1341  contract Twitter {... */\n      mstore(0x40, 0x80)\n      callvalue\n      dup1\n      iszero\n      tag_1\n      jumpi\n      0x00\n      dup1\n      revert\n    tag_1:\n      pop\n      jumpi(tag_2, lt(calldatasize, 0x04))\n      shr(0xe0, calldataload(0x00))\n      dup1\n      0x6eb10797\n      gt\n      tag_10\n      jumpi\n      dup1\n      0x6eb10797\n      eq\n      tag_6\n      jumpi\n      dup1\n      0x7c9cd2bc\n      eq\n      tag_7\n      jumpi\n      dup1\n      0x8da5cb5b\n      eq\n      tag_8\n      jumpi\n      dup1\n      0xc3ad5ecb\n      eq\n      tag_9\n      jumpi\n      jump(tag_2)\n    tag_10:\n      dup1\n      0x05a1b4a9\n      eq\n      tag_3\n      jumpi\n      dup1\n      0x12e7ee1c\n      eq\n      tag_4\n      jumpi\n      dup1\n      0x58bfa4ab\n      eq\n      tag_5\n      jumpi\n    tag_2:\n      0x00\n      dup1\n      revert\n        /* \"contracts/Exercises/17-Twitter-Modifier-Exercise.sol\":578:620  mapping(address => Tweet[] ) public tweets */\n    tag_3:\n      tag_11\n      0x04\n      dup1\n      calldatasize\n      sub\n      dup2\n      add\n      swap1\n      tag_12\n      swap2\n      swap1\n      tag_13\n      jump\t// in\n    tag_12:\n      tag_14\n      jump\t// in\n    tag_11:\n      mload(0x40)\n      tag_15\n      swap5\n      swap4\n      swap3\n      swap2\n      swap1\n      tag_16\n      jump\t// in\n    tag_15:\n      mload(0x40)\n      dup1\n      swap2\n      sub\n      swap1\n      return\n        /* \"contracts/Exercises/17-Twitter-Modifier-Exercise.sol\":1225:1338  function getAllTweets(address _owner) public view returns (Tweet[] memory ){... */\n    tag_4:\n      tag_17\n      0x04\n      dup1\n      calldatasize\n      sub\n      dup2\n      add\n      swap1\n      tag_18\n      swap2\n      swap1\n      tag_19\n      jump\t// in\n    tag_18:\n      tag_20\n      jump\t// in\n    tag_17:\n      mload(0x40)\n      tag_21\n      swap2\n      swap1\n      tag_22\n      jump\t// in\n    tag_21:\n      mload(0x40)\n      dup1\n      swap2\n      sub\n      swap1\n      return\n        /* \"contracts/Exercises/17-Twitter-Modifier-Exercise.sol\":627:736  function changeTweetLength(uint16 _newTweetLength) public {... */\n    tag_5:\n      tag_23\n      0x04\n      dup1\n      calldatasize\n      sub\n      dup2\n      add\n      swap1\n      tag_24\n      swap2\n      swap1\n      tag_25\n      jump\t// in\n    tag_24:\n      tag_26\n      jump\t// in\n    tag_23:\n      stop\n        /* \"contracts/Exercises/17-Twitter-Modifier-Exercise.sol\":385:421  uint16 public MAX_TWEET_LENGTH = 280 */\n    tag_6:\n      tag_27\n      tag_28\n      jump\t// in\n    tag_27:\n      mload(0x40)\n      tag_29\n      swap2\n      swap1\n      tag_30\n      jump\t// in\n    tag_29:\n      mload(0x40)\n      dup1\n      swap2\n      sub\n      swap1\n      return\n        /* \"contracts/Exercises/17-Twitter-Modifier-Exercise.sol\":742:1104  function createTweet(string memory _tweet) public {... */\n    tag_7:\n      tag_31\n      0x04\n      dup1\n      calldatasize\n      sub\n      dup2\n      add\n      swap1\n      tag_32\n      swap2\n      swap1\n      tag_33\n      jump\t// in\n    tag_32:\n      tag_34\n      jump\t// in\n    tag_31:\n      stop\n        /* \"contracts/Exercises/17-Twitter-Modifier-Exercise.sol\":552:572  address public owner */\n    tag_8:\n      tag_35\n      tag_36\n      jump\t// in\n    tag_35:\n      mload(0x40)\n      tag_37\n      swap2\n      swap1\n      tag_38\n      jump\t// in\n    tag_37:\n      mload(0x40)\n      dup1\n      swap2\n      sub\n      swap1\n      return\n        /* \"contracts/Exercises/17-Twitter-Modifier-Exercise.sol\":1110:1219  function getTweet( uint _i) public view returns (Tweet memory) {... */\n    tag_9:\n      tag_39\n      0x04\n      dup1\n      calldatasize\n      sub\n      dup2\n      add\n      swap1\n      tag_40\n      swap2\n      swap1\n      tag_41\n      jump\t// in\n    tag_40:\n      tag_42\n      jump\t// in\n    tag_39:\n      mload(0x40)\n      tag_43\n      swap2\n      swap1\n      tag_44\n      jump\t// in\n    tag_43:\n      mload(0x40)\n      dup1\n      swap2\n      sub\n      swap1\n      return\n        /* \"contracts/Exercises/17-Twitter-Modifier-Exercise.sol\":578:620  mapping(address => Tweet[] ) public tweets */\n    tag_14:\n      mstore(0x20, 0x01)\n      dup2\n      0x00\n      mstore\n      keccak256(0x00, 0x40)\n      dup2\n      dup2\n      sload\n      dup2\n      lt\n      tag_45\n      jumpi\n      0x00\n      dup1\n      revert\n    tag_45:\n      swap1\n      0x00\n      mstore\n      keccak256(0x00, 0x20)\n      swap1\n      0x04\n      mul\n      add\n      0x00\n      swap2\n      pop\n      swap2\n      pop\n      pop\n      dup1\n      0x00\n      add\n      0x00\n      swap1\n      sload\n      swap1\n      0x0100\n      exp\n      swap1\n      div\n      0xffffffffffffffffffffffffffffffffffffffff\n      and\n      swap1\n      dup1\n      0x01\n      add\n      dup1\n      sload\n      tag_47\n      swap1\n      tag_48\n      jump\t// in\n    tag_47:\n      dup1\n      0x1f\n      add\n      0x20\n      dup1\n      swap2\n      div\n      mul\n      0x20\n      add\n      mload(0x40)\n      swap1\n      dup2\n      add\n      0x40\n      mstore\n      dup1\n      swap3\n      swap2\n      swap1\n      dup2\n      dup2\n      mstore\n      0x20\n      add\n      dup3\n      dup1\n      sload\n      tag_49\n      swap1\n      tag_48\n      jump\t// in\n    tag_49:\n      dup1\n      iszero\n      tag_50\n      jumpi\n      dup1\n      0x1f\n      lt\n      tag_51\n      jumpi\n      0x0100\n      dup1\n      dup4\n      sload\n      div\n      mul\n      dup4\n      mstore\n      swap2\n      0x20\n      add\n      swap2\n      jump(tag_50)\n    tag_51:\n      dup3\n      add\n      swap2\n      swap1\n      0x00\n      mstore\n      keccak256(0x00, 0x20)\n      swap1\n    tag_52:\n      dup2\n      sload\n      dup2\n      mstore\n      swap1\n      0x01\n      add\n      swap1\n      0x20\n      add\n      dup1\n      dup4\n      gt\n      tag_52\n      jumpi\n      dup3\n      swap1\n      sub\n      0x1f\n      and\n      dup3\n      add\n      swap2\n    tag_50:\n      pop\n      pop\n      pop\n      pop\n      pop\n      swap1\n      dup1\n      0x02\n      add\n      sload\n      swap1\n      dup1\n      0x03\n      add\n      sload\n      swap1\n      pop\n      dup5\n      jump\t// out\n        /* \"contracts/Exercises/17-Twitter-Modifier-Exercise.sol\":1225:1338  function getAllTweets(address _owner) public view returns (Tweet[] memory ){... */\n    tag_20:\n        /* \"contracts/Exercises/17-Twitter-Modifier-Exercise.sol\":1284:1298  Tweet[] memory */\n      0x60\n        /* \"contracts/Exercises/17-Twitter-Modifier-Exercise.sol\":1317:1323  tweets */\n      0x01\n        /* \"contracts/Exercises/17-Twitter-Modifier-Exercise.sol\":1317:1331  tweets[_owner] */\n      0x00\n        /* \"contracts/Exercises/17-Twitter-Modifier-Exercise.sol\":1324:1330  _owner */\n      dup4\n        /* \"contracts/Exercises/17-Twitter-Modifier-Exercise.sol\":1317:1331  tweets[_owner] */\n      0xffffffffffffffffffffffffffffffffffffffff\n      and\n      0xffffffffffffffffffffffffffffffffffffffff\n      and\n      dup2\n      mstore\n      0x20\n      add\n      swap1\n      dup2\n      mstore\n      0x20\n      add\n      0x00\n      keccak256\n        /* \"contracts/Exercises/17-Twitter-Modifier-Exercise.sol\":1310:1331  return tweets[_owner] */\n      dup1\n      sload\n      dup1\n      0x20\n      mul\n      0x20\n      add\n      mload(0x40)\n      swap1\n      dup2\n      add\n      0x40\n      mstore\n      dup1\n      swap3\n      swap2\n      swap1\n      dup2\n      dup2\n      mstore\n      0x20\n      add\n      0x00\n      swap1\n    tag_54:\n      dup3\n      dup3\n      lt\n      iszero\n      tag_55\n      jumpi\n      dup4\n      dup3\n      swap1\n      0x00\n      mstore\n      keccak256(0x00, 0x20)\n      swap1\n      0x04\n      mul\n      add\n      mload(0x40)\n      dup1\n      0x80\n      add\n      0x40\n      mstore\n      swap1\n      dup2\n      0x00\n      dup3\n      add\n      0x00\n      swap1\n      sload\n      swap1\n      0x0100\n      exp\n      swap1\n      div\n      0xffffffffffffffffffffffffffffffffffffffff\n      and\n      0xffffffffffffffffffffffffffffffffffffffff\n      and\n      0xffffffffffffffffffffffffffffffffffffffff\n      and\n      dup2\n      mstore\n      0x20\n      add\n      0x01\n      dup3\n      add\n      dup1\n      sload\n      tag_57\n      swap1\n      tag_48\n      jump\t// in\n    tag_57:\n      dup1\n      0x1f\n      add\n      0x20\n      dup1\n      swap2\n      div\n      mul\n      0x20\n      add\n      mload(0x40)\n      swap1\n      dup2\n      add\n      0x40\n      mstore\n      dup1\n      swap3\n      swap2\n      swap1\n      dup2\n      dup2\n      mstore\n      0x20\n      add\n      dup3\n      dup1\n      sload\n      tag_58\n      swap1\n      tag_48\n      jump\t// in\n    tag_58:\n      dup1\n      iszero\n      tag_59\n      jumpi\n      dup1\n      0x1f\n      lt\n      tag_60\n      jumpi\n      0x0100\n      dup1\n      dup4\n      sload\n      div\n      mul\n      dup4\n      mstore\n      swap2\n      0x20\n      add\n      swap2\n      jump(tag_59)\n    tag_60:\n      dup3\n      add\n      swap2\n      swap1\n      0x00\n      mstore\n      keccak256(0x00, 0x20)\n      swap1\n    tag_61:\n      dup2\n      sload\n      dup2\n      mstore\n      swap1\n      0x01\n      add\n      swap1\n      0x20\n      add\n      dup1\n      dup4\n      gt\n      tag_61\n      jumpi\n      dup3\n      swap1\n      sub\n      0x1f\n      and\n      dup3\n      add\n      swap2\n    tag_59:\n      pop\n      pop\n      pop\n      pop\n      pop\n      dup2\n      mstore\n      0x20\n      add\n      0x02\n      dup3\n      add\n      sload\n      dup2\n      mstore\n      0x20\n      add\n      0x03\n      dup3\n      add\n      sload\n      dup2\n      mstore\n      pop\n      pop\n      dup2\n      mstore\n      0x20\n      add\n      swap1\n      0x01\n      add\n      swap1\n      jump(tag_54)\n    tag_55:\n      pop\n      pop\n      pop\n      pop\n      swap1\n      pop\n        /* \"contracts/Exercises/17-Twitter-Modifier-Exercise.sol\":1225:1338  function getAllTweets(address _owner) public view returns (Tweet[] memory ){... */\n      swap2\n      swap1\n      pop\n      jump\t// out\n        /* \"contracts/Exercises/17-Twitter-Modifier-Exercise.sol\":627:736  function changeTweetLength(uint16 _newTweetLength) public {... */\n    tag_26:\n        /* \"contracts/Exercises/17-Twitter-Modifier-Exercise.sol\":714:729  _newTweetLength */\n      dup1\n        /* \"contracts/Exercises/17-Twitter-Modifier-Exercise.sol\":695:711  MAX_TWEET_LENGTH */\n      0x00\n      dup1\n        /* \"contracts/Exercises/17-Twitter-Modifier-Exercise.sol\":695:729  MAX_TWEET_LENGTH = _newTweetLength */\n      0x0100\n      exp\n      dup2\n      sload\n      dup2\n      0xffff\n      mul\n      not\n      and\n      swap1\n      dup4\n      0xffff\n      and\n      mul\n      or\n      swap1\n      sstore\n      pop\n        /* \"contracts/Exercises/17-Twitter-Modifier-Exercise.sol\":627:736  function changeTweetLength(uint16 _newTweetLength) public {... */\n      pop\n      jump\t// out\n        /* \"contracts/Exercises/17-Twitter-Modifier-Exercise.sol\":385:421  uint16 public MAX_TWEET_LENGTH = 280 */\n    tag_28:\n      0x00\n      dup1\n      sload\n      swap1\n      0x0100\n      exp\n      swap1\n      div\n      0xffff\n      and\n      dup2\n      jump\t// out\n        /* \"contracts/Exercises/17-Twitter-Modifier-Exercise.sol\":742:1104  function createTweet(string memory _tweet) public {... */\n    tag_34:\n        /* \"contracts/Exercises/17-Twitter-Modifier-Exercise.sol\":834:850  MAX_TWEET_LENGTH */\n      0x00\n      dup1\n      sload\n      swap1\n      0x0100\n      exp\n      swap1\n      div\n      0xffff\n      and\n        /* \"contracts/Exercises/17-Twitter-Modifier-Exercise.sol\":810:850  bytes(_tweet).length <= MAX_TWEET_LENGTH */\n      0xffff\n      and\n        /* \"contracts/Exercises/17-Twitter-Modifier-Exercise.sol\":816:822  _tweet */\n      dup2\n        /* \"contracts/Exercises/17-Twitter-Modifier-Exercise.sol\":810:830  bytes(_tweet).length */\n      mload\n        /* \"contracts/Exercises/17-Twitter-Modifier-Exercise.sol\":810:850  bytes(_tweet).length <= MAX_TWEET_LENGTH */\n      gt\n      iszero\n        /* \"contracts/Exercises/17-Twitter-Modifier-Exercise.sol\":802:878  require(bytes(_tweet).length <= MAX_TWEET_LENGTH, \"Tweet is too long bro!\" ) */\n      tag_64\n      jumpi\n      mload(0x40)\n      0x08c379a000000000000000000000000000000000000000000000000000000000\n      dup2\n      mstore\n      0x04\n      add\n      tag_65\n      swap1\n      tag_66\n      jump\t// in\n    tag_65:\n      mload(0x40)\n      dup1\n      swap2\n      sub\n      swap1\n      revert\n    tag_64:\n        /* \"contracts/Exercises/17-Twitter-Modifier-Exercise.sol\":889:910  Tweet memory newTweet */\n      0x00\n        /* \"contracts/Exercises/17-Twitter-Modifier-Exercise.sol\":913:1053  Tweet({... */\n      mload(0x40)\n      dup1\n      0x80\n      add\n      0x40\n      mstore\n      dup1\n        /* \"contracts/Exercises/17-Twitter-Modifier-Exercise.sol\":941:951  msg.sender */\n      caller\n        /* \"contracts/Exercises/17-Twitter-Modifier-Exercise.sol\":913:1053  Tweet({... */\n      0xffffffffffffffffffffffffffffffffffffffff\n      and\n      dup2\n      mstore\n      0x20\n      add\n        /* \"contracts/Exercises/17-Twitter-Modifier-Exercise.sol\":974:980  _tweet */\n      dup4\n        /* \"contracts/Exercises/17-Twitter-Modifier-Exercise.sol\":913:1053  Tweet({... */\n      dup2\n      mstore\n      0x20\n      add\n        /* \"contracts/Exercises/17-Twitter-Modifier-Exercise.sol\":1005:1020  block.timestamp */\n      timestamp\n        /* \"contracts/Exercises/17-Twitter-Modifier-Exercise.sol\":913:1053  Tweet({... */\n      dup2\n      mstore\n      0x20\n      add\n        /* \"contracts/Exercises/17-Twitter-Modifier-Exercise.sol\":1041:1042  0 */\n      0x00\n        /* \"contracts/Exercises/17-Twitter-Modifier-Exercise.sol\":913:1053  Tweet({... */\n      dup2\n      mstore\n      pop\n        /* \"contracts/Exercises/17-Twitter-Modifier-Exercise.sol\":889:1053  Tweet memory newTweet = Tweet({... */\n      swap1\n      pop\n        /* \"contracts/Exercises/17-Twitter-Modifier-Exercise.sol\":1064:1070  tweets */\n      0x01\n        /* \"contracts/Exercises/17-Twitter-Modifier-Exercise.sol\":1064:1082  tweets[msg.sender] */\n      0x00\n        /* \"contracts/Exercises/17-Twitter-Modifier-Exercise.sol\":1071:1081  msg.sender */\n      caller\n        /* \"contracts/Exercises/17-Twitter-Modifier-Exercise.sol\":1064:1082  tweets[msg.sender] */\n      0xffffffffffffffffffffffffffffffffffffffff\n      and\n      0xffffffffffffffffffffffffffffffffffffffff\n      and\n      dup2\n      mstore\n      0x20\n      add\n      swap1\n      dup2\n      mstore\n      0x20\n      add\n      0x00\n      keccak256\n        /* \"contracts/Exercises/17-Twitter-Modifier-Exercise.sol\":1088:1096  newTweet */\n      dup2\n        /* \"contracts/Exercises/17-Twitter-Modifier-Exercise.sol\":1064:1097  tweets[msg.sender].push(newTweet) */\n      swap1\n      dup1\n      0x01\n      dup2\n      sload\n      add\n      dup1\n      dup3\n      sstore\n      dup1\n      swap2\n      pop\n      pop\n      0x01\n      swap1\n      sub\n      swap1\n      0x00\n      mstore\n      keccak256(0x00, 0x20)\n      swap1\n      0x04\n      mul\n      add\n      0x00\n      swap1\n      swap2\n      swap1\n      swap2\n      swap1\n      swap2\n      pop\n      0x00\n      dup3\n      add\n      mload\n      dup2\n      0x00\n      add\n      exp(0x0100, 0x00)\n      dup2\n      sload\n      dup2\n      0xffffffffffffffffffffffffffffffffffffffff\n      mul\n      not\n      and\n      swap1\n      dup4\n      0xffffffffffffffffffffffffffffffffffffffff\n      and\n      mul\n      or\n      swap1\n      sstore\n      pop\n      0x20\n      dup3\n      add\n      mload\n      dup2\n      0x01\n      add\n      swap1\n      dup2\n      tag_68\n      swap2\n      swap1\n      tag_69\n      jump\t// in\n    tag_68:\n      pop\n      0x40\n      dup3\n      add\n      mload\n      dup2\n      0x02\n      add\n      sstore\n      0x60\n      dup3\n      add\n      mload\n      dup2\n      0x03\n      add\n      sstore\n      pop\n      pop\n        /* \"contracts/Exercises/17-Twitter-Modifier-Exercise.sol\":792:1104  {... */\n      pop\n        /* \"contracts/Exercises/17-Twitter-Modifier-Exercise.sol\":742:1104  function createTweet(string memory _tweet) public {... */\n      pop\n      jump\t// out\n        /* \"contracts/Exercises/17-Twitter-Modifier-Exercise.sol\":552:572  address public owner */\n    tag_36:\n      0x00\n      0x02\n      swap1\n      sload\n      swap1\n      0x0100\n      exp\n      swap1\n      div\n      0xffffffffffffffffffffffffffffffffffffffff\n      and\n      dup2\n      jump\t// out\n        /* \"contracts/Exercises/17-Twitter-Modifier-Exercise.sol\":1110:1219  function getTweet( uint _i) public view returns (Tweet memory) {... */\n    tag_42:\n        /* \"contracts/Exercises/17-Twitter-Modifier-Exercise.sol\":1159:1171  Tweet memory */\n      tag_70\n      tag_71\n      jump\t// in\n    tag_70:\n        /* \"contracts/Exercises/17-Twitter-Modifier-Exercise.sol\":1190:1196  tweets */\n      0x01\n        /* \"contracts/Exercises/17-Twitter-Modifier-Exercise.sol\":1190:1208  tweets[msg.sender] */\n      0x00\n        /* \"contracts/Exercises/17-Twitter-Modifier-Exercise.sol\":1197:1207  msg.sender */\n      caller\n        /* \"contracts/Exercises/17-Twitter-Modifier-Exercise.sol\":1190:1208  tweets[msg.sender] */\n      0xffffffffffffffffffffffffffffffffffffffff\n      and\n      0xffffffffffffffffffffffffffffffffffffffff\n      and\n      dup2\n      mstore\n      0x20\n      add\n      swap1\n      dup2\n      mstore\n      0x20\n      add\n      0x00\n      keccak256\n        /* \"contracts/Exercises/17-Twitter-Modifier-Exercise.sol\":1209:1211  _i */\n      dup3\n        /* \"contracts/Exercises/17-Twitter-Modifier-Exercise.sol\":1190:1212  tweets[msg.sender][_i] */\n      dup2\n      sload\n      dup2\n      lt\n      tag_73\n      jumpi\n      tag_74\n      tag_75\n      jump\t// in\n    tag_74:\n    tag_73:\n      swap1\n      0x00\n      mstore\n      keccak256(0x00, 0x20)\n      swap1\n      0x04\n      mul\n      add\n        /* \"contracts/Exercises/17-Twitter-Modifier-Exercise.sol\":1183:1212  return tweets[msg.sender][_i] */\n      mload(0x40)\n      dup1\n      0x80\n      add\n      0x40\n      mstore\n      swap1\n      dup2\n      0x00\n      dup3\n      add\n      0x00\n      swap1\n      sload\n      swap1\n      0x0100\n      exp\n      swap1\n      div\n      0xffffffffffffffffffffffffffffffffffffffff\n      and\n      0xffffffffffffffffffffffffffffffffffffffff\n      and\n      0xffffffffffffffffffffffffffffffffffffffff\n      and\n      dup2\n      mstore\n      0x20\n      add\n      0x01\n      dup3\n      add\n      dup1\n      sload\n      tag_77\n      swap1\n      tag_48\n      jump\t// in\n    tag_77:\n      dup1\n      0x1f\n      add\n      0x20\n      dup1\n      swap2\n      div\n      mul\n      0x20\n      add\n      mload(0x40)\n      swap1\n      dup2\n      add\n      0x40\n      mstore\n      dup1\n      swap3\n      swap2\n      swap1\n      dup2\n      dup2\n      mstore\n      0x20\n      add\n      dup3\n      dup1\n      sload\n      tag_78\n      swap1\n      tag_48\n      jump\t// in\n    tag_78:\n      dup1\n      iszero\n      tag_79\n      jumpi\n      dup1\n      0x1f\n      lt\n      tag_80\n      jumpi\n      0x0100\n      dup1\n      dup4\n      sload\n      div\n      mul\n      dup4\n      mstore\n      swap2\n      0x20\n      add\n      swap2\n      jump(tag_79)\n    tag_80:\n      dup3\n      add\n      swap2\n      swap1\n      0x00\n      mstore\n      keccak256(0x00, 0x20)\n      swap1\n    tag_81:\n      dup2\n      sload\n      dup2\n      mstore\n      swap1\n      0x01\n      add\n      swap1\n      0x20\n      add\n      dup1\n      dup4\n      gt\n      tag_81\n      jumpi\n      dup3\n      swap1\n      sub\n      0x1f\n      and\n      dup3\n      add\n      swap2\n    tag_79:\n      pop\n      pop\n      pop\n      pop\n      pop\n      dup2\n      mstore\n      0x20\n      add\n      0x02\n      dup3\n      add\n      sload\n      dup2\n      mstore\n      0x20\n      add\n      0x03\n      dup3\n      add\n      sload\n      dup2\n      mstore\n      pop\n      pop\n      swap1\n      pop\n        /* \"contracts/Exercises/17-Twitter-Modifier-Exercise.sol\":1110:1219  function getTweet( uint _i) public view returns (Tweet memory) {... */\n      swap2\n      swap1\n      pop\n      jump\t// out\n    tag_71:\n      mload(0x40)\n      dup1\n      0x80\n      add\n      0x40\n      mstore\n      dup1\n      and(0xffffffffffffffffffffffffffffffffffffffff, 0x00)\n      dup2\n      mstore\n      0x20\n      add\n      0x60\n      dup2\n      mstore\n      0x20\n      add\n      0x00\n      dup2\n      mstore\n      0x20\n      add\n      0x00\n      dup2\n      mstore\n      pop\n      swap1\n      jump\t// out\n        /* \"#utility.yul\":7:82   */\n    tag_82:\n        /* \"#utility.yul\":40:46   */\n      0x00\n        /* \"#utility.yul\":73:75   */\n      0x40\n        /* \"#utility.yul\":67:76   */\n      mload\n        /* \"#utility.yul\":57:76   */\n      swap1\n      pop\n        /* \"#utility.yul\":7:82   */\n      swap1\n      jump\t// out\n        /* \"#utility.yul\":88:205   */\n    tag_83:\n        /* \"#utility.yul\":197:198   */\n      0x00\n        /* \"#utility.yul\":194:195   */\n      dup1\n        /* \"#utility.yul\":187:199   */\n      revert\n        /* \"#utility.yul\":211:328   */\n    tag_84:\n        /* \"#utility.yul\":320:321   */\n      0x00\n        /* \"#utility.yul\":317:318   */\n      dup1\n        /* \"#utility.yul\":310:322   */\n      revert\n        /* \"#utility.yul\":334:460   */\n    tag_85:\n        /* \"#utility.yul\":371:378   */\n      0x00\n        /* \"#utility.yul\":411:453   */\n      0xffffffffffffffffffffffffffffffffffffffff\n        /* \"#utility.yul\":404:409   */\n      dup3\n        /* \"#utility.yul\":400:454   */\n      and\n        /* \"#utility.yul\":389:454   */\n      swap1\n      pop\n        /* \"#utility.yul\":334:460   */\n      swap2\n      swap1\n      pop\n      jump\t// out\n        /* \"#utility.yul\":466:562   */\n    tag_86:\n        /* \"#utility.yul\":503:510   */\n      0x00\n        /* \"#utility.yul\":532:556   */\n      tag_148\n        /* \"#utility.yul\":550:555   */\n      dup3\n        /* \"#utility.yul\":532:556   */\n      tag_85\n      jump\t// in\n    tag_148:\n        /* \"#utility.yul\":521:556   */\n      swap1\n      pop\n        /* \"#utility.yul\":466:562   */\n      swap2\n      swap1\n      pop\n      jump\t// out\n        /* \"#utility.yul\":568:690   */\n    tag_87:\n        /* \"#utility.yul\":641:665   */\n      tag_150\n        /* \"#utility.yul\":659:664   */\n      dup2\n        /* \"#utility.yul\":641:665   */\n      tag_86\n      jump\t// in\n    tag_150:\n        /* \"#utility.yul\":634:639   */\n      dup2\n        /* \"#utility.yul\":631:666   */\n      eq\n        /* \"#utility.yul\":621:684   */\n      tag_151\n      jumpi\n        /* \"#utility.yul\":680:681   */\n      0x00\n        /* \"#utility.yul\":677:678   */\n      dup1\n        /* \"#utility.yul\":670:682   */\n      revert\n        /* \"#utility.yul\":621:684   */\n    tag_151:\n        /* \"#utility.yul\":568:690   */\n      pop\n      jump\t// out\n        /* \"#utility.yul\":696:835   */\n    tag_88:\n        /* \"#utility.yul\":742:747   */\n      0x00\n        /* \"#utility.yul\":780:786   */\n      dup2\n        /* \"#utility.yul\":767:787   */\n      calldataload\n        /* \"#utility.yul\":758:787   */\n      swap1\n      pop\n        /* \"#utility.yul\":796:829   */\n      tag_153\n        /* \"#utility.yul\":823:828   */\n      dup2\n        /* \"#utility.yul\":796:829   */\n      tag_87\n      jump\t// in\n    tag_153:\n        /* \"#utility.yul\":696:835   */\n      swap3\n      swap2\n      pop\n      pop\n      jump\t// out\n        /* \"#utility.yul\":841:918   */\n    tag_89:\n        /* \"#utility.yul\":878:885   */\n      0x00\n        /* \"#utility.yul\":907:912   */\n      dup2\n        /* \"#utility.yul\":896:912   */\n      swap1\n      pop\n        /* \"#utility.yul\":841:918   */\n      swap2\n      swap1\n      pop\n      jump\t// out\n        /* \"#utility.yul\":924:1046   */\n    tag_90:\n        /* \"#utility.yul\":997:1021   */\n      tag_156\n        /* \"#utility.yul\":1015:1020   */\n      dup2\n        /* \"#utility.yul\":997:1021   */\n      tag_89\n      jump\t// in\n    tag_156:\n        /* \"#utility.yul\":990:995   */\n      dup2\n        /* \"#utility.yul\":987:1022   */\n      eq\n        /* \"#utility.yul\":977:1040   */\n      tag_157\n      jumpi\n        /* \"#utility.yul\":1036:1037   */\n      0x00\n        /* \"#utility.yul\":1033:1034   */\n      dup1\n        /* \"#utility.yul\":1026:1038   */\n      revert\n        /* \"#utility.yul\":977:1040   */\n    tag_157:\n        /* \"#utility.yul\":924:1046   */\n      pop\n      jump\t// out\n        /* \"#utility.yul\":1052:1191   */\n    tag_91:\n        /* \"#utility.yul\":1098:1103   */\n      0x00\n        /* \"#utility.yul\":1136:1142   */\n      dup2\n        /* \"#utility.yul\":1123:1143   */\n      calldataload\n        /* \"#utility.yul\":1114:1143   */\n      swap1\n      pop\n        /* \"#utility.yul\":1152:1185   */\n      tag_159\n        /* \"#utility.yul\":1179:1184   */\n      dup2\n        /* \"#utility.yul\":1152:1185   */\n      tag_90\n      jump\t// in\n    tag_159:\n        /* \"#utility.yul\":1052:1191   */\n      swap3\n      swap2\n      pop\n      pop\n      jump\t// out\n        /* \"#utility.yul\":1197:1671   */\n    tag_13:\n        /* \"#utility.yul\":1265:1271   */\n      0x00\n        /* \"#utility.yul\":1273:1279   */\n      dup1\n        /* \"#utility.yul\":1322:1324   */\n      0x40\n        /* \"#utility.yul\":1310:1319   */\n      dup4\n        /* \"#utility.yul\":1301:1308   */\n      dup6\n        /* \"#utility.yul\":1297:1320   */\n      sub\n        /* \"#utility.yul\":1293:1325   */\n      slt\n        /* \"#utility.yul\":1290:1409   */\n      iszero\n      tag_161\n      jumpi\n        /* \"#utility.yul\":1328:1407   */\n      tag_162\n      tag_83\n      jump\t// in\n    tag_162:\n        /* \"#utility.yul\":1290:1409   */\n    tag_161:\n        /* \"#utility.yul\":1448:1449   */\n      0x00\n        /* \"#utility.yul\":1473:1526   */\n      tag_163\n        /* \"#utility.yul\":1518:1525   */\n      dup6\n        /* \"#utility.yul\":1509:1515   */\n      dup3\n        /* \"#utility.yul\":1498:1507   */\n      dup7\n        /* \"#utility.yul\":1494:1516   */\n      add\n        /* \"#utility.yul\":1473:1526   */\n      tag_88\n      jump\t// in\n    tag_163:\n        /* \"#utility.yul\":1463:1526   */\n      swap3\n      pop\n        /* \"#utility.yul\":1419:1536   */\n      pop\n        /* \"#utility.yul\":1575:1577   */\n      0x20\n        /* \"#utility.yul\":1601:1654   */\n      tag_164\n        /* \"#utility.yul\":1646:1653   */\n      dup6\n        /* \"#utility.yul\":1637:1643   */\n      dup3\n        /* \"#utility.yul\":1626:1635   */\n      dup7\n        /* \"#utility.yul\":1622:1644   */\n      add\n        /* \"#utility.yul\":1601:1654   */\n      tag_91\n      jump\t// in\n    tag_164:\n        /* \"#utility.yul\":1591:1654   */\n      swap2\n      pop\n        /* \"#utility.yul\":1546:1664   */\n      pop\n        /* \"#utility.yul\":1197:1671   */\n      swap3\n      pop\n      swap3\n      swap1\n      pop\n      jump\t// out\n        /* \"#utility.yul\":1677:1795   */\n    tag_92:\n        /* \"#utility.yul\":1764:1788   */\n      tag_166\n        /* \"#utility.yul\":1782:1787   */\n      dup2\n        /* \"#utility.yul\":1764:1788   */\n      tag_86\n      jump\t// in\n    tag_166:\n        /* \"#utility.yul\":1759:1762   */\n      dup3\n        /* \"#utility.yul\":1752:1789   */\n      mstore\n        /* \"#utility.yul\":1677:1795   */\n      pop\n      pop\n      jump\t// out\n        /* \"#utility.yul\":1801:1900   */\n    tag_93:\n        /* \"#utility.yul\":1853:1859   */\n      0x00\n        /* \"#utility.yul\":1887:1892   */\n      dup2\n        /* \"#utility.yul\":1881:1893   */\n      mload\n        /* \"#utility.yul\":1871:1893   */\n      swap1\n      pop\n        /* \"#utility.yul\":1801:1900   */\n      swap2\n      swap1\n      pop\n      jump\t// out\n        /* \"#utility.yul\":1906:2075   */\n    tag_94:\n        /* \"#utility.yul\":1990:2001   */\n      0x00\n        /* \"#utility.yul\":2024:2030   */\n      dup3\n        /* \"#utility.yul\":2019:2022   */\n      dup3\n        /* \"#utility.yul\":2012:2031   */\n      mstore\n        /* \"#utility.yul\":2064:2068   */\n      0x20\n        /* \"#utility.yul\":2059:2062   */\n      dup3\n        /* \"#utility.yul\":2055:2069   */\n      add\n        /* \"#utility.yul\":2040:2069   */\n      swap1\n      pop\n        /* \"#utility.yul\":1906:2075   */\n      swap3\n      swap2\n      pop\n      pop\n      jump\t// out\n        /* \"#utility.yul\":2081:2327   */\n    tag_95:\n        /* \"#utility.yul\":2162:2163   */\n      0x00\n        /* \"#utility.yul\":2172:2285   */\n    tag_170:\n        /* \"#utility.yul\":2186:2192   */\n      dup4\n        /* \"#utility.yul\":2183:2184   */\n      dup2\n        /* \"#utility.yul\":2180:2193   */\n      lt\n        /* \"#utility.yul\":2172:2285   */\n      iszero\n      tag_172\n      jumpi\n        /* \"#utility.yul\":2271:2272   */\n      dup1\n        /* \"#utility.yul\":2266:2269   */\n      dup3\n        /* \"#utility.yul\":2262:2273   */\n      add\n        /* \"#utility.yul\":2256:2274   */\n      mload\n        /* \"#utility.yul\":2252:2253   */\n      dup2\n        /* \"#utility.yul\":2247:2250   */\n      dup5\n        /* \"#utility.yul\":2243:2254   */\n      add\n        /* \"#utility.yul\":2236:2275   */\n      mstore\n        /* \"#utility.yul\":2208:2210   */\n      0x20\n        /* \"#utility.yul\":2205:2206   */\n      dup2\n        /* \"#utility.yul\":2201:2211   */\n      add\n        /* \"#utility.yul\":2196:2211   */\n      swap1\n      pop\n        /* \"#utility.yul\":2172:2285   */\n      jump(tag_170)\n    tag_172:\n        /* \"#utility.yul\":2319:2320   */\n      0x00\n        /* \"#utility.yul\":2310:2316   */\n      dup5\n        /* \"#utility.yul\":2305:2308   */\n      dup5\n        /* \"#utility.yul\":2301:2317   */\n      add\n        /* \"#utility.yul\":2294:2321   */\n      mstore\n        /* \"#utility.yul\":2143:2327   */\n      pop\n        /* \"#utility.yul\":2081:2327   */\n      pop\n      pop\n      pop\n      jump\t// out\n        /* \"#utility.yul\":2333:2435   */\n    tag_96:\n        /* \"#utility.yul\":2374:2380   */\n      0x00\n        /* \"#utility.yul\":2425:2427   */\n      0x1f\n        /* \"#utility.yul\":2421:2428   */\n      not\n        /* \"#utility.yul\":2416:2418   */\n      0x1f\n        /* \"#utility.yul\":2409:2414   */\n      dup4\n        /* \"#utility.yul\":2405:2419   */\n      add\n        /* \"#utility.yul\":2401:2429   */\n      and\n        /* \"#utility.yul\":2391:2429   */\n      swap1\n      pop\n        /* \"#utility.yul\":2333:2435   */\n      swap2\n      swap1\n      pop\n      jump\t// out\n        /* \"#utility.yul\":2441:2818   */\n    tag_97:\n        /* \"#utility.yul\":2529:2532   */\n      0x00\n        /* \"#utility.yul\":2557:2596   */\n      tag_175\n        /* \"#utility.yul\":2590:2595   */\n      dup3\n        /* \"#utility.yul\":2557:2596   */\n      tag_93\n      jump\t// in\n    tag_175:\n        /* \"#utility.yul\":2612:2683   */\n      tag_176\n        /* \"#utility.yul\":2676:2682   */\n      dup2\n        /* \"#utility.yul\":2671:2674   */\n      dup6\n        /* \"#utility.yul\":2612:2683   */\n      tag_94\n      jump\t// in\n    tag_176:\n        /* \"#utility.yul\":2605:2683   */\n      swap4\n      pop\n        /* \"#utility.yul\":2692:2757   */\n      tag_177\n        /* \"#utility.yul\":2750:2756   */\n      dup2\n        /* \"#utility.yul\":2745:2748   */\n      dup6\n        /* \"#utility.yul\":2738:2742   */\n      0x20\n        /* \"#utility.yul\":2731:2736   */\n      dup7\n        /* \"#utility.yul\":2727:2743   */\n      add\n        /* \"#utility.yul\":2692:2757   */\n      tag_95\n      jump\t// in\n    tag_177:\n        /* \"#utility.yul\":2782:2811   */\n      tag_178\n        /* \"#utility.yul\":2804:2810   */\n      dup2\n        /* \"#utility.yul\":2782:2811   */\n      tag_96\n      jump\t// in\n    tag_178:\n        /* \"#utility.yul\":2777:2780   */\n      dup5\n        /* \"#utility.yul\":2773:2812   */\n      add\n        /* \"#utility.yul\":2766:2812   */\n      swap2\n      pop\n        /* \"#utility.yul\":2533:2818   */\n      pop\n        /* \"#utility.yul\":2441:2818   */\n      swap3\n      swap2\n      pop\n      pop\n      jump\t// out\n        /* \"#utility.yul\":2824:2942   */\n    tag_98:\n        /* \"#utility.yul\":2911:2935   */\n      tag_180\n        /* \"#utility.yul\":2929:2934   */\n      dup2\n        /* \"#utility.yul\":2911:2935   */\n      tag_89\n      jump\t// in\n    tag_180:\n        /* \"#utility.yul\":2906:2909   */\n      dup3\n        /* \"#utility.yul\":2899:2936   */\n      mstore\n        /* \"#utility.yul\":2824:2942   */\n      pop\n      pop\n      jump\t// out\n        /* \"#utility.yul\":2948:3592   */\n    tag_16:\n        /* \"#utility.yul\":3145:3149   */\n      0x00\n        /* \"#utility.yul\":3183:3186   */\n      0x80\n        /* \"#utility.yul\":3172:3181   */\n      dup3\n        /* \"#utility.yul\":3168:3187   */\n      add\n        /* \"#utility.yul\":3160:3187   */\n      swap1\n      pop\n        /* \"#utility.yul\":3197:3268   */\n      tag_182\n        /* \"#utility.yul\":3265:3266   */\n      0x00\n        /* \"#utility.yul\":3254:3263   */\n      dup4\n        /* \"#utility.yul\":3250:3267   */\n      add\n        /* \"#utility.yul\":3241:3247   */\n      dup8\n        /* \"#utility.yul\":3197:3268   */\n      tag_92\n      jump\t// in\n    tag_182:\n        /* \"#utility.yul\":3315:3324   */\n      dup2\n        /* \"#utility.yul\":3309:3313   */\n      dup2\n        /* \"#utility.yul\":3305:3325   */\n      sub\n        /* \"#utility.yul\":3300:3302   */\n      0x20\n        /* \"#utility.yul\":3289:3298   */\n      dup4\n        /* \"#utility.yul\":3285:3303   */\n      add\n        /* \"#utility.yul\":3278:3326   */\n      mstore\n        /* \"#utility.yul\":3343:3421   */\n      tag_183\n        /* \"#utility.yul\":3416:3420   */\n      dup2\n        /* \"#utility.yul\":3407:3413   */\n      dup7\n        /* \"#utility.yul\":3343:3421   */\n      tag_97\n      jump\t// in\n    tag_183:\n        /* \"#utility.yul\":3335:3421   */\n      swap1\n      pop\n        /* \"#utility.yul\":3431:3503   */\n      tag_184\n        /* \"#utility.yul\":3499:3501   */\n      0x40\n        /* \"#utility.yul\":3488:3497   */\n      dup4\n        /* \"#utility.yul\":3484:3502   */\n      add\n        /* \"#utility.yul\":3475:3481   */\n      dup6\n        /* \"#utility.yul\":3431:3503   */\n      tag_98\n      jump\t// in\n    tag_184:\n        /* \"#utility.yul\":3513:3585   */\n      tag_185\n        /* \"#utility.yul\":3581:3583   */\n      0x60\n        /* \"#utility.yul\":3570:3579   */\n      dup4\n        /* \"#utility.yul\":3566:3584   */\n      add\n        /* \"#utility.yul\":3557:3563   */\n      dup5\n        /* \"#utility.yul\":3513:3585   */\n      tag_98\n      jump\t// in\n    tag_185:\n        /* \"#utility.yul\":2948:3592   */\n      swap6\n      swap5\n      pop\n      pop\n      pop\n      pop\n      pop\n      jump\t// out\n        /* \"#utility.yul\":3598:3927   */\n    tag_19:\n        /* \"#utility.yul\":3657:3663   */\n      0x00\n        /* \"#utility.yul\":3706:3708   */\n      0x20\n        /* \"#utility.yul\":3694:3703   */\n      dup3\n        /* \"#utility.yul\":3685:3692   */\n      dup5\n        /* \"#utility.yul\":3681:3704   */\n      sub\n        /* \"#utility.yul\":3677:3709   */\n      slt\n        /* \"#utility.yul\":3674:3793   */\n      iszero\n      tag_187\n      jumpi\n        /* \"#utility.yul\":3712:3791   */\n      tag_188\n      tag_83\n      jump\t// in\n    tag_188:\n        /* \"#utility.yul\":3674:3793   */\n    tag_187:\n        /* \"#utility.yul\":3832:3833   */\n      0x00\n        /* \"#utility.yul\":3857:3910   */\n      tag_189\n        /* \"#utility.yul\":3902:3909   */\n      dup5\n        /* \"#utility.yul\":3893:3899   */\n      dup3\n        /* \"#utility.yul\":3882:3891   */\n      dup6\n        /* \"#utility.yul\":3878:3900   */\n      add\n        /* \"#utility.yul\":3857:3910   */\n      tag_88\n      jump\t// in\n    tag_189:\n        /* \"#utility.yul\":3847:3910   */\n      swap2\n      pop\n        /* \"#utility.yul\":3803:3920   */\n      pop\n        /* \"#utility.yul\":3598:3927   */\n      swap3\n      swap2\n      pop\n      pop\n      jump\t// out\n        /* \"#utility.yul\":3933:4068   */\n    tag_99:\n        /* \"#utility.yul\":4021:4027   */\n      0x00\n        /* \"#utility.yul\":4055:4060   */\n      dup2\n        /* \"#utility.yul\":4049:4061   */\n      mload\n        /* \"#utility.yul\":4039:4061   */\n      swap1\n      pop\n        /* \"#utility.yul\":3933:4068   */\n      swap2\n      swap1\n      pop\n      jump\t// out\n        /* \"#utility.yul\":4074:4279   */\n    tag_100:\n        /* \"#utility.yul\":4194:4205   */\n      0x00\n        /* \"#utility.yul\":4228:4234   */\n      dup3\n        /* \"#utility.yul\":4223:4226   */\n      dup3\n        /* \"#utility.yul\":4216:4235   */\n      mstore\n        /* \"#utility.yul\":4268:4272   */\n      0x20\n        /* \"#utility.yul\":4263:4266   */\n      dup3\n        /* \"#utility.yul\":4259:4273   */\n      add\n        /* \"#utility.yul\":4244:4273   */\n      swap1\n      pop\n        /* \"#utility.yul\":4074:4279   */\n      swap3\n      swap2\n      pop\n      pop\n      jump\t// out\n        /* \"#utility.yul\":4285:4438   */\n    tag_101:\n        /* \"#utility.yul\":4373:4377   */\n      0x00\n        /* \"#utility.yul\":4396:4399   */\n      dup2\n        /* \"#utility.yul\":4388:4399   */\n      swap1\n      pop\n        /* \"#utility.yul\":4426:4430   */\n      0x20\n        /* \"#utility.yul\":4421:4424   */\n      dup3\n        /* \"#utility.yul\":4417:4431   */\n      add\n        /* \"#utility.yul\":4409:4431   */\n      swap1\n      pop\n        /* \"#utility.yul\":4285:4438   */\n      swap2\n      swap1\n      pop\n      jump\t// out\n        /* \"#utility.yul\":4444:4552   */\n    tag_102:\n        /* \"#utility.yul\":4521:4545   */\n      tag_194\n        /* \"#utility.yul\":4539:4544   */\n      dup2\n        /* \"#utility.yul\":4521:4545   */\n      tag_86\n      jump\t// in\n    tag_194:\n        /* \"#utility.yul\":4516:4519   */\n      dup3\n        /* \"#utility.yul\":4509:4546   */\n      mstore\n        /* \"#utility.yul\":4444:4552   */\n      pop\n      pop\n      jump\t// out\n        /* \"#utility.yul\":4558:4717   */\n    tag_103:\n        /* \"#utility.yul\":4632:4643   */\n      0x00\n        /* \"#utility.yul\":4666:4672   */\n      dup3\n        /* \"#utility.yul\":4661:4664   */\n      dup3\n        /* \"#utility.yul\":4654:4673   */\n      mstore\n        /* \"#utility.yul\":4706:4710   */\n      0x20\n        /* \"#utility.yul\":4701:4704   */\n      dup3\n        /* \"#utility.yul\":4697:4711   */\n      add\n        /* \"#utility.yul\":4682:4711   */\n      swap1\n      pop\n        /* \"#utility.yul\":4558:4717   */\n      swap3\n      swap2\n      pop\n      pop\n      jump\t// out\n        /* \"#utility.yul\":4723:5080   */\n    tag_104:\n        /* \"#utility.yul\":4801:4804   */\n      0x00\n        /* \"#utility.yul\":4829:4868   */\n      tag_197\n        /* \"#utility.yul\":4862:4867   */\n      dup3\n        /* \"#utility.yul\":4829:4868   */\n      tag_93\n      jump\t// in\n    tag_197:\n        /* \"#utility.yul\":4884:4945   */\n      tag_198\n        /* \"#utility.yul\":4938:4944   */\n      dup2\n        /* \"#utility.yul\":4933:4936   */\n      dup6\n        /* \"#utility.yul\":4884:4945   */\n      tag_103\n      jump\t// in\n    tag_198:\n        /* \"#utility.yul\":4877:4945   */\n      swap4\n      pop\n        /* \"#utility.yul\":4954:5019   */\n      tag_199\n        /* \"#utility.yul\":5012:5018   */\n      dup2\n        /* \"#utility.yul\":5007:5010   */\n      dup6\n        /* \"#utility.yul\":5000:5004   */\n      0x20\n        /* \"#utility.yul\":4993:4998   */\n      dup7\n        /* \"#utility.yul\":4989:5005   */\n      add\n        /* \"#utility.yul\":4954:5019   */\n      tag_95\n      jump\t// in\n    tag_199:\n        /* \"#utility.yul\":5044:5073   */\n      tag_200\n        /* \"#utility.yul\":5066:5072   */\n      dup2\n        /* \"#utility.yul\":5044:5073   */\n      tag_96\n      jump\t// in\n    tag_200:\n        /* \"#utility.yul\":5039:5042   */\n      dup5\n        /* \"#utility.yul\":5035:5074   */\n      add\n        /* \"#utility.yul\":5028:5074   */\n      swap2\n      pop\n        /* \"#utility.yul\":4805:5080   */\n      pop\n        /* \"#utility.yul\":4723:5080   */\n      swap3\n      swap2\n      pop\n      pop\n      jump\t// out\n        /* \"#utility.yul\":5086:5194   */\n    tag_105:\n        /* \"#utility.yul\":5163:5187   */\n      tag_202\n        /* \"#utility.yul\":5181:5186   */\n      dup2\n        /* \"#utility.yul\":5163:5187   */\n      tag_89\n      jump\t// in\n    tag_202:\n        /* \"#utility.yul\":5158:5161   */\n      dup3\n        /* \"#utility.yul\":5151:5188   */\n      mstore\n        /* \"#utility.yul\":5086:5194   */\n      pop\n      pop\n      jump\t// out\n        /* \"#utility.yul\":5252:6199   */\n    tag_106:\n        /* \"#utility.yul\":5353:5356   */\n      0x00\n        /* \"#utility.yul\":5389:5393   */\n      0x80\n        /* \"#utility.yul\":5384:5387   */\n      dup4\n        /* \"#utility.yul\":5380:5394   */\n      add\n        /* \"#utility.yul\":5478:5482   */\n      0x00\n        /* \"#utility.yul\":5471:5476   */\n      dup4\n        /* \"#utility.yul\":5467:5483   */\n      add\n        /* \"#utility.yul\":5461:5484   */\n      mload\n        /* \"#utility.yul\":5497:5560   */\n      tag_204\n        /* \"#utility.yul\":5554:5558   */\n      0x00\n        /* \"#utility.yul\":5549:5552   */\n      dup7\n        /* \"#utility.yul\":5545:5559   */\n      add\n        /* \"#utility.yul\":5531:5543   */\n      dup3\n        /* \"#utility.yul\":5497:5560   */\n      tag_102\n      jump\t// in\n    tag_204:\n        /* \"#utility.yul\":5404:5570   */\n      pop\n        /* \"#utility.yul\":5655:5659   */\n      0x20\n        /* \"#utility.yul\":5648:5653   */\n      dup4\n        /* \"#utility.yul\":5644:5660   */\n      add\n        /* \"#utility.yul\":5638:5661   */\n      mload\n        /* \"#utility.yul\":5708:5711   */\n      dup5\n        /* \"#utility.yul\":5702:5706   */\n      dup3\n        /* \"#utility.yul\":5698:5712   */\n      sub\n        /* \"#utility.yul\":5691:5695   */\n      0x20\n        /* \"#utility.yul\":5686:5689   */\n      dup7\n        /* \"#utility.yul\":5682:5696   */\n      add\n        /* \"#utility.yul\":5675:5713   */\n      mstore\n        /* \"#utility.yul\":5734:5807   */\n      tag_205\n        /* \"#utility.yul\":5802:5806   */\n      dup3\n        /* \"#utility.yul\":5788:5800   */\n      dup3\n        /* \"#utility.yul\":5734:5807   */\n      tag_104\n      jump\t// in\n    tag_205:\n        /* \"#utility.yul\":5726:5807   */\n      swap2\n      pop\n        /* \"#utility.yul\":5580:5818   */\n      pop\n        /* \"#utility.yul\":5905:5909   */\n      0x40\n        /* \"#utility.yul\":5898:5903   */\n      dup4\n        /* \"#utility.yul\":5894:5910   */\n      add\n        /* \"#utility.yul\":5888:5911   */\n      mload\n        /* \"#utility.yul\":5924:5987   */\n      tag_206\n        /* \"#utility.yul\":5981:5985   */\n      0x40\n        /* \"#utility.yul\":5976:5979   */\n      dup7\n        /* \"#utility.yul\":5972:5986   */\n      add\n        /* \"#utility.yul\":5958:5970   */\n      dup3\n        /* \"#utility.yul\":5924:5987   */\n      tag_105\n      jump\t// in\n    tag_206:\n        /* \"#utility.yul\":5828:5997   */\n      pop\n        /* \"#utility.yul\":6080:6084   */\n      0x60\n        /* \"#utility.yul\":6073:6078   */\n      dup4\n        /* \"#utility.yul\":6069:6085   */\n      add\n        /* \"#utility.yul\":6063:6086   */\n      mload\n        /* \"#utility.yul\":6099:6162   */\n      tag_207\n        /* \"#utility.yul\":6156:6160   */\n      0x60\n        /* \"#utility.yul\":6151:6154   */\n      dup7\n        /* \"#utility.yul\":6147:6161   */\n      add\n        /* \"#utility.yul\":6133:6145   */\n      dup3\n        /* \"#utility.yul\":6099:6162   */\n      tag_105\n      jump\t// in\n    tag_207:\n        /* \"#utility.yul\":6007:6172   */\n      pop\n        /* \"#utility.yul\":6189:6193   */\n      dup1\n        /* \"#utility.yul\":6182:6193   */\n      swap2\n      pop\n        /* \"#utility.yul\":5358:6199   */\n      pop\n        /* \"#utility.yul\":5252:6199   */\n      swap3\n      swap2\n      pop\n      pop\n      jump\t// out\n        /* \"#utility.yul\":6205:6445   */\n    tag_107:\n        /* \"#utility.yul\":6316:6326   */\n      0x00\n        /* \"#utility.yul\":6351:6439   */\n      tag_209\n        /* \"#utility.yul\":6435:6438   */\n      dup4\n        /* \"#utility.yul\":6427:6433   */\n      dup4\n        /* \"#utility.yul\":6351:6439   */\n      tag_106\n      jump\t// in\n    tag_209:\n        /* \"#utility.yul\":6337:6439   */\n      swap1\n      pop\n        /* \"#utility.yul\":6205:6445   */\n      swap3\n      swap2\n      pop\n      pop\n      jump\t// out\n        /* \"#utility.yul\":6451:6585   */\n    tag_108:\n        /* \"#utility.yul\":6542:6546   */\n      0x00\n        /* \"#utility.yul\":6574:6578   */\n      0x20\n        /* \"#utility.yul\":6569:6572   */\n      dup3\n        /* \"#utility.yul\":6565:6579   */\n      add\n        /* \"#utility.yul\":6557:6579   */\n      swap1\n      pop\n        /* \"#utility.yul\":6451:6585   */\n      swap2\n      swap1\n      pop\n      jump\t// out\n        /* \"#utility.yul\":6647:7726   */\n    tag_109:\n        /* \"#utility.yul\":6808:6811   */\n      0x00\n        /* \"#utility.yul\":6837:6912   */\n      tag_212\n        /* \"#utility.yul\":6906:6911   */\n      dup3\n        /* \"#utility.yul\":6837:6912   */\n      tag_99\n      jump\t// in\n    tag_212:\n        /* \"#utility.yul\":6928:7035   */\n      tag_213\n        /* \"#utility.yul\":7028:7034   */\n      dup2\n        /* \"#utility.yul\":7023:7026   */\n      dup6\n        /* \"#utility.yul\":6928:7035   */\n      tag_100\n      jump\t// in\n    tag_213:\n        /* \"#utility.yul\":6921:7035   */\n      swap4\n      pop\n        /* \"#utility.yul\":7061:7064   */\n      dup4\n        /* \"#utility.yul\":7106:7110   */\n      0x20\n        /* \"#utility.yul\":7098:7104   */\n      dup3\n        /* \"#utility.yul\":7094:7111   */\n      mul\n        /* \"#utility.yul\":7089:7092   */\n      dup6\n        /* \"#utility.yul\":7085:7112   */\n      add\n        /* \"#utility.yul\":7136:7213   */\n      tag_214\n        /* \"#utility.yul\":7207:7212   */\n      dup6\n        /* \"#utility.yul\":7136:7213   */\n      tag_101\n      jump\t// in\n    tag_214:\n        /* \"#utility.yul\":7236:7243   */\n      dup1\n        /* \"#utility.yul\":7267:7268   */\n      0x00\n        /* \"#utility.yul\":7252:7681   */\n    tag_215:\n        /* \"#utility.yul\":7277:7283   */\n      dup6\n        /* \"#utility.yul\":7274:7275   */\n      dup2\n        /* \"#utility.yul\":7271:7284   */\n      lt\n        /* \"#utility.yul\":7252:7681   */\n      iszero\n      tag_217\n      jumpi\n        /* \"#utility.yul\":7348:7357   */\n      dup5\n        /* \"#utility.yul\":7342:7346   */\n      dup5\n        /* \"#utility.yul\":7338:7358   */\n      sub\n        /* \"#utility.yul\":7333:7336   */\n      dup10\n        /* \"#utility.yul\":7326:7359   */\n      mstore\n        /* \"#utility.yul\":7399:7405   */\n      dup2\n        /* \"#utility.yul\":7393:7406   */\n      mload\n        /* \"#utility.yul\":7427:7533   */\n      tag_218\n        /* \"#utility.yul\":7528:7532   */\n      dup6\n        /* \"#utility.yul\":7513:7526   */\n      dup3\n        /* \"#utility.yul\":7427:7533   */\n      tag_107\n      jump\t// in\n    tag_218:\n        /* \"#utility.yul\":7419:7533   */\n      swap5\n      pop\n        /* \"#utility.yul\":7556:7637   */\n      tag_219\n        /* \"#utility.yul\":7630:7636   */\n      dup4\n        /* \"#utility.yul\":7556:7637   */\n      tag_108\n      jump\t// in\n    tag_219:\n        /* \"#utility.yul\":7546:7637   */\n      swap3\n      pop\n        /* \"#utility.yul\":7666:7670   */\n      0x20\n        /* \"#utility.yul\":7661:7664   */\n      dup11\n        /* \"#utility.yul\":7657:7671   */\n      add\n        /* \"#utility.yul\":7650:7671   */\n      swap10\n      pop\n        /* \"#utility.yul\":7312:7681   */\n      pop\n        /* \"#utility.yul\":7299:7300   */\n      0x01\n        /* \"#utility.yul\":7296:7297   */\n      dup2\n        /* \"#utility.yul\":7292:7301   */\n      add\n        /* \"#utility.yul\":7287:7301   */\n      swap1\n      pop\n        /* \"#utility.yul\":7252:7681   */\n      jump(tag_215)\n    tag_217:\n        /* \"#utility.yul\":7256:7270   */\n      pop\n        /* \"#utility.yul\":7697:7701   */\n      dup3\n        /* \"#utility.yul\":7690:7701   */\n      swap8\n      pop\n        /* \"#utility.yul\":7717:7720   */\n      dup8\n        /* \"#utility.yul\":7710:7720   */\n      swap6\n      pop\n        /* \"#utility.yul\":6813:7726   */\n      pop\n      pop\n      pop\n      pop\n      pop\n        /* \"#utility.yul\":6647:7726   */\n      swap3\n      swap2\n      pop\n      pop\n      jump\t// out\n        /* \"#utility.yul\":7732:8189   */\n    tag_22:\n        /* \"#utility.yul\":7917:7921   */\n      0x00\n        /* \"#utility.yul\":7955:7957   */\n      0x20\n        /* \"#utility.yul\":7944:7953   */\n      dup3\n        /* \"#utility.yul\":7940:7958   */\n      add\n        /* \"#utility.yul\":7932:7958   */\n      swap1\n      pop\n        /* \"#utility.yul\":8004:8013   */\n      dup2\n        /* \"#utility.yul\":7998:8002   */\n      dup2\n        /* \"#utility.yul\":7994:8014   */\n      sub\n        /* \"#utility.yul\":7990:7991   */\n      0x00\n        /* \"#utility.yul\":7979:7988   */\n      dup4\n        /* \"#utility.yul\":7975:7992   */\n      add\n        /* \"#utility.yul\":7968:8015   */\n      mstore\n        /* \"#utility.yul\":8032:8182   */\n      tag_221\n        /* \"#utility.yul\":8177:8181   */\n      dup2\n        /* \"#utility.yul\":8168:8174   */\n      dup5\n        /* \"#utility.yul\":8032:8182   */\n      tag_109\n      jump\t// in\n    tag_221:\n        /* \"#utility.yul\":8024:8182   */\n      swap1\n      pop\n        /* \"#utility.yul\":7732:8189   */\n      swap3\n      swap2\n      pop\n      pop\n      jump\t// out\n        /* \"#utility.yul\":8195:8284   */\n    tag_110:\n        /* \"#utility.yul\":8231:8238   */\n      0x00\n        /* \"#utility.yul\":8271:8277   */\n      0xffff\n        /* \"#utility.yul\":8264:8269   */\n      dup3\n        /* \"#utility.yul\":8260:8278   */\n      and\n        /* \"#utility.yul\":8249:8278   */\n      swap1\n      pop\n        /* \"#utility.yul\":8195:8284   */\n      swap2\n      swap1\n      pop\n      jump\t// out\n        /* \"#utility.yul\":8290:8410   */\n    tag_111:\n        /* \"#utility.yul\":8362:8385   */\n      tag_224\n        /* \"#utility.yul\":8379:8384   */\n      dup2\n        /* \"#utility.yul\":8362:8385   */\n      tag_110\n      jump\t// in\n    tag_224:\n        /* \"#utility.yul\":8355:8360   */\n      dup2\n        /* \"#utility.yul\":8352:8386   */\n      eq\n        /* \"#utility.yul\":8342:8404   */\n      tag_225\n      jumpi\n        /* \"#utility.yul\":8400:8401   */\n      0x00\n        /* \"#utility.yul\":8397:8398   */\n      dup1\n        /* \"#utility.yul\":8390:8402   */\n      revert\n        /* \"#utility.yul\":8342:8404   */\n    tag_225:\n        /* \"#utility.yul\":8290:8410   */\n      pop\n      jump\t// out\n        /* \"#utility.yul\":8416:8553   */\n    tag_112:\n        /* \"#utility.yul\":8461:8466   */\n      0x00\n        /* \"#utility.yul\":8499:8505   */\n      dup2\n        /* \"#utility.yul\":8486:8506   */\n      calldataload\n        /* \"#utility.yul\":8477:8506   */\n      swap1\n      pop\n        /* \"#utility.yul\":8515:8547   */\n      tag_227\n        /* \"#utility.yul\":8541:8546   */\n      dup2\n        /* \"#utility.yul\":8515:8547   */\n      tag_111\n      jump\t// in\n    tag_227:\n        /* \"#utility.yul\":8416:8553   */\n      swap3\n      swap2\n      pop\n      pop\n      jump\t// out\n        /* \"#utility.yul\":8559:8886   */\n    tag_25:\n        /* \"#utility.yul\":8617:8623   */\n      0x00\n        /* \"#utility.yul\":8666:8668   */\n      0x20\n        /* \"#utility.yul\":8654:8663   */\n      dup3\n        /* \"#utility.yul\":8645:8652   */\n      dup5\n        /* \"#utility.yul\":8641:8664   */\n      sub\n        /* \"#utility.yul\":8637:8669   */\n      slt\n        /* \"#utility.yul\":8634:8753   */\n      iszero\n      tag_229\n      jumpi\n        /* \"#utility.yul\":8672:8751   */\n      tag_230\n      tag_83\n      jump\t// in\n    tag_230:\n        /* \"#utility.yul\":8634:8753   */\n    tag_229:\n        /* \"#utility.yul\":8792:8793   */\n      0x00\n        /* \"#utility.yul\":8817:8869   */\n      tag_231\n        /* \"#utility.yul\":8861:8868   */\n      dup5\n        /* \"#utility.yul\":8852:8858   */\n      dup3\n        /* \"#utility.yul\":8841:8850   */\n      dup6\n        /* \"#utility.yul\":8837:8859   */\n      add\n        /* \"#utility.yul\":8817:8869   */\n      tag_112\n      jump\t// in\n    tag_231:\n        /* \"#utility.yul\":8807:8869   */\n      swap2\n      pop\n        /* \"#utility.yul\":8763:8879   */\n      pop\n        /* \"#utility.yul\":8559:8886   */\n      swap3\n      swap2\n      pop\n      pop\n      jump\t// out\n        /* \"#utility.yul\":8892:9007   */\n    tag_113:\n        /* \"#utility.yul\":8977:9000   */\n      tag_233\n        /* \"#utility.yul\":8994:8999   */\n      dup2\n        /* \"#utility.yul\":8977:9000   */\n      tag_110\n      jump\t// in\n    tag_233:\n        /* \"#utility.yul\":8972:8975   */\n      dup3\n        /* \"#utility.yul\":8965:9001   */\n      mstore\n        /* \"#utility.yul\":8892:9007   */\n      pop\n      pop\n      jump\t// out\n        /* \"#utility.yul\":9013:9231   */\n    tag_30:\n        /* \"#utility.yul\":9104:9108   */\n      0x00\n        /* \"#utility.yul\":9142:9144   */\n      0x20\n        /* \"#utility.yul\":9131:9140   */\n      dup3\n        /* \"#utility.yul\":9127:9145   */\n      add\n        /* \"#utility.yul\":9119:9145   */\n      swap1\n      pop\n        /* \"#utility.yul\":9155:9224   */\n      tag_235\n        /* \"#utility.yul\":9221:9222   */\n      0x00\n        /* \"#utility.yul\":9210:9219   */\n      dup4\n        /* \"#utility.yul\":9206:9223   */\n      add\n        /* \"#utility.yul\":9197:9203   */\n      dup5\n        /* \"#utility.yul\":9155:9224   */\n      tag_113\n      jump\t// in\n    tag_235:\n        /* \"#utility.yul\":9013:9231   */\n      swap3\n      swap2\n      pop\n      pop\n      jump\t// out\n        /* \"#utility.yul\":9237:9354   */\n    tag_114:\n        /* \"#utility.yul\":9346:9347   */\n      0x00\n        /* \"#utility.yul\":9343:9344   */\n      dup1\n        /* \"#utility.yul\":9336:9348   */\n      revert\n        /* \"#utility.yul\":9360:9477   */\n    tag_115:\n        /* \"#utility.yul\":9469:9470   */\n      0x00\n        /* \"#utility.yul\":9466:9467   */\n      dup1\n        /* \"#utility.yul\":9459:9471   */\n      revert\n        /* \"#utility.yul\":9483:9663   */\n    tag_116:\n        /* \"#utility.yul\":9531:9608   */\n      0x4e487b7100000000000000000000000000000000000000000000000000000000\n        /* \"#utility.yul\":9528:9529   */\n      0x00\n        /* \"#utility.yul\":9521:9609   */\n      mstore\n        /* \"#utility.yul\":9628:9632   */\n      0x41\n        /* \"#utility.yul\":9625:9626   */\n      0x04\n        /* \"#utility.yul\":9618:9633   */\n      mstore\n        /* \"#utility.yul\":9652:9656   */\n      0x24\n        /* \"#utility.yul\":9649:9650   */\n      0x00\n        /* \"#utility.yul\":9642:9657   */\n      revert\n        /* \"#utility.yul\":9669:9950   */\n    tag_117:\n        /* \"#utility.yul\":9752:9779   */\n      tag_240\n        /* \"#utility.yul\":9774:9778   */\n      dup3\n        /* \"#utility.yul\":9752:9779   */\n      tag_96\n      jump\t// in\n    tag_240:\n        /* \"#utility.yul\":9744:9750   */\n      dup2\n        /* \"#utility.yul\":9740:9780   */\n      add\n        /* \"#utility.yul\":9882:9888   */\n      dup2\n        /* \"#utility.yul\":9870:9880   */\n      dup2\n        /* \"#utility.yul\":9867:9889   */\n      lt\n        /* \"#utility.yul\":9846:9864   */\n      0xffffffffffffffff\n        /* \"#utility.yul\":9834:9844   */\n      dup3\n        /* \"#utility.yul\":9831:9865   */\n      gt\n        /* \"#utility.yul\":9828:9890   */\n      or\n        /* \"#utility.yul\":9825:9913   */\n      iszero\n      tag_241\n      jumpi\n        /* \"#utility.yul\":9893:9911   */\n      tag_242\n      tag_116\n      jump\t// in\n    tag_242:\n        /* \"#utility.yul\":9825:9913   */\n    tag_241:\n        /* \"#utility.yul\":9933:9943   */\n      dup1\n        /* \"#utility.yul\":9929:9931   */\n      0x40\n        /* \"#utility.yul\":9922:9944   */\n      mstore\n        /* \"#utility.yul\":9712:9950   */\n      pop\n        /* \"#utility.yul\":9669:9950   */\n      pop\n      pop\n      jump\t// out\n        /* \"#utility.yul\":9956:10085   */\n    tag_118:\n        /* \"#utility.yul\":9990:9996   */\n      0x00\n        /* \"#utility.yul\":10017:10037   */\n      tag_244\n      tag_82\n      jump\t// in\n    tag_244:\n        /* \"#utility.yul\":10007:10037   */\n      swap1\n      pop\n        /* \"#utility.yul\":10046:10079   */\n      tag_245\n        /* \"#utility.yul\":10074:10078   */\n      dup3\n        /* \"#utility.yul\":10066:10072   */\n      dup3\n        /* \"#utility.yul\":10046:10079   */\n      tag_117\n      jump\t// in\n    tag_245:\n        /* \"#utility.yul\":9956:10085   */\n      swap2\n      swap1\n      pop\n      jump\t// out\n        /* \"#utility.yul\":10091:10399   */\n    tag_119:\n        /* \"#utility.yul\":10153:10157   */\n      0x00\n        /* \"#utility.yul\":10243:10261   */\n      0xffffffffffffffff\n        /* \"#utility.yul\":10235:10241   */\n      dup3\n        /* \"#utility.yul\":10232:10262   */\n      gt\n        /* \"#utility.yul\":10229:10285   */\n      iszero\n      tag_247\n      jumpi\n        /* \"#utility.yul\":10265:10283   */\n      tag_248\n      tag_116\n      jump\t// in\n    tag_248:\n        /* \"#utility.yul\":10229:10285   */\n    tag_247:\n        /* \"#utility.yul\":10303:10332   */\n      tag_249\n        /* \"#utility.yul\":10325:10331   */\n      dup3\n        /* \"#utility.yul\":10303:10332   */\n      tag_96\n      jump\t// in\n    tag_249:\n        /* \"#utility.yul\":10295:10332   */\n      swap1\n      pop\n        /* \"#utility.yul\":10387:10391   */\n      0x20\n        /* \"#utility.yul\":10381:10385   */\n      dup2\n        /* \"#utility.yul\":10377:10392   */\n      add\n        /* \"#utility.yul\":10369:10392   */\n      swap1\n      pop\n        /* \"#utility.yul\":10091:10399   */\n      swap2\n      swap1\n      pop\n      jump\t// out\n        /* \"#utility.yul\":10405:10551   */\n    tag_120:\n        /* \"#utility.yul\":10502:10508   */\n      dup3\n        /* \"#utility.yul\":10497:10500   */\n      dup2\n        /* \"#utility.yul\":10492:10495   */\n      dup4\n        /* \"#utility.yul\":10479:10509   */\n      calldatacopy\n        /* \"#utility.yul\":10543:10544   */\n      0x00\n        /* \"#utility.yul\":10534:10540   */\n      dup4\n        /* \"#utility.yul\":10529:10532   */\n      dup4\n        /* \"#utility.yul\":10525:10541   */\n      add\n        /* \"#utility.yul\":10518:10545   */\n      mstore\n        /* \"#utility.yul\":10405:10551   */\n      pop\n      pop\n      pop\n      jump\t// out\n        /* \"#utility.yul\":10557:10982   */\n    tag_121:\n        /* \"#utility.yul\":10635:10640   */\n      0x00\n        /* \"#utility.yul\":10660:10726   */\n      tag_252\n        /* \"#utility.yul\":10676:10725   */\n      tag_253\n        /* \"#utility.yul\":10718:10724   */\n      dup5\n        /* \"#utility.yul\":10676:10725   */\n      tag_119\n      jump\t// in\n    tag_253:\n        /* \"#utility.yul\":10660:10726   */\n      tag_118\n      jump\t// in\n    tag_252:\n        /* \"#utility.yul\":10651:10726   */\n      swap1\n      pop\n        /* \"#utility.yul\":10749:10755   */\n      dup3\n        /* \"#utility.yul\":10742:10747   */\n      dup2\n        /* \"#utility.yul\":10735:10756   */\n      mstore\n        /* \"#utility.yul\":10787:10791   */\n      0x20\n        /* \"#utility.yul\":10780:10785   */\n      dup2\n        /* \"#utility.yul\":10776:10792   */\n      add\n        /* \"#utility.yul\":10825:10828   */\n      dup5\n        /* \"#utility.yul\":10816:10822   */\n      dup5\n        /* \"#utility.yul\":10811:10814   */\n      dup5\n        /* \"#utility.yul\":10807:10823   */\n      add\n        /* \"#utility.yul\":10804:10829   */\n      gt\n        /* \"#utility.yul\":10801:10913   */\n      iszero\n      tag_254\n      jumpi\n        /* \"#utility.yul\":10832:10911   */\n      tag_255\n      tag_115\n      jump\t// in\n    tag_255:\n        /* \"#utility.yul\":10801:10913   */\n    tag_254:\n        /* \"#utility.yul\":10922:10976   */\n      tag_256\n        /* \"#utility.yul\":10969:10975   */\n      dup5\n        /* \"#utility.yul\":10964:10967   */\n      dup3\n        /* \"#utility.yul\":10959:10962   */\n      dup6\n        /* \"#utility.yul\":10922:10976   */\n      tag_120\n      jump\t// in\n    tag_256:\n        /* \"#utility.yul\":10641:10982   */\n      pop\n        /* \"#utility.yul\":10557:10982   */\n      swap4\n      swap3\n      pop\n      pop\n      pop\n      jump\t// out\n        /* \"#utility.yul\":11002:11342   */\n    tag_122:\n        /* \"#utility.yul\":11058:11063   */\n      0x00\n        /* \"#utility.yul\":11107:11110   */\n      dup3\n        /* \"#utility.yul\":11100:11104   */\n      0x1f\n        /* \"#utility.yul\":11092:11098   */\n      dup4\n        /* \"#utility.yul\":11088:11105   */\n      add\n        /* \"#utility.yul\":11084:11111   */\n      slt\n        /* \"#utility.yul\":11074:11196   */\n      tag_258\n      jumpi\n        /* \"#utility.yul\":11115:11194   */\n      tag_259\n      tag_114\n      jump\t// in\n    tag_259:\n        /* \"#utility.yul\":11074:11196   */\n    tag_258:\n        /* \"#utility.yul\":11232:11238   */\n      dup2\n        /* \"#utility.yul\":11219:11239   */\n      calldataload\n        /* \"#utility.yul\":11257:11336   */\n      tag_260\n        /* \"#utility.yul\":11332:11335   */\n      dup5\n        /* \"#utility.yul\":11324:11330   */\n      dup3\n        /* \"#utility.yul\":11317:11321   */\n      0x20\n        /* \"#utility.yul\":11309:11315   */\n      dup7\n        /* \"#utility.yul\":11305:11322   */\n      add\n        /* \"#utility.yul\":11257:11336   */\n      tag_121\n      jump\t// in\n    tag_260:\n        /* \"#utility.yul\":11248:11336   */\n      swap2\n      pop\n        /* \"#utility.yul\":11064:11342   */\n      pop\n        /* \"#utility.yul\":11002:11342   */\n      swap3\n      swap2\n      pop\n      pop\n      jump\t// out\n        /* \"#utility.yul\":11348:11857   */\n    tag_33:\n        /* \"#utility.yul\":11417:11423   */\n      0x00\n        /* \"#utility.yul\":11466:11468   */\n      0x20\n        /* \"#utility.yul\":11454:11463   */\n      dup3\n        /* \"#utility.yul\":11445:11452   */\n      dup5\n        /* \"#utility.yul\":11441:11464   */\n      sub\n        /* \"#utility.yul\":11437:11469   */\n      slt\n        /* \"#utility.yul\":11434:11553   */\n      iszero\n      tag_262\n      jumpi\n        /* \"#utility.yul\":11472:11551   */\n      tag_263\n      tag_83\n      jump\t// in\n    tag_263:\n        /* \"#utility.yul\":11434:11553   */\n    tag_262:\n        /* \"#utility.yul\":11620:11621   */\n      0x00\n        /* \"#utility.yul\":11609:11618   */\n      dup3\n        /* \"#utility.yul\":11605:11622   */\n      add\n        /* \"#utility.yul\":11592:11623   */\n      calldataload\n        /* \"#utility.yul\":11650:11668   */\n      0xffffffffffffffff\n        /* \"#utility.yul\":11642:11648   */\n      dup2\n        /* \"#utility.yul\":11639:11669   */\n      gt\n        /* \"#utility.yul\":11636:11753   */\n      iszero\n      tag_264\n      jumpi\n        /* \"#utility.yul\":11672:11751   */\n      tag_265\n      tag_84\n      jump\t// in\n    tag_265:\n        /* \"#utility.yul\":11636:11753   */\n    tag_264:\n        /* \"#utility.yul\":11777:11840   */\n      tag_266\n        /* \"#utility.yul\":11832:11839   */\n      dup5\n        /* \"#utility.yul\":11823:11829   */\n      dup3\n        /* \"#utility.yul\":11812:11821   */\n      dup6\n        /* \"#utility.yul\":11808:11830   */\n      add\n        /* \"#utility.yul\":11777:11840   */\n      tag_122\n      jump\t// in\n    tag_266:\n        /* \"#utility.yul\":11767:11840   */\n      swap2\n      pop\n        /* \"#utility.yul\":11563:11850   */\n      pop\n        /* \"#utility.yul\":11348:11857   */\n      swap3\n      swap2\n      pop\n      pop\n      jump\t// out\n        /* \"#utility.yul\":11863:12085   */\n    tag_38:\n        /* \"#utility.yul\":11956:11960   */\n      0x00\n        /* \"#utility.yul\":11994:11996   */\n      0x20\n        /* \"#utility.yul\":11983:11992   */\n      dup3\n        /* \"#utility.yul\":11979:11997   */\n      add\n        /* \"#utility.yul\":11971:11997   */\n      swap1\n      pop\n        /* \"#utility.yul\":12007:12078   */\n      tag_268\n        /* \"#utility.yul\":12075:12076   */\n      0x00\n        /* \"#utility.yul\":12064:12073   */\n      dup4\n        /* \"#utility.yul\":12060:12077   */\n      add\n        /* \"#utility.yul\":12051:12057   */\n      dup5\n        /* \"#utility.yul\":12007:12078   */\n      tag_92\n      jump\t// in\n    tag_268:\n        /* \"#utility.yul\":11863:12085   */\n      swap3\n      swap2\n      pop\n      pop\n      jump\t// out\n        /* \"#utility.yul\":12091:12420   */\n    tag_41:\n        /* \"#utility.yul\":12150:12156   */\n      0x00\n        /* \"#utility.yul\":12199:12201   */\n      0x20\n        /* \"#utility.yul\":12187:12196   */\n      dup3\n        /* \"#utility.yul\":12178:12185   */\n      dup5\n        /* \"#utility.yul\":12174:12197   */\n      sub\n        /* \"#utility.yul\":12170:12202   */\n      slt\n        /* \"#utility.yul\":12167:12286   */\n      iszero\n      tag_270\n      jumpi\n        /* \"#utility.yul\":12205:12284   */\n      tag_271\n      tag_83\n      jump\t// in\n    tag_271:\n        /* \"#utility.yul\":12167:12286   */\n    tag_270:\n        /* \"#utility.yul\":12325:12326   */\n      0x00\n        /* \"#utility.yul\":12350:12403   */\n      tag_272\n        /* \"#utility.yul\":12395:12402   */\n      dup5\n        /* \"#utility.yul\":12386:12392   */\n      dup3\n        /* \"#utility.yul\":12375:12384   */\n      dup6\n        /* \"#utility.yul\":12371:12393   */\n      add\n        /* \"#utility.yul\":12350:12403   */\n      tag_91\n      jump\t// in\n    tag_272:\n        /* \"#utility.yul\":12340:12403   */\n      swap2\n      pop\n        /* \"#utility.yul\":12296:12413   */\n      pop\n        /* \"#utility.yul\":12091:12420   */\n      swap3\n      swap2\n      pop\n      pop\n      jump\t// out\n        /* \"#utility.yul\":12478:13435   */\n    tag_123:\n        /* \"#utility.yul\":12589:12592   */\n      0x00\n        /* \"#utility.yul\":12625:12629   */\n      0x80\n        /* \"#utility.yul\":12620:12623   */\n      dup4\n        /* \"#utility.yul\":12616:12630   */\n      add\n        /* \"#utility.yul\":12714:12718   */\n      0x00\n        /* \"#utility.yul\":12707:12712   */\n      dup4\n        /* \"#utility.yul\":12703:12719   */\n      add\n        /* \"#utility.yul\":12697:12720   */\n      mload\n        /* \"#utility.yul\":12733:12796   */\n      tag_274\n        /* \"#utility.yul\":12790:12794   */\n      0x00\n        /* \"#utility.yul\":12785:12788   */\n      dup7\n        /* \"#utility.yul\":12781:12795   */\n      add\n        /* \"#utility.yul\":12767:12779   */\n      dup3\n        /* \"#utility.yul\":12733:12796   */\n      tag_102\n      jump\t// in\n    tag_274:\n        /* \"#utility.yul\":12640:12806   */\n      pop\n        /* \"#utility.yul\":12891:12895   */\n      0x20\n        /* \"#utility.yul\":12884:12889   */\n      dup4\n        /* \"#utility.yul\":12880:12896   */\n      add\n        /* \"#utility.yul\":12874:12897   */\n      mload\n        /* \"#utility.yul\":12944:12947   */\n      dup5\n        /* \"#utility.yul\":12938:12942   */\n      dup3\n        /* \"#utility.yul\":12934:12948   */\n      sub\n        /* \"#utility.yul\":12927:12931   */\n      0x20\n        /* \"#utility.yul\":12922:12925   */\n      dup7\n        /* \"#utility.yul\":12918:12932   */\n      add\n        /* \"#utility.yul\":12911:12949   */\n      mstore\n        /* \"#utility.yul\":12970:13043   */\n      tag_275\n        /* \"#utility.yul\":13038:13042   */\n      dup3\n        /* \"#utility.yul\":13024:13036   */\n      dup3\n        /* \"#utility.yul\":12970:13043   */\n      tag_104\n      jump\t// in\n    tag_275:\n        /* \"#utility.yul\":12962:13043   */\n      swap2\n      pop\n        /* \"#utility.yul\":12816:13054   */\n      pop\n        /* \"#utility.yul\":13141:13145   */\n      0x40\n        /* \"#utility.yul\":13134:13139   */\n      dup4\n        /* \"#utility.yul\":13130:13146   */\n      add\n        /* \"#utility.yul\":13124:13147   */\n      mload\n        /* \"#utility.yul\":13160:13223   */\n      tag_276\n        /* \"#utility.yul\":13217:13221   */\n      0x40\n        /* \"#utility.yul\":13212:13215   */\n      dup7\n        /* \"#utility.yul\":13208:13222   */\n      add\n        /* \"#utility.yul\":13194:13206   */\n      dup3\n        /* \"#utility.yul\":13160:13223   */\n      tag_105\n      jump\t// in\n    tag_276:\n        /* \"#utility.yul\":13064:13233   */\n      pop\n        /* \"#utility.yul\":13316:13320   */\n      0x60\n        /* \"#utility.yul\":13309:13314   */\n      dup4\n        /* \"#utility.yul\":13305:13321   */\n      add\n        /* \"#utility.yul\":13299:13322   */\n      mload\n        /* \"#utility.yul\":13335:13398   */\n      tag_277\n        /* \"#utility.yul\":13392:13396   */\n      0x60\n        /* \"#utility.yul\":13387:13390   */\n      dup7\n        /* \"#utility.yul\":13383:13397   */\n      add\n        /* \"#utility.yul\":13369:13381   */\n      dup3\n        /* \"#utility.yul\":13335:13398   */\n      tag_105\n      jump\t// in\n    tag_277:\n        /* \"#utility.yul\":13243:13408   */\n      pop\n        /* \"#utility.yul\":13425:13429   */\n      dup1\n        /* \"#utility.yul\":13418:13429   */\n      swap2\n      pop\n        /* \"#utility.yul\":12594:13435   */\n      pop\n        /* \"#utility.yul\":12478:13435   */\n      swap3\n      swap2\n      pop\n      pop\n      jump\t// out\n        /* \"#utility.yul\":13441:13798   */\n    tag_44:\n        /* \"#utility.yul\":13576:13580   */\n      0x00\n        /* \"#utility.yul\":13614:13616   */\n      0x20\n        /* \"#utility.yul\":13603:13612   */\n      dup3\n        /* \"#utility.yul\":13599:13617   */\n      add\n        /* \"#utility.yul\":13591:13617   */\n      swap1\n      pop\n        /* \"#utility.yul\":13663:13672   */\n      dup2\n        /* \"#utility.yul\":13657:13661   */\n      dup2\n        /* \"#utility.yul\":13653:13673   */\n      sub\n        /* \"#utility.yul\":13649:13650   */\n      0x00\n        /* \"#utility.yul\":13638:13647   */\n      dup4\n        /* \"#utility.yul\":13634:13651   */\n      add\n        /* \"#utility.yul\":13627:13674   */\n      mstore\n        /* \"#utility.yul\":13691:13791   */\n      tag_279\n        /* \"#utility.yul\":13786:13790   */\n      dup2\n        /* \"#utility.yul\":13777:13783   */\n      dup5\n        /* \"#utility.yul\":13691:13791   */\n      tag_123\n      jump\t// in\n    tag_279:\n        /* \"#utility.yul\":13683:13791   */\n      swap1\n      pop\n        /* \"#utility.yul\":13441:13798   */\n      swap3\n      swap2\n      pop\n      pop\n      jump\t// out\n        /* \"#utility.yul\":13804:13984   */\n    tag_124:\n        /* \"#utility.yul\":13852:13929   */\n      0x4e487b7100000000000000000000000000000000000000000000000000000000\n        /* \"#utility.yul\":13849:13850   */\n      0x00\n        /* \"#utility.yul\":13842:13930   */\n      mstore\n        /* \"#utility.yul\":13949:13953   */\n      0x22\n        /* \"#utility.yul\":13946:13947   */\n      0x04\n        /* \"#utility.yul\":13939:13954   */\n      mstore\n        /* \"#utility.yul\":13973:13977   */\n      0x24\n        /* \"#utility.yul\":13970:13971   */\n      0x00\n        /* \"#utility.yul\":13963:13978   */\n      revert\n        /* \"#utility.yul\":13990:14310   */\n    tag_48:\n        /* \"#utility.yul\":14034:14040   */\n      0x00\n        /* \"#utility.yul\":14071:14072   */\n      0x02\n        /* \"#utility.yul\":14065:14069   */\n      dup3\n        /* \"#utility.yul\":14061:14073   */\n      div\n        /* \"#utility.yul\":14051:14073   */\n      swap1\n      pop\n        /* \"#utility.yul\":14118:14119   */\n      0x01\n        /* \"#utility.yul\":14112:14116   */\n      dup3\n        /* \"#utility.yul\":14108:14120   */\n      and\n        /* \"#utility.yul\":14139:14157   */\n      dup1\n        /* \"#utility.yul\":14129:14210   */\n      tag_282\n      jumpi\n        /* \"#utility.yul\":14195:14199   */\n      0x7f\n        /* \"#utility.yul\":14187:14193   */\n      dup3\n        /* \"#utility.yul\":14183:14200   */\n      and\n        /* \"#utility.yul\":14173:14200   */\n      swap2\n      pop\n        /* \"#utility.yul\":14129:14210   */\n    tag_282:\n        /* \"#utility.yul\":14257:14259   */\n      0x20\n        /* \"#utility.yul\":14249:14255   */\n      dup3\n        /* \"#utility.yul\":14246:14260   */\n      lt\n        /* \"#utility.yul\":14226:14244   */\n      dup2\n        /* \"#utility.yul\":14223:14261   */\n      sub\n        /* \"#utility.yul\":14220:14304   */\n      tag_283\n      jumpi\n        /* \"#utility.yul\":14276:14294   */\n      tag_284\n      tag_124\n      jump\t// in\n    tag_284:\n        /* \"#utility.yul\":14220:14304   */\n    tag_283:\n        /* \"#utility.yul\":14041:14310   */\n      pop\n        /* \"#utility.yul\":13990:14310   */\n      swap2\n      swap1\n      pop\n      jump\t// out\n        /* \"#utility.yul\":14316:14488   */\n    tag_125:\n        /* \"#utility.yul\":14456:14480   */\n      0x547765657420697320746f6f206c6f6e672062726f2100000000000000000000\n        /* \"#utility.yul\":14452:14453   */\n      0x00\n        /* \"#utility.yul\":14444:14450   */\n      dup3\n        /* \"#utility.yul\":14440:14454   */\n      add\n        /* \"#utility.yul\":14433:14481   */\n      mstore\n        /* \"#utility.yul\":14316:14488   */\n      pop\n      jump\t// out\n        /* \"#utility.yul\":14494:14860   */\n    tag_126:\n        /* \"#utility.yul\":14636:14639   */\n      0x00\n        /* \"#utility.yul\":14657:14724   */\n      tag_287\n        /* \"#utility.yul\":14721:14723   */\n      0x16\n        /* \"#utility.yul\":14716:14719   */\n      dup4\n        /* \"#utility.yul\":14657:14724   */\n      tag_94\n      jump\t// in\n    tag_287:\n        /* \"#utility.yul\":14650:14724   */\n      swap2\n      pop\n        /* \"#utility.yul\":14733:14826   */\n      tag_288\n        /* \"#utility.yul\":14822:14825   */\n      dup3\n        /* \"#utility.yul\":14733:14826   */\n      tag_125\n      jump\t// in\n    tag_288:\n        /* \"#utility.yul\":14851:14853   */\n      0x20\n        /* \"#utility.yul\":14846:14849   */\n      dup3\n        /* \"#utility.yul\":14842:14854   */\n      add\n        /* \"#utility.yul\":14835:14854   */\n      swap1\n      pop\n        /* \"#utility.yul\":14494:14860   */\n      swap2\n      swap1\n      pop\n      jump\t// out\n        /* \"#utility.yul\":14866:15285   */\n    tag_66:\n        /* \"#utility.yul\":15032:15036   */\n      0x00\n        /* \"#utility.yul\":15070:15072   */\n      0x20\n        /* \"#utility.yul\":15059:15068   */\n      dup3\n        /* \"#utility.yul\":15055:15073   */\n      add\n        /* \"#utility.yul\":15047:15073   */\n      swap1\n      pop\n        /* \"#utility.yul\":15119:15128   */\n      dup2\n        /* \"#utility.yul\":15113:15117   */\n      dup2\n        /* \"#utility.yul\":15109:15129   */\n      sub\n        /* \"#utility.yul\":15105:15106   */\n      0x00\n        /* \"#utility.yul\":15094:15103   */\n      dup4\n        /* \"#utility.yul\":15090:15107   */\n      add\n        /* \"#utility.yul\":15083:15130   */\n      mstore\n        /* \"#utility.yul\":15147:15278   */\n      tag_290\n        /* \"#utility.yul\":15273:15277   */\n      dup2\n        /* \"#utility.yul\":15147:15278   */\n      tag_126\n      jump\t// in\n    tag_290:\n        /* \"#utility.yul\":15139:15278   */\n      swap1\n      pop\n        /* \"#utility.yul\":14866:15285   */\n      swap2\n      swap1\n      pop\n      jump\t// out\n        /* \"#utility.yul\":15291:15432   */\n    tag_127:\n        /* \"#utility.yul\":15340:15344   */\n      0x00\n        /* \"#utility.yul\":15363:15366   */\n      dup2\n        /* \"#utility.yul\":15355:15366   */\n      swap1\n      pop\n        /* \"#utility.yul\":15386:15389   */\n      dup2\n        /* \"#utility.yul\":15383:15384   */\n      0x00\n        /* \"#utility.yul\":15376:15390   */\n      mstore\n        /* \"#utility.yul\":15420:15424   */\n      0x20\n        /* \"#utility.yul\":15417:15418   */\n      0x00\n        /* \"#utility.yul\":15407:15425   */\n      keccak256\n        /* \"#utility.yul\":15399:15425   */\n      swap1\n      pop\n        /* \"#utility.yul\":15291:15432   */\n      swap2\n      swap1\n      pop\n      jump\t// out\n        /* \"#utility.yul\":15438:15531   */\n    tag_128:\n        /* \"#utility.yul\":15475:15481   */\n      0x00\n        /* \"#utility.yul\":15522:15524   */\n      0x20\n        /* \"#utility.yul\":15517:15519   */\n      0x1f\n        /* \"#utility.yul\":15510:15515   */\n      dup4\n        /* \"#utility.yul\":15506:15520   */\n      add\n        /* \"#utility.yul\":15502:15525   */\n      div\n        /* \"#utility.yul\":15492:15525   */\n      swap1\n      pop\n        /* \"#utility.yul\":15438:15531   */\n      swap2\n      swap1\n      pop\n      jump\t// out\n        /* \"#utility.yul\":15537:15644   */\n    tag_129:\n        /* \"#utility.yul\":15581:15589   */\n      0x00\n        /* \"#utility.yul\":15631:15636   */\n      dup3\n        /* \"#utility.yul\":15625:15629   */\n      dup3\n        /* \"#utility.yul\":15621:15637   */\n      shl\n        /* \"#utility.yul\":15600:15637   */\n      swap1\n      pop\n        /* \"#utility.yul\":15537:15644   */\n      swap3\n      swap2\n      pop\n      pop\n      jump\t// out\n        /* \"#utility.yul\":15650:16043   */\n    tag_130:\n        /* \"#utility.yul\":15719:15725   */\n      0x00\n        /* \"#utility.yul\":15769:15770   */\n      0x08\n        /* \"#utility.yul\":15757:15767   */\n      dup4\n        /* \"#utility.yul\":15753:15771   */\n      mul\n        /* \"#utility.yul\":15792:15889   */\n      tag_295\n        /* \"#utility.yul\":15822:15888   */\n      0xffffffffffffffffffffffffffffffffffffffffffffffffffffffffffffffff\n        /* \"#utility.yul\":15811:15820   */\n      dup3\n        /* \"#utility.yul\":15792:15889   */\n      tag_129\n      jump\t// in\n    tag_295:\n        /* \"#utility.yul\":15910:15949   */\n      tag_296\n        /* \"#utility.yul\":15940:15948   */\n      dup7\n        /* \"#utility.yul\":15929:15938   */\n      dup4\n        /* \"#utility.yul\":15910:15949   */\n      tag_129\n      jump\t// in\n    tag_296:\n        /* \"#utility.yul\":15898:15949   */\n      swap6\n      pop\n        /* \"#utility.yul\":15982:15986   */\n      dup1\n        /* \"#utility.yul\":15978:15987   */\n      not\n        /* \"#utility.yul\":15971:15976   */\n      dup5\n        /* \"#utility.yul\":15967:15988   */\n      and\n        /* \"#utility.yul\":15958:15988   */\n      swap4\n      pop\n        /* \"#utility.yul\":16031:16035   */\n      dup1\n        /* \"#utility.yul\":16021:16029   */\n      dup7\n        /* \"#utility.yul\":16017:16036   */\n      and\n        /* \"#utility.yul\":16010:16015   */\n      dup5\n        /* \"#utility.yul\":16007:16037   */\n      or\n        /* \"#utility.yul\":15997:16037   */\n      swap3\n      pop\n        /* \"#utility.yul\":15726:16043   */\n      pop\n      pop\n        /* \"#utility.yul\":15650:16043   */\n      swap4\n      swap3\n      pop\n      pop\n      pop\n      jump\t// out\n        /* \"#utility.yul\":16049:16109   */\n    tag_131:\n        /* \"#utility.yul\":16077:16080   */\n      0x00\n        /* \"#utility.yul\":16098:16103   */\n      dup2\n        /* \"#utility.yul\":16091:16103   */\n      swap1\n      pop\n        /* \"#utility.yul\":16049:16109   */\n      swap2\n      swap1\n      pop\n      jump\t// out\n        /* \"#utility.yul\":16115:16257   */\n    tag_132:\n        /* \"#utility.yul\":16165:16174   */\n      0x00\n        /* \"#utility.yul\":16198:16251   */\n      tag_299\n        /* \"#utility.yul\":16216:16250   */\n      tag_300\n        /* \"#utility.yul\":16225:16249   */\n      tag_301\n        /* \"#utility.yul\":16243:16248   */\n      dup5\n        /* \"#utility.yul\":16225:16249   */\n      tag_89\n      jump\t// in\n    tag_301:\n        /* \"#utility.yul\":16216:16250   */\n      tag_131\n      jump\t// in\n    tag_300:\n        /* \"#utility.yul\":16198:16251   */\n      tag_89\n      jump\t// in\n    tag_299:\n        /* \"#utility.yul\":16185:16251   */\n      swap1\n      pop\n        /* \"#utility.yul\":16115:16257   */\n      swap2\n      swap1\n      pop\n      jump\t// out\n        /* \"#utility.yul\":16263:16338   */\n    tag_133:\n        /* \"#utility.yul\":16306:16309   */\n      0x00\n        /* \"#utility.yul\":16327:16332   */\n      dup2\n        /* \"#utility.yul\":16320:16332   */\n      swap1\n      pop\n        /* \"#utility.yul\":16263:16338   */\n      swap2\n      swap1\n      pop\n      jump\t// out\n        /* \"#utility.yul\":16344:16613   */\n    tag_134:\n        /* \"#utility.yul\":16454:16493   */\n      tag_304\n        /* \"#utility.yul\":16485:16492   */\n      dup4\n        /* \"#utility.yul\":16454:16493   */\n      tag_132\n      jump\t// in\n    tag_304:\n        /* \"#utility.yul\":16515:16606   */\n      tag_305\n        /* \"#utility.yul\":16564:16605   */\n      tag_306\n        /* \"#utility.yul\":16588:16604   */\n      dup3\n        /* \"#utility.yul\":16564:16605   */\n      tag_133\n      jump\t// in\n    tag_306:\n        /* \"#utility.yul\":16556:16562   */\n      dup5\n        /* \"#utility.yul\":16549:16553   */\n      dup5\n        /* \"#utility.yul\":16543:16554   */\n      sload\n        /* \"#utility.yul\":16515:16606   */\n      tag_130\n      jump\t// in\n    tag_305:\n        /* \"#utility.yul\":16509:16513   */\n      dup3\n        /* \"#utility.yul\":16502:16607   */\n      sstore\n        /* \"#utility.yul\":16420:16613   */\n      pop\n        /* \"#utility.yul\":16344:16613   */\n      pop\n      pop\n      pop\n      jump\t// out\n        /* \"#utility.yul\":16619:16692   */\n    tag_135:\n        /* \"#utility.yul\":16664:16667   */\n      0x00\n        /* \"#utility.yul\":16619:16692   */\n      swap1\n      jump\t// out\n        /* \"#utility.yul\":16698:16887   */\n    tag_136:\n        /* \"#utility.yul\":16775:16807   */\n      tag_309\n      tag_135\n      jump\t// in\n    tag_309:\n        /* \"#utility.yul\":16816:16881   */\n      tag_310\n        /* \"#utility.yul\":16874:16880   */\n      dup2\n        /* \"#utility.yul\":16866:16872   */\n      dup5\n        /* \"#utility.yul\":16860:16864   */\n      dup5\n        /* \"#utility.yul\":16816:16881   */\n      tag_134\n      jump\t// in\n    tag_310:\n        /* \"#utility.yul\":16751:16887   */\n      pop\n        /* \"#utility.yul\":16698:16887   */\n      pop\n      pop\n      jump\t// out\n        /* \"#utility.yul\":16893:17079   */\n    tag_137:\n        /* \"#utility.yul\":16953:17073   */\n    tag_312:\n        /* \"#utility.yul\":16970:16973   */\n      dup2\n        /* \"#utility.yul\":16963:16968   */\n      dup2\n        /* \"#utility.yul\":16960:16974   */\n      lt\n        /* \"#utility.yul\":16953:17073   */\n      iszero\n      tag_314\n      jumpi\n        /* \"#utility.yul\":17024:17063   */\n      tag_315\n        /* \"#utility.yul\":17061:17062   */\n      0x00\n        /* \"#utility.yul\":17054:17059   */\n      dup3\n        /* \"#utility.yul\":17024:17063   */\n      tag_136\n      jump\t// in\n    tag_315:\n        /* \"#utility.yul\":16997:16998   */\n      0x01\n        /* \"#utility.yul\":16990:16995   */\n      dup2\n        /* \"#utility.yul\":16986:16999   */\n      add\n        /* \"#utility.yul\":16977:16999   */\n      swap1\n      pop\n        /* \"#utility.yul\":16953:17073   */\n      jump(tag_312)\n    tag_314:\n        /* \"#utility.yul\":16893:17079   */\n      pop\n      pop\n      jump\t// out\n        /* \"#utility.yul\":17085:17628   */\n    tag_138:\n        /* \"#utility.yul\":17186:17188   */\n      0x1f\n        /* \"#utility.yul\":17181:17184   */\n      dup3\n        /* \"#utility.yul\":17178:17189   */\n      gt\n        /* \"#utility.yul\":17175:17621   */\n      iszero\n      tag_317\n      jumpi\n        /* \"#utility.yul\":17220:17258   */\n      tag_318\n        /* \"#utility.yul\":17252:17257   */\n      dup2\n        /* \"#utility.yul\":17220:17258   */\n      tag_127\n      jump\t// in\n    tag_318:\n        /* \"#utility.yul\":17304:17333   */\n      tag_319\n        /* \"#utility.yul\":17322:17332   */\n      dup5\n        /* \"#utility.yul\":17304:17333   */\n      tag_128\n      jump\t// in\n    tag_319:\n        /* \"#utility.yul\":17294:17302   */\n      dup2\n        /* \"#utility.yul\":17290:17334   */\n      add\n        /* \"#utility.yul\":17487:17489   */\n      0x20\n        /* \"#utility.yul\":17475:17485   */\n      dup6\n        /* \"#utility.yul\":17472:17490   */\n      lt\n        /* \"#utility.yul\":17469:17518   */\n      iszero\n      tag_320\n      jumpi\n        /* \"#utility.yul\":17508:17516   */\n      dup2\n        /* \"#utility.yul\":17493:17516   */\n      swap1\n      pop\n        /* \"#utility.yul\":17469:17518   */\n    tag_320:\n        /* \"#utility.yul\":17531:17611   */\n      tag_321\n        /* \"#utility.yul\":17587:17609   */\n      tag_322\n        /* \"#utility.yul\":17605:17608   */\n      dup6\n        /* \"#utility.yul\":17587:17609   */\n      tag_128\n      jump\t// in\n    tag_322:\n        /* \"#utility.yul\":17577:17585   */\n      dup4\n        /* \"#utility.yul\":17573:17610   */\n      add\n        /* \"#utility.yul\":17560:17571   */\n      dup3\n        /* \"#utility.yul\":17531:17611   */\n      tag_137\n      jump\t// in\n    tag_321:\n        /* \"#utility.yul\":17190:17621   */\n      pop\n      pop\n        /* \"#utility.yul\":17175:17621   */\n    tag_317:\n        /* \"#utility.yul\":17085:17628   */\n      pop\n      pop\n      pop\n      jump\t// out\n        /* \"#utility.yul\":17634:17751   */\n    tag_139:\n        /* \"#utility.yul\":17688:17696   */\n      0x00\n        /* \"#utility.yul\":17738:17743   */\n      dup3\n        /* \"#utility.yul\":17732:17736   */\n      dup3\n        /* \"#utility.yul\":17728:17744   */\n      shr\n        /* \"#utility.yul\":17707:17744   */\n      swap1\n      pop\n        /* \"#utility.yul\":17634:17751   */\n      swap3\n      swap2\n      pop\n      pop\n      jump\t// out\n        /* \"#utility.yul\":17757:17926   */\n    tag_140:\n        /* \"#utility.yul\":17801:17807   */\n      0x00\n        /* \"#utility.yul\":17834:17885   */\n      tag_325\n        /* \"#utility.yul\":17882:17883   */\n      0x00\n        /* \"#utility.yul\":17878:17884   */\n      not\n        /* \"#utility.yul\":17870:17875   */\n      dup5\n        /* \"#utility.yul\":17867:17868   */\n      0x08\n        /* \"#utility.yul\":17863:17876   */\n      mul\n        /* \"#utility.yul\":17834:17885   */\n      tag_139\n      jump\t// in\n    tag_325:\n        /* \"#utility.yul\":17830:17886   */\n      not\n        /* \"#utility.yul\":17915:17919   */\n      dup1\n        /* \"#utility.yul\":17909:17913   */\n      dup4\n        /* \"#utility.yul\":17905:17920   */\n      and\n        /* \"#utility.yul\":17895:17920   */\n      swap2\n      pop\n        /* \"#utility.yul\":17808:17926   */\n      pop\n        /* \"#utility.yul\":17757:17926   */\n      swap3\n      swap2\n      pop\n      pop\n      jump\t// out\n        /* \"#utility.yul\":17931:18226   */\n    tag_141:\n        /* \"#utility.yul\":18007:18011   */\n      0x00\n        /* \"#utility.yul\":18153:18182   */\n      tag_327\n        /* \"#utility.yul\":18178:18181   */\n      dup4\n        /* \"#utility.yul\":18172:18176   */\n      dup4\n        /* \"#utility.yul\":18153:18182   */\n      tag_140\n      jump\t// in\n    tag_327:\n        /* \"#utility.yul\":18145:18182   */\n      swap2\n      pop\n        /* \"#utility.yul\":18215:18218   */\n      dup3\n        /* \"#utility.yul\":18212:18213   */\n      0x02\n        /* \"#utility.yul\":18208:18219   */\n      mul\n        /* \"#utility.yul\":18202:18206   */\n      dup3\n        /* \"#utility.yul\":18199:18220   */\n      or\n        /* \"#utility.yul\":18191:18220   */\n      swap1\n      pop\n        /* \"#utility.yul\":17931:18226   */\n      swap3\n      swap2\n      pop\n      pop\n      jump\t// out\n        /* \"#utility.yul\":18231:19626   */\n    tag_69:\n        /* \"#utility.yul\":18348:18385   */\n      tag_329\n        /* \"#utility.yul\":18381:18384   */\n      dup3\n        /* \"#utility.yul\":18348:18385   */\n      tag_93\n      jump\t// in\n    tag_329:\n        /* \"#utility.yul\":18450:18468   */\n      0xffffffffffffffff\n        /* \"#utility.yul\":18442:18448   */\n      dup2\n        /* \"#utility.yul\":18439:18469   */\n      gt\n        /* \"#utility.yul\":18436:18492   */\n      iszero\n      tag_330\n      jumpi\n        /* \"#utility.yul\":18472:18490   */\n      tag_331\n      tag_116\n      jump\t// in\n    tag_331:\n        /* \"#utility.yul\":18436:18492   */\n    tag_330:\n        /* \"#utility.yul\":18516:18554   */\n      tag_332\n        /* \"#utility.yul\":18548:18552   */\n      dup3\n        /* \"#utility.yul\":18542:18553   */\n      sload\n        /* \"#utility.yul\":18516:18554   */\n      tag_48\n      jump\t// in\n    tag_332:\n        /* \"#utility.yul\":18601:18668   */\n      tag_333\n        /* \"#utility.yul\":18661:18667   */\n      dup3\n        /* \"#utility.yul\":18653:18659   */\n      dup3\n        /* \"#utility.yul\":18647:18651   */\n      dup6\n        /* \"#utility.yul\":18601:18668   */\n      tag_138\n      jump\t// in\n    tag_333:\n        /* \"#utility.yul\":18695:18696   */\n      0x00\n        /* \"#utility.yul\":18719:18723   */\n      0x20\n        /* \"#utility.yul\":18706:18723   */\n      swap1\n      pop\n        /* \"#utility.yul\":18751:18753   */\n      0x1f\n        /* \"#utility.yul\":18743:18749   */\n      dup4\n        /* \"#utility.yul\":18740:18754   */\n      gt\n        /* \"#utility.yul\":18768:18769   */\n      0x01\n        /* \"#utility.yul\":18763:19381   */\n      dup2\n      eq\n      tag_335\n      jumpi\n        /* \"#utility.yul\":19425:19426   */\n      0x00\n        /* \"#utility.yul\":19442:19448   */\n      dup5\n        /* \"#utility.yul\":19439:19516   */\n      iszero\n      tag_336\n      jumpi\n        /* \"#utility.yul\":19491:19500   */\n      dup3\n        /* \"#utility.yul\":19486:19489   */\n      dup8\n        /* \"#utility.yul\":19482:19501   */\n      add\n        /* \"#utility.yul\":19476:19502   */\n      mload\n        /* \"#utility.yul\":19467:19502   */\n      swap1\n      pop\n        /* \"#utility.yul\":19439:19516   */\n    tag_336:\n        /* \"#utility.yul\":19542:19609   */\n      tag_337\n        /* \"#utility.yul\":19602:19608   */\n      dup6\n        /* \"#utility.yul\":19595:19600   */\n      dup3\n        /* \"#utility.yul\":19542:19609   */\n      tag_141\n      jump\t// in\n    tag_337:\n        /* \"#utility.yul\":19536:19540   */\n      dup7\n        /* \"#utility.yul\":19529:19610   */\n      sstore\n        /* \"#utility.yul\":19398:19620   */\n      pop\n        /* \"#utility.yul\":18733:19620   */\n      jump(tag_334)\n        /* \"#utility.yul\":18763:19381   */\n    tag_335:\n        /* \"#utility.yul\":18815:18819   */\n      0x1f\n        /* \"#utility.yul\":18811:18820   */\n      not\n        /* \"#utility.yul\":18803:18809   */\n      dup5\n        /* \"#utility.yul\":18799:18821   */\n      and\n        /* \"#utility.yul\":18849:18886   */\n      tag_338\n        /* \"#utility.yul\":18881:18885   */\n      dup7\n        /* \"#utility.yul\":18849:18886   */\n      tag_127\n      jump\t// in\n    tag_338:\n        /* \"#utility.yul\":18908:18909   */\n      0x00\n        /* \"#utility.yul\":18922:19130   */\n    tag_339:\n        /* \"#utility.yul\":18936:18943   */\n      dup3\n        /* \"#utility.yul\":18933:18934   */\n      dup2\n        /* \"#utility.yul\":18930:18944   */\n      lt\n        /* \"#utility.yul\":18922:19130   */\n      iszero\n      tag_341\n      jumpi\n        /* \"#utility.yul\":19015:19024   */\n      dup5\n        /* \"#utility.yul\":19010:19013   */\n      dup10\n        /* \"#utility.yul\":19006:19025   */\n      add\n        /* \"#utility.yul\":19000:19026   */\n      mload\n        /* \"#utility.yul\":18992:18998   */\n      dup3\n        /* \"#utility.yul\":18985:19027   */\n      sstore\n        /* \"#utility.yul\":19066:19067   */\n      0x01\n        /* \"#utility.yul\":19058:19064   */\n      dup3\n        /* \"#utility.yul\":19054:19068   */\n      add\n        /* \"#utility.yul\":19044:19068   */\n      swap2\n      pop\n        /* \"#utility.yul\":19113:19115   */\n      0x20\n        /* \"#utility.yul\":19102:19111   */\n      dup6\n        /* \"#utility.yul\":19098:19116   */\n      add\n        /* \"#utility.yul\":19085:19116   */\n      swap5\n      pop\n        /* \"#utility.yul\":18959:18963   */\n      0x20\n        /* \"#utility.yul\":18956:18957   */\n      dup2\n        /* \"#utility.yul\":18952:18964   */\n      add\n        /* \"#utility.yul\":18947:18964   */\n      swap1\n      pop\n        /* \"#utility.yul\":18922:19130   */\n      jump(tag_339)\n    tag_341:\n        /* \"#utility.yul\":19158:19164   */\n      dup7\n        /* \"#utility.yul\":19149:19156   */\n      dup4\n        /* \"#utility.yul\":19146:19165   */\n      lt\n        /* \"#utility.yul\":19143:19322   */\n      iszero\n      tag_342\n      jumpi\n        /* \"#utility.yul\":19216:19225   */\n      dup5\n        /* \"#utility.yul\":19211:19214   */\n      dup10\n        /* \"#utility.yul\":19207:19226   */\n      add\n        /* \"#utility.yul\":19201:19227   */\n      mload\n        /* \"#utility.yul\":19259:19307   */\n      tag_343\n        /* \"#utility.yul\":19301:19305   */\n      0x1f\n        /* \"#utility.yul\":19293:19299   */\n      dup10\n        /* \"#utility.yul\":19289:19306   */\n      and\n        /* \"#utility.yul\":19278:19287   */\n      dup3\n        /* \"#utility.yul\":19259:19307   */\n      tag_140\n      jump\t// in\n    tag_343:\n        /* \"#utility.yul\":19251:19257   */\n      dup4\n        /* \"#utility.yul\":19244:19308   */\n      sstore\n        /* \"#utility.yul\":19166:19322   */\n      pop\n        /* \"#utility.yul\":19143:19322   */\n    tag_342:\n        /* \"#utility.yul\":19368:19369   */\n      0x01\n        /* \"#utility.yul\":19364:19365   */\n      0x02\n        /* \"#utility.yul\":19356:19362   */\n      dup9\n        /* \"#utility.yul\":19352:19366   */\n      mul\n        /* \"#utility.yul\":19348:19370   */\n      add\n        /* \"#utility.yul\":19342:19346   */\n      dup9\n        /* \"#utility.yul\":19335:19371   */\n      sstore\n        /* \"#utility.yul\":18770:19381   */\n      pop\n      pop\n      pop\n        /* \"#utility.yul\":18733:19620   */\n    tag_334:\n      pop\n        /* \"#utility.yul\":18323:19626   */\n      pop\n      pop\n      pop\n        /* \"#utility.yul\":18231:19626   */\n      pop\n      pop\n      jump\t// out\n        /* \"#utility.yul\":19632:19812   */\n    tag_75:\n        /* \"#utility.yul\":19680:19757   */\n      0x4e487b7100000000000000000000000000000000000000000000000000000000\n        /* \"#utility.yul\":19677:19678   */\n      0x00\n        /* \"#utility.yul\":19670:19758   */\n      mstore\n        /* \"#utility.yul\":19777:19781   */\n      0x32\n        /* \"#utility.yul\":19774:19775   */\n      0x04\n        /* \"#utility.yul\":19767:19782   */\n      mstore\n        /* \"#utility.yul\":19801:19805   */\n      0x24\n        /* \"#utility.yul\":19798:19799   */\n      0x00\n        /* \"#utility.yul\":19791:19806   */\n      revert\n\n    auxdata: 0xa26469706673582212209aa8d7b9b09239feb599f89ddc8ee440558e82da7986e3d34b1b26d19ee16e2964736f6c63430008180033\n}\n",
				"bytecode": {
					"linkReferences": {},
					"object": "60806040526101185f806101000a81548161ffff021916908361ffff16021790555034801561002c575f80fd5b506111548061003a5f395ff3fe608060405234801561000f575f80fd5b506004361061007b575f3560e01c80636eb10797116100595780636eb10797146100fe5780637c9cd2bc1461011c5780638da5cb5b14610138578063c3ad5ecb146101565761007b565b806305a1b4a91461007f57806312e7ee1c146100b257806358bfa4ab146100e2575b5f80fd5b61009960048036038101906100949190610803565b610186565b6040516100a994939291906108e9565b60405180910390f35b6100cc60048036038101906100c79190610933565b610271565b6040516100d99190610adf565b60405180910390f35b6100fc60048036038101906100f79190610b36565b610402565b005b610106610420565b6040516101139190610b70565b60405180910390f35b61013660048036038101906101319190610cb5565b610431565b005b610140610598565b60405161014d9190610cfc565b60405180910390f35b610170600480360381019061016b9190610d15565b6105bd565b60405161017d9190610da0565b60405180910390f35b6001602052815f5260405f20818154811061019f575f80fd5b905f5260205f2090600402015f9150915050805f015f9054906101000a900473ffffffffffffffffffffffffffffffffffffffff16908060010180546101e490610ded565b80601f016020809104026020016040519081016040528092919081815260200182805461021090610ded565b801561025b5780601f106102325761010080835404028352916020019161025b565b820191905f5260205f20905b81548152906001019060200180831161023e57829003601f168201915b5050505050908060020154908060030154905084565b606060015f8373ffffffffffffffffffffffffffffffffffffffff1673ffffffffffffffffffffffffffffffffffffffff1681526020019081526020015f20805480602002602001604051908101604052809291908181526020015f905b828210156103f7578382905f5260205f2090600402016040518060800160405290815f82015f9054906101000a900473ffffffffffffffffffffffffffffffffffffffff1673ffffffffffffffffffffffffffffffffffffffff1673ffffffffffffffffffffffffffffffffffffffff16815260200160018201805461035490610ded565b80601f016020809104026020016040519081016040528092919081815260200182805461038090610ded565b80156103cb5780601f106103a2576101008083540402835291602001916103cb565b820191905f5260205f20905b8154815290600101906020018083116103ae57829003601f168201915b5050505050815260200160028201548152602001600382015481525050815260200190600101906102cf565b505050509050919050565b805f806101000a81548161ffff021916908361ffff16021790555050565b5f8054906101000a900461ffff1681565b5f8054906101000a900461ffff1661ffff1681511115610486576040517f08c379a000000000000000000000000000000000000000000000000000000000815260040161047d90610e67565b60405180910390fd5b5f60405180608001604052803373ffffffffffffffffffffffffffffffffffffffff1681526020018381526020014281526020015f815250905060015f3373ffffffffffffffffffffffffffffffffffffffff1673ffffffffffffffffffffffffffffffffffffffff1681526020019081526020015f2081908060018154018082558091505060019003905f5260205f2090600402015f909190919091505f820151815f015f6101000a81548173ffffffffffffffffffffffffffffffffffffffff021916908373ffffffffffffffffffffffffffffffffffffffff160217905550602082015181600101908161057d9190611022565b50604082015181600201556060820151816003015550505050565b5f60029054906101000a900473ffffffffffffffffffffffffffffffffffffffff1681565b6105c561072a565b60015f3373ffffffffffffffffffffffffffffffffffffffff1673ffffffffffffffffffffffffffffffffffffffff1681526020019081526020015f208281548110610614576106136110f1565b5b905f5260205f2090600402016040518060800160405290815f82015f9054906101000a900473ffffffffffffffffffffffffffffffffffffffff1673ffffffffffffffffffffffffffffffffffffffff1673ffffffffffffffffffffffffffffffffffffffff16815260200160018201805461068f90610ded565b80601f01602080910402602001604051908101604052809291908181526020018280546106bb90610ded565b80156107065780601f106106dd57610100808354040283529160200191610706565b820191905f5260205f20905b8154815290600101906020018083116106e957829003601f168201915b50505050508152602001600282015481526020016003820154815250509050919050565b60405180608001604052805f73ffffffffffffffffffffffffffffffffffffffff168152602001606081526020015f81526020015f81525090565b5f604051905090565b5f80fd5b5f80fd5b5f73ffffffffffffffffffffffffffffffffffffffff82169050919050565b5f61079f82610776565b9050919050565b6107af81610795565b81146107b9575f80fd5b50565b5f813590506107ca816107a6565b92915050565b5f819050919050565b6107e2816107d0565b81146107ec575f80fd5b50565b5f813590506107fd816107d9565b92915050565b5f80604083850312156108195761081861076e565b5b5f610826858286016107bc565b9250506020610837858286016107ef565b9150509250929050565b61084a81610795565b82525050565b5f81519050919050565b5f82825260208201905092915050565b5f5b8381101561088757808201518184015260208101905061086c565b5f8484015250505050565b5f601f19601f8301169050919050565b5f6108ac82610850565b6108b6818561085a565b93506108c681856020860161086a565b6108cf81610892565b840191505092915050565b6108e3816107d0565b82525050565b5f6080820190506108fc5f830187610841565b818103602083015261090e81866108a2565b905061091d60408301856108da565b61092a60608301846108da565b95945050505050565b5f602082840312156109485761094761076e565b5b5f610955848285016107bc565b91505092915050565b5f81519050919050565b5f82825260208201905092915050565b5f819050602082019050919050565b61099081610795565b82525050565b5f82825260208201905092915050565b5f6109b082610850565b6109ba8185610996565b93506109ca81856020860161086a565b6109d381610892565b840191505092915050565b6109e7816107d0565b82525050565b5f608083015f830151610a025f860182610987565b5060208301518482036020860152610a1a82826109a6565b9150506040830151610a2f60408601826109de565b506060830151610a4260608601826109de565b508091505092915050565b5f610a5883836109ed565b905092915050565b5f602082019050919050565b5f610a768261095e565b610a808185610968565b935083602082028501610a9285610978565b805f5b85811015610acd5784840389528151610aae8582610a4d565b9450610ab983610a60565b925060208a01995050600181019050610a95565b50829750879550505050505092915050565b5f6020820190508181035f830152610af78184610a6c565b905092915050565b5f61ffff82169050919050565b610b1581610aff565b8114610b1f575f80fd5b50565b5f81359050610b3081610b0c565b92915050565b5f60208284031215610b4b57610b4a61076e565b5b5f610b5884828501610b22565b91505092915050565b610b6a81610aff565b82525050565b5f602082019050610b835f830184610b61565b92915050565b5f80fd5b5f80fd5b7f4e487b71000000000000000000000000000000000000000000000000000000005f52604160045260245ffd5b610bc782610892565b810181811067ffffffffffffffff82111715610be657610be5610b91565b5b80604052505050565b5f610bf8610765565b9050610c048282610bbe565b919050565b5f67ffffffffffffffff821115610c2357610c22610b91565b5b610c2c82610892565b9050602081019050919050565b828183375f83830152505050565b5f610c59610c5484610c09565b610bef565b905082815260208101848484011115610c7557610c74610b8d565b5b610c80848285610c39565b509392505050565b5f82601f830112610c9c57610c9b610b89565b5b8135610cac848260208601610c47565b91505092915050565b5f60208284031215610cca57610cc961076e565b5b5f82013567ffffffffffffffff811115610ce757610ce6610772565b5b610cf384828501610c88565b91505092915050565b5f602082019050610d0f5f830184610841565b92915050565b5f60208284031215610d2a57610d2961076e565b5b5f610d37848285016107ef565b91505092915050565b5f608083015f830151610d555f860182610987565b5060208301518482036020860152610d6d82826109a6565b9150506040830151610d8260408601826109de565b506060830151610d9560608601826109de565b508091505092915050565b5f6020820190508181035f830152610db88184610d40565b905092915050565b7f4e487b71000000000000000000000000000000000000000000000000000000005f52602260045260245ffd5b5f6002820490506001821680610e0457607f821691505b602082108103610e1757610e16610dc0565b5b50919050565b7f547765657420697320746f6f206c6f6e672062726f21000000000000000000005f82015250565b5f610e5160168361085a565b9150610e5c82610e1d565b602082019050919050565b5f6020820190508181035f830152610e7e81610e45565b9050919050565b5f819050815f5260205f209050919050565b5f6020601f8301049050919050565b5f82821b905092915050565b5f60088302610ee17fffffffffffffffffffffffffffffffffffffffffffffffffffffffffffffffff82610ea6565b610eeb8683610ea6565b95508019841693508086168417925050509392505050565b5f819050919050565b5f610f26610f21610f1c846107d0565b610f03565b6107d0565b9050919050565b5f819050919050565b610f3f83610f0c565b610f53610f4b82610f2d565b848454610eb2565b825550505050565b5f90565b610f67610f5b565b610f72818484610f36565b505050565b5b81811015610f9557610f8a5f82610f5f565b600181019050610f78565b5050565b601f821115610fda57610fab81610e85565b610fb484610e97565b81016020851015610fc3578190505b610fd7610fcf85610e97565b830182610f77565b50505b505050565b5f82821c905092915050565b5f610ffa5f1984600802610fdf565b1980831691505092915050565b5f6110128383610feb565b9150826002028217905092915050565b61102b82610850565b67ffffffffffffffff81111561104457611043610b91565b5b61104e8254610ded565b611059828285610f99565b5f60209050601f83116001811461108a575f8415611078578287015190505b6110828582611007565b8655506110e9565b601f19841661109886610e85565b5f5b828110156110bf5784890151825560018201915060208501945060208101905061109a565b868310156110dc57848901516110d8601f891682610feb565b8355505b6001600288020188555050505b505050505050565b7f4e487b71000000000000000000000000000000000000000000000000000000005f52603260045260245ffdfea26469706673582212209aa8d7b9b09239feb599f89ddc8ee440558e82da7986e3d34b1b26d19ee16e2964736f6c63430008180033",
					"opcodes": "PUSH1 0x80 PUSH1 0x40 MSTORE PUSH2 0x118 PUSH0 DUP1 PUSH2 0x100 EXP DUP2 SLOAD DUP2 PUSH2 0xFFFF MUL NOT AND SWAP1 DUP4 PUSH2 0xFFFF AND MUL OR SWAP1 SSTORE POP CALLVALUE DUP1 ISZERO PUSH2 0x2C JUMPI PUSH0 DUP1 REVERT JUMPDEST POP PUSH2 0x1154 DUP1 PUSH2 0x3A PUSH0 CODECOPY PUSH0 RETURN INVALID PUSH1 0x80 PUSH1 0x40 MSTORE CALLVALUE DUP1 ISZERO PUSH2 0xF JUMPI PUSH0 DUP1 REVERT JUMPDEST POP PUSH1 0x4 CALLDATASIZE LT PUSH2 0x7B JUMPI PUSH0 CALLDATALOAD PUSH1 0xE0 SHR DUP1 PUSH4 0x6EB10797 GT PUSH2 0x59 JUMPI DUP1 PUSH4 0x6EB10797 EQ PUSH2 0xFE JUMPI DUP1 PUSH4 0x7C9CD2BC EQ PUSH2 0x11C JUMPI DUP1 PUSH4 0x8DA5CB5B EQ PUSH2 0x138 JUMPI DUP1 PUSH4 0xC3AD5ECB EQ PUSH2 0x156 JUMPI PUSH2 0x7B JUMP JUMPDEST DUP1 PUSH4 0x5A1B4A9 EQ PUSH2 0x7F JUMPI DUP1 PUSH4 0x12E7EE1C EQ PUSH2 0xB2 JUMPI DUP1 PUSH4 0x58BFA4AB EQ PUSH2 0xE2 JUMPI JUMPDEST PUSH0 DUP1 REVERT JUMPDEST PUSH2 0x99 PUSH1 0x4 DUP1 CALLDATASIZE SUB DUP2 ADD SWAP1 PUSH2 0x94 SWAP2 SWAP1 PUSH2 0x803 JUMP JUMPDEST PUSH2 0x186 JUMP JUMPDEST PUSH1 0x40 MLOAD PUSH2 0xA9 SWAP5 SWAP4 SWAP3 SWAP2 SWAP1 PUSH2 0x8E9 JUMP JUMPDEST PUSH1 0x40 MLOAD DUP1 SWAP2 SUB SWAP1 RETURN JUMPDEST PUSH2 0xCC PUSH1 0x4 DUP1 CALLDATASIZE SUB DUP2 ADD SWAP1 PUSH2 0xC7 SWAP2 SWAP1 PUSH2 0x933 JUMP JUMPDEST PUSH2 0x271 JUMP JUMPDEST PUSH1 0x40 MLOAD PUSH2 0xD9 SWAP2 SWAP1 PUSH2 0xADF JUMP JUMPDEST PUSH1 0x40 MLOAD DUP1 SWAP2 SUB SWAP1 RETURN JUMPDEST PUSH2 0xFC PUSH1 0x4 DUP1 CALLDATASIZE SUB DUP2 ADD SWAP1 PUSH2 0xF7 SWAP2 SWAP1 PUSH2 0xB36 JUMP JUMPDEST PUSH2 0x402 JUMP JUMPDEST STOP JUMPDEST PUSH2 0x106 PUSH2 0x420 JUMP JUMPDEST PUSH1 0x40 MLOAD PUSH2 0x113 SWAP2 SWAP1 PUSH2 0xB70 JUMP JUMPDEST PUSH1 0x40 MLOAD DUP1 SWAP2 SUB SWAP1 RETURN JUMPDEST PUSH2 0x136 PUSH1 0x4 DUP1 CALLDATASIZE SUB DUP2 ADD SWAP1 PUSH2 0x131 SWAP2 SWAP1 PUSH2 0xCB5 JUMP JUMPDEST PUSH2 0x431 JUMP JUMPDEST STOP JUMPDEST PUSH2 0x140 PUSH2 0x598 JUMP JUMPDEST PUSH1 0x40 MLOAD PUSH2 0x14D SWAP2 SWAP1 PUSH2 0xCFC JUMP JUMPDEST PUSH1 0x40 MLOAD DUP1 SWAP2 SUB SWAP1 RETURN JUMPDEST PUSH2 0x170 PUSH1 0x4 DUP1 CALLDATASIZE SUB DUP2 ADD SWAP1 PUSH2 0x16B SWAP2 SWAP1 PUSH2 0xD15 JUMP JUMPDEST PUSH2 0x5BD JUMP JUMPDEST PUSH1 0x40 MLOAD PUSH2 0x17D SWAP2 SWAP1 PUSH2 0xDA0 JUMP JUMPDEST PUSH1 0x40 MLOAD DUP1 SWAP2 SUB SWAP1 RETURN JUMPDEST PUSH1 0x1 PUSH1 0x20 MSTORE DUP2 PUSH0 MSTORE PUSH1 0x40 PUSH0 KECCAK256 DUP2 DUP2 SLOAD DUP2 LT PUSH2 0x19F JUMPI PUSH0 DUP1 REVERT JUMPDEST SWAP1 PUSH0 MSTORE PUSH1 0x20 PUSH0 KECCAK256 SWAP1 PUSH1 0x4 MUL ADD PUSH0 SWAP2 POP SWAP2 POP POP DUP1 PUSH0 ADD PUSH0 SWAP1 SLOAD SWAP1 PUSH2 0x100 EXP SWAP1 DIV PUSH20 0xFFFFFFFFFFFFFFFFFFFFFFFFFFFFFFFFFFFFFFFF AND SWAP1 DUP1 PUSH1 0x1 ADD DUP1 SLOAD PUSH2 0x1E4 SWAP1 PUSH2 0xDED JUMP JUMPDEST DUP1 PUSH1 0x1F ADD PUSH1 0x20 DUP1 SWAP2 DIV MUL PUSH1 0x20 ADD PUSH1 0x40 MLOAD SWAP1 DUP2 ADD PUSH1 0x40 MSTORE DUP1 SWAP3 SWAP2 SWAP1 DUP2 DUP2 MSTORE PUSH1 0x20 ADD DUP3 DUP1 SLOAD PUSH2 0x210 SWAP1 PUSH2 0xDED JUMP JUMPDEST DUP1 ISZERO PUSH2 0x25B JUMPI DUP1 PUSH1 0x1F LT PUSH2 0x232 JUMPI PUSH2 0x100 DUP1 DUP4 SLOAD DIV MUL DUP4 MSTORE SWAP2 PUSH1 0x20 ADD SWAP2 PUSH2 0x25B JUMP JUMPDEST DUP3 ADD SWAP2 SWAP1 PUSH0 MSTORE PUSH1 0x20 PUSH0 KECCAK256 SWAP1 JUMPDEST DUP2 SLOAD DUP2 MSTORE SWAP1 PUSH1 0x1 ADD SWAP1 PUSH1 0x20 ADD DUP1 DUP4 GT PUSH2 0x23E JUMPI DUP3 SWAP1 SUB PUSH1 0x1F AND DUP3 ADD SWAP2 JUMPDEST POP POP POP POP POP SWAP1 DUP1 PUSH1 0x2 ADD SLOAD SWAP1 DUP1 PUSH1 0x3 ADD SLOAD SWAP1 POP DUP5 JUMP JUMPDEST PUSH1 0x60 PUSH1 0x1 PUSH0 DUP4 PUSH20 0xFFFFFFFFFFFFFFFFFFFFFFFFFFFFFFFFFFFFFFFF AND PUSH20 0xFFFFFFFFFFFFFFFFFFFFFFFFFFFFFFFFFFFFFFFF AND DUP2 MSTORE PUSH1 0x20 ADD SWAP1 DUP2 MSTORE PUSH1 0x20 ADD PUSH0 KECCAK256 DUP1 SLOAD DUP1 PUSH1 0x20 MUL PUSH1 0x20 ADD PUSH1 0x40 MLOAD SWAP1 DUP2 ADD PUSH1 0x40 MSTORE DUP1 SWAP3 SWAP2 SWAP1 DUP2 DUP2 MSTORE PUSH1 0x20 ADD PUSH0 SWAP1 JUMPDEST DUP3 DUP3 LT ISZERO PUSH2 0x3F7 JUMPI DUP4 DUP3 SWAP1 PUSH0 MSTORE PUSH1 0x20 PUSH0 KECCAK256 SWAP1 PUSH1 0x4 MUL ADD PUSH1 0x40 MLOAD DUP1 PUSH1 0x80 ADD PUSH1 0x40 MSTORE SWAP1 DUP2 PUSH0 DUP3 ADD PUSH0 SWAP1 SLOAD SWAP1 PUSH2 0x100 EXP SWAP1 DIV PUSH20 0xFFFFFFFFFFFFFFFFFFFFFFFFFFFFFFFFFFFFFFFF AND PUSH20 0xFFFFFFFFFFFFFFFFFFFFFFFFFFFFFFFFFFFFFFFF AND PUSH20 0xFFFFFFFFFFFFFFFFFFFFFFFFFFFFFFFFFFFFFFFF AND DUP2 MSTORE PUSH1 0x20 ADD PUSH1 0x1 DUP3 ADD DUP1 SLOAD PUSH2 0x354 SWAP1 PUSH2 0xDED JUMP JUMPDEST DUP1 PUSH1 0x1F ADD PUSH1 0x20 DUP1 SWAP2 DIV MUL PUSH1 0x20 ADD PUSH1 0x40 MLOAD SWAP1 DUP2 ADD PUSH1 0x40 MSTORE DUP1 SWAP3 SWAP2 SWAP1 DUP2 DUP2 MSTORE PUSH1 0x20 ADD DUP3 DUP1 SLOAD PUSH2 0x380 SWAP1 PUSH2 0xDED JUMP JUMPDEST DUP1 ISZERO PUSH2 0x3CB JUMPI DUP1 PUSH1 0x1F LT PUSH2 0x3A2 JUMPI PUSH2 0x100 DUP1 DUP4 SLOAD DIV MUL DUP4 MSTORE SWAP2 PUSH1 0x20 ADD SWAP2 PUSH2 0x3CB JUMP JUMPDEST DUP3 ADD SWAP2 SWAP1 PUSH0 MSTORE PUSH1 0x20 PUSH0 KECCAK256 SWAP1 JUMPDEST DUP2 SLOAD DUP2 MSTORE SWAP1 PUSH1 0x1 ADD SWAP1 PUSH1 0x20 ADD DUP1 DUP4 GT PUSH2 0x3AE JUMPI DUP3 SWAP1 SUB PUSH1 0x1F AND DUP3 ADD SWAP2 JUMPDEST POP POP POP POP POP DUP2 MSTORE PUSH1 0x20 ADD PUSH1 0x2 DUP3 ADD SLOAD DUP2 MSTORE PUSH1 0x20 ADD PUSH1 0x3 DUP3 ADD SLOAD DUP2 MSTORE POP POP DUP2 MSTORE PUSH1 0x20 ADD SWAP1 PUSH1 0x1 ADD SWAP1 PUSH2 0x2CF JUMP JUMPDEST POP POP POP POP SWAP1 POP SWAP2 SWAP1 POP JUMP JUMPDEST DUP1 PUSH0 DUP1 PUSH2 0x100 EXP DUP2 SLOAD DUP2 PUSH2 0xFFFF MUL NOT AND SWAP1 DUP4 PUSH2 0xFFFF AND MUL OR SWAP1 SSTORE POP POP JUMP JUMPDEST PUSH0 DUP1 SLOAD SWAP1 PUSH2 0x100 EXP SWAP1 DIV PUSH2 0xFFFF AND DUP2 JUMP JUMPDEST PUSH0 DUP1 SLOAD SWAP1 PUSH2 0x100 EXP SWAP1 DIV PUSH2 0xFFFF AND PUSH2 0xFFFF AND DUP2 MLOAD GT ISZERO PUSH2 0x486 JUMPI PUSH1 0x40 MLOAD PUSH32 0x8C379A000000000000000000000000000000000000000000000000000000000 DUP2 MSTORE PUSH1 0x4 ADD PUSH2 0x47D SWAP1 PUSH2 0xE67 JUMP JUMPDEST PUSH1 0x40 MLOAD DUP1 SWAP2 SUB SWAP1 REVERT JUMPDEST PUSH0 PUSH1 0x40 MLOAD DUP1 PUSH1 0x80 ADD PUSH1 0x40 MSTORE DUP1 CALLER PUSH20 0xFFFFFFFFFFFFFFFFFFFFFFFFFFFFFFFFFFFFFFFF AND DUP2 MSTORE PUSH1 0x20 ADD DUP4 DUP2 MSTORE PUSH1 0x20 ADD TIMESTAMP DUP2 MSTORE PUSH1 0x20 ADD PUSH0 DUP2 MSTORE POP SWAP1 POP PUSH1 0x1 PUSH0 CALLER PUSH20 0xFFFFFFFFFFFFFFFFFFFFFFFFFFFFFFFFFFFFFFFF AND PUSH20 0xFFFFFFFFFFFFFFFFFFFFFFFFFFFFFFFFFFFFFFFF AND DUP2 MSTORE PUSH1 0x20 ADD SWAP1 DUP2 MSTORE PUSH1 0x20 ADD PUSH0 KECCAK256 DUP2 SWAP1 DUP1 PUSH1 0x1 DUP2 SLOAD ADD DUP1 DUP3 SSTORE DUP1 SWAP2 POP POP PUSH1 0x1 SWAP1 SUB SWAP1 PUSH0 MSTORE PUSH1 0x20 PUSH0 KECCAK256 SWAP1 PUSH1 0x4 MUL ADD PUSH0 SWAP1 SWAP2 SWAP1 SWAP2 SWAP1 SWAP2 POP PUSH0 DUP3 ADD MLOAD DUP2 PUSH0 ADD PUSH0 PUSH2 0x100 EXP DUP2 SLOAD DUP2 PUSH20 0xFFFFFFFFFFFFFFFFFFFFFFFFFFFFFFFFFFFFFFFF MUL NOT AND SWAP1 DUP4 PUSH20 0xFFFFFFFFFFFFFFFFFFFFFFFFFFFFFFFFFFFFFFFF AND MUL OR SWAP1 SSTORE POP PUSH1 0x20 DUP3 ADD MLOAD DUP2 PUSH1 0x1 ADD SWAP1 DUP2 PUSH2 0x57D SWAP2 SWAP1 PUSH2 0x1022 JUMP JUMPDEST POP PUSH1 0x40 DUP3 ADD MLOAD DUP2 PUSH1 0x2 ADD SSTORE PUSH1 0x60 DUP3 ADD MLOAD DUP2 PUSH1 0x3 ADD SSTORE POP POP POP POP JUMP JUMPDEST PUSH0 PUSH1 0x2 SWAP1 SLOAD SWAP1 PUSH2 0x100 EXP SWAP1 DIV PUSH20 0xFFFFFFFFFFFFFFFFFFFFFFFFFFFFFFFFFFFFFFFF AND DUP2 JUMP JUMPDEST PUSH2 0x5C5 PUSH2 0x72A JUMP JUMPDEST PUSH1 0x1 PUSH0 CALLER PUSH20 0xFFFFFFFFFFFFFFFFFFFFFFFFFFFFFFFFFFFFFFFF AND PUSH20 0xFFFFFFFFFFFFFFFFFFFFFFFFFFFFFFFFFFFFFFFF AND DUP2 MSTORE PUSH1 0x20 ADD SWAP1 DUP2 MSTORE PUSH1 0x20 ADD PUSH0 KECCAK256 DUP3 DUP2 SLOAD DUP2 LT PUSH2 0x614 JUMPI PUSH2 0x613 PUSH2 0x10F1 JUMP JUMPDEST JUMPDEST SWAP1 PUSH0 MSTORE PUSH1 0x20 PUSH0 KECCAK256 SWAP1 PUSH1 0x4 MUL ADD PUSH1 0x40 MLOAD DUP1 PUSH1 0x80 ADD PUSH1 0x40 MSTORE SWAP1 DUP2 PUSH0 DUP3 ADD PUSH0 SWAP1 SLOAD SWAP1 PUSH2 0x100 EXP SWAP1 DIV PUSH20 0xFFFFFFFFFFFFFFFFFFFFFFFFFFFFFFFFFFFFFFFF AND PUSH20 0xFFFFFFFFFFFFFFFFFFFFFFFFFFFFFFFFFFFFFFFF AND PUSH20 0xFFFFFFFFFFFFFFFFFFFFFFFFFFFFFFFFFFFFFFFF AND DUP2 MSTORE PUSH1 0x20 ADD PUSH1 0x1 DUP3 ADD DUP1 SLOAD PUSH2 0x68F SWAP1 PUSH2 0xDED JUMP JUMPDEST DUP1 PUSH1 0x1F ADD PUSH1 0x20 DUP1 SWAP2 DIV MUL PUSH1 0x20 ADD PUSH1 0x40 MLOAD SWAP1 DUP2 ADD PUSH1 0x40 MSTORE DUP1 SWAP3 SWAP2 SWAP1 DUP2 DUP2 MSTORE PUSH1 0x20 ADD DUP3 DUP1 SLOAD PUSH2 0x6BB SWAP1 PUSH2 0xDED JUMP JUMPDEST DUP1 ISZERO PUSH2 0x706 JUMPI DUP1 PUSH1 0x1F LT PUSH2 0x6DD JUMPI PUSH2 0x100 DUP1 DUP4 SLOAD DIV MUL DUP4 MSTORE SWAP2 PUSH1 0x20 ADD SWAP2 PUSH2 0x706 JUMP JUMPDEST DUP3 ADD SWAP2 SWAP1 PUSH0 MSTORE PUSH1 0x20 PUSH0 KECCAK256 SWAP1 JUMPDEST DUP2 SLOAD DUP2 MSTORE SWAP1 PUSH1 0x1 ADD SWAP1 PUSH1 0x20 ADD DUP1 DUP4 GT PUSH2 0x6E9 JUMPI DUP3 SWAP1 SUB PUSH1 0x1F AND DUP3 ADD SWAP2 JUMPDEST POP POP POP POP POP DUP2 MSTORE PUSH1 0x20 ADD PUSH1 0x2 DUP3 ADD SLOAD DUP2 MSTORE PUSH1 0x20 ADD PUSH1 0x3 DUP3 ADD SLOAD DUP2 MSTORE POP POP SWAP1 POP SWAP2 SWAP1 POP JUMP JUMPDEST PUSH1 0x40 MLOAD DUP1 PUSH1 0x80 ADD PUSH1 0x40 MSTORE DUP1 PUSH0 PUSH20 0xFFFFFFFFFFFFFFFFFFFFFFFFFFFFFFFFFFFFFFFF AND DUP2 MSTORE PUSH1 0x20 ADD PUSH1 0x60 DUP2 MSTORE PUSH1 0x20 ADD PUSH0 DUP2 MSTORE PUSH1 0x20 ADD PUSH0 DUP2 MSTORE POP SWAP1 JUMP JUMPDEST PUSH0 PUSH1 0x40 MLOAD SWAP1 POP SWAP1 JUMP JUMPDEST PUSH0 DUP1 REVERT JUMPDEST PUSH0 DUP1 REVERT JUMPDEST PUSH0 PUSH20 0xFFFFFFFFFFFFFFFFFFFFFFFFFFFFFFFFFFFFFFFF DUP3 AND SWAP1 POP SWAP2 SWAP1 POP JUMP JUMPDEST PUSH0 PUSH2 0x79F DUP3 PUSH2 0x776 JUMP JUMPDEST SWAP1 POP SWAP2 SWAP1 POP JUMP JUMPDEST PUSH2 0x7AF DUP2 PUSH2 0x795 JUMP JUMPDEST DUP2 EQ PUSH2 0x7B9 JUMPI PUSH0 DUP1 REVERT JUMPDEST POP JUMP JUMPDEST PUSH0 DUP2 CALLDATALOAD SWAP1 POP PUSH2 0x7CA DUP2 PUSH2 0x7A6 JUMP JUMPDEST SWAP3 SWAP2 POP POP JUMP JUMPDEST PUSH0 DUP2 SWAP1 POP SWAP2 SWAP1 POP JUMP JUMPDEST PUSH2 0x7E2 DUP2 PUSH2 0x7D0 JUMP JUMPDEST DUP2 EQ PUSH2 0x7EC JUMPI PUSH0 DUP1 REVERT JUMPDEST POP JUMP JUMPDEST PUSH0 DUP2 CALLDATALOAD SWAP1 POP PUSH2 0x7FD DUP2 PUSH2 0x7D9 JUMP JUMPDEST SWAP3 SWAP2 POP POP JUMP JUMPDEST PUSH0 DUP1 PUSH1 0x40 DUP4 DUP6 SUB SLT ISZERO PUSH2 0x819 JUMPI PUSH2 0x818 PUSH2 0x76E JUMP JUMPDEST JUMPDEST PUSH0 PUSH2 0x826 DUP6 DUP3 DUP7 ADD PUSH2 0x7BC JUMP JUMPDEST SWAP3 POP POP PUSH1 0x20 PUSH2 0x837 DUP6 DUP3 DUP7 ADD PUSH2 0x7EF JUMP JUMPDEST SWAP2 POP POP SWAP3 POP SWAP3 SWAP1 POP JUMP JUMPDEST PUSH2 0x84A DUP2 PUSH2 0x795 JUMP JUMPDEST DUP3 MSTORE POP POP JUMP JUMPDEST PUSH0 DUP2 MLOAD SWAP1 POP SWAP2 SWAP1 POP JUMP JUMPDEST PUSH0 DUP3 DUP3 MSTORE PUSH1 0x20 DUP3 ADD SWAP1 POP SWAP3 SWAP2 POP POP JUMP JUMPDEST PUSH0 JUMPDEST DUP4 DUP2 LT ISZERO PUSH2 0x887 JUMPI DUP1 DUP3 ADD MLOAD DUP2 DUP5 ADD MSTORE PUSH1 0x20 DUP2 ADD SWAP1 POP PUSH2 0x86C JUMP JUMPDEST PUSH0 DUP5 DUP5 ADD MSTORE POP POP POP POP JUMP JUMPDEST PUSH0 PUSH1 0x1F NOT PUSH1 0x1F DUP4 ADD AND SWAP1 POP SWAP2 SWAP1 POP JUMP JUMPDEST PUSH0 PUSH2 0x8AC DUP3 PUSH2 0x850 JUMP JUMPDEST PUSH2 0x8B6 DUP2 DUP6 PUSH2 0x85A JUMP JUMPDEST SWAP4 POP PUSH2 0x8C6 DUP2 DUP6 PUSH1 0x20 DUP7 ADD PUSH2 0x86A JUMP JUMPDEST PUSH2 0x8CF DUP2 PUSH2 0x892 JUMP JUMPDEST DUP5 ADD SWAP2 POP POP SWAP3 SWAP2 POP POP JUMP JUMPDEST PUSH2 0x8E3 DUP2 PUSH2 0x7D0 JUMP JUMPDEST DUP3 MSTORE POP POP JUMP JUMPDEST PUSH0 PUSH1 0x80 DUP3 ADD SWAP1 POP PUSH2 0x8FC PUSH0 DUP4 ADD DUP8 PUSH2 0x841 JUMP JUMPDEST DUP2 DUP2 SUB PUSH1 0x20 DUP4 ADD MSTORE PUSH2 0x90E DUP2 DUP7 PUSH2 0x8A2 JUMP JUMPDEST SWAP1 POP PUSH2 0x91D PUSH1 0x40 DUP4 ADD DUP6 PUSH2 0x8DA JUMP JUMPDEST PUSH2 0x92A PUSH1 0x60 DUP4 ADD DUP5 PUSH2 0x8DA JUMP JUMPDEST SWAP6 SWAP5 POP POP POP POP POP JUMP JUMPDEST PUSH0 PUSH1 0x20 DUP3 DUP5 SUB SLT ISZERO PUSH2 0x948 JUMPI PUSH2 0x947 PUSH2 0x76E JUMP JUMPDEST JUMPDEST PUSH0 PUSH2 0x955 DUP5 DUP3 DUP6 ADD PUSH2 0x7BC JUMP JUMPDEST SWAP2 POP POP SWAP3 SWAP2 POP POP JUMP JUMPDEST PUSH0 DUP2 MLOAD SWAP1 POP SWAP2 SWAP1 POP JUMP JUMPDEST PUSH0 DUP3 DUP3 MSTORE PUSH1 0x20 DUP3 ADD SWAP1 POP SWAP3 SWAP2 POP POP JUMP JUMPDEST PUSH0 DUP2 SWAP1 POP PUSH1 0x20 DUP3 ADD SWAP1 POP SWAP2 SWAP1 POP JUMP JUMPDEST PUSH2 0x990 DUP2 PUSH2 0x795 JUMP JUMPDEST DUP3 MSTORE POP POP JUMP JUMPDEST PUSH0 DUP3 DUP3 MSTORE PUSH1 0x20 DUP3 ADD SWAP1 POP SWAP3 SWAP2 POP POP JUMP JUMPDEST PUSH0 PUSH2 0x9B0 DUP3 PUSH2 0x850 JUMP JUMPDEST PUSH2 0x9BA DUP2 DUP6 PUSH2 0x996 JUMP JUMPDEST SWAP4 POP PUSH2 0x9CA DUP2 DUP6 PUSH1 0x20 DUP7 ADD PUSH2 0x86A JUMP JUMPDEST PUSH2 0x9D3 DUP2 PUSH2 0x892 JUMP JUMPDEST DUP5 ADD SWAP2 POP POP SWAP3 SWAP2 POP POP JUMP JUMPDEST PUSH2 0x9E7 DUP2 PUSH2 0x7D0 JUMP JUMPDEST DUP3 MSTORE POP POP JUMP JUMPDEST PUSH0 PUSH1 0x80 DUP4 ADD PUSH0 DUP4 ADD MLOAD PUSH2 0xA02 PUSH0 DUP7 ADD DUP3 PUSH2 0x987 JUMP JUMPDEST POP PUSH1 0x20 DUP4 ADD MLOAD DUP5 DUP3 SUB PUSH1 0x20 DUP7 ADD MSTORE PUSH2 0xA1A DUP3 DUP3 PUSH2 0x9A6 JUMP JUMPDEST SWAP2 POP POP PUSH1 0x40 DUP4 ADD MLOAD PUSH2 0xA2F PUSH1 0x40 DUP7 ADD DUP3 PUSH2 0x9DE JUMP JUMPDEST POP PUSH1 0x60 DUP4 ADD MLOAD PUSH2 0xA42 PUSH1 0x60 DUP7 ADD DUP3 PUSH2 0x9DE JUMP JUMPDEST POP DUP1 SWAP2 POP POP SWAP3 SWAP2 POP POP JUMP JUMPDEST PUSH0 PUSH2 0xA58 DUP4 DUP4 PUSH2 0x9ED JUMP JUMPDEST SWAP1 POP SWAP3 SWAP2 POP POP JUMP JUMPDEST PUSH0 PUSH1 0x20 DUP3 ADD SWAP1 POP SWAP2 SWAP1 POP JUMP JUMPDEST PUSH0 PUSH2 0xA76 DUP3 PUSH2 0x95E JUMP JUMPDEST PUSH2 0xA80 DUP2 DUP6 PUSH2 0x968 JUMP JUMPDEST SWAP4 POP DUP4 PUSH1 0x20 DUP3 MUL DUP6 ADD PUSH2 0xA92 DUP6 PUSH2 0x978 JUMP JUMPDEST DUP1 PUSH0 JUMPDEST DUP6 DUP2 LT ISZERO PUSH2 0xACD JUMPI DUP5 DUP5 SUB DUP10 MSTORE DUP2 MLOAD PUSH2 0xAAE DUP6 DUP3 PUSH2 0xA4D JUMP JUMPDEST SWAP5 POP PUSH2 0xAB9 DUP4 PUSH2 0xA60 JUMP JUMPDEST SWAP3 POP PUSH1 0x20 DUP11 ADD SWAP10 POP POP PUSH1 0x1 DUP2 ADD SWAP1 POP PUSH2 0xA95 JUMP JUMPDEST POP DUP3 SWAP8 POP DUP8 SWAP6 POP POP POP POP POP POP SWAP3 SWAP2 POP POP JUMP JUMPDEST PUSH0 PUSH1 0x20 DUP3 ADD SWAP1 POP DUP2 DUP2 SUB PUSH0 DUP4 ADD MSTORE PUSH2 0xAF7 DUP2 DUP5 PUSH2 0xA6C JUMP JUMPDEST SWAP1 POP SWAP3 SWAP2 POP POP JUMP JUMPDEST PUSH0 PUSH2 0xFFFF DUP3 AND SWAP1 POP SWAP2 SWAP1 POP JUMP JUMPDEST PUSH2 0xB15 DUP2 PUSH2 0xAFF JUMP JUMPDEST DUP2 EQ PUSH2 0xB1F JUMPI PUSH0 DUP1 REVERT JUMPDEST POP JUMP JUMPDEST PUSH0 DUP2 CALLDATALOAD SWAP1 POP PUSH2 0xB30 DUP2 PUSH2 0xB0C JUMP JUMPDEST SWAP3 SWAP2 POP POP JUMP JUMPDEST PUSH0 PUSH1 0x20 DUP3 DUP5 SUB SLT ISZERO PUSH2 0xB4B JUMPI PUSH2 0xB4A PUSH2 0x76E JUMP JUMPDEST JUMPDEST PUSH0 PUSH2 0xB58 DUP5 DUP3 DUP6 ADD PUSH2 0xB22 JUMP JUMPDEST SWAP2 POP POP SWAP3 SWAP2 POP POP JUMP JUMPDEST PUSH2 0xB6A DUP2 PUSH2 0xAFF JUMP JUMPDEST DUP3 MSTORE POP POP JUMP JUMPDEST PUSH0 PUSH1 0x20 DUP3 ADD SWAP1 POP PUSH2 0xB83 PUSH0 DUP4 ADD DUP5 PUSH2 0xB61 JUMP JUMPDEST SWAP3 SWAP2 POP POP JUMP JUMPDEST PUSH0 DUP1 REVERT JUMPDEST PUSH0 DUP1 REVERT JUMPDEST PUSH32 0x4E487B7100000000000000000000000000000000000000000000000000000000 PUSH0 MSTORE PUSH1 0x41 PUSH1 0x4 MSTORE PUSH1 0x24 PUSH0 REVERT JUMPDEST PUSH2 0xBC7 DUP3 PUSH2 0x892 JUMP JUMPDEST DUP2 ADD DUP2 DUP2 LT PUSH8 0xFFFFFFFFFFFFFFFF DUP3 GT OR ISZERO PUSH2 0xBE6 JUMPI PUSH2 0xBE5 PUSH2 0xB91 JUMP JUMPDEST JUMPDEST DUP1 PUSH1 0x40 MSTORE POP POP POP JUMP JUMPDEST PUSH0 PUSH2 0xBF8 PUSH2 0x765 JUMP JUMPDEST SWAP1 POP PUSH2 0xC04 DUP3 DUP3 PUSH2 0xBBE JUMP JUMPDEST SWAP2 SWAP1 POP JUMP JUMPDEST PUSH0 PUSH8 0xFFFFFFFFFFFFFFFF DUP3 GT ISZERO PUSH2 0xC23 JUMPI PUSH2 0xC22 PUSH2 0xB91 JUMP JUMPDEST JUMPDEST PUSH2 0xC2C DUP3 PUSH2 0x892 JUMP JUMPDEST SWAP1 POP PUSH1 0x20 DUP2 ADD SWAP1 POP SWAP2 SWAP1 POP JUMP JUMPDEST DUP3 DUP2 DUP4 CALLDATACOPY PUSH0 DUP4 DUP4 ADD MSTORE POP POP POP JUMP JUMPDEST PUSH0 PUSH2 0xC59 PUSH2 0xC54 DUP5 PUSH2 0xC09 JUMP JUMPDEST PUSH2 0xBEF JUMP JUMPDEST SWAP1 POP DUP3 DUP2 MSTORE PUSH1 0x20 DUP2 ADD DUP5 DUP5 DUP5 ADD GT ISZERO PUSH2 0xC75 JUMPI PUSH2 0xC74 PUSH2 0xB8D JUMP JUMPDEST JUMPDEST PUSH2 0xC80 DUP5 DUP3 DUP6 PUSH2 0xC39 JUMP JUMPDEST POP SWAP4 SWAP3 POP POP POP JUMP JUMPDEST PUSH0 DUP3 PUSH1 0x1F DUP4 ADD SLT PUSH2 0xC9C JUMPI PUSH2 0xC9B PUSH2 0xB89 JUMP JUMPDEST JUMPDEST DUP2 CALLDATALOAD PUSH2 0xCAC DUP5 DUP3 PUSH1 0x20 DUP7 ADD PUSH2 0xC47 JUMP JUMPDEST SWAP2 POP POP SWAP3 SWAP2 POP POP JUMP JUMPDEST PUSH0 PUSH1 0x20 DUP3 DUP5 SUB SLT ISZERO PUSH2 0xCCA JUMPI PUSH2 0xCC9 PUSH2 0x76E JUMP JUMPDEST JUMPDEST PUSH0 DUP3 ADD CALLDATALOAD PUSH8 0xFFFFFFFFFFFFFFFF DUP2 GT ISZERO PUSH2 0xCE7 JUMPI PUSH2 0xCE6 PUSH2 0x772 JUMP JUMPDEST JUMPDEST PUSH2 0xCF3 DUP5 DUP3 DUP6 ADD PUSH2 0xC88 JUMP JUMPDEST SWAP2 POP POP SWAP3 SWAP2 POP POP JUMP JUMPDEST PUSH0 PUSH1 0x20 DUP3 ADD SWAP1 POP PUSH2 0xD0F PUSH0 DUP4 ADD DUP5 PUSH2 0x841 JUMP JUMPDEST SWAP3 SWAP2 POP POP JUMP JUMPDEST PUSH0 PUSH1 0x20 DUP3 DUP5 SUB SLT ISZERO PUSH2 0xD2A JUMPI PUSH2 0xD29 PUSH2 0x76E JUMP JUMPDEST JUMPDEST PUSH0 PUSH2 0xD37 DUP5 DUP3 DUP6 ADD PUSH2 0x7EF JUMP JUMPDEST SWAP2 POP POP SWAP3 SWAP2 POP POP JUMP JUMPDEST PUSH0 PUSH1 0x80 DUP4 ADD PUSH0 DUP4 ADD MLOAD PUSH2 0xD55 PUSH0 DUP7 ADD DUP3 PUSH2 0x987 JUMP JUMPDEST POP PUSH1 0x20 DUP4 ADD MLOAD DUP5 DUP3 SUB PUSH1 0x20 DUP7 ADD MSTORE PUSH2 0xD6D DUP3 DUP3 PUSH2 0x9A6 JUMP JUMPDEST SWAP2 POP POP PUSH1 0x40 DUP4 ADD MLOAD PUSH2 0xD82 PUSH1 0x40 DUP7 ADD DUP3 PUSH2 0x9DE JUMP JUMPDEST POP PUSH1 0x60 DUP4 ADD MLOAD PUSH2 0xD95 PUSH1 0x60 DUP7 ADD DUP3 PUSH2 0x9DE JUMP JUMPDEST POP DUP1 SWAP2 POP POP SWAP3 SWAP2 POP POP JUMP JUMPDEST PUSH0 PUSH1 0x20 DUP3 ADD SWAP1 POP DUP2 DUP2 SUB PUSH0 DUP4 ADD MSTORE PUSH2 0xDB8 DUP2 DUP5 PUSH2 0xD40 JUMP JUMPDEST SWAP1 POP SWAP3 SWAP2 POP POP JUMP JUMPDEST PUSH32 0x4E487B7100000000000000000000000000000000000000000000000000000000 PUSH0 MSTORE PUSH1 0x22 PUSH1 0x4 MSTORE PUSH1 0x24 PUSH0 REVERT JUMPDEST PUSH0 PUSH1 0x2 DUP3 DIV SWAP1 POP PUSH1 0x1 DUP3 AND DUP1 PUSH2 0xE04 JUMPI PUSH1 0x7F DUP3 AND SWAP2 POP JUMPDEST PUSH1 0x20 DUP3 LT DUP2 SUB PUSH2 0xE17 JUMPI PUSH2 0xE16 PUSH2 0xDC0 JUMP JUMPDEST JUMPDEST POP SWAP2 SWAP1 POP JUMP JUMPDEST PUSH32 0x547765657420697320746F6F206C6F6E672062726F2100000000000000000000 PUSH0 DUP3 ADD MSTORE POP JUMP JUMPDEST PUSH0 PUSH2 0xE51 PUSH1 0x16 DUP4 PUSH2 0x85A JUMP JUMPDEST SWAP2 POP PUSH2 0xE5C DUP3 PUSH2 0xE1D JUMP JUMPDEST PUSH1 0x20 DUP3 ADD SWAP1 POP SWAP2 SWAP1 POP JUMP JUMPDEST PUSH0 PUSH1 0x20 DUP3 ADD SWAP1 POP DUP2 DUP2 SUB PUSH0 DUP4 ADD MSTORE PUSH2 0xE7E DUP2 PUSH2 0xE45 JUMP JUMPDEST SWAP1 POP SWAP2 SWAP1 POP JUMP JUMPDEST PUSH0 DUP2 SWAP1 POP DUP2 PUSH0 MSTORE PUSH1 0x20 PUSH0 KECCAK256 SWAP1 POP SWAP2 SWAP1 POP JUMP JUMPDEST PUSH0 PUSH1 0x20 PUSH1 0x1F DUP4 ADD DIV SWAP1 POP SWAP2 SWAP1 POP JUMP JUMPDEST PUSH0 DUP3 DUP3 SHL SWAP1 POP SWAP3 SWAP2 POP POP JUMP JUMPDEST PUSH0 PUSH1 0x8 DUP4 MUL PUSH2 0xEE1 PUSH32 0xFFFFFFFFFFFFFFFFFFFFFFFFFFFFFFFFFFFFFFFFFFFFFFFFFFFFFFFFFFFFFFFF DUP3 PUSH2 0xEA6 JUMP JUMPDEST PUSH2 0xEEB DUP7 DUP4 PUSH2 0xEA6 JUMP JUMPDEST SWAP6 POP DUP1 NOT DUP5 AND SWAP4 POP DUP1 DUP7 AND DUP5 OR SWAP3 POP POP POP SWAP4 SWAP3 POP POP POP JUMP JUMPDEST PUSH0 DUP2 SWAP1 POP SWAP2 SWAP1 POP JUMP JUMPDEST PUSH0 PUSH2 0xF26 PUSH2 0xF21 PUSH2 0xF1C DUP5 PUSH2 0x7D0 JUMP JUMPDEST PUSH2 0xF03 JUMP JUMPDEST PUSH2 0x7D0 JUMP JUMPDEST SWAP1 POP SWAP2 SWAP1 POP JUMP JUMPDEST PUSH0 DUP2 SWAP1 POP SWAP2 SWAP1 POP JUMP JUMPDEST PUSH2 0xF3F DUP4 PUSH2 0xF0C JUMP JUMPDEST PUSH2 0xF53 PUSH2 0xF4B DUP3 PUSH2 0xF2D JUMP JUMPDEST DUP5 DUP5 SLOAD PUSH2 0xEB2 JUMP JUMPDEST DUP3 SSTORE POP POP POP POP JUMP JUMPDEST PUSH0 SWAP1 JUMP JUMPDEST PUSH2 0xF67 PUSH2 0xF5B JUMP JUMPDEST PUSH2 0xF72 DUP2 DUP5 DUP5 PUSH2 0xF36 JUMP JUMPDEST POP POP POP JUMP JUMPDEST JUMPDEST DUP2 DUP2 LT ISZERO PUSH2 0xF95 JUMPI PUSH2 0xF8A PUSH0 DUP3 PUSH2 0xF5F JUMP JUMPDEST PUSH1 0x1 DUP2 ADD SWAP1 POP PUSH2 0xF78 JUMP JUMPDEST POP POP JUMP JUMPDEST PUSH1 0x1F DUP3 GT ISZERO PUSH2 0xFDA JUMPI PUSH2 0xFAB DUP2 PUSH2 0xE85 JUMP JUMPDEST PUSH2 0xFB4 DUP5 PUSH2 0xE97 JUMP JUMPDEST DUP2 ADD PUSH1 0x20 DUP6 LT ISZERO PUSH2 0xFC3 JUMPI DUP2 SWAP1 POP JUMPDEST PUSH2 0xFD7 PUSH2 0xFCF DUP6 PUSH2 0xE97 JUMP JUMPDEST DUP4 ADD DUP3 PUSH2 0xF77 JUMP JUMPDEST POP POP JUMPDEST POP POP POP JUMP JUMPDEST PUSH0 DUP3 DUP3 SHR SWAP1 POP SWAP3 SWAP2 POP POP JUMP JUMPDEST PUSH0 PUSH2 0xFFA PUSH0 NOT DUP5 PUSH1 0x8 MUL PUSH2 0xFDF JUMP JUMPDEST NOT DUP1 DUP4 AND SWAP2 POP POP SWAP3 SWAP2 POP POP JUMP JUMPDEST PUSH0 PUSH2 0x1012 DUP4 DUP4 PUSH2 0xFEB JUMP JUMPDEST SWAP2 POP DUP3 PUSH1 0x2 MUL DUP3 OR SWAP1 POP SWAP3 SWAP2 POP POP JUMP JUMPDEST PUSH2 0x102B DUP3 PUSH2 0x850 JUMP JUMPDEST PUSH8 0xFFFFFFFFFFFFFFFF DUP2 GT ISZERO PUSH2 0x1044 JUMPI PUSH2 0x1043 PUSH2 0xB91 JUMP JUMPDEST JUMPDEST PUSH2 0x104E DUP3 SLOAD PUSH2 0xDED JUMP JUMPDEST PUSH2 0x1059 DUP3 DUP3 DUP6 PUSH2 0xF99 JUMP JUMPDEST PUSH0 PUSH1 0x20 SWAP1 POP PUSH1 0x1F DUP4 GT PUSH1 0x1 DUP2 EQ PUSH2 0x108A JUMPI PUSH0 DUP5 ISZERO PUSH2 0x1078 JUMPI DUP3 DUP8 ADD MLOAD SWAP1 POP JUMPDEST PUSH2 0x1082 DUP6 DUP3 PUSH2 0x1007 JUMP JUMPDEST DUP7 SSTORE POP PUSH2 0x10E9 JUMP JUMPDEST PUSH1 0x1F NOT DUP5 AND PUSH2 0x1098 DUP7 PUSH2 0xE85 JUMP JUMPDEST PUSH0 JUMPDEST DUP3 DUP2 LT ISZERO PUSH2 0x10BF JUMPI DUP5 DUP10 ADD MLOAD DUP3 SSTORE PUSH1 0x1 DUP3 ADD SWAP2 POP PUSH1 0x20 DUP6 ADD SWAP5 POP PUSH1 0x20 DUP2 ADD SWAP1 POP PUSH2 0x109A JUMP JUMPDEST DUP7 DUP4 LT ISZERO PUSH2 0x10DC JUMPI DUP5 DUP10 ADD MLOAD PUSH2 0x10D8 PUSH1 0x1F DUP10 AND DUP3 PUSH2 0xFEB JUMP JUMPDEST DUP4 SSTORE POP JUMPDEST PUSH1 0x1 PUSH1 0x2 DUP9 MUL ADD DUP9 SSTORE POP POP POP JUMPDEST POP POP POP POP POP POP JUMP JUMPDEST PUSH32 0x4E487B7100000000000000000000000000000000000000000000000000000000 PUSH0 MSTORE PUSH1 0x32 PUSH1 0x4 MSTORE PUSH1 0x24 PUSH0 REVERT INVALID LOG2 PUSH5 0x6970667358 0x22 SLT KECCAK256 SWAP11 0xA8 0xD7 0xB9 0xB0 SWAP3 CODECOPY INVALID 0xB5 SWAP10 0xF8 SWAP14 0xDC DUP15 0xE4 BLOCKHASH SSTORE DUP15 DUP3 0xDA PUSH26 0x86E3D34B1B26D19EE16E2964736F6C6343000818003300000000 "
				},
				"gasEstimates": {
					"creation": {
						"codeDepositCost": "887200",
						"executionCost": "25186",
						"totalCost": "912386"
					},
					"external": {
						"MAX_TWEET_LENGTH()": "2463",
						"changeTweetLength(uint16)": "24718",
						"createTweet(string)": "infinite",
						"getAllTweets(address)": "infinite",
						"getTweet(uint256)": "infinite",
						"owner()": "2602",
						"tweets(address,uint256)": "infinite"
					}
				},
				"methodIdentifiers": {
					"MAX_TWEET_LENGTH()": "6eb10797",
					"changeTweetLength(uint16)": "58bfa4ab",
					"createTweet(string)": "7c9cd2bc",
					"getAllTweets(address)": "12e7ee1c",
					"getTweet(uint256)": "c3ad5ecb",
					"owner()": "8da5cb5b",
					"tweets(address,uint256)": "05a1b4a9"
				}
			},
			"storageLayout": {
				"storage": [
					{
						"astId": 4,
						"contract": "contracts/Exercises/17-Twitter-Modifier-Exercise.sol:Twitter",
						"label": "MAX_TWEET_LENGTH",
						"offset": 0,
						"slot": "0",
						"type": "t_uint16"
					},
					{
						"astId": 15,
						"contract": "contracts/Exercises/17-Twitter-Modifier-Exercise.sol:Twitter",
						"label": "owner",
						"offset": 2,
						"slot": "0",
						"type": "t_address"
					},
					{
						"astId": 21,
						"contract": "contracts/Exercises/17-Twitter-Modifier-Exercise.sol:Twitter",
						"label": "tweets",
						"offset": 0,
						"slot": "1",
						"type": "t_mapping(t_address,t_array(t_struct(Tweet)13_storage)dyn_storage)"
					}
				],
				"types": {
					"t_address": {
						"encoding": "inplace",
						"label": "address",
						"numberOfBytes": "20"
					},
					"t_array(t_struct(Tweet)13_storage)dyn_storage": {
						"base": "t_struct(Tweet)13_storage",
						"encoding": "dynamic_array",
						"label": "struct Twitter.Tweet[]",
						"numberOfBytes": "32"
					},
					"t_mapping(t_address,t_array(t_struct(Tweet)13_storage)dyn_storage)": {
						"encoding": "mapping",
						"key": "t_address",
						"label": "mapping(address => struct Twitter.Tweet[])",
						"numberOfBytes": "32",
						"value": "t_array(t_struct(Tweet)13_storage)dyn_storage"
					},
					"t_string_storage": {
						"encoding": "bytes",
						"label": "string",
						"numberOfBytes": "32"
					},
					"t_struct(Tweet)13_storage": {
						"encoding": "inplace",
						"label": "struct Twitter.Tweet",
						"members": [
							{
								"astId": 6,
								"contract": "contracts/Exercises/17-Twitter-Modifier-Exercise.sol:Twitter",
								"label": "author",
								"offset": 0,
								"slot": "0",
								"type": "t_address"
							},
							{
								"astId": 8,
								"contract": "contracts/Exercises/17-Twitter-Modifier-Exercise.sol:Twitter",
								"label": "content",
								"offset": 0,
								"slot": "1",
								"type": "t_string_storage"
							},
							{
								"astId": 10,
								"contract": "contracts/Exercises/17-Twitter-Modifier-Exercise.sol:Twitter",
								"label": "timestamp",
								"offset": 0,
								"slot": "2",
								"type": "t_uint256"
							},
							{
								"astId": 12,
								"contract": "contracts/Exercises/17-Twitter-Modifier-Exercise.sol:Twitter",
								"label": "likes",
								"offset": 0,
								"slot": "3",
								"type": "t_uint256"
							}
						],
						"numberOfBytes": "128"
					},
					"t_uint16": {
						"encoding": "inplace",
						"label": "uint16",
						"numberOfBytes": "2"
					},
					"t_uint256": {
						"encoding": "inplace",
						"label": "uint256",
						"numberOfBytes": "32"
					}
				}
			},
			"userdoc": {
				"kind": "user",
				"methods": {},
				"version": 1
			}
		}
	}
}