{
	"contracts/Twitter.sol": {
		"Twitter": {
			"abi": [
				{
					"inputs": [],
					"stateMutability": "nonpayable",
					"type": "constructor"
				},
				{
					"inputs": [],
					"name": "MAX_TWEET_LENGTH",
					"outputs": [
						{
							"internalType": "uint16",
							"name": "",
							"type": "uint16"
						}
					],
					"stateMutability": "view",
					"type": "function"
				},
				{
					"inputs": [
						{
							"internalType": "uint16",
							"name": "_newTweetLength",
							"type": "uint16"
						}
					],
					"name": "changeTweetLength",
					"outputs": [],
					"stateMutability": "nonpayable",
					"type": "function"
				},
				{
					"inputs": [
						{
							"internalType": "string",
							"name": "_tweet",
							"type": "string"
						}
					],
					"name": "createTweet",
					"outputs": [],
					"stateMutability": "nonpayable",
					"type": "function"
				},
				{
					"inputs": [
						{
							"internalType": "address",
							"name": "_owner",
							"type": "address"
						}
					],
					"name": "getAllTweets",
					"outputs": [
						{
							"components": [
								{
									"internalType": "address",
									"name": "author",
									"type": "address"
								},
								{
									"internalType": "string",
									"name": "content",
									"type": "string"
								},
								{
									"internalType": "uint256",
									"name": "timestamp",
									"type": "uint256"
								},
								{
									"internalType": "uint256",
									"name": "likes",
									"type": "uint256"
								},
								{
									"internalType": "uint256",
									"name": "id",
									"type": "uint256"
								}
							],
							"internalType": "struct Twitter.Tweet[]",
							"name": "",
							"type": "tuple[]"
						}
					],
					"stateMutability": "view",
					"type": "function"
				},
				{
					"inputs": [
						{
							"internalType": "uint256",
							"name": "_i",
							"type": "uint256"
						}
					],
					"name": "getTweet",
					"outputs": [
						{
							"components": [
								{
									"internalType": "address",
									"name": "author",
									"type": "address"
								},
								{
									"internalType": "string",
									"name": "content",
									"type": "string"
								},
								{
									"internalType": "uint256",
									"name": "timestamp",
									"type": "uint256"
								},
								{
									"internalType": "uint256",
									"name": "likes",
									"type": "uint256"
								},
								{
									"internalType": "uint256",
									"name": "id",
									"type": "uint256"
								}
							],
							"internalType": "struct Twitter.Tweet",
							"name": "",
							"type": "tuple"
						}
					],
					"stateMutability": "view",
					"type": "function"
				},
				{
					"inputs": [
						{
							"internalType": "address",
							"name": "author",
							"type": "address"
						},
						{
							"internalType": "uint256",
							"name": "id",
							"type": "uint256"
						}
					],
					"name": "likeTweet",
					"outputs": [],
					"stateMutability": "nonpayable",
					"type": "function"
				},
				{
					"inputs": [],
					"name": "owner",
					"outputs": [
						{
							"internalType": "address",
							"name": "",
							"type": "address"
						}
					],
					"stateMutability": "view",
					"type": "function"
				},
				{
					"inputs": [
						{
							"internalType": "address",
							"name": "",
							"type": "address"
						},
						{
							"internalType": "uint256",
							"name": "",
							"type": "uint256"
						}
					],
					"name": "tweets",
					"outputs": [
						{
							"internalType": "address",
							"name": "author",
							"type": "address"
						},
						{
							"internalType": "string",
							"name": "content",
							"type": "string"
						},
						{
							"internalType": "uint256",
							"name": "timestamp",
							"type": "uint256"
						},
						{
							"internalType": "uint256",
							"name": "likes",
							"type": "uint256"
						},
						{
							"internalType": "uint256",
							"name": "id",
							"type": "uint256"
						}
					],
					"stateMutability": "view",
					"type": "function"
				},
				{
					"inputs": [
						{
							"internalType": "address",
							"name": "author",
							"type": "address"
						},
						{
							"internalType": "uint256",
							"name": "id",
							"type": "uint256"
						}
					],
					"name": "unlikeTweet",
					"outputs": [],
					"stateMutability": "nonpayable",
					"type": "function"
				}
			],
			"devdoc": {
				"kind": "dev",
				"methods": {},
				"version": 1
			},
			"evm": {
				"assembly": "    /* \"contracts/Twitter.sol\":62:1769  contract Twitter {... */\n  mstore(0x40, 0x80)\n    /* \"contracts/Twitter.sol\":121:124  280 */\n  0x0118\n    /* \"contracts/Twitter.sol\":88:124  uint16 public MAX_TWEET_LENGTH = 280 */\n  0x00\n  dup1\n  0x0100\n  exp\n  dup2\n  sload\n  dup2\n  0xffff\n  mul\n  not\n  and\n  swap1\n  dup4\n  0xffff\n  and\n  mul\n  or\n  swap1\n  sstore\n  pop\n    /* \"contracts/Twitter.sol\":363:414  constructor() {... */\n  callvalue\n  dup1\n  iszero\n  tag_1\n  jumpi\n  0x00\n  dup1\n  revert\ntag_1:\n  pop\n    /* \"contracts/Twitter.sol\":396:406  msg.sender */\n  caller\n    /* \"contracts/Twitter.sol\":388:393  owner */\n  0x00\n  0x02\n    /* \"contracts/Twitter.sol\":388:406  owner = msg.sender */\n  0x0100\n  exp\n  dup2\n  sload\n  dup2\n  0xffffffffffffffffffffffffffffffffffffffff\n  mul\n  not\n  and\n  swap1\n  dup4\n  0xffffffffffffffffffffffffffffffffffffffff\n  and\n  mul\n  or\n  swap1\n  sstore\n  pop\n    /* \"contracts/Twitter.sol\":62:1769  contract Twitter {... */\n  dataSize(sub_0)\n  dup1\n  dataOffset(sub_0)\n  0x00\n  codecopy\n  0x00\n  return\nstop\n\nsub_0: assembly {\n        /* \"contracts/Twitter.sol\":62:1769  contract Twitter {... */\n      mstore(0x40, 0x80)\n      callvalue\n      dup1\n      iszero\n      tag_1\n      jumpi\n      0x00\n      dup1\n      revert\n    tag_1:\n      pop\n      jumpi(tag_2, lt(calldatasize, 0x04))\n      shr(0xe0, calldataload(0x00))\n      dup1\n      0x63378216\n      gt\n      tag_12\n      jumpi\n      dup1\n      0x63378216\n      eq\n      tag_7\n      jumpi\n      dup1\n      0x6eb10797\n      eq\n      tag_8\n      jumpi\n      dup1\n      0x7c9cd2bc\n      eq\n      tag_9\n      jumpi\n      dup1\n      0x8da5cb5b\n      eq\n      tag_10\n      jumpi\n      dup1\n      0xc3ad5ecb\n      eq\n      tag_11\n      jumpi\n      jump(tag_2)\n    tag_12:\n      dup1\n      0x05a1b4a9\n      eq\n      tag_3\n      jumpi\n      dup1\n      0x12e7ee1c\n      eq\n      tag_4\n      jumpi\n      dup1\n      0x3d9b569f\n      eq\n      tag_5\n      jumpi\n      dup1\n      0x58bfa4ab\n      eq\n      tag_6\n      jumpi\n    tag_2:\n      0x00\n      dup1\n      revert\n        /* \"contracts/Twitter.sol\":312:354  mapping(address => Tweet[] ) public tweets */\n    tag_3:\n      tag_13\n      0x04\n      dup1\n      calldatasize\n      sub\n      dup2\n      add\n      swap1\n      tag_14\n      swap2\n      swap1\n      tag_15\n      jump\t// in\n    tag_14:\n      tag_16\n      jump\t// in\n    tag_13:\n      mload(0x40)\n      tag_17\n      swap6\n      swap5\n      swap4\n      swap3\n      swap2\n      swap1\n      tag_18\n      jump\t// in\n    tag_17:\n      mload(0x40)\n      dup1\n      swap2\n      sub\n      swap1\n      return\n        /* \"contracts/Twitter.sol\":1653:1766  function getAllTweets(address _owner) public view returns(Tweet[] memory){... */\n    tag_4:\n      tag_19\n      0x04\n      dup1\n      calldatasize\n      sub\n      dup2\n      add\n      swap1\n      tag_20\n      swap2\n      swap1\n      tag_21\n      jump\t// in\n    tag_20:\n      tag_22\n      jump\t// in\n    tag_19:\n      mload(0x40)\n      tag_23\n      swap2\n      swap1\n      tag_24\n      jump\t// in\n    tag_23:\n      mload(0x40)\n      dup1\n      swap2\n      sub\n      swap1\n      return\n        /* \"contracts/Twitter.sol\":1278:1527  function unlikeTweet(address author, uint256 id) external {... */\n    tag_5:\n      tag_25\n      0x04\n      dup1\n      calldatasize\n      sub\n      dup2\n      add\n      swap1\n      tag_26\n      swap2\n      swap1\n      tag_15\n      jump\t// in\n    tag_26:\n      tag_27\n      jump\t// in\n    tag_25:\n      stop\n        /* \"contracts/Twitter.sol\":537:658  function changeTweetLength(uint16 _newTweetLength) public onlyOwner {... */\n    tag_6:\n      tag_28\n      0x04\n      dup1\n      calldatasize\n      sub\n      dup2\n      add\n      swap1\n      tag_29\n      swap2\n      swap1\n      tag_30\n      jump\t// in\n    tag_29:\n      tag_31\n      jump\t// in\n    tag_28:\n      stop\n        /* \"contracts/Twitter.sol\":1095:1267  function likeTweet(address author, uint256 id) external {... */\n    tag_7:\n      tag_32\n      0x04\n      dup1\n      calldatasize\n      sub\n      dup2\n      add\n      swap1\n      tag_33\n      swap2\n      swap1\n      tag_15\n      jump\t// in\n    tag_33:\n      tag_34\n      jump\t// in\n    tag_32:\n      stop\n        /* \"contracts/Twitter.sol\":88:124  uint16 public MAX_TWEET_LENGTH = 280 */\n    tag_8:\n      tag_35\n      tag_36\n      jump\t// in\n    tag_35:\n      mload(0x40)\n      tag_37\n      swap2\n      swap1\n      tag_38\n      jump\t// in\n    tag_37:\n      mload(0x40)\n      dup1\n      swap2\n      sub\n      swap1\n      return\n        /* \"contracts/Twitter.sol\":672:1087  function createTweet(string memory _tweet) public {... */\n    tag_9:\n      tag_39\n      0x04\n      dup1\n      calldatasize\n      sub\n      dup2\n      add\n      swap1\n      tag_40\n      swap2\n      swap1\n      tag_41\n      jump\t// in\n    tag_40:\n      tag_42\n      jump\t// in\n    tag_39:\n      stop\n        /* \"contracts/Twitter.sol\":285:305  address public owner */\n    tag_10:\n      tag_43\n      tag_44\n      jump\t// in\n    tag_43:\n      mload(0x40)\n      tag_45\n      swap2\n      swap1\n      tag_46\n      jump\t// in\n    tag_45:\n      mload(0x40)\n      dup1\n      swap2\n      sub\n      swap1\n      return\n        /* \"contracts/Twitter.sol\":1536:1645  function getTweet(uint _i) public view returns (Tweet memory){... */\n    tag_11:\n      tag_47\n      0x04\n      dup1\n      calldatasize\n      sub\n      dup2\n      add\n      swap1\n      tag_48\n      swap2\n      swap1\n      tag_49\n      jump\t// in\n    tag_48:\n      tag_50\n      jump\t// in\n    tag_47:\n      mload(0x40)\n      tag_51\n      swap2\n      swap1\n      tag_52\n      jump\t// in\n    tag_51:\n      mload(0x40)\n      dup1\n      swap2\n      sub\n      swap1\n      return\n        /* \"contracts/Twitter.sol\":312:354  mapping(address => Tweet[] ) public tweets */\n    tag_16:\n      mstore(0x20, 0x01)\n      dup2\n      0x00\n      mstore\n      keccak256(0x00, 0x40)\n      dup2\n      dup2\n      sload\n      dup2\n      lt\n      tag_53\n      jumpi\n      0x00\n      dup1\n      revert\n    tag_53:\n      swap1\n      0x00\n      mstore\n      keccak256(0x00, 0x20)\n      swap1\n      0x05\n      mul\n      add\n      0x00\n      swap2\n      pop\n      swap2\n      pop\n      pop\n      dup1\n      0x00\n      add\n      0x00\n      swap1\n      sload\n      swap1\n      0x0100\n      exp\n      swap1\n      div\n      0xffffffffffffffffffffffffffffffffffffffff\n      and\n      swap1\n      dup1\n      0x01\n      add\n      dup1\n      sload\n      tag_55\n      swap1\n      tag_56\n      jump\t// in\n    tag_55:\n      dup1\n      0x1f\n      add\n      0x20\n      dup1\n      swap2\n      div\n      mul\n      0x20\n      add\n      mload(0x40)\n      swap1\n      dup2\n      add\n      0x40\n      mstore\n      dup1\n      swap3\n      swap2\n      swap1\n      dup2\n      dup2\n      mstore\n      0x20\n      add\n      dup3\n      dup1\n      sload\n      tag_57\n      swap1\n      tag_56\n      jump\t// in\n    tag_57:\n      dup1\n      iszero\n      tag_58\n      jumpi\n      dup1\n      0x1f\n      lt\n      tag_59\n      jumpi\n      0x0100\n      dup1\n      dup4\n      sload\n      div\n      mul\n      dup4\n      mstore\n      swap2\n      0x20\n      add\n      swap2\n      jump(tag_58)\n    tag_59:\n      dup3\n      add\n      swap2\n      swap1\n      0x00\n      mstore\n      keccak256(0x00, 0x20)\n      swap1\n    tag_60:\n      dup2\n      sload\n      dup2\n      mstore\n      swap1\n      0x01\n      add\n      swap1\n      0x20\n      add\n      dup1\n      dup4\n      gt\n      tag_60\n      jumpi\n      dup3\n      swap1\n      sub\n      0x1f\n      and\n      dup3\n      add\n      swap2\n    tag_58:\n      pop\n      pop\n      pop\n      pop\n      pop\n      swap1\n      dup1\n      0x02\n      add\n      sload\n      swap1\n      dup1\n      0x03\n      add\n      sload\n      swap1\n      dup1\n      0x04\n      add\n      sload\n      swap1\n      pop\n      dup6\n      jump\t// out\n        /* \"contracts/Twitter.sol\":1653:1766  function getAllTweets(address _owner) public view returns(Tweet[] memory){... */\n    tag_22:\n        /* \"contracts/Twitter.sol\":1711:1725  Tweet[] memory */\n      0x60\n        /* \"contracts/Twitter.sol\":1744:1750  tweets */\n      0x01\n        /* \"contracts/Twitter.sol\":1744:1758  tweets[_owner] */\n      0x00\n        /* \"contracts/Twitter.sol\":1751:1757  _owner */\n      dup4\n        /* \"contracts/Twitter.sol\":1744:1758  tweets[_owner] */\n      0xffffffffffffffffffffffffffffffffffffffff\n      and\n      0xffffffffffffffffffffffffffffffffffffffff\n      and\n      dup2\n      mstore\n      0x20\n      add\n      swap1\n      dup2\n      mstore\n      0x20\n      add\n      0x00\n      keccak256\n        /* \"contracts/Twitter.sol\":1737:1758  return tweets[_owner] */\n      dup1\n      sload\n      dup1\n      0x20\n      mul\n      0x20\n      add\n      mload(0x40)\n      swap1\n      dup2\n      add\n      0x40\n      mstore\n      dup1\n      swap3\n      swap2\n      swap1\n      dup2\n      dup2\n      mstore\n      0x20\n      add\n      0x00\n      swap1\n    tag_62:\n      dup3\n      dup3\n      lt\n      iszero\n      tag_63\n      jumpi\n      dup4\n      dup3\n      swap1\n      0x00\n      mstore\n      keccak256(0x00, 0x20)\n      swap1\n      0x05\n      mul\n      add\n      mload(0x40)\n      dup1\n      0xa0\n      add\n      0x40\n      mstore\n      swap1\n      dup2\n      0x00\n      dup3\n      add\n      0x00\n      swap1\n      sload\n      swap1\n      0x0100\n      exp\n      swap1\n      div\n      0xffffffffffffffffffffffffffffffffffffffff\n      and\n      0xffffffffffffffffffffffffffffffffffffffff\n      and\n      0xffffffffffffffffffffffffffffffffffffffff\n      and\n      dup2\n      mstore\n      0x20\n      add\n      0x01\n      dup3\n      add\n      dup1\n      sload\n      tag_65\n      swap1\n      tag_56\n      jump\t// in\n    tag_65:\n      dup1\n      0x1f\n      add\n      0x20\n      dup1\n      swap2\n      div\n      mul\n      0x20\n      add\n      mload(0x40)\n      swap1\n      dup2\n      add\n      0x40\n      mstore\n      dup1\n      swap3\n      swap2\n      swap1\n      dup2\n      dup2\n      mstore\n      0x20\n      add\n      dup3\n      dup1\n      sload\n      tag_66\n      swap1\n      tag_56\n      jump\t// in\n    tag_66:\n      dup1\n      iszero\n      tag_67\n      jumpi\n      dup1\n      0x1f\n      lt\n      tag_68\n      jumpi\n      0x0100\n      dup1\n      dup4\n      sload\n      div\n      mul\n      dup4\n      mstore\n      swap2\n      0x20\n      add\n      swap2\n      jump(tag_67)\n    tag_68:\n      dup3\n      add\n      swap2\n      swap1\n      0x00\n      mstore\n      keccak256(0x00, 0x20)\n      swap1\n    tag_69:\n      dup2\n      sload\n      dup2\n      mstore\n      swap1\n      0x01\n      add\n      swap1\n      0x20\n      add\n      dup1\n      dup4\n      gt\n      tag_69\n      jumpi\n      dup3\n      swap1\n      sub\n      0x1f\n      and\n      dup3\n      add\n      swap2\n    tag_67:\n      pop\n      pop\n      pop\n      pop\n      pop\n      dup2\n      mstore\n      0x20\n      add\n      0x02\n      dup3\n      add\n      sload\n      dup2\n      mstore\n      0x20\n      add\n      0x03\n      dup3\n      add\n      sload\n      dup2\n      mstore\n      0x20\n      add\n      0x04\n      dup3\n      add\n      sload\n      dup2\n      mstore\n      pop\n      pop\n      dup2\n      mstore\n      0x20\n      add\n      swap1\n      0x01\n      add\n      swap1\n      jump(tag_62)\n    tag_63:\n      pop\n      pop\n      pop\n      pop\n      swap1\n      pop\n        /* \"contracts/Twitter.sol\":1653:1766  function getAllTweets(address _owner) public view returns(Tweet[] memory){... */\n      swap2\n      swap1\n      pop\n      jump\t// out\n        /* \"contracts/Twitter.sol\":1278:1527  function unlikeTweet(address author, uint256 id) external {... */\n    tag_27:\n        /* \"contracts/Twitter.sol\":1380:1382  id */\n      dup1\n        /* \"contracts/Twitter.sol\":1355:1361  tweets */\n      0x01\n        /* \"contracts/Twitter.sol\":1355:1369  tweets[author] */\n      0x00\n        /* \"contracts/Twitter.sol\":1362:1368  author */\n      dup5\n        /* \"contracts/Twitter.sol\":1355:1369  tweets[author] */\n      0xffffffffffffffffffffffffffffffffffffffff\n      and\n      0xffffffffffffffffffffffffffffffffffffffff\n      and\n      dup2\n      mstore\n      0x20\n      add\n      swap1\n      dup2\n      mstore\n      0x20\n      add\n      0x00\n      keccak256\n        /* \"contracts/Twitter.sol\":1370:1372  id */\n      dup3\n        /* \"contracts/Twitter.sol\":1355:1373  tweets[author][id] */\n      dup2\n      sload\n      dup2\n      lt\n      tag_71\n      jumpi\n      tag_72\n      tag_73\n      jump\t// in\n    tag_72:\n    tag_71:\n      swap1\n      0x00\n      mstore\n      keccak256(0x00, 0x20)\n      swap1\n      0x05\n      mul\n      add\n        /* \"contracts/Twitter.sol\":1355:1376  tweets[author][id].id */\n      0x04\n      add\n      sload\n        /* \"contracts/Twitter.sol\":1355:1382  tweets[author][id].id == id */\n      eq\n        /* \"contracts/Twitter.sol\":1347:1407  require(tweets[author][id].id == id, \"Tweet Doesnt exists!\") */\n      tag_75\n      jumpi\n      mload(0x40)\n      0x08c379a000000000000000000000000000000000000000000000000000000000\n      dup2\n      mstore\n      0x04\n      add\n      tag_76\n      swap1\n      tag_77\n      jump\t// in\n    tag_76:\n      mload(0x40)\n      dup1\n      swap2\n      sub\n      swap1\n      revert\n    tag_75:\n        /* \"contracts/Twitter.sol\":1453:1454  0 */\n      0x00\n        /* \"contracts/Twitter.sol\":1426:1432  tweets */\n      0x01\n        /* \"contracts/Twitter.sol\":1426:1440  tweets[author] */\n      0x00\n        /* \"contracts/Twitter.sol\":1433:1439  author */\n      dup5\n        /* \"contracts/Twitter.sol\":1426:1440  tweets[author] */\n      0xffffffffffffffffffffffffffffffffffffffff\n      and\n      0xffffffffffffffffffffffffffffffffffffffff\n      and\n      dup2\n      mstore\n      0x20\n      add\n      swap1\n      dup2\n      mstore\n      0x20\n      add\n      0x00\n      keccak256\n        /* \"contracts/Twitter.sol\":1441:1443  id */\n      dup3\n        /* \"contracts/Twitter.sol\":1426:1444  tweets[author][id] */\n      dup2\n      sload\n      dup2\n      lt\n      tag_78\n      jumpi\n      tag_79\n      tag_73\n      jump\t// in\n    tag_79:\n    tag_78:\n      swap1\n      0x00\n      mstore\n      keccak256(0x00, 0x20)\n      swap1\n      0x05\n      mul\n      add\n        /* \"contracts/Twitter.sol\":1426:1450  tweets[author][id].likes */\n      0x03\n      add\n      sload\n        /* \"contracts/Twitter.sol\":1426:1454  tweets[author][id].likes > 0 */\n      gt\n        /* \"contracts/Twitter.sol\":1418:1482  require(tweets[author][id].likes > 0, \"Tweet doesnt have likes\") */\n      tag_81\n      jumpi\n      mload(0x40)\n      0x08c379a000000000000000000000000000000000000000000000000000000000\n      dup2\n      mstore\n      0x04\n      add\n      tag_82\n      swap1\n      tag_83\n      jump\t// in\n    tag_82:\n      mload(0x40)\n      dup1\n      swap2\n      sub\n      swap1\n      revert\n    tag_81:\n        /* \"contracts/Twitter.sol\":1493:1499  tweets */\n      0x01\n        /* \"contracts/Twitter.sol\":1493:1507  tweets[author] */\n      0x00\n        /* \"contracts/Twitter.sol\":1500:1506  author */\n      dup4\n        /* \"contracts/Twitter.sol\":1493:1507  tweets[author] */\n      0xffffffffffffffffffffffffffffffffffffffff\n      and\n      0xffffffffffffffffffffffffffffffffffffffff\n      and\n      dup2\n      mstore\n      0x20\n      add\n      swap1\n      dup2\n      mstore\n      0x20\n      add\n      0x00\n      keccak256\n        /* \"contracts/Twitter.sol\":1508:1510  id */\n      dup2\n        /* \"contracts/Twitter.sol\":1493:1511  tweets[author][id] */\n      dup2\n      sload\n      dup2\n      lt\n      tag_84\n      jumpi\n      tag_85\n      tag_73\n      jump\t// in\n    tag_85:\n    tag_84:\n      swap1\n      0x00\n      mstore\n      keccak256(0x00, 0x20)\n      swap1\n      0x05\n      mul\n      add\n        /* \"contracts/Twitter.sol\":1493:1517  tweets[author][id].likes */\n      0x03\n      add\n      0x00\n        /* \"contracts/Twitter.sol\":1493:1519  tweets[author][id].likes-- */\n      dup2\n      sload\n      dup1\n      swap3\n      swap2\n      swap1\n      tag_87\n      swap1\n      tag_88\n      jump\t// in\n    tag_87:\n      swap2\n      swap1\n      pop\n      sstore\n      pop\n        /* \"contracts/Twitter.sol\":1278:1527  function unlikeTweet(address author, uint256 id) external {... */\n      pop\n      pop\n      jump\t// out\n        /* \"contracts/Twitter.sol\":537:658  function changeTweetLength(uint16 _newTweetLength) public onlyOwner {... */\n    tag_31:\n        /* \"contracts/Twitter.sol\":477:482  owner */\n      0x00\n      0x02\n      swap1\n      sload\n      swap1\n      0x0100\n      exp\n      swap1\n      div\n      0xffffffffffffffffffffffffffffffffffffffff\n      and\n        /* \"contracts/Twitter.sol\":463:482  msg.sender == owner */\n      0xffffffffffffffffffffffffffffffffffffffff\n      and\n        /* \"contracts/Twitter.sol\":463:473  msg.sender */\n      caller\n        /* \"contracts/Twitter.sol\":463:482  msg.sender == owner */\n      0xffffffffffffffffffffffffffffffffffffffff\n      and\n      eq\n        /* \"contracts/Twitter.sol\":455:509  require(msg.sender == owner, \"You are not the owner!\") */\n      tag_90\n      jumpi\n      mload(0x40)\n      0x08c379a000000000000000000000000000000000000000000000000000000000\n      dup2\n      mstore\n      0x04\n      add\n      tag_91\n      swap1\n      tag_92\n      jump\t// in\n    tag_91:\n      mload(0x40)\n      dup1\n      swap2\n      sub\n      swap1\n      revert\n    tag_90:\n        /* \"contracts/Twitter.sol\":635:650  _newTweetLength */\n      dup1\n        /* \"contracts/Twitter.sol\":616:632  MAX_TWEET_LENGTH */\n      0x00\n      dup1\n        /* \"contracts/Twitter.sol\":616:650  MAX_TWEET_LENGTH = _newTweetLength */\n      0x0100\n      exp\n      dup2\n      sload\n      dup2\n      0xffff\n      mul\n      not\n      and\n      swap1\n      dup4\n      0xffff\n      and\n      mul\n      or\n      swap1\n      sstore\n      pop\n        /* \"contracts/Twitter.sol\":537:658  function changeTweetLength(uint16 _newTweetLength) public onlyOwner {... */\n      pop\n      jump\t// out\n        /* \"contracts/Twitter.sol\":1095:1267  function likeTweet(address author, uint256 id) external {... */\n    tag_34:\n        /* \"contracts/Twitter.sol\":1195:1197  id */\n      dup1\n        /* \"contracts/Twitter.sol\":1170:1176  tweets */\n      0x01\n        /* \"contracts/Twitter.sol\":1170:1184  tweets[author] */\n      0x00\n        /* \"contracts/Twitter.sol\":1177:1183  author */\n      dup5\n        /* \"contracts/Twitter.sol\":1170:1184  tweets[author] */\n      0xffffffffffffffffffffffffffffffffffffffff\n      and\n      0xffffffffffffffffffffffffffffffffffffffff\n      and\n      dup2\n      mstore\n      0x20\n      add\n      swap1\n      dup2\n      mstore\n      0x20\n      add\n      0x00\n      keccak256\n        /* \"contracts/Twitter.sol\":1185:1187  id */\n      dup3\n        /* \"contracts/Twitter.sol\":1170:1188  tweets[author][id] */\n      dup2\n      sload\n      dup2\n      lt\n      tag_95\n      jumpi\n      tag_96\n      tag_73\n      jump\t// in\n    tag_96:\n    tag_95:\n      swap1\n      0x00\n      mstore\n      keccak256(0x00, 0x20)\n      swap1\n      0x05\n      mul\n      add\n        /* \"contracts/Twitter.sol\":1170:1191  tweets[author][id].id */\n      0x04\n      add\n      sload\n        /* \"contracts/Twitter.sol\":1170:1197  tweets[author][id].id == id */\n      eq\n        /* \"contracts/Twitter.sol\":1162:1222  require(tweets[author][id].id == id, \"Tweet Doesnt exists!\") */\n      tag_98\n      jumpi\n      mload(0x40)\n      0x08c379a000000000000000000000000000000000000000000000000000000000\n      dup2\n      mstore\n      0x04\n      add\n      tag_99\n      swap1\n      tag_77\n      jump\t// in\n    tag_99:\n      mload(0x40)\n      dup1\n      swap2\n      sub\n      swap1\n      revert\n    tag_98:\n        /* \"contracts/Twitter.sol\":1233:1239  tweets */\n      0x01\n        /* \"contracts/Twitter.sol\":1233:1247  tweets[author] */\n      0x00\n        /* \"contracts/Twitter.sol\":1240:1246  author */\n      dup4\n        /* \"contracts/Twitter.sol\":1233:1247  tweets[author] */\n      0xffffffffffffffffffffffffffffffffffffffff\n      and\n      0xffffffffffffffffffffffffffffffffffffffff\n      and\n      dup2\n      mstore\n      0x20\n      add\n      swap1\n      dup2\n      mstore\n      0x20\n      add\n      0x00\n      keccak256\n        /* \"contracts/Twitter.sol\":1248:1250  id */\n      dup2\n        /* \"contracts/Twitter.sol\":1233:1251  tweets[author][id] */\n      dup2\n      sload\n      dup2\n      lt\n      tag_100\n      jumpi\n      tag_101\n      tag_73\n      jump\t// in\n    tag_101:\n    tag_100:\n      swap1\n      0x00\n      mstore\n      keccak256(0x00, 0x20)\n      swap1\n      0x05\n      mul\n      add\n        /* \"contracts/Twitter.sol\":1233:1257  tweets[author][id].likes */\n      0x03\n      add\n      0x00\n        /* \"contracts/Twitter.sol\":1233:1259  tweets[author][id].likes++ */\n      dup2\n      sload\n      dup1\n      swap3\n      swap2\n      swap1\n      tag_103\n      swap1\n      tag_104\n      jump\t// in\n    tag_103:\n      swap2\n      swap1\n      pop\n      sstore\n      pop\n        /* \"contracts/Twitter.sol\":1095:1267  function likeTweet(address author, uint256 id) external {... */\n      pop\n      pop\n      jump\t// out\n        /* \"contracts/Twitter.sol\":88:124  uint16 public MAX_TWEET_LENGTH = 280 */\n    tag_36:\n      0x00\n      dup1\n      sload\n      swap1\n      0x0100\n      exp\n      swap1\n      div\n      0xffff\n      and\n      dup2\n      jump\t// out\n        /* \"contracts/Twitter.sol\":672:1087  function createTweet(string memory _tweet) public {... */\n    tag_42:\n        /* \"contracts/Twitter.sol\":767:783  MAX_TWEET_LENGTH */\n      0x00\n      dup1\n      sload\n      swap1\n      0x0100\n      exp\n      swap1\n      div\n      0xffff\n      and\n        /* \"contracts/Twitter.sol\":743:783  bytes(_tweet).length <= MAX_TWEET_LENGTH */\n      0xffff\n      and\n        /* \"contracts/Twitter.sol\":749:755  _tweet */\n      dup2\n        /* \"contracts/Twitter.sol\":743:763  bytes(_tweet).length */\n      mload\n        /* \"contracts/Twitter.sol\":743:783  bytes(_tweet).length <= MAX_TWEET_LENGTH */\n      gt\n      iszero\n        /* \"contracts/Twitter.sol\":735:807  require(bytes(_tweet).length <= MAX_TWEET_LENGTH, \"Tweet is too long!\" ) */\n      tag_106\n      jumpi\n      mload(0x40)\n      0x08c379a000000000000000000000000000000000000000000000000000000000\n      dup2\n      mstore\n      0x04\n      add\n      tag_107\n      swap1\n      tag_108\n      jump\t// in\n    tag_107:\n      mload(0x40)\n      dup1\n      swap2\n      sub\n      swap1\n      revert\n    tag_106:\n        /* \"contracts/Twitter.sol\":820:841  Tweet memory newTweet */\n      0x00\n        /* \"contracts/Twitter.sol\":844:1033  Tweet({... */\n      mload(0x40)\n      dup1\n      0xa0\n      add\n      0x40\n      mstore\n      dup1\n        /* \"contracts/Twitter.sol\":917:927  msg.sender */\n      caller\n        /* \"contracts/Twitter.sol\":844:1033  Tweet({... */\n      0xffffffffffffffffffffffffffffffffffffffff\n      and\n      dup2\n      mstore\n      0x20\n      add\n        /* \"contracts/Twitter.sol\":951:957  _tweet */\n      dup4\n        /* \"contracts/Twitter.sol\":844:1033  Tweet({... */\n      dup2\n      mstore\n      0x20\n      add\n        /* \"contracts/Twitter.sol\":983:998  block.timestamp */\n      timestamp\n        /* \"contracts/Twitter.sol\":844:1033  Tweet({... */\n      dup2\n      mstore\n      0x20\n      add\n        /* \"contracts/Twitter.sol\":1020:1021  0 */\n      0x00\n        /* \"contracts/Twitter.sol\":844:1033  Tweet({... */\n      dup2\n      mstore\n      0x20\n      add\n        /* \"contracts/Twitter.sol\":869:875  tweets */\n      0x01\n        /* \"contracts/Twitter.sol\":869:887  tweets[msg.sender] */\n      0x00\n        /* \"contracts/Twitter.sol\":876:886  msg.sender */\n      caller\n        /* \"contracts/Twitter.sol\":869:887  tweets[msg.sender] */\n      0xffffffffffffffffffffffffffffffffffffffff\n      and\n      0xffffffffffffffffffffffffffffffffffffffff\n      and\n      dup2\n      mstore\n      0x20\n      add\n      swap1\n      dup2\n      mstore\n      0x20\n      add\n      0x00\n      keccak256\n        /* \"contracts/Twitter.sol\":869:894  tweets[msg.sender].length */\n      dup1\n      sload\n      swap1\n      pop\n        /* \"contracts/Twitter.sol\":844:1033  Tweet({... */\n      dup2\n      mstore\n      pop\n        /* \"contracts/Twitter.sol\":820:1033  Tweet memory newTweet = Tweet({... */\n      swap1\n      pop\n        /* \"contracts/Twitter.sol\":1046:1052  tweets */\n      0x01\n        /* \"contracts/Twitter.sol\":1046:1064  tweets[msg.sender] */\n      0x00\n        /* \"contracts/Twitter.sol\":1053:1063  msg.sender */\n      caller\n        /* \"contracts/Twitter.sol\":1046:1064  tweets[msg.sender] */\n      0xffffffffffffffffffffffffffffffffffffffff\n      and\n      0xffffffffffffffffffffffffffffffffffffffff\n      and\n      dup2\n      mstore\n      0x20\n      add\n      swap1\n      dup2\n      mstore\n      0x20\n      add\n      0x00\n      keccak256\n        /* \"contracts/Twitter.sol\":1070:1078  newTweet */\n      dup2\n        /* \"contracts/Twitter.sol\":1046:1079  tweets[msg.sender].push(newTweet) */\n      swap1\n      dup1\n      0x01\n      dup2\n      sload\n      add\n      dup1\n      dup3\n      sstore\n      dup1\n      swap2\n      pop\n      pop\n      0x01\n      swap1\n      sub\n      swap1\n      0x00\n      mstore\n      keccak256(0x00, 0x20)\n      swap1\n      0x05\n      mul\n      add\n      0x00\n      swap1\n      swap2\n      swap1\n      swap2\n      swap1\n      swap2\n      pop\n      0x00\n      dup3\n      add\n      mload\n      dup2\n      0x00\n      add\n      exp(0x0100, 0x00)\n      dup2\n      sload\n      dup2\n      0xffffffffffffffffffffffffffffffffffffffff\n      mul\n      not\n      and\n      swap1\n      dup4\n      0xffffffffffffffffffffffffffffffffffffffff\n      and\n      mul\n      or\n      swap1\n      sstore\n      pop\n      0x20\n      dup3\n      add\n      mload\n      dup2\n      0x01\n      add\n      swap1\n      dup2\n      tag_110\n      swap2\n      swap1\n      tag_111\n      jump\t// in\n    tag_110:\n      pop\n      0x40\n      dup3\n      add\n      mload\n      dup2\n      0x02\n      add\n      sstore\n      0x60\n      dup3\n      add\n      mload\n      dup2\n      0x03\n      add\n      sstore\n      0x80\n      dup3\n      add\n      mload\n      dup2\n      0x04\n      add\n      sstore\n      pop\n      pop\n        /* \"contracts/Twitter.sol\":722:1087  {... */\n      pop\n        /* \"contracts/Twitter.sol\":672:1087  function createTweet(string memory _tweet) public {... */\n      pop\n      jump\t// out\n        /* \"contracts/Twitter.sol\":285:305  address public owner */\n    tag_44:\n      0x00\n      0x02\n      swap1\n      sload\n      swap1\n      0x0100\n      exp\n      swap1\n      div\n      0xffffffffffffffffffffffffffffffffffffffff\n      and\n      dup2\n      jump\t// out\n        /* \"contracts/Twitter.sol\":1536:1645  function getTweet(uint _i) public view returns (Tweet memory){... */\n    tag_50:\n        /* \"contracts/Twitter.sol\":1584:1596  Tweet memory */\n      tag_112\n      tag_113\n      jump\t// in\n    tag_112:\n        /* \"contracts/Twitter.sol\":1615:1621  tweets */\n      0x01\n        /* \"contracts/Twitter.sol\":1615:1633  tweets[msg.sender] */\n      0x00\n        /* \"contracts/Twitter.sol\":1622:1632  msg.sender */\n      caller\n        /* \"contracts/Twitter.sol\":1615:1633  tweets[msg.sender] */\n      0xffffffffffffffffffffffffffffffffffffffff\n      and\n      0xffffffffffffffffffffffffffffffffffffffff\n      and\n      dup2\n      mstore\n      0x20\n      add\n      swap1\n      dup2\n      mstore\n      0x20\n      add\n      0x00\n      keccak256\n        /* \"contracts/Twitter.sol\":1634:1636  _i */\n      dup3\n        /* \"contracts/Twitter.sol\":1615:1637  tweets[msg.sender][_i] */\n      dup2\n      sload\n      dup2\n      lt\n      tag_115\n      jumpi\n      tag_116\n      tag_73\n      jump\t// in\n    tag_116:\n    tag_115:\n      swap1\n      0x00\n      mstore\n      keccak256(0x00, 0x20)\n      swap1\n      0x05\n      mul\n      add\n        /* \"contracts/Twitter.sol\":1608:1637  return tweets[msg.sender][_i] */\n      mload(0x40)\n      dup1\n      0xa0\n      add\n      0x40\n      mstore\n      swap1\n      dup2\n      0x00\n      dup3\n      add\n      0x00\n      swap1\n      sload\n      swap1\n      0x0100\n      exp\n      swap1\n      div\n      0xffffffffffffffffffffffffffffffffffffffff\n      and\n      0xffffffffffffffffffffffffffffffffffffffff\n      and\n      0xffffffffffffffffffffffffffffffffffffffff\n      and\n      dup2\n      mstore\n      0x20\n      add\n      0x01\n      dup3\n      add\n      dup1\n      sload\n      tag_118\n      swap1\n      tag_56\n      jump\t// in\n    tag_118:\n      dup1\n      0x1f\n      add\n      0x20\n      dup1\n      swap2\n      div\n      mul\n      0x20\n      add\n      mload(0x40)\n      swap1\n      dup2\n      add\n      0x40\n      mstore\n      dup1\n      swap3\n      swap2\n      swap1\n      dup2\n      dup2\n      mstore\n      0x20\n      add\n      dup3\n      dup1\n      sload\n      tag_119\n      swap1\n      tag_56\n      jump\t// in\n    tag_119:\n      dup1\n      iszero\n      tag_120\n      jumpi\n      dup1\n      0x1f\n      lt\n      tag_121\n      jumpi\n      0x0100\n      dup1\n      dup4\n      sload\n      div\n      mul\n      dup4\n      mstore\n      swap2\n      0x20\n      add\n      swap2\n      jump(tag_120)\n    tag_121:\n      dup3\n      add\n      swap2\n      swap1\n      0x00\n      mstore\n      keccak256(0x00, 0x20)\n      swap1\n    tag_122:\n      dup2\n      sload\n      dup2\n      mstore\n      swap1\n      0x01\n      add\n      swap1\n      0x20\n      add\n      dup1\n      dup4\n      gt\n      tag_122\n      jumpi\n      dup3\n      swap1\n      sub\n      0x1f\n      and\n      dup3\n      add\n      swap2\n    tag_120:\n      pop\n      pop\n      pop\n      pop\n      pop\n      dup2\n      mstore\n      0x20\n      add\n      0x02\n      dup3\n      add\n      sload\n      dup2\n      mstore\n      0x20\n      add\n      0x03\n      dup3\n      add\n      sload\n      dup2\n      mstore\n      0x20\n      add\n      0x04\n      dup3\n      add\n      sload\n      dup2\n      mstore\n      pop\n      pop\n      swap1\n      pop\n        /* \"contracts/Twitter.sol\":1536:1645  function getTweet(uint _i) public view returns (Tweet memory){... */\n      swap2\n      swap1\n      pop\n      jump\t// out\n    tag_113:\n      mload(0x40)\n      dup1\n      0xa0\n      add\n      0x40\n      mstore\n      dup1\n      and(0xffffffffffffffffffffffffffffffffffffffff, 0x00)\n      dup2\n      mstore\n      0x20\n      add\n      0x60\n      dup2\n      mstore\n      0x20\n      add\n      0x00\n      dup2\n      mstore\n      0x20\n      add\n      0x00\n      dup2\n      mstore\n      0x20\n      add\n      0x00\n      dup2\n      mstore\n      pop\n      swap1\n      jump\t// out\n        /* \"#utility.yul\":7:82   */\n    tag_123:\n        /* \"#utility.yul\":40:46   */\n      0x00\n        /* \"#utility.yul\":73:75   */\n      0x40\n        /* \"#utility.yul\":67:76   */\n      mload\n        /* \"#utility.yul\":57:76   */\n      swap1\n      pop\n        /* \"#utility.yul\":7:82   */\n      swap1\n      jump\t// out\n        /* \"#utility.yul\":88:205   */\n    tag_124:\n        /* \"#utility.yul\":197:198   */\n      0x00\n        /* \"#utility.yul\":194:195   */\n      dup1\n        /* \"#utility.yul\":187:199   */\n      revert\n        /* \"#utility.yul\":211:328   */\n    tag_125:\n        /* \"#utility.yul\":320:321   */\n      0x00\n        /* \"#utility.yul\":317:318   */\n      dup1\n        /* \"#utility.yul\":310:322   */\n      revert\n        /* \"#utility.yul\":334:460   */\n    tag_126:\n        /* \"#utility.yul\":371:378   */\n      0x00\n        /* \"#utility.yul\":411:453   */\n      0xffffffffffffffffffffffffffffffffffffffff\n        /* \"#utility.yul\":404:409   */\n      dup3\n        /* \"#utility.yul\":400:454   */\n      and\n        /* \"#utility.yul\":389:454   */\n      swap1\n      pop\n        /* \"#utility.yul\":334:460   */\n      swap2\n      swap1\n      pop\n      jump\t// out\n        /* \"#utility.yul\":466:562   */\n    tag_127:\n        /* \"#utility.yul\":503:510   */\n      0x00\n        /* \"#utility.yul\":532:556   */\n      tag_196\n        /* \"#utility.yul\":550:555   */\n      dup3\n        /* \"#utility.yul\":532:556   */\n      tag_126\n      jump\t// in\n    tag_196:\n        /* \"#utility.yul\":521:556   */\n      swap1\n      pop\n        /* \"#utility.yul\":466:562   */\n      swap2\n      swap1\n      pop\n      jump\t// out\n        /* \"#utility.yul\":568:690   */\n    tag_128:\n        /* \"#utility.yul\":641:665   */\n      tag_198\n        /* \"#utility.yul\":659:664   */\n      dup2\n        /* \"#utility.yul\":641:665   */\n      tag_127\n      jump\t// in\n    tag_198:\n        /* \"#utility.yul\":634:639   */\n      dup2\n        /* \"#utility.yul\":631:666   */\n      eq\n        /* \"#utility.yul\":621:684   */\n      tag_199\n      jumpi\n        /* \"#utility.yul\":680:681   */\n      0x00\n        /* \"#utility.yul\":677:678   */\n      dup1\n        /* \"#utility.yul\":670:682   */\n      revert\n        /* \"#utility.yul\":621:684   */\n    tag_199:\n        /* \"#utility.yul\":568:690   */\n      pop\n      jump\t// out\n        /* \"#utility.yul\":696:835   */\n    tag_129:\n        /* \"#utility.yul\":742:747   */\n      0x00\n        /* \"#utility.yul\":780:786   */\n      dup2\n        /* \"#utility.yul\":767:787   */\n      calldataload\n        /* \"#utility.yul\":758:787   */\n      swap1\n      pop\n        /* \"#utility.yul\":796:829   */\n      tag_201\n        /* \"#utility.yul\":823:828   */\n      dup2\n        /* \"#utility.yul\":796:829   */\n      tag_128\n      jump\t// in\n    tag_201:\n        /* \"#utility.yul\":696:835   */\n      swap3\n      swap2\n      pop\n      pop\n      jump\t// out\n        /* \"#utility.yul\":841:918   */\n    tag_130:\n        /* \"#utility.yul\":878:885   */\n      0x00\n        /* \"#utility.yul\":907:912   */\n      dup2\n        /* \"#utility.yul\":896:912   */\n      swap1\n      pop\n        /* \"#utility.yul\":841:918   */\n      swap2\n      swap1\n      pop\n      jump\t// out\n        /* \"#utility.yul\":924:1046   */\n    tag_131:\n        /* \"#utility.yul\":997:1021   */\n      tag_204\n        /* \"#utility.yul\":1015:1020   */\n      dup2\n        /* \"#utility.yul\":997:1021   */\n      tag_130\n      jump\t// in\n    tag_204:\n        /* \"#utility.yul\":990:995   */\n      dup2\n        /* \"#utility.yul\":987:1022   */\n      eq\n        /* \"#utility.yul\":977:1040   */\n      tag_205\n      jumpi\n        /* \"#utility.yul\":1036:1037   */\n      0x00\n        /* \"#utility.yul\":1033:1034   */\n      dup1\n        /* \"#utility.yul\":1026:1038   */\n      revert\n        /* \"#utility.yul\":977:1040   */\n    tag_205:\n        /* \"#utility.yul\":924:1046   */\n      pop\n      jump\t// out\n        /* \"#utility.yul\":1052:1191   */\n    tag_132:\n        /* \"#utility.yul\":1098:1103   */\n      0x00\n        /* \"#utility.yul\":1136:1142   */\n      dup2\n        /* \"#utility.yul\":1123:1143   */\n      calldataload\n        /* \"#utility.yul\":1114:1143   */\n      swap1\n      pop\n        /* \"#utility.yul\":1152:1185   */\n      tag_207\n        /* \"#utility.yul\":1179:1184   */\n      dup2\n        /* \"#utility.yul\":1152:1185   */\n      tag_131\n      jump\t// in\n    tag_207:\n        /* \"#utility.yul\":1052:1191   */\n      swap3\n      swap2\n      pop\n      pop\n      jump\t// out\n        /* \"#utility.yul\":1197:1671   */\n    tag_15:\n        /* \"#utility.yul\":1265:1271   */\n      0x00\n        /* \"#utility.yul\":1273:1279   */\n      dup1\n        /* \"#utility.yul\":1322:1324   */\n      0x40\n        /* \"#utility.yul\":1310:1319   */\n      dup4\n        /* \"#utility.yul\":1301:1308   */\n      dup6\n        /* \"#utility.yul\":1297:1320   */\n      sub\n        /* \"#utility.yul\":1293:1325   */\n      slt\n        /* \"#utility.yul\":1290:1409   */\n      iszero\n      tag_209\n      jumpi\n        /* \"#utility.yul\":1328:1407   */\n      tag_210\n      tag_124\n      jump\t// in\n    tag_210:\n        /* \"#utility.yul\":1290:1409   */\n    tag_209:\n        /* \"#utility.yul\":1448:1449   */\n      0x00\n        /* \"#utility.yul\":1473:1526   */\n      tag_211\n        /* \"#utility.yul\":1518:1525   */\n      dup6\n        /* \"#utility.yul\":1509:1515   */\n      dup3\n        /* \"#utility.yul\":1498:1507   */\n      dup7\n        /* \"#utility.yul\":1494:1516   */\n      add\n        /* \"#utility.yul\":1473:1526   */\n      tag_129\n      jump\t// in\n    tag_211:\n        /* \"#utility.yul\":1463:1526   */\n      swap3\n      pop\n        /* \"#utility.yul\":1419:1536   */\n      pop\n        /* \"#utility.yul\":1575:1577   */\n      0x20\n        /* \"#utility.yul\":1601:1654   */\n      tag_212\n        /* \"#utility.yul\":1646:1653   */\n      dup6\n        /* \"#utility.yul\":1637:1643   */\n      dup3\n        /* \"#utility.yul\":1626:1635   */\n      dup7\n        /* \"#utility.yul\":1622:1644   */\n      add\n        /* \"#utility.yul\":1601:1654   */\n      tag_132\n      jump\t// in\n    tag_212:\n        /* \"#utility.yul\":1591:1654   */\n      swap2\n      pop\n        /* \"#utility.yul\":1546:1664   */\n      pop\n        /* \"#utility.yul\":1197:1671   */\n      swap3\n      pop\n      swap3\n      swap1\n      pop\n      jump\t// out\n        /* \"#utility.yul\":1677:1795   */\n    tag_133:\n        /* \"#utility.yul\":1764:1788   */\n      tag_214\n        /* \"#utility.yul\":1782:1787   */\n      dup2\n        /* \"#utility.yul\":1764:1788   */\n      tag_127\n      jump\t// in\n    tag_214:\n        /* \"#utility.yul\":1759:1762   */\n      dup3\n        /* \"#utility.yul\":1752:1789   */\n      mstore\n        /* \"#utility.yul\":1677:1795   */\n      pop\n      pop\n      jump\t// out\n        /* \"#utility.yul\":1801:1900   */\n    tag_134:\n        /* \"#utility.yul\":1853:1859   */\n      0x00\n        /* \"#utility.yul\":1887:1892   */\n      dup2\n        /* \"#utility.yul\":1881:1893   */\n      mload\n        /* \"#utility.yul\":1871:1893   */\n      swap1\n      pop\n        /* \"#utility.yul\":1801:1900   */\n      swap2\n      swap1\n      pop\n      jump\t// out\n        /* \"#utility.yul\":1906:2075   */\n    tag_135:\n        /* \"#utility.yul\":1990:2001   */\n      0x00\n        /* \"#utility.yul\":2024:2030   */\n      dup3\n        /* \"#utility.yul\":2019:2022   */\n      dup3\n        /* \"#utility.yul\":2012:2031   */\n      mstore\n        /* \"#utility.yul\":2064:2068   */\n      0x20\n        /* \"#utility.yul\":2059:2062   */\n      dup3\n        /* \"#utility.yul\":2055:2069   */\n      add\n        /* \"#utility.yul\":2040:2069   */\n      swap1\n      pop\n        /* \"#utility.yul\":1906:2075   */\n      swap3\n      swap2\n      pop\n      pop\n      jump\t// out\n        /* \"#utility.yul\":2081:2327   */\n    tag_136:\n        /* \"#utility.yul\":2162:2163   */\n      0x00\n        /* \"#utility.yul\":2172:2285   */\n    tag_218:\n        /* \"#utility.yul\":2186:2192   */\n      dup4\n        /* \"#utility.yul\":2183:2184   */\n      dup2\n        /* \"#utility.yul\":2180:2193   */\n      lt\n        /* \"#utility.yul\":2172:2285   */\n      iszero\n      tag_220\n      jumpi\n        /* \"#utility.yul\":2271:2272   */\n      dup1\n        /* \"#utility.yul\":2266:2269   */\n      dup3\n        /* \"#utility.yul\":2262:2273   */\n      add\n        /* \"#utility.yul\":2256:2274   */\n      mload\n        /* \"#utility.yul\":2252:2253   */\n      dup2\n        /* \"#utility.yul\":2247:2250   */\n      dup5\n        /* \"#utility.yul\":2243:2254   */\n      add\n        /* \"#utility.yul\":2236:2275   */\n      mstore\n        /* \"#utility.yul\":2208:2210   */\n      0x20\n        /* \"#utility.yul\":2205:2206   */\n      dup2\n        /* \"#utility.yul\":2201:2211   */\n      add\n        /* \"#utility.yul\":2196:2211   */\n      swap1\n      pop\n        /* \"#utility.yul\":2172:2285   */\n      jump(tag_218)\n    tag_220:\n        /* \"#utility.yul\":2319:2320   */\n      0x00\n        /* \"#utility.yul\":2310:2316   */\n      dup5\n        /* \"#utility.yul\":2305:2308   */\n      dup5\n        /* \"#utility.yul\":2301:2317   */\n      add\n        /* \"#utility.yul\":2294:2321   */\n      mstore\n        /* \"#utility.yul\":2143:2327   */\n      pop\n        /* \"#utility.yul\":2081:2327   */\n      pop\n      pop\n      pop\n      jump\t// out\n        /* \"#utility.yul\":2333:2435   */\n    tag_137:\n        /* \"#utility.yul\":2374:2380   */\n      0x00\n        /* \"#utility.yul\":2425:2427   */\n      0x1f\n        /* \"#utility.yul\":2421:2428   */\n      not\n        /* \"#utility.yul\":2416:2418   */\n      0x1f\n        /* \"#utility.yul\":2409:2414   */\n      dup4\n        /* \"#utility.yul\":2405:2419   */\n      add\n        /* \"#utility.yul\":2401:2429   */\n      and\n        /* \"#utility.yul\":2391:2429   */\n      swap1\n      pop\n        /* \"#utility.yul\":2333:2435   */\n      swap2\n      swap1\n      pop\n      jump\t// out\n        /* \"#utility.yul\":2441:2818   */\n    tag_138:\n        /* \"#utility.yul\":2529:2532   */\n      0x00\n        /* \"#utility.yul\":2557:2596   */\n      tag_223\n        /* \"#utility.yul\":2590:2595   */\n      dup3\n        /* \"#utility.yul\":2557:2596   */\n      tag_134\n      jump\t// in\n    tag_223:\n        /* \"#utility.yul\":2612:2683   */\n      tag_224\n        /* \"#utility.yul\":2676:2682   */\n      dup2\n        /* \"#utility.yul\":2671:2674   */\n      dup6\n        /* \"#utility.yul\":2612:2683   */\n      tag_135\n      jump\t// in\n    tag_224:\n        /* \"#utility.yul\":2605:2683   */\n      swap4\n      pop\n        /* \"#utility.yul\":2692:2757   */\n      tag_225\n        /* \"#utility.yul\":2750:2756   */\n      dup2\n        /* \"#utility.yul\":2745:2748   */\n      dup6\n        /* \"#utility.yul\":2738:2742   */\n      0x20\n        /* \"#utility.yul\":2731:2736   */\n      dup7\n        /* \"#utility.yul\":2727:2743   */\n      add\n        /* \"#utility.yul\":2692:2757   */\n      tag_136\n      jump\t// in\n    tag_225:\n        /* \"#utility.yul\":2782:2811   */\n      tag_226\n        /* \"#utility.yul\":2804:2810   */\n      dup2\n        /* \"#utility.yul\":2782:2811   */\n      tag_137\n      jump\t// in\n    tag_226:\n        /* \"#utility.yul\":2777:2780   */\n      dup5\n        /* \"#utility.yul\":2773:2812   */\n      add\n        /* \"#utility.yul\":2766:2812   */\n      swap2\n      pop\n        /* \"#utility.yul\":2533:2818   */\n      pop\n        /* \"#utility.yul\":2441:2818   */\n      swap3\n      swap2\n      pop\n      pop\n      jump\t// out\n        /* \"#utility.yul\":2824:2942   */\n    tag_139:\n        /* \"#utility.yul\":2911:2935   */\n      tag_228\n        /* \"#utility.yul\":2929:2934   */\n      dup2\n        /* \"#utility.yul\":2911:2935   */\n      tag_130\n      jump\t// in\n    tag_228:\n        /* \"#utility.yul\":2906:2909   */\n      dup3\n        /* \"#utility.yul\":2899:2936   */\n      mstore\n        /* \"#utility.yul\":2824:2942   */\n      pop\n      pop\n      jump\t// out\n        /* \"#utility.yul\":2948:3703   */\n    tag_18:\n        /* \"#utility.yul\":3173:3177   */\n      0x00\n        /* \"#utility.yul\":3211:3214   */\n      0xa0\n        /* \"#utility.yul\":3200:3209   */\n      dup3\n        /* \"#utility.yul\":3196:3215   */\n      add\n        /* \"#utility.yul\":3188:3215   */\n      swap1\n      pop\n        /* \"#utility.yul\":3225:3296   */\n      tag_230\n        /* \"#utility.yul\":3293:3294   */\n      0x00\n        /* \"#utility.yul\":3282:3291   */\n      dup4\n        /* \"#utility.yul\":3278:3295   */\n      add\n        /* \"#utility.yul\":3269:3275   */\n      dup9\n        /* \"#utility.yul\":3225:3296   */\n      tag_133\n      jump\t// in\n    tag_230:\n        /* \"#utility.yul\":3343:3352   */\n      dup2\n        /* \"#utility.yul\":3337:3341   */\n      dup2\n        /* \"#utility.yul\":3333:3353   */\n      sub\n        /* \"#utility.yul\":3328:3330   */\n      0x20\n        /* \"#utility.yul\":3317:3326   */\n      dup4\n        /* \"#utility.yul\":3313:3331   */\n      add\n        /* \"#utility.yul\":3306:3354   */\n      mstore\n        /* \"#utility.yul\":3371:3449   */\n      tag_231\n        /* \"#utility.yul\":3444:3448   */\n      dup2\n        /* \"#utility.yul\":3435:3441   */\n      dup8\n        /* \"#utility.yul\":3371:3449   */\n      tag_138\n      jump\t// in\n    tag_231:\n        /* \"#utility.yul\":3363:3449   */\n      swap1\n      pop\n        /* \"#utility.yul\":3459:3531   */\n      tag_232\n        /* \"#utility.yul\":3527:3529   */\n      0x40\n        /* \"#utility.yul\":3516:3525   */\n      dup4\n        /* \"#utility.yul\":3512:3530   */\n      add\n        /* \"#utility.yul\":3503:3509   */\n      dup7\n        /* \"#utility.yul\":3459:3531   */\n      tag_139\n      jump\t// in\n    tag_232:\n        /* \"#utility.yul\":3541:3613   */\n      tag_233\n        /* \"#utility.yul\":3609:3611   */\n      0x60\n        /* \"#utility.yul\":3598:3607   */\n      dup4\n        /* \"#utility.yul\":3594:3612   */\n      add\n        /* \"#utility.yul\":3585:3591   */\n      dup6\n        /* \"#utility.yul\":3541:3613   */\n      tag_139\n      jump\t// in\n    tag_233:\n        /* \"#utility.yul\":3623:3696   */\n      tag_234\n        /* \"#utility.yul\":3691:3694   */\n      0x80\n        /* \"#utility.yul\":3680:3689   */\n      dup4\n        /* \"#utility.yul\":3676:3695   */\n      add\n        /* \"#utility.yul\":3667:3673   */\n      dup5\n        /* \"#utility.yul\":3623:3696   */\n      tag_139\n      jump\t// in\n    tag_234:\n        /* \"#utility.yul\":2948:3703   */\n      swap7\n      swap6\n      pop\n      pop\n      pop\n      pop\n      pop\n      pop\n      jump\t// out\n        /* \"#utility.yul\":3709:4038   */\n    tag_21:\n        /* \"#utility.yul\":3768:3774   */\n      0x00\n        /* \"#utility.yul\":3817:3819   */\n      0x20\n        /* \"#utility.yul\":3805:3814   */\n      dup3\n        /* \"#utility.yul\":3796:3803   */\n      dup5\n        /* \"#utility.yul\":3792:3815   */\n      sub\n        /* \"#utility.yul\":3788:3820   */\n      slt\n        /* \"#utility.yul\":3785:3904   */\n      iszero\n      tag_236\n      jumpi\n        /* \"#utility.yul\":3823:3902   */\n      tag_237\n      tag_124\n      jump\t// in\n    tag_237:\n        /* \"#utility.yul\":3785:3904   */\n    tag_236:\n        /* \"#utility.yul\":3943:3944   */\n      0x00\n        /* \"#utility.yul\":3968:4021   */\n      tag_238\n        /* \"#utility.yul\":4013:4020   */\n      dup5\n        /* \"#utility.yul\":4004:4010   */\n      dup3\n        /* \"#utility.yul\":3993:4002   */\n      dup6\n        /* \"#utility.yul\":3989:4011   */\n      add\n        /* \"#utility.yul\":3968:4021   */\n      tag_129\n      jump\t// in\n    tag_238:\n        /* \"#utility.yul\":3958:4021   */\n      swap2\n      pop\n        /* \"#utility.yul\":3914:4031   */\n      pop\n        /* \"#utility.yul\":3709:4038   */\n      swap3\n      swap2\n      pop\n      pop\n      jump\t// out\n        /* \"#utility.yul\":4044:4179   */\n    tag_140:\n        /* \"#utility.yul\":4132:4138   */\n      0x00\n        /* \"#utility.yul\":4166:4171   */\n      dup2\n        /* \"#utility.yul\":4160:4172   */\n      mload\n        /* \"#utility.yul\":4150:4172   */\n      swap1\n      pop\n        /* \"#utility.yul\":4044:4179   */\n      swap2\n      swap1\n      pop\n      jump\t// out\n        /* \"#utility.yul\":4185:4390   */\n    tag_141:\n        /* \"#utility.yul\":4305:4316   */\n      0x00\n        /* \"#utility.yul\":4339:4345   */\n      dup3\n        /* \"#utility.yul\":4334:4337   */\n      dup3\n        /* \"#utility.yul\":4327:4346   */\n      mstore\n        /* \"#utility.yul\":4379:4383   */\n      0x20\n        /* \"#utility.yul\":4374:4377   */\n      dup3\n        /* \"#utility.yul\":4370:4384   */\n      add\n        /* \"#utility.yul\":4355:4384   */\n      swap1\n      pop\n        /* \"#utility.yul\":4185:4390   */\n      swap3\n      swap2\n      pop\n      pop\n      jump\t// out\n        /* \"#utility.yul\":4396:4549   */\n    tag_142:\n        /* \"#utility.yul\":4484:4488   */\n      0x00\n        /* \"#utility.yul\":4507:4510   */\n      dup2\n        /* \"#utility.yul\":4499:4510   */\n      swap1\n      pop\n        /* \"#utility.yul\":4537:4541   */\n      0x20\n        /* \"#utility.yul\":4532:4535   */\n      dup3\n        /* \"#utility.yul\":4528:4542   */\n      add\n        /* \"#utility.yul\":4520:4542   */\n      swap1\n      pop\n        /* \"#utility.yul\":4396:4549   */\n      swap2\n      swap1\n      pop\n      jump\t// out\n        /* \"#utility.yul\":4555:4663   */\n    tag_143:\n        /* \"#utility.yul\":4632:4656   */\n      tag_243\n        /* \"#utility.yul\":4650:4655   */\n      dup2\n        /* \"#utility.yul\":4632:4656   */\n      tag_127\n      jump\t// in\n    tag_243:\n        /* \"#utility.yul\":4627:4630   */\n      dup3\n        /* \"#utility.yul\":4620:4657   */\n      mstore\n        /* \"#utility.yul\":4555:4663   */\n      pop\n      pop\n      jump\t// out\n        /* \"#utility.yul\":4669:4828   */\n    tag_144:\n        /* \"#utility.yul\":4743:4754   */\n      0x00\n        /* \"#utility.yul\":4777:4783   */\n      dup3\n        /* \"#utility.yul\":4772:4775   */\n      dup3\n        /* \"#utility.yul\":4765:4784   */\n      mstore\n        /* \"#utility.yul\":4817:4821   */\n      0x20\n        /* \"#utility.yul\":4812:4815   */\n      dup3\n        /* \"#utility.yul\":4808:4822   */\n      add\n        /* \"#utility.yul\":4793:4822   */\n      swap1\n      pop\n        /* \"#utility.yul\":4669:4828   */\n      swap3\n      swap2\n      pop\n      pop\n      jump\t// out\n        /* \"#utility.yul\":4834:5191   */\n    tag_145:\n        /* \"#utility.yul\":4912:4915   */\n      0x00\n        /* \"#utility.yul\":4940:4979   */\n      tag_246\n        /* \"#utility.yul\":4973:4978   */\n      dup3\n        /* \"#utility.yul\":4940:4979   */\n      tag_134\n      jump\t// in\n    tag_246:\n        /* \"#utility.yul\":4995:5056   */\n      tag_247\n        /* \"#utility.yul\":5049:5055   */\n      dup2\n        /* \"#utility.yul\":5044:5047   */\n      dup6\n        /* \"#utility.yul\":4995:5056   */\n      tag_144\n      jump\t// in\n    tag_247:\n        /* \"#utility.yul\":4988:5056   */\n      swap4\n      pop\n        /* \"#utility.yul\":5065:5130   */\n      tag_248\n        /* \"#utility.yul\":5123:5129   */\n      dup2\n        /* \"#utility.yul\":5118:5121   */\n      dup6\n        /* \"#utility.yul\":5111:5115   */\n      0x20\n        /* \"#utility.yul\":5104:5109   */\n      dup7\n        /* \"#utility.yul\":5100:5116   */\n      add\n        /* \"#utility.yul\":5065:5130   */\n      tag_136\n      jump\t// in\n    tag_248:\n        /* \"#utility.yul\":5155:5184   */\n      tag_249\n        /* \"#utility.yul\":5177:5183   */\n      dup2\n        /* \"#utility.yul\":5155:5184   */\n      tag_137\n      jump\t// in\n    tag_249:\n        /* \"#utility.yul\":5150:5153   */\n      dup5\n        /* \"#utility.yul\":5146:5185   */\n      add\n        /* \"#utility.yul\":5139:5185   */\n      swap2\n      pop\n        /* \"#utility.yul\":4916:5191   */\n      pop\n        /* \"#utility.yul\":4834:5191   */\n      swap3\n      swap2\n      pop\n      pop\n      jump\t// out\n        /* \"#utility.yul\":5197:5305   */\n    tag_146:\n        /* \"#utility.yul\":5274:5298   */\n      tag_251\n        /* \"#utility.yul\":5292:5297   */\n      dup2\n        /* \"#utility.yul\":5274:5298   */\n      tag_130\n      jump\t// in\n    tag_251:\n        /* \"#utility.yul\":5269:5272   */\n      dup3\n        /* \"#utility.yul\":5262:5299   */\n      mstore\n        /* \"#utility.yul\":5197:5305   */\n      pop\n      pop\n      jump\t// out\n        /* \"#utility.yul\":5363:6482   */\n    tag_147:\n        /* \"#utility.yul\":5464:5467   */\n      0x00\n        /* \"#utility.yul\":5500:5504   */\n      0xa0\n        /* \"#utility.yul\":5495:5498   */\n      dup4\n        /* \"#utility.yul\":5491:5505   */\n      add\n        /* \"#utility.yul\":5589:5593   */\n      0x00\n        /* \"#utility.yul\":5582:5587   */\n      dup4\n        /* \"#utility.yul\":5578:5594   */\n      add\n        /* \"#utility.yul\":5572:5595   */\n      mload\n        /* \"#utility.yul\":5608:5671   */\n      tag_253\n        /* \"#utility.yul\":5665:5669   */\n      0x00\n        /* \"#utility.yul\":5660:5663   */\n      dup7\n        /* \"#utility.yul\":5656:5670   */\n      add\n        /* \"#utility.yul\":5642:5654   */\n      dup3\n        /* \"#utility.yul\":5608:5671   */\n      tag_143\n      jump\t// in\n    tag_253:\n        /* \"#utility.yul\":5515:5681   */\n      pop\n        /* \"#utility.yul\":5766:5770   */\n      0x20\n        /* \"#utility.yul\":5759:5764   */\n      dup4\n        /* \"#utility.yul\":5755:5771   */\n      add\n        /* \"#utility.yul\":5749:5772   */\n      mload\n        /* \"#utility.yul\":5819:5822   */\n      dup5\n        /* \"#utility.yul\":5813:5817   */\n      dup3\n        /* \"#utility.yul\":5809:5823   */\n      sub\n        /* \"#utility.yul\":5802:5806   */\n      0x20\n        /* \"#utility.yul\":5797:5800   */\n      dup7\n        /* \"#utility.yul\":5793:5807   */\n      add\n        /* \"#utility.yul\":5786:5824   */\n      mstore\n        /* \"#utility.yul\":5845:5918   */\n      tag_254\n        /* \"#utility.yul\":5913:5917   */\n      dup3\n        /* \"#utility.yul\":5899:5911   */\n      dup3\n        /* \"#utility.yul\":5845:5918   */\n      tag_145\n      jump\t// in\n    tag_254:\n        /* \"#utility.yul\":5837:5918   */\n      swap2\n      pop\n        /* \"#utility.yul\":5691:5929   */\n      pop\n        /* \"#utility.yul\":6016:6020   */\n      0x40\n        /* \"#utility.yul\":6009:6014   */\n      dup4\n        /* \"#utility.yul\":6005:6021   */\n      add\n        /* \"#utility.yul\":5999:6022   */\n      mload\n        /* \"#utility.yul\":6035:6098   */\n      tag_255\n        /* \"#utility.yul\":6092:6096   */\n      0x40\n        /* \"#utility.yul\":6087:6090   */\n      dup7\n        /* \"#utility.yul\":6083:6097   */\n      add\n        /* \"#utility.yul\":6069:6081   */\n      dup3\n        /* \"#utility.yul\":6035:6098   */\n      tag_146\n      jump\t// in\n    tag_255:\n        /* \"#utility.yul\":5939:6108   */\n      pop\n        /* \"#utility.yul\":6191:6195   */\n      0x60\n        /* \"#utility.yul\":6184:6189   */\n      dup4\n        /* \"#utility.yul\":6180:6196   */\n      add\n        /* \"#utility.yul\":6174:6197   */\n      mload\n        /* \"#utility.yul\":6210:6273   */\n      tag_256\n        /* \"#utility.yul\":6267:6271   */\n      0x60\n        /* \"#utility.yul\":6262:6265   */\n      dup7\n        /* \"#utility.yul\":6258:6272   */\n      add\n        /* \"#utility.yul\":6244:6256   */\n      dup3\n        /* \"#utility.yul\":6210:6273   */\n      tag_146\n      jump\t// in\n    tag_256:\n        /* \"#utility.yul\":6118:6283   */\n      pop\n        /* \"#utility.yul\":6363:6367   */\n      0x80\n        /* \"#utility.yul\":6356:6361   */\n      dup4\n        /* \"#utility.yul\":6352:6368   */\n      add\n        /* \"#utility.yul\":6346:6369   */\n      mload\n        /* \"#utility.yul\":6382:6445   */\n      tag_257\n        /* \"#utility.yul\":6439:6443   */\n      0x80\n        /* \"#utility.yul\":6434:6437   */\n      dup7\n        /* \"#utility.yul\":6430:6444   */\n      add\n        /* \"#utility.yul\":6416:6428   */\n      dup3\n        /* \"#utility.yul\":6382:6445   */\n      tag_146\n      jump\t// in\n    tag_257:\n        /* \"#utility.yul\":6293:6455   */\n      pop\n        /* \"#utility.yul\":6472:6476   */\n      dup1\n        /* \"#utility.yul\":6465:6476   */\n      swap2\n      pop\n        /* \"#utility.yul\":5469:6482   */\n      pop\n        /* \"#utility.yul\":5363:6482   */\n      swap3\n      swap2\n      pop\n      pop\n      jump\t// out\n        /* \"#utility.yul\":6488:6728   */\n    tag_148:\n        /* \"#utility.yul\":6599:6609   */\n      0x00\n        /* \"#utility.yul\":6634:6722   */\n      tag_259\n        /* \"#utility.yul\":6718:6721   */\n      dup4\n        /* \"#utility.yul\":6710:6716   */\n      dup4\n        /* \"#utility.yul\":6634:6722   */\n      tag_147\n      jump\t// in\n    tag_259:\n        /* \"#utility.yul\":6620:6722   */\n      swap1\n      pop\n        /* \"#utility.yul\":6488:6728   */\n      swap3\n      swap2\n      pop\n      pop\n      jump\t// out\n        /* \"#utility.yul\":6734:6868   */\n    tag_149:\n        /* \"#utility.yul\":6825:6829   */\n      0x00\n        /* \"#utility.yul\":6857:6861   */\n      0x20\n        /* \"#utility.yul\":6852:6855   */\n      dup3\n        /* \"#utility.yul\":6848:6862   */\n      add\n        /* \"#utility.yul\":6840:6862   */\n      swap1\n      pop\n        /* \"#utility.yul\":6734:6868   */\n      swap2\n      swap1\n      pop\n      jump\t// out\n        /* \"#utility.yul\":6930:8009   */\n    tag_150:\n        /* \"#utility.yul\":7091:7094   */\n      0x00\n        /* \"#utility.yul\":7120:7195   */\n      tag_262\n        /* \"#utility.yul\":7189:7194   */\n      dup3\n        /* \"#utility.yul\":7120:7195   */\n      tag_140\n      jump\t// in\n    tag_262:\n        /* \"#utility.yul\":7211:7318   */\n      tag_263\n        /* \"#utility.yul\":7311:7317   */\n      dup2\n        /* \"#utility.yul\":7306:7309   */\n      dup6\n        /* \"#utility.yul\":7211:7318   */\n      tag_141\n      jump\t// in\n    tag_263:\n        /* \"#utility.yul\":7204:7318   */\n      swap4\n      pop\n        /* \"#utility.yul\":7344:7347   */\n      dup4\n        /* \"#utility.yul\":7389:7393   */\n      0x20\n        /* \"#utility.yul\":7381:7387   */\n      dup3\n        /* \"#utility.yul\":7377:7394   */\n      mul\n        /* \"#utility.yul\":7372:7375   */\n      dup6\n        /* \"#utility.yul\":7368:7395   */\n      add\n        /* \"#utility.yul\":7419:7496   */\n      tag_264\n        /* \"#utility.yul\":7490:7495   */\n      dup6\n        /* \"#utility.yul\":7419:7496   */\n      tag_142\n      jump\t// in\n    tag_264:\n        /* \"#utility.yul\":7519:7526   */\n      dup1\n        /* \"#utility.yul\":7550:7551   */\n      0x00\n        /* \"#utility.yul\":7535:7964   */\n    tag_265:\n        /* \"#utility.yul\":7560:7566   */\n      dup6\n        /* \"#utility.yul\":7557:7558   */\n      dup2\n        /* \"#utility.yul\":7554:7567   */\n      lt\n        /* \"#utility.yul\":7535:7964   */\n      iszero\n      tag_267\n      jumpi\n        /* \"#utility.yul\":7631:7640   */\n      dup5\n        /* \"#utility.yul\":7625:7629   */\n      dup5\n        /* \"#utility.yul\":7621:7641   */\n      sub\n        /* \"#utility.yul\":7616:7619   */\n      dup10\n        /* \"#utility.yul\":7609:7642   */\n      mstore\n        /* \"#utility.yul\":7682:7688   */\n      dup2\n        /* \"#utility.yul\":7676:7689   */\n      mload\n        /* \"#utility.yul\":7710:7816   */\n      tag_268\n        /* \"#utility.yul\":7811:7815   */\n      dup6\n        /* \"#utility.yul\":7796:7809   */\n      dup3\n        /* \"#utility.yul\":7710:7816   */\n      tag_148\n      jump\t// in\n    tag_268:\n        /* \"#utility.yul\":7702:7816   */\n      swap5\n      pop\n        /* \"#utility.yul\":7839:7920   */\n      tag_269\n        /* \"#utility.yul\":7913:7919   */\n      dup4\n        /* \"#utility.yul\":7839:7920   */\n      tag_149\n      jump\t// in\n    tag_269:\n        /* \"#utility.yul\":7829:7920   */\n      swap3\n      pop\n        /* \"#utility.yul\":7949:7953   */\n      0x20\n        /* \"#utility.yul\":7944:7947   */\n      dup11\n        /* \"#utility.yul\":7940:7954   */\n      add\n        /* \"#utility.yul\":7933:7954   */\n      swap10\n      pop\n        /* \"#utility.yul\":7595:7964   */\n      pop\n        /* \"#utility.yul\":7582:7583   */\n      0x01\n        /* \"#utility.yul\":7579:7580   */\n      dup2\n        /* \"#utility.yul\":7575:7584   */\n      add\n        /* \"#utility.yul\":7570:7584   */\n      swap1\n      pop\n        /* \"#utility.yul\":7535:7964   */\n      jump(tag_265)\n    tag_267:\n        /* \"#utility.yul\":7539:7553   */\n      pop\n        /* \"#utility.yul\":7980:7984   */\n      dup3\n        /* \"#utility.yul\":7973:7984   */\n      swap8\n      pop\n        /* \"#utility.yul\":8000:8003   */\n      dup8\n        /* \"#utility.yul\":7993:8003   */\n      swap6\n      pop\n        /* \"#utility.yul\":7096:8009   */\n      pop\n      pop\n      pop\n      pop\n      pop\n        /* \"#utility.yul\":6930:8009   */\n      swap3\n      swap2\n      pop\n      pop\n      jump\t// out\n        /* \"#utility.yul\":8015:8472   */\n    tag_24:\n        /* \"#utility.yul\":8200:8204   */\n      0x00\n        /* \"#utility.yul\":8238:8240   */\n      0x20\n        /* \"#utility.yul\":8227:8236   */\n      dup3\n        /* \"#utility.yul\":8223:8241   */\n      add\n        /* \"#utility.yul\":8215:8241   */\n      swap1\n      pop\n        /* \"#utility.yul\":8287:8296   */\n      dup2\n        /* \"#utility.yul\":8281:8285   */\n      dup2\n        /* \"#utility.yul\":8277:8297   */\n      sub\n        /* \"#utility.yul\":8273:8274   */\n      0x00\n        /* \"#utility.yul\":8262:8271   */\n      dup4\n        /* \"#utility.yul\":8258:8275   */\n      add\n        /* \"#utility.yul\":8251:8298   */\n      mstore\n        /* \"#utility.yul\":8315:8465   */\n      tag_271\n        /* \"#utility.yul\":8460:8464   */\n      dup2\n        /* \"#utility.yul\":8451:8457   */\n      dup5\n        /* \"#utility.yul\":8315:8465   */\n      tag_150\n      jump\t// in\n    tag_271:\n        /* \"#utility.yul\":8307:8465   */\n      swap1\n      pop\n        /* \"#utility.yul\":8015:8472   */\n      swap3\n      swap2\n      pop\n      pop\n      jump\t// out\n        /* \"#utility.yul\":8478:8567   */\n    tag_151:\n        /* \"#utility.yul\":8514:8521   */\n      0x00\n        /* \"#utility.yul\":8554:8560   */\n      0xffff\n        /* \"#utility.yul\":8547:8552   */\n      dup3\n        /* \"#utility.yul\":8543:8561   */\n      and\n        /* \"#utility.yul\":8532:8561   */\n      swap1\n      pop\n        /* \"#utility.yul\":8478:8567   */\n      swap2\n      swap1\n      pop\n      jump\t// out\n        /* \"#utility.yul\":8573:8693   */\n    tag_152:\n        /* \"#utility.yul\":8645:8668   */\n      tag_274\n        /* \"#utility.yul\":8662:8667   */\n      dup2\n        /* \"#utility.yul\":8645:8668   */\n      tag_151\n      jump\t// in\n    tag_274:\n        /* \"#utility.yul\":8638:8643   */\n      dup2\n        /* \"#utility.yul\":8635:8669   */\n      eq\n        /* \"#utility.yul\":8625:8687   */\n      tag_275\n      jumpi\n        /* \"#utility.yul\":8683:8684   */\n      0x00\n        /* \"#utility.yul\":8680:8681   */\n      dup1\n        /* \"#utility.yul\":8673:8685   */\n      revert\n        /* \"#utility.yul\":8625:8687   */\n    tag_275:\n        /* \"#utility.yul\":8573:8693   */\n      pop\n      jump\t// out\n        /* \"#utility.yul\":8699:8836   */\n    tag_153:\n        /* \"#utility.yul\":8744:8749   */\n      0x00\n        /* \"#utility.yul\":8782:8788   */\n      dup2\n        /* \"#utility.yul\":8769:8789   */\n      calldataload\n        /* \"#utility.yul\":8760:8789   */\n      swap1\n      pop\n        /* \"#utility.yul\":8798:8830   */\n      tag_277\n        /* \"#utility.yul\":8824:8829   */\n      dup2\n        /* \"#utility.yul\":8798:8830   */\n      tag_152\n      jump\t// in\n    tag_277:\n        /* \"#utility.yul\":8699:8836   */\n      swap3\n      swap2\n      pop\n      pop\n      jump\t// out\n        /* \"#utility.yul\":8842:9169   */\n    tag_30:\n        /* \"#utility.yul\":8900:8906   */\n      0x00\n        /* \"#utility.yul\":8949:8951   */\n      0x20\n        /* \"#utility.yul\":8937:8946   */\n      dup3\n        /* \"#utility.yul\":8928:8935   */\n      dup5\n        /* \"#utility.yul\":8924:8947   */\n      sub\n        /* \"#utility.yul\":8920:8952   */\n      slt\n        /* \"#utility.yul\":8917:9036   */\n      iszero\n      tag_279\n      jumpi\n        /* \"#utility.yul\":8955:9034   */\n      tag_280\n      tag_124\n      jump\t// in\n    tag_280:\n        /* \"#utility.yul\":8917:9036   */\n    tag_279:\n        /* \"#utility.yul\":9075:9076   */\n      0x00\n        /* \"#utility.yul\":9100:9152   */\n      tag_281\n        /* \"#utility.yul\":9144:9151   */\n      dup5\n        /* \"#utility.yul\":9135:9141   */\n      dup3\n        /* \"#utility.yul\":9124:9133   */\n      dup6\n        /* \"#utility.yul\":9120:9142   */\n      add\n        /* \"#utility.yul\":9100:9152   */\n      tag_153\n      jump\t// in\n    tag_281:\n        /* \"#utility.yul\":9090:9152   */\n      swap2\n      pop\n        /* \"#utility.yul\":9046:9162   */\n      pop\n        /* \"#utility.yul\":8842:9169   */\n      swap3\n      swap2\n      pop\n      pop\n      jump\t// out\n        /* \"#utility.yul\":9175:9290   */\n    tag_154:\n        /* \"#utility.yul\":9260:9283   */\n      tag_283\n        /* \"#utility.yul\":9277:9282   */\n      dup2\n        /* \"#utility.yul\":9260:9283   */\n      tag_151\n      jump\t// in\n    tag_283:\n        /* \"#utility.yul\":9255:9258   */\n      dup3\n        /* \"#utility.yul\":9248:9284   */\n      mstore\n        /* \"#utility.yul\":9175:9290   */\n      pop\n      pop\n      jump\t// out\n        /* \"#utility.yul\":9296:9514   */\n    tag_38:\n        /* \"#utility.yul\":9387:9391   */\n      0x00\n        /* \"#utility.yul\":9425:9427   */\n      0x20\n        /* \"#utility.yul\":9414:9423   */\n      dup3\n        /* \"#utility.yul\":9410:9428   */\n      add\n        /* \"#utility.yul\":9402:9428   */\n      swap1\n      pop\n        /* \"#utility.yul\":9438:9507   */\n      tag_285\n        /* \"#utility.yul\":9504:9505   */\n      0x00\n        /* \"#utility.yul\":9493:9502   */\n      dup4\n        /* \"#utility.yul\":9489:9506   */\n      add\n        /* \"#utility.yul\":9480:9486   */\n      dup5\n        /* \"#utility.yul\":9438:9507   */\n      tag_154\n      jump\t// in\n    tag_285:\n        /* \"#utility.yul\":9296:9514   */\n      swap3\n      swap2\n      pop\n      pop\n      jump\t// out\n        /* \"#utility.yul\":9520:9637   */\n    tag_155:\n        /* \"#utility.yul\":9629:9630   */\n      0x00\n        /* \"#utility.yul\":9626:9627   */\n      dup1\n        /* \"#utility.yul\":9619:9631   */\n      revert\n        /* \"#utility.yul\":9643:9760   */\n    tag_156:\n        /* \"#utility.yul\":9752:9753   */\n      0x00\n        /* \"#utility.yul\":9749:9750   */\n      dup1\n        /* \"#utility.yul\":9742:9754   */\n      revert\n        /* \"#utility.yul\":9766:9946   */\n    tag_157:\n        /* \"#utility.yul\":9814:9891   */\n      0x4e487b7100000000000000000000000000000000000000000000000000000000\n        /* \"#utility.yul\":9811:9812   */\n      0x00\n        /* \"#utility.yul\":9804:9892   */\n      mstore\n        /* \"#utility.yul\":9911:9915   */\n      0x41\n        /* \"#utility.yul\":9908:9909   */\n      0x04\n        /* \"#utility.yul\":9901:9916   */\n      mstore\n        /* \"#utility.yul\":9935:9939   */\n      0x24\n        /* \"#utility.yul\":9932:9933   */\n      0x00\n        /* \"#utility.yul\":9925:9940   */\n      revert\n        /* \"#utility.yul\":9952:10233   */\n    tag_158:\n        /* \"#utility.yul\":10035:10062   */\n      tag_290\n        /* \"#utility.yul\":10057:10061   */\n      dup3\n        /* \"#utility.yul\":10035:10062   */\n      tag_137\n      jump\t// in\n    tag_290:\n        /* \"#utility.yul\":10027:10033   */\n      dup2\n        /* \"#utility.yul\":10023:10063   */\n      add\n        /* \"#utility.yul\":10165:10171   */\n      dup2\n        /* \"#utility.yul\":10153:10163   */\n      dup2\n        /* \"#utility.yul\":10150:10172   */\n      lt\n        /* \"#utility.yul\":10129:10147   */\n      0xffffffffffffffff\n        /* \"#utility.yul\":10117:10127   */\n      dup3\n        /* \"#utility.yul\":10114:10148   */\n      gt\n        /* \"#utility.yul\":10111:10173   */\n      or\n        /* \"#utility.yul\":10108:10196   */\n      iszero\n      tag_291\n      jumpi\n        /* \"#utility.yul\":10176:10194   */\n      tag_292\n      tag_157\n      jump\t// in\n    tag_292:\n        /* \"#utility.yul\":10108:10196   */\n    tag_291:\n        /* \"#utility.yul\":10216:10226   */\n      dup1\n        /* \"#utility.yul\":10212:10214   */\n      0x40\n        /* \"#utility.yul\":10205:10227   */\n      mstore\n        /* \"#utility.yul\":9995:10233   */\n      pop\n        /* \"#utility.yul\":9952:10233   */\n      pop\n      pop\n      jump\t// out\n        /* \"#utility.yul\":10239:10368   */\n    tag_159:\n        /* \"#utility.yul\":10273:10279   */\n      0x00\n        /* \"#utility.yul\":10300:10320   */\n      tag_294\n      tag_123\n      jump\t// in\n    tag_294:\n        /* \"#utility.yul\":10290:10320   */\n      swap1\n      pop\n        /* \"#utility.yul\":10329:10362   */\n      tag_295\n        /* \"#utility.yul\":10357:10361   */\n      dup3\n        /* \"#utility.yul\":10349:10355   */\n      dup3\n        /* \"#utility.yul\":10329:10362   */\n      tag_158\n      jump\t// in\n    tag_295:\n        /* \"#utility.yul\":10239:10368   */\n      swap2\n      swap1\n      pop\n      jump\t// out\n        /* \"#utility.yul\":10374:10682   */\n    tag_160:\n        /* \"#utility.yul\":10436:10440   */\n      0x00\n        /* \"#utility.yul\":10526:10544   */\n      0xffffffffffffffff\n        /* \"#utility.yul\":10518:10524   */\n      dup3\n        /* \"#utility.yul\":10515:10545   */\n      gt\n        /* \"#utility.yul\":10512:10568   */\n      iszero\n      tag_297\n      jumpi\n        /* \"#utility.yul\":10548:10566   */\n      tag_298\n      tag_157\n      jump\t// in\n    tag_298:\n        /* \"#utility.yul\":10512:10568   */\n    tag_297:\n        /* \"#utility.yul\":10586:10615   */\n      tag_299\n        /* \"#utility.yul\":10608:10614   */\n      dup3\n        /* \"#utility.yul\":10586:10615   */\n      tag_137\n      jump\t// in\n    tag_299:\n        /* \"#utility.yul\":10578:10615   */\n      swap1\n      pop\n        /* \"#utility.yul\":10670:10674   */\n      0x20\n        /* \"#utility.yul\":10664:10668   */\n      dup2\n        /* \"#utility.yul\":10660:10675   */\n      add\n        /* \"#utility.yul\":10652:10675   */\n      swap1\n      pop\n        /* \"#utility.yul\":10374:10682   */\n      swap2\n      swap1\n      pop\n      jump\t// out\n        /* \"#utility.yul\":10688:10834   */\n    tag_161:\n        /* \"#utility.yul\":10785:10791   */\n      dup3\n        /* \"#utility.yul\":10780:10783   */\n      dup2\n        /* \"#utility.yul\":10775:10778   */\n      dup4\n        /* \"#utility.yul\":10762:10792   */\n      calldatacopy\n        /* \"#utility.yul\":10826:10827   */\n      0x00\n        /* \"#utility.yul\":10817:10823   */\n      dup4\n        /* \"#utility.yul\":10812:10815   */\n      dup4\n        /* \"#utility.yul\":10808:10824   */\n      add\n        /* \"#utility.yul\":10801:10828   */\n      mstore\n        /* \"#utility.yul\":10688:10834   */\n      pop\n      pop\n      pop\n      jump\t// out\n        /* \"#utility.yul\":10840:11265   */\n    tag_162:\n        /* \"#utility.yul\":10918:10923   */\n      0x00\n        /* \"#utility.yul\":10943:11009   */\n      tag_302\n        /* \"#utility.yul\":10959:11008   */\n      tag_303\n        /* \"#utility.yul\":11001:11007   */\n      dup5\n        /* \"#utility.yul\":10959:11008   */\n      tag_160\n      jump\t// in\n    tag_303:\n        /* \"#utility.yul\":10943:11009   */\n      tag_159\n      jump\t// in\n    tag_302:\n        /* \"#utility.yul\":10934:11009   */\n      swap1\n      pop\n        /* \"#utility.yul\":11032:11038   */\n      dup3\n        /* \"#utility.yul\":11025:11030   */\n      dup2\n        /* \"#utility.yul\":11018:11039   */\n      mstore\n        /* \"#utility.yul\":11070:11074   */\n      0x20\n        /* \"#utility.yul\":11063:11068   */\n      dup2\n        /* \"#utility.yul\":11059:11075   */\n      add\n        /* \"#utility.yul\":11108:11111   */\n      dup5\n        /* \"#utility.yul\":11099:11105   */\n      dup5\n        /* \"#utility.yul\":11094:11097   */\n      dup5\n        /* \"#utility.yul\":11090:11106   */\n      add\n        /* \"#utility.yul\":11087:11112   */\n      gt\n        /* \"#utility.yul\":11084:11196   */\n      iszero\n      tag_304\n      jumpi\n        /* \"#utility.yul\":11115:11194   */\n      tag_305\n      tag_156\n      jump\t// in\n    tag_305:\n        /* \"#utility.yul\":11084:11196   */\n    tag_304:\n        /* \"#utility.yul\":11205:11259   */\n      tag_306\n        /* \"#utility.yul\":11252:11258   */\n      dup5\n        /* \"#utility.yul\":11247:11250   */\n      dup3\n        /* \"#utility.yul\":11242:11245   */\n      dup6\n        /* \"#utility.yul\":11205:11259   */\n      tag_161\n      jump\t// in\n    tag_306:\n        /* \"#utility.yul\":10924:11265   */\n      pop\n        /* \"#utility.yul\":10840:11265   */\n      swap4\n      swap3\n      pop\n      pop\n      pop\n      jump\t// out\n        /* \"#utility.yul\":11285:11625   */\n    tag_163:\n        /* \"#utility.yul\":11341:11346   */\n      0x00\n        /* \"#utility.yul\":11390:11393   */\n      dup3\n        /* \"#utility.yul\":11383:11387   */\n      0x1f\n        /* \"#utility.yul\":11375:11381   */\n      dup4\n        /* \"#utility.yul\":11371:11388   */\n      add\n        /* \"#utility.yul\":11367:11394   */\n      slt\n        /* \"#utility.yul\":11357:11479   */\n      tag_308\n      jumpi\n        /* \"#utility.yul\":11398:11477   */\n      tag_309\n      tag_155\n      jump\t// in\n    tag_309:\n        /* \"#utility.yul\":11357:11479   */\n    tag_308:\n        /* \"#utility.yul\":11515:11521   */\n      dup2\n        /* \"#utility.yul\":11502:11522   */\n      calldataload\n        /* \"#utility.yul\":11540:11619   */\n      tag_310\n        /* \"#utility.yul\":11615:11618   */\n      dup5\n        /* \"#utility.yul\":11607:11613   */\n      dup3\n        /* \"#utility.yul\":11600:11604   */\n      0x20\n        /* \"#utility.yul\":11592:11598   */\n      dup7\n        /* \"#utility.yul\":11588:11605   */\n      add\n        /* \"#utility.yul\":11540:11619   */\n      tag_162\n      jump\t// in\n    tag_310:\n        /* \"#utility.yul\":11531:11619   */\n      swap2\n      pop\n        /* \"#utility.yul\":11347:11625   */\n      pop\n        /* \"#utility.yul\":11285:11625   */\n      swap3\n      swap2\n      pop\n      pop\n      jump\t// out\n        /* \"#utility.yul\":11631:12140   */\n    tag_41:\n        /* \"#utility.yul\":11700:11706   */\n      0x00\n        /* \"#utility.yul\":11749:11751   */\n      0x20\n        /* \"#utility.yul\":11737:11746   */\n      dup3\n        /* \"#utility.yul\":11728:11735   */\n      dup5\n        /* \"#utility.yul\":11724:11747   */\n      sub\n        /* \"#utility.yul\":11720:11752   */\n      slt\n        /* \"#utility.yul\":11717:11836   */\n      iszero\n      tag_312\n      jumpi\n        /* \"#utility.yul\":11755:11834   */\n      tag_313\n      tag_124\n      jump\t// in\n    tag_313:\n        /* \"#utility.yul\":11717:11836   */\n    tag_312:\n        /* \"#utility.yul\":11903:11904   */\n      0x00\n        /* \"#utility.yul\":11892:11901   */\n      dup3\n        /* \"#utility.yul\":11888:11905   */\n      add\n        /* \"#utility.yul\":11875:11906   */\n      calldataload\n        /* \"#utility.yul\":11933:11951   */\n      0xffffffffffffffff\n        /* \"#utility.yul\":11925:11931   */\n      dup2\n        /* \"#utility.yul\":11922:11952   */\n      gt\n        /* \"#utility.yul\":11919:12036   */\n      iszero\n      tag_314\n      jumpi\n        /* \"#utility.yul\":11955:12034   */\n      tag_315\n      tag_125\n      jump\t// in\n    tag_315:\n        /* \"#utility.yul\":11919:12036   */\n    tag_314:\n        /* \"#utility.yul\":12060:12123   */\n      tag_316\n        /* \"#utility.yul\":12115:12122   */\n      dup5\n        /* \"#utility.yul\":12106:12112   */\n      dup3\n        /* \"#utility.yul\":12095:12104   */\n      dup6\n        /* \"#utility.yul\":12091:12113   */\n      add\n        /* \"#utility.yul\":12060:12123   */\n      tag_163\n      jump\t// in\n    tag_316:\n        /* \"#utility.yul\":12050:12123   */\n      swap2\n      pop\n        /* \"#utility.yul\":11846:12133   */\n      pop\n        /* \"#utility.yul\":11631:12140   */\n      swap3\n      swap2\n      pop\n      pop\n      jump\t// out\n        /* \"#utility.yul\":12146:12368   */\n    tag_46:\n        /* \"#utility.yul\":12239:12243   */\n      0x00\n        /* \"#utility.yul\":12277:12279   */\n      0x20\n        /* \"#utility.yul\":12266:12275   */\n      dup3\n        /* \"#utility.yul\":12262:12280   */\n      add\n        /* \"#utility.yul\":12254:12280   */\n      swap1\n      pop\n        /* \"#utility.yul\":12290:12361   */\n      tag_318\n        /* \"#utility.yul\":12358:12359   */\n      0x00\n        /* \"#utility.yul\":12347:12356   */\n      dup4\n        /* \"#utility.yul\":12343:12360   */\n      add\n        /* \"#utility.yul\":12334:12340   */\n      dup5\n        /* \"#utility.yul\":12290:12361   */\n      tag_133\n      jump\t// in\n    tag_318:\n        /* \"#utility.yul\":12146:12368   */\n      swap3\n      swap2\n      pop\n      pop\n      jump\t// out\n        /* \"#utility.yul\":12374:12703   */\n    tag_49:\n        /* \"#utility.yul\":12433:12439   */\n      0x00\n        /* \"#utility.yul\":12482:12484   */\n      0x20\n        /* \"#utility.yul\":12470:12479   */\n      dup3\n        /* \"#utility.yul\":12461:12468   */\n      dup5\n        /* \"#utility.yul\":12457:12480   */\n      sub\n        /* \"#utility.yul\":12453:12485   */\n      slt\n        /* \"#utility.yul\":12450:12569   */\n      iszero\n      tag_320\n      jumpi\n        /* \"#utility.yul\":12488:12567   */\n      tag_321\n      tag_124\n      jump\t// in\n    tag_321:\n        /* \"#utility.yul\":12450:12569   */\n    tag_320:\n        /* \"#utility.yul\":12608:12609   */\n      0x00\n        /* \"#utility.yul\":12633:12686   */\n      tag_322\n        /* \"#utility.yul\":12678:12685   */\n      dup5\n        /* \"#utility.yul\":12669:12675   */\n      dup3\n        /* \"#utility.yul\":12658:12667   */\n      dup6\n        /* \"#utility.yul\":12654:12676   */\n      add\n        /* \"#utility.yul\":12633:12686   */\n      tag_132\n      jump\t// in\n    tag_322:\n        /* \"#utility.yul\":12623:12686   */\n      swap2\n      pop\n        /* \"#utility.yul\":12579:12696   */\n      pop\n        /* \"#utility.yul\":12374:12703   */\n      swap3\n      swap2\n      pop\n      pop\n      jump\t// out\n        /* \"#utility.yul\":12761:13890   */\n    tag_164:\n        /* \"#utility.yul\":12872:12875   */\n      0x00\n        /* \"#utility.yul\":12908:12912   */\n      0xa0\n        /* \"#utility.yul\":12903:12906   */\n      dup4\n        /* \"#utility.yul\":12899:12913   */\n      add\n        /* \"#utility.yul\":12997:13001   */\n      0x00\n        /* \"#utility.yul\":12990:12995   */\n      dup4\n        /* \"#utility.yul\":12986:13002   */\n      add\n        /* \"#utility.yul\":12980:13003   */\n      mload\n        /* \"#utility.yul\":13016:13079   */\n      tag_324\n        /* \"#utility.yul\":13073:13077   */\n      0x00\n        /* \"#utility.yul\":13068:13071   */\n      dup7\n        /* \"#utility.yul\":13064:13078   */\n      add\n        /* \"#utility.yul\":13050:13062   */\n      dup3\n        /* \"#utility.yul\":13016:13079   */\n      tag_143\n      jump\t// in\n    tag_324:\n        /* \"#utility.yul\":12923:13089   */\n      pop\n        /* \"#utility.yul\":13174:13178   */\n      0x20\n        /* \"#utility.yul\":13167:13172   */\n      dup4\n        /* \"#utility.yul\":13163:13179   */\n      add\n        /* \"#utility.yul\":13157:13180   */\n      mload\n        /* \"#utility.yul\":13227:13230   */\n      dup5\n        /* \"#utility.yul\":13221:13225   */\n      dup3\n        /* \"#utility.yul\":13217:13231   */\n      sub\n        /* \"#utility.yul\":13210:13214   */\n      0x20\n        /* \"#utility.yul\":13205:13208   */\n      dup7\n        /* \"#utility.yul\":13201:13215   */\n      add\n        /* \"#utility.yul\":13194:13232   */\n      mstore\n        /* \"#utility.yul\":13253:13326   */\n      tag_325\n        /* \"#utility.yul\":13321:13325   */\n      dup3\n        /* \"#utility.yul\":13307:13319   */\n      dup3\n        /* \"#utility.yul\":13253:13326   */\n      tag_145\n      jump\t// in\n    tag_325:\n        /* \"#utility.yul\":13245:13326   */\n      swap2\n      pop\n        /* \"#utility.yul\":13099:13337   */\n      pop\n        /* \"#utility.yul\":13424:13428   */\n      0x40\n        /* \"#utility.yul\":13417:13422   */\n      dup4\n        /* \"#utility.yul\":13413:13429   */\n      add\n        /* \"#utility.yul\":13407:13430   */\n      mload\n        /* \"#utility.yul\":13443:13506   */\n      tag_326\n        /* \"#utility.yul\":13500:13504   */\n      0x40\n        /* \"#utility.yul\":13495:13498   */\n      dup7\n        /* \"#utility.yul\":13491:13505   */\n      add\n        /* \"#utility.yul\":13477:13489   */\n      dup3\n        /* \"#utility.yul\":13443:13506   */\n      tag_146\n      jump\t// in\n    tag_326:\n        /* \"#utility.yul\":13347:13516   */\n      pop\n        /* \"#utility.yul\":13599:13603   */\n      0x60\n        /* \"#utility.yul\":13592:13597   */\n      dup4\n        /* \"#utility.yul\":13588:13604   */\n      add\n        /* \"#utility.yul\":13582:13605   */\n      mload\n        /* \"#utility.yul\":13618:13681   */\n      tag_327\n        /* \"#utility.yul\":13675:13679   */\n      0x60\n        /* \"#utility.yul\":13670:13673   */\n      dup7\n        /* \"#utility.yul\":13666:13680   */\n      add\n        /* \"#utility.yul\":13652:13664   */\n      dup3\n        /* \"#utility.yul\":13618:13681   */\n      tag_146\n      jump\t// in\n    tag_327:\n        /* \"#utility.yul\":13526:13691   */\n      pop\n        /* \"#utility.yul\":13771:13775   */\n      0x80\n        /* \"#utility.yul\":13764:13769   */\n      dup4\n        /* \"#utility.yul\":13760:13776   */\n      add\n        /* \"#utility.yul\":13754:13777   */\n      mload\n        /* \"#utility.yul\":13790:13853   */\n      tag_328\n        /* \"#utility.yul\":13847:13851   */\n      0x80\n        /* \"#utility.yul\":13842:13845   */\n      dup7\n        /* \"#utility.yul\":13838:13852   */\n      add\n        /* \"#utility.yul\":13824:13836   */\n      dup3\n        /* \"#utility.yul\":13790:13853   */\n      tag_146\n      jump\t// in\n    tag_328:\n        /* \"#utility.yul\":13701:13863   */\n      pop\n        /* \"#utility.yul\":13880:13884   */\n      dup1\n        /* \"#utility.yul\":13873:13884   */\n      swap2\n      pop\n        /* \"#utility.yul\":12877:13890   */\n      pop\n        /* \"#utility.yul\":12761:13890   */\n      swap3\n      swap2\n      pop\n      pop\n      jump\t// out\n        /* \"#utility.yul\":13896:14253   */\n    tag_52:\n        /* \"#utility.yul\":14031:14035   */\n      0x00\n        /* \"#utility.yul\":14069:14071   */\n      0x20\n        /* \"#utility.yul\":14058:14067   */\n      dup3\n        /* \"#utility.yul\":14054:14072   */\n      add\n        /* \"#utility.yul\":14046:14072   */\n      swap1\n      pop\n        /* \"#utility.yul\":14118:14127   */\n      dup2\n        /* \"#utility.yul\":14112:14116   */\n      dup2\n        /* \"#utility.yul\":14108:14128   */\n      sub\n        /* \"#utility.yul\":14104:14105   */\n      0x00\n        /* \"#utility.yul\":14093:14102   */\n      dup4\n        /* \"#utility.yul\":14089:14106   */\n      add\n        /* \"#utility.yul\":14082:14129   */\n      mstore\n        /* \"#utility.yul\":14146:14246   */\n      tag_330\n        /* \"#utility.yul\":14241:14245   */\n      dup2\n        /* \"#utility.yul\":14232:14238   */\n      dup5\n        /* \"#utility.yul\":14146:14246   */\n      tag_164\n      jump\t// in\n    tag_330:\n        /* \"#utility.yul\":14138:14246   */\n      swap1\n      pop\n        /* \"#utility.yul\":13896:14253   */\n      swap3\n      swap2\n      pop\n      pop\n      jump\t// out\n        /* \"#utility.yul\":14259:14439   */\n    tag_165:\n        /* \"#utility.yul\":14307:14384   */\n      0x4e487b7100000000000000000000000000000000000000000000000000000000\n        /* \"#utility.yul\":14304:14305   */\n      0x00\n        /* \"#utility.yul\":14297:14385   */\n      mstore\n        /* \"#utility.yul\":14404:14408   */\n      0x22\n        /* \"#utility.yul\":14401:14402   */\n      0x04\n        /* \"#utility.yul\":14394:14409   */\n      mstore\n        /* \"#utility.yul\":14428:14432   */\n      0x24\n        /* \"#utility.yul\":14425:14426   */\n      0x00\n        /* \"#utility.yul\":14418:14433   */\n      revert\n        /* \"#utility.yul\":14445:14765   */\n    tag_56:\n        /* \"#utility.yul\":14489:14495   */\n      0x00\n        /* \"#utility.yul\":14526:14527   */\n      0x02\n        /* \"#utility.yul\":14520:14524   */\n      dup3\n        /* \"#utility.yul\":14516:14528   */\n      div\n        /* \"#utility.yul\":14506:14528   */\n      swap1\n      pop\n        /* \"#utility.yul\":14573:14574   */\n      0x01\n        /* \"#utility.yul\":14567:14571   */\n      dup3\n        /* \"#utility.yul\":14563:14575   */\n      and\n        /* \"#utility.yul\":14594:14612   */\n      dup1\n        /* \"#utility.yul\":14584:14665   */\n      tag_333\n      jumpi\n        /* \"#utility.yul\":14650:14654   */\n      0x7f\n        /* \"#utility.yul\":14642:14648   */\n      dup3\n        /* \"#utility.yul\":14638:14655   */\n      and\n        /* \"#utility.yul\":14628:14655   */\n      swap2\n      pop\n        /* \"#utility.yul\":14584:14665   */\n    tag_333:\n        /* \"#utility.yul\":14712:14714   */\n      0x20\n        /* \"#utility.yul\":14704:14710   */\n      dup3\n        /* \"#utility.yul\":14701:14715   */\n      lt\n        /* \"#utility.yul\":14681:14699   */\n      dup2\n        /* \"#utility.yul\":14678:14716   */\n      sub\n        /* \"#utility.yul\":14675:14759   */\n      tag_334\n      jumpi\n        /* \"#utility.yul\":14731:14749   */\n      tag_335\n      tag_165\n      jump\t// in\n    tag_335:\n        /* \"#utility.yul\":14675:14759   */\n    tag_334:\n        /* \"#utility.yul\":14496:14765   */\n      pop\n        /* \"#utility.yul\":14445:14765   */\n      swap2\n      swap1\n      pop\n      jump\t// out\n        /* \"#utility.yul\":14771:14951   */\n    tag_73:\n        /* \"#utility.yul\":14819:14896   */\n      0x4e487b7100000000000000000000000000000000000000000000000000000000\n        /* \"#utility.yul\":14816:14817   */\n      0x00\n        /* \"#utility.yul\":14809:14897   */\n      mstore\n        /* \"#utility.yul\":14916:14920   */\n      0x32\n        /* \"#utility.yul\":14913:14914   */\n      0x04\n        /* \"#utility.yul\":14906:14921   */\n      mstore\n        /* \"#utility.yul\":14940:14944   */\n      0x24\n        /* \"#utility.yul\":14937:14938   */\n      0x00\n        /* \"#utility.yul\":14930:14945   */\n      revert\n        /* \"#utility.yul\":14957:15127   */\n    tag_166:\n        /* \"#utility.yul\":15097:15119   */\n      0x547765657420446f65736e742065786973747321000000000000000000000000\n        /* \"#utility.yul\":15093:15094   */\n      0x00\n        /* \"#utility.yul\":15085:15091   */\n      dup3\n        /* \"#utility.yul\":15081:15095   */\n      add\n        /* \"#utility.yul\":15074:15120   */\n      mstore\n        /* \"#utility.yul\":14957:15127   */\n      pop\n      jump\t// out\n        /* \"#utility.yul\":15133:15499   */\n    tag_167:\n        /* \"#utility.yul\":15275:15278   */\n      0x00\n        /* \"#utility.yul\":15296:15363   */\n      tag_339\n        /* \"#utility.yul\":15360:15362   */\n      0x14\n        /* \"#utility.yul\":15355:15358   */\n      dup4\n        /* \"#utility.yul\":15296:15363   */\n      tag_135\n      jump\t// in\n    tag_339:\n        /* \"#utility.yul\":15289:15363   */\n      swap2\n      pop\n        /* \"#utility.yul\":15372:15465   */\n      tag_340\n        /* \"#utility.yul\":15461:15464   */\n      dup3\n        /* \"#utility.yul\":15372:15465   */\n      tag_166\n      jump\t// in\n    tag_340:\n        /* \"#utility.yul\":15490:15492   */\n      0x20\n        /* \"#utility.yul\":15485:15488   */\n      dup3\n        /* \"#utility.yul\":15481:15493   */\n      add\n        /* \"#utility.yul\":15474:15493   */\n      swap1\n      pop\n        /* \"#utility.yul\":15133:15499   */\n      swap2\n      swap1\n      pop\n      jump\t// out\n        /* \"#utility.yul\":15505:15924   */\n    tag_77:\n        /* \"#utility.yul\":15671:15675   */\n      0x00\n        /* \"#utility.yul\":15709:15711   */\n      0x20\n        /* \"#utility.yul\":15698:15707   */\n      dup3\n        /* \"#utility.yul\":15694:15712   */\n      add\n        /* \"#utility.yul\":15686:15712   */\n      swap1\n      pop\n        /* \"#utility.yul\":15758:15767   */\n      dup2\n        /* \"#utility.yul\":15752:15756   */\n      dup2\n        /* \"#utility.yul\":15748:15768   */\n      sub\n        /* \"#utility.yul\":15744:15745   */\n      0x00\n        /* \"#utility.yul\":15733:15742   */\n      dup4\n        /* \"#utility.yul\":15729:15746   */\n      add\n        /* \"#utility.yul\":15722:15769   */\n      mstore\n        /* \"#utility.yul\":15786:15917   */\n      tag_342\n        /* \"#utility.yul\":15912:15916   */\n      dup2\n        /* \"#utility.yul\":15786:15917   */\n      tag_167\n      jump\t// in\n    tag_342:\n        /* \"#utility.yul\":15778:15917   */\n      swap1\n      pop\n        /* \"#utility.yul\":15505:15924   */\n      swap2\n      swap1\n      pop\n      jump\t// out\n        /* \"#utility.yul\":15930:16103   */\n    tag_168:\n        /* \"#utility.yul\":16070:16095   */\n      0x547765657420646f65736e742068617665206c696b6573000000000000000000\n        /* \"#utility.yul\":16066:16067   */\n      0x00\n        /* \"#utility.yul\":16058:16064   */\n      dup3\n        /* \"#utility.yul\":16054:16068   */\n      add\n        /* \"#utility.yul\":16047:16096   */\n      mstore\n        /* \"#utility.yul\":15930:16103   */\n      pop\n      jump\t// out\n        /* \"#utility.yul\":16109:16475   */\n    tag_169:\n        /* \"#utility.yul\":16251:16254   */\n      0x00\n        /* \"#utility.yul\":16272:16339   */\n      tag_345\n        /* \"#utility.yul\":16336:16338   */\n      0x17\n        /* \"#utility.yul\":16331:16334   */\n      dup4\n        /* \"#utility.yul\":16272:16339   */\n      tag_135\n      jump\t// in\n    tag_345:\n        /* \"#utility.yul\":16265:16339   */\n      swap2\n      pop\n        /* \"#utility.yul\":16348:16441   */\n      tag_346\n        /* \"#utility.yul\":16437:16440   */\n      dup3\n        /* \"#utility.yul\":16348:16441   */\n      tag_168\n      jump\t// in\n    tag_346:\n        /* \"#utility.yul\":16466:16468   */\n      0x20\n        /* \"#utility.yul\":16461:16464   */\n      dup3\n        /* \"#utility.yul\":16457:16469   */\n      add\n        /* \"#utility.yul\":16450:16469   */\n      swap1\n      pop\n        /* \"#utility.yul\":16109:16475   */\n      swap2\n      swap1\n      pop\n      jump\t// out\n        /* \"#utility.yul\":16481:16900   */\n    tag_83:\n        /* \"#utility.yul\":16647:16651   */\n      0x00\n        /* \"#utility.yul\":16685:16687   */\n      0x20\n        /* \"#utility.yul\":16674:16683   */\n      dup3\n        /* \"#utility.yul\":16670:16688   */\n      add\n        /* \"#utility.yul\":16662:16688   */\n      swap1\n      pop\n        /* \"#utility.yul\":16734:16743   */\n      dup2\n        /* \"#utility.yul\":16728:16732   */\n      dup2\n        /* \"#utility.yul\":16724:16744   */\n      sub\n        /* \"#utility.yul\":16720:16721   */\n      0x00\n        /* \"#utility.yul\":16709:16718   */\n      dup4\n        /* \"#utility.yul\":16705:16722   */\n      add\n        /* \"#utility.yul\":16698:16745   */\n      mstore\n        /* \"#utility.yul\":16762:16893   */\n      tag_348\n        /* \"#utility.yul\":16888:16892   */\n      dup2\n        /* \"#utility.yul\":16762:16893   */\n      tag_169\n      jump\t// in\n    tag_348:\n        /* \"#utility.yul\":16754:16893   */\n      swap1\n      pop\n        /* \"#utility.yul\":16481:16900   */\n      swap2\n      swap1\n      pop\n      jump\t// out\n        /* \"#utility.yul\":16906:17086   */\n    tag_170:\n        /* \"#utility.yul\":16954:17031   */\n      0x4e487b7100000000000000000000000000000000000000000000000000000000\n        /* \"#utility.yul\":16951:16952   */\n      0x00\n        /* \"#utility.yul\":16944:17032   */\n      mstore\n        /* \"#utility.yul\":17051:17055   */\n      0x11\n        /* \"#utility.yul\":17048:17049   */\n      0x04\n        /* \"#utility.yul\":17041:17056   */\n      mstore\n        /* \"#utility.yul\":17075:17079   */\n      0x24\n        /* \"#utility.yul\":17072:17073   */\n      0x00\n        /* \"#utility.yul\":17065:17080   */\n      revert\n        /* \"#utility.yul\":17092:17263   */\n    tag_88:\n        /* \"#utility.yul\":17131:17134   */\n      0x00\n        /* \"#utility.yul\":17154:17178   */\n      tag_351\n        /* \"#utility.yul\":17172:17177   */\n      dup3\n        /* \"#utility.yul\":17154:17178   */\n      tag_130\n      jump\t// in\n    tag_351:\n        /* \"#utility.yul\":17145:17178   */\n      swap2\n      pop\n        /* \"#utility.yul\":17200:17204   */\n      0x00\n        /* \"#utility.yul\":17193:17198   */\n      dup3\n        /* \"#utility.yul\":17190:17205   */\n      sub\n        /* \"#utility.yul\":17187:17228   */\n      tag_352\n      jumpi\n        /* \"#utility.yul\":17208:17226   */\n      tag_353\n      tag_170\n      jump\t// in\n    tag_353:\n        /* \"#utility.yul\":17187:17228   */\n    tag_352:\n        /* \"#utility.yul\":17255:17256   */\n      0x01\n        /* \"#utility.yul\":17248:17253   */\n      dup3\n        /* \"#utility.yul\":17244:17257   */\n      sub\n        /* \"#utility.yul\":17237:17257   */\n      swap1\n      pop\n        /* \"#utility.yul\":17092:17263   */\n      swap2\n      swap1\n      pop\n      jump\t// out\n        /* \"#utility.yul\":17269:17441   */\n    tag_171:\n        /* \"#utility.yul\":17409:17433   */\n      0x596f7520617265206e6f7420746865206f776e65722100000000000000000000\n        /* \"#utility.yul\":17405:17406   */\n      0x00\n        /* \"#utility.yul\":17397:17403   */\n      dup3\n        /* \"#utility.yul\":17393:17407   */\n      add\n        /* \"#utility.yul\":17386:17434   */\n      mstore\n        /* \"#utility.yul\":17269:17441   */\n      pop\n      jump\t// out\n        /* \"#utility.yul\":17447:17813   */\n    tag_172:\n        /* \"#utility.yul\":17589:17592   */\n      0x00\n        /* \"#utility.yul\":17610:17677   */\n      tag_356\n        /* \"#utility.yul\":17674:17676   */\n      0x16\n        /* \"#utility.yul\":17669:17672   */\n      dup4\n        /* \"#utility.yul\":17610:17677   */\n      tag_135\n      jump\t// in\n    tag_356:\n        /* \"#utility.yul\":17603:17677   */\n      swap2\n      pop\n        /* \"#utility.yul\":17686:17779   */\n      tag_357\n        /* \"#utility.yul\":17775:17778   */\n      dup3\n        /* \"#utility.yul\":17686:17779   */\n      tag_171\n      jump\t// in\n    tag_357:\n        /* \"#utility.yul\":17804:17806   */\n      0x20\n        /* \"#utility.yul\":17799:17802   */\n      dup3\n        /* \"#utility.yul\":17795:17807   */\n      add\n        /* \"#utility.yul\":17788:17807   */\n      swap1\n      pop\n        /* \"#utility.yul\":17447:17813   */\n      swap2\n      swap1\n      pop\n      jump\t// out\n        /* \"#utility.yul\":17819:18238   */\n    tag_92:\n        /* \"#utility.yul\":17985:17989   */\n      0x00\n        /* \"#utility.yul\":18023:18025   */\n      0x20\n        /* \"#utility.yul\":18012:18021   */\n      dup3\n        /* \"#utility.yul\":18008:18026   */\n      add\n        /* \"#utility.yul\":18000:18026   */\n      swap1\n      pop\n        /* \"#utility.yul\":18072:18081   */\n      dup2\n        /* \"#utility.yul\":18066:18070   */\n      dup2\n        /* \"#utility.yul\":18062:18082   */\n      sub\n        /* \"#utility.yul\":18058:18059   */\n      0x00\n        /* \"#utility.yul\":18047:18056   */\n      dup4\n        /* \"#utility.yul\":18043:18060   */\n      add\n        /* \"#utility.yul\":18036:18083   */\n      mstore\n        /* \"#utility.yul\":18100:18231   */\n      tag_359\n        /* \"#utility.yul\":18226:18230   */\n      dup2\n        /* \"#utility.yul\":18100:18231   */\n      tag_172\n      jump\t// in\n    tag_359:\n        /* \"#utility.yul\":18092:18231   */\n      swap1\n      pop\n        /* \"#utility.yul\":17819:18238   */\n      swap2\n      swap1\n      pop\n      jump\t// out\n        /* \"#utility.yul\":18244:18477   */\n    tag_104:\n        /* \"#utility.yul\":18283:18286   */\n      0x00\n        /* \"#utility.yul\":18306:18330   */\n      tag_361\n        /* \"#utility.yul\":18324:18329   */\n      dup3\n        /* \"#utility.yul\":18306:18330   */\n      tag_130\n      jump\t// in\n    tag_361:\n        /* \"#utility.yul\":18297:18330   */\n      swap2\n      pop\n        /* \"#utility.yul\":18352:18418   */\n      0xffffffffffffffffffffffffffffffffffffffffffffffffffffffffffffffff\n        /* \"#utility.yul\":18345:18350   */\n      dup3\n        /* \"#utility.yul\":18342:18419   */\n      sub\n        /* \"#utility.yul\":18339:18442   */\n      tag_362\n      jumpi\n        /* \"#utility.yul\":18422:18440   */\n      tag_363\n      tag_170\n      jump\t// in\n    tag_363:\n        /* \"#utility.yul\":18339:18442   */\n    tag_362:\n        /* \"#utility.yul\":18469:18470   */\n      0x01\n        /* \"#utility.yul\":18462:18467   */\n      dup3\n        /* \"#utility.yul\":18458:18471   */\n      add\n        /* \"#utility.yul\":18451:18471   */\n      swap1\n      pop\n        /* \"#utility.yul\":18244:18477   */\n      swap2\n      swap1\n      pop\n      jump\t// out\n        /* \"#utility.yul\":18483:18651   */\n    tag_173:\n        /* \"#utility.yul\":18623:18643   */\n      0x547765657420697320746f6f206c6f6e67210000000000000000000000000000\n        /* \"#utility.yul\":18619:18620   */\n      0x00\n        /* \"#utility.yul\":18611:18617   */\n      dup3\n        /* \"#utility.yul\":18607:18621   */\n      add\n        /* \"#utility.yul\":18600:18644   */\n      mstore\n        /* \"#utility.yul\":18483:18651   */\n      pop\n      jump\t// out\n        /* \"#utility.yul\":18657:19023   */\n    tag_174:\n        /* \"#utility.yul\":18799:18802   */\n      0x00\n        /* \"#utility.yul\":18820:18887   */\n      tag_366\n        /* \"#utility.yul\":18884:18886   */\n      0x12\n        /* \"#utility.yul\":18879:18882   */\n      dup4\n        /* \"#utility.yul\":18820:18887   */\n      tag_135\n      jump\t// in\n    tag_366:\n        /* \"#utility.yul\":18813:18887   */\n      swap2\n      pop\n        /* \"#utility.yul\":18896:18989   */\n      tag_367\n        /* \"#utility.yul\":18985:18988   */\n      dup3\n        /* \"#utility.yul\":18896:18989   */\n      tag_173\n      jump\t// in\n    tag_367:\n        /* \"#utility.yul\":19014:19016   */\n      0x20\n        /* \"#utility.yul\":19009:19012   */\n      dup3\n        /* \"#utility.yul\":19005:19017   */\n      add\n        /* \"#utility.yul\":18998:19017   */\n      swap1\n      pop\n        /* \"#utility.yul\":18657:19023   */\n      swap2\n      swap1\n      pop\n      jump\t// out\n        /* \"#utility.yul\":19029:19448   */\n    tag_108:\n        /* \"#utility.yul\":19195:19199   */\n      0x00\n        /* \"#utility.yul\":19233:19235   */\n      0x20\n        /* \"#utility.yul\":19222:19231   */\n      dup3\n        /* \"#utility.yul\":19218:19236   */\n      add\n        /* \"#utility.yul\":19210:19236   */\n      swap1\n      pop\n        /* \"#utility.yul\":19282:19291   */\n      dup2\n        /* \"#utility.yul\":19276:19280   */\n      dup2\n        /* \"#utility.yul\":19272:19292   */\n      sub\n        /* \"#utility.yul\":19268:19269   */\n      0x00\n        /* \"#utility.yul\":19257:19266   */\n      dup4\n        /* \"#utility.yul\":19253:19270   */\n      add\n        /* \"#utility.yul\":19246:19293   */\n      mstore\n        /* \"#utility.yul\":19310:19441   */\n      tag_369\n        /* \"#utility.yul\":19436:19440   */\n      dup2\n        /* \"#utility.yul\":19310:19441   */\n      tag_174\n      jump\t// in\n    tag_369:\n        /* \"#utility.yul\":19302:19441   */\n      swap1\n      pop\n        /* \"#utility.yul\":19029:19448   */\n      swap2\n      swap1\n      pop\n      jump\t// out\n        /* \"#utility.yul\":19454:19595   */\n    tag_175:\n        /* \"#utility.yul\":19503:19507   */\n      0x00\n        /* \"#utility.yul\":19526:19529   */\n      dup2\n        /* \"#utility.yul\":19518:19529   */\n      swap1\n      pop\n        /* \"#utility.yul\":19549:19552   */\n      dup2\n        /* \"#utility.yul\":19546:19547   */\n      0x00\n        /* \"#utility.yul\":19539:19553   */\n      mstore\n        /* \"#utility.yul\":19583:19587   */\n      0x20\n        /* \"#utility.yul\":19580:19581   */\n      0x00\n        /* \"#utility.yul\":19570:19588   */\n      keccak256\n        /* \"#utility.yul\":19562:19588   */\n      swap1\n      pop\n        /* \"#utility.yul\":19454:19595   */\n      swap2\n      swap1\n      pop\n      jump\t// out\n        /* \"#utility.yul\":19601:19694   */\n    tag_176:\n        /* \"#utility.yul\":19638:19644   */\n      0x00\n        /* \"#utility.yul\":19685:19687   */\n      0x20\n        /* \"#utility.yul\":19680:19682   */\n      0x1f\n        /* \"#utility.yul\":19673:19678   */\n      dup4\n        /* \"#utility.yul\":19669:19683   */\n      add\n        /* \"#utility.yul\":19665:19688   */\n      div\n        /* \"#utility.yul\":19655:19688   */\n      swap1\n      pop\n        /* \"#utility.yul\":19601:19694   */\n      swap2\n      swap1\n      pop\n      jump\t// out\n        /* \"#utility.yul\":19700:19807   */\n    tag_177:\n        /* \"#utility.yul\":19744:19752   */\n      0x00\n        /* \"#utility.yul\":19794:19799   */\n      dup3\n        /* \"#utility.yul\":19788:19792   */\n      dup3\n        /* \"#utility.yul\":19784:19800   */\n      shl\n        /* \"#utility.yul\":19763:19800   */\n      swap1\n      pop\n        /* \"#utility.yul\":19700:19807   */\n      swap3\n      swap2\n      pop\n      pop\n      jump\t// out\n        /* \"#utility.yul\":19813:20206   */\n    tag_178:\n        /* \"#utility.yul\":19882:19888   */\n      0x00\n        /* \"#utility.yul\":19932:19933   */\n      0x08\n        /* \"#utility.yul\":19920:19930   */\n      dup4\n        /* \"#utility.yul\":19916:19934   */\n      mul\n        /* \"#utility.yul\":19955:20052   */\n      tag_374\n        /* \"#utility.yul\":19985:20051   */\n      0xffffffffffffffffffffffffffffffffffffffffffffffffffffffffffffffff\n        /* \"#utility.yul\":19974:19983   */\n      dup3\n        /* \"#utility.yul\":19955:20052   */\n      tag_177\n      jump\t// in\n    tag_374:\n        /* \"#utility.yul\":20073:20112   */\n      tag_375\n        /* \"#utility.yul\":20103:20111   */\n      dup7\n        /* \"#utility.yul\":20092:20101   */\n      dup4\n        /* \"#utility.yul\":20073:20112   */\n      tag_177\n      jump\t// in\n    tag_375:\n        /* \"#utility.yul\":20061:20112   */\n      swap6\n      pop\n        /* \"#utility.yul\":20145:20149   */\n      dup1\n        /* \"#utility.yul\":20141:20150   */\n      not\n        /* \"#utility.yul\":20134:20139   */\n      dup5\n        /* \"#utility.yul\":20130:20151   */\n      and\n        /* \"#utility.yul\":20121:20151   */\n      swap4\n      pop\n        /* \"#utility.yul\":20194:20198   */\n      dup1\n        /* \"#utility.yul\":20184:20192   */\n      dup7\n        /* \"#utility.yul\":20180:20199   */\n      and\n        /* \"#utility.yul\":20173:20178   */\n      dup5\n        /* \"#utility.yul\":20170:20200   */\n      or\n        /* \"#utility.yul\":20160:20200   */\n      swap3\n      pop\n        /* \"#utility.yul\":19889:20206   */\n      pop\n      pop\n        /* \"#utility.yul\":19813:20206   */\n      swap4\n      swap3\n      pop\n      pop\n      pop\n      jump\t// out\n        /* \"#utility.yul\":20212:20272   */\n    tag_179:\n        /* \"#utility.yul\":20240:20243   */\n      0x00\n        /* \"#utility.yul\":20261:20266   */\n      dup2\n        /* \"#utility.yul\":20254:20266   */\n      swap1\n      pop\n        /* \"#utility.yul\":20212:20272   */\n      swap2\n      swap1\n      pop\n      jump\t// out\n        /* \"#utility.yul\":20278:20420   */\n    tag_180:\n        /* \"#utility.yul\":20328:20337   */\n      0x00\n        /* \"#utility.yul\":20361:20414   */\n      tag_378\n        /* \"#utility.yul\":20379:20413   */\n      tag_379\n        /* \"#utility.yul\":20388:20412   */\n      tag_380\n        /* \"#utility.yul\":20406:20411   */\n      dup5\n        /* \"#utility.yul\":20388:20412   */\n      tag_130\n      jump\t// in\n    tag_380:\n        /* \"#utility.yul\":20379:20413   */\n      tag_179\n      jump\t// in\n    tag_379:\n        /* \"#utility.yul\":20361:20414   */\n      tag_130\n      jump\t// in\n    tag_378:\n        /* \"#utility.yul\":20348:20414   */\n      swap1\n      pop\n        /* \"#utility.yul\":20278:20420   */\n      swap2\n      swap1\n      pop\n      jump\t// out\n        /* \"#utility.yul\":20426:20501   */\n    tag_181:\n        /* \"#utility.yul\":20469:20472   */\n      0x00\n        /* \"#utility.yul\":20490:20495   */\n      dup2\n        /* \"#utility.yul\":20483:20495   */\n      swap1\n      pop\n        /* \"#utility.yul\":20426:20501   */\n      swap2\n      swap1\n      pop\n      jump\t// out\n        /* \"#utility.yul\":20507:20776   */\n    tag_182:\n        /* \"#utility.yul\":20617:20656   */\n      tag_383\n        /* \"#utility.yul\":20648:20655   */\n      dup4\n        /* \"#utility.yul\":20617:20656   */\n      tag_180\n      jump\t// in\n    tag_383:\n        /* \"#utility.yul\":20678:20769   */\n      tag_384\n        /* \"#utility.yul\":20727:20768   */\n      tag_385\n        /* \"#utility.yul\":20751:20767   */\n      dup3\n        /* \"#utility.yul\":20727:20768   */\n      tag_181\n      jump\t// in\n    tag_385:\n        /* \"#utility.yul\":20719:20725   */\n      dup5\n        /* \"#utility.yul\":20712:20716   */\n      dup5\n        /* \"#utility.yul\":20706:20717   */\n      sload\n        /* \"#utility.yul\":20678:20769   */\n      tag_178\n      jump\t// in\n    tag_384:\n        /* \"#utility.yul\":20672:20676   */\n      dup3\n        /* \"#utility.yul\":20665:20770   */\n      sstore\n        /* \"#utility.yul\":20583:20776   */\n      pop\n        /* \"#utility.yul\":20507:20776   */\n      pop\n      pop\n      pop\n      jump\t// out\n        /* \"#utility.yul\":20782:20855   */\n    tag_183:\n        /* \"#utility.yul\":20827:20830   */\n      0x00\n        /* \"#utility.yul\":20782:20855   */\n      swap1\n      jump\t// out\n        /* \"#utility.yul\":20861:21050   */\n    tag_184:\n        /* \"#utility.yul\":20938:20970   */\n      tag_388\n      tag_183\n      jump\t// in\n    tag_388:\n        /* \"#utility.yul\":20979:21044   */\n      tag_389\n        /* \"#utility.yul\":21037:21043   */\n      dup2\n        /* \"#utility.yul\":21029:21035   */\n      dup5\n        /* \"#utility.yul\":21023:21027   */\n      dup5\n        /* \"#utility.yul\":20979:21044   */\n      tag_182\n      jump\t// in\n    tag_389:\n        /* \"#utility.yul\":20914:21050   */\n      pop\n        /* \"#utility.yul\":20861:21050   */\n      pop\n      pop\n      jump\t// out\n        /* \"#utility.yul\":21056:21242   */\n    tag_185:\n        /* \"#utility.yul\":21116:21236   */\n    tag_391:\n        /* \"#utility.yul\":21133:21136   */\n      dup2\n        /* \"#utility.yul\":21126:21131   */\n      dup2\n        /* \"#utility.yul\":21123:21137   */\n      lt\n        /* \"#utility.yul\":21116:21236   */\n      iszero\n      tag_393\n      jumpi\n        /* \"#utility.yul\":21187:21226   */\n      tag_394\n        /* \"#utility.yul\":21224:21225   */\n      0x00\n        /* \"#utility.yul\":21217:21222   */\n      dup3\n        /* \"#utility.yul\":21187:21226   */\n      tag_184\n      jump\t// in\n    tag_394:\n        /* \"#utility.yul\":21160:21161   */\n      0x01\n        /* \"#utility.yul\":21153:21158   */\n      dup2\n        /* \"#utility.yul\":21149:21162   */\n      add\n        /* \"#utility.yul\":21140:21162   */\n      swap1\n      pop\n        /* \"#utility.yul\":21116:21236   */\n      jump(tag_391)\n    tag_393:\n        /* \"#utility.yul\":21056:21242   */\n      pop\n      pop\n      jump\t// out\n        /* \"#utility.yul\":21248:21791   */\n    tag_186:\n        /* \"#utility.yul\":21349:21351   */\n      0x1f\n        /* \"#utility.yul\":21344:21347   */\n      dup3\n        /* \"#utility.yul\":21341:21352   */\n      gt\n        /* \"#utility.yul\":21338:21784   */\n      iszero\n      tag_396\n      jumpi\n        /* \"#utility.yul\":21383:21421   */\n      tag_397\n        /* \"#utility.yul\":21415:21420   */\n      dup2\n        /* \"#utility.yul\":21383:21421   */\n      tag_175\n      jump\t// in\n    tag_397:\n        /* \"#utility.yul\":21467:21496   */\n      tag_398\n        /* \"#utility.yul\":21485:21495   */\n      dup5\n        /* \"#utility.yul\":21467:21496   */\n      tag_176\n      jump\t// in\n    tag_398:\n        /* \"#utility.yul\":21457:21465   */\n      dup2\n        /* \"#utility.yul\":21453:21497   */\n      add\n        /* \"#utility.yul\":21650:21652   */\n      0x20\n        /* \"#utility.yul\":21638:21648   */\n      dup6\n        /* \"#utility.yul\":21635:21653   */\n      lt\n        /* \"#utility.yul\":21632:21681   */\n      iszero\n      tag_399\n      jumpi\n        /* \"#utility.yul\":21671:21679   */\n      dup2\n        /* \"#utility.yul\":21656:21679   */\n      swap1\n      pop\n        /* \"#utility.yul\":21632:21681   */\n    tag_399:\n        /* \"#utility.yul\":21694:21774   */\n      tag_400\n        /* \"#utility.yul\":21750:21772   */\n      tag_401\n        /* \"#utility.yul\":21768:21771   */\n      dup6\n        /* \"#utility.yul\":21750:21772   */\n      tag_176\n      jump\t// in\n    tag_401:\n        /* \"#utility.yul\":21740:21748   */\n      dup4\n        /* \"#utility.yul\":21736:21773   */\n      add\n        /* \"#utility.yul\":21723:21734   */\n      dup3\n        /* \"#utility.yul\":21694:21774   */\n      tag_185\n      jump\t// in\n    tag_400:\n        /* \"#utility.yul\":21353:21784   */\n      pop\n      pop\n        /* \"#utility.yul\":21338:21784   */\n    tag_396:\n        /* \"#utility.yul\":21248:21791   */\n      pop\n      pop\n      pop\n      jump\t// out\n        /* \"#utility.yul\":21797:21914   */\n    tag_187:\n        /* \"#utility.yul\":21851:21859   */\n      0x00\n        /* \"#utility.yul\":21901:21906   */\n      dup3\n        /* \"#utility.yul\":21895:21899   */\n      dup3\n        /* \"#utility.yul\":21891:21907   */\n      shr\n        /* \"#utility.yul\":21870:21907   */\n      swap1\n      pop\n        /* \"#utility.yul\":21797:21914   */\n      swap3\n      swap2\n      pop\n      pop\n      jump\t// out\n        /* \"#utility.yul\":21920:22089   */\n    tag_188:\n        /* \"#utility.yul\":21964:21970   */\n      0x00\n        /* \"#utility.yul\":21997:22048   */\n      tag_404\n        /* \"#utility.yul\":22045:22046   */\n      0x00\n        /* \"#utility.yul\":22041:22047   */\n      not\n        /* \"#utility.yul\":22033:22038   */\n      dup5\n        /* \"#utility.yul\":22030:22031   */\n      0x08\n        /* \"#utility.yul\":22026:22039   */\n      mul\n        /* \"#utility.yul\":21997:22048   */\n      tag_187\n      jump\t// in\n    tag_404:\n        /* \"#utility.yul\":21993:22049   */\n      not\n        /* \"#utility.yul\":22078:22082   */\n      dup1\n        /* \"#utility.yul\":22072:22076   */\n      dup4\n        /* \"#utility.yul\":22068:22083   */\n      and\n        /* \"#utility.yul\":22058:22083   */\n      swap2\n      pop\n        /* \"#utility.yul\":21971:22089   */\n      pop\n        /* \"#utility.yul\":21920:22089   */\n      swap3\n      swap2\n      pop\n      pop\n      jump\t// out\n        /* \"#utility.yul\":22094:22389   */\n    tag_189:\n        /* \"#utility.yul\":22170:22174   */\n      0x00\n        /* \"#utility.yul\":22316:22345   */\n      tag_406\n        /* \"#utility.yul\":22341:22344   */\n      dup4\n        /* \"#utility.yul\":22335:22339   */\n      dup4\n        /* \"#utility.yul\":22316:22345   */\n      tag_188\n      jump\t// in\n    tag_406:\n        /* \"#utility.yul\":22308:22345   */\n      swap2\n      pop\n        /* \"#utility.yul\":22378:22381   */\n      dup3\n        /* \"#utility.yul\":22375:22376   */\n      0x02\n        /* \"#utility.yul\":22371:22382   */\n      mul\n        /* \"#utility.yul\":22365:22369   */\n      dup3\n        /* \"#utility.yul\":22362:22383   */\n      or\n        /* \"#utility.yul\":22354:22383   */\n      swap1\n      pop\n        /* \"#utility.yul\":22094:22389   */\n      swap3\n      swap2\n      pop\n      pop\n      jump\t// out\n        /* \"#utility.yul\":22394:23789   */\n    tag_111:\n        /* \"#utility.yul\":22511:22548   */\n      tag_408\n        /* \"#utility.yul\":22544:22547   */\n      dup3\n        /* \"#utility.yul\":22511:22548   */\n      tag_134\n      jump\t// in\n    tag_408:\n        /* \"#utility.yul\":22613:22631   */\n      0xffffffffffffffff\n        /* \"#utility.yul\":22605:22611   */\n      dup2\n        /* \"#utility.yul\":22602:22632   */\n      gt\n        /* \"#utility.yul\":22599:22655   */\n      iszero\n      tag_409\n      jumpi\n        /* \"#utility.yul\":22635:22653   */\n      tag_410\n      tag_157\n      jump\t// in\n    tag_410:\n        /* \"#utility.yul\":22599:22655   */\n    tag_409:\n        /* \"#utility.yul\":22679:22717   */\n      tag_411\n        /* \"#utility.yul\":22711:22715   */\n      dup3\n        /* \"#utility.yul\":22705:22716   */\n      sload\n        /* \"#utility.yul\":22679:22717   */\n      tag_56\n      jump\t// in\n    tag_411:\n        /* \"#utility.yul\":22764:22831   */\n      tag_412\n        /* \"#utility.yul\":22824:22830   */\n      dup3\n        /* \"#utility.yul\":22816:22822   */\n      dup3\n        /* \"#utility.yul\":22810:22814   */\n      dup6\n        /* \"#utility.yul\":22764:22831   */\n      tag_186\n      jump\t// in\n    tag_412:\n        /* \"#utility.yul\":22858:22859   */\n      0x00\n        /* \"#utility.yul\":22882:22886   */\n      0x20\n        /* \"#utility.yul\":22869:22886   */\n      swap1\n      pop\n        /* \"#utility.yul\":22914:22916   */\n      0x1f\n        /* \"#utility.yul\":22906:22912   */\n      dup4\n        /* \"#utility.yul\":22903:22917   */\n      gt\n        /* \"#utility.yul\":22931:22932   */\n      0x01\n        /* \"#utility.yul\":22926:23544   */\n      dup2\n      eq\n      tag_414\n      jumpi\n        /* \"#utility.yul\":23588:23589   */\n      0x00\n        /* \"#utility.yul\":23605:23611   */\n      dup5\n        /* \"#utility.yul\":23602:23679   */\n      iszero\n      tag_415\n      jumpi\n        /* \"#utility.yul\":23654:23663   */\n      dup3\n        /* \"#utility.yul\":23649:23652   */\n      dup8\n        /* \"#utility.yul\":23645:23664   */\n      add\n        /* \"#utility.yul\":23639:23665   */\n      mload\n        /* \"#utility.yul\":23630:23665   */\n      swap1\n      pop\n        /* \"#utility.yul\":23602:23679   */\n    tag_415:\n        /* \"#utility.yul\":23705:23772   */\n      tag_416\n        /* \"#utility.yul\":23765:23771   */\n      dup6\n        /* \"#utility.yul\":23758:23763   */\n      dup3\n        /* \"#utility.yul\":23705:23772   */\n      tag_189\n      jump\t// in\n    tag_416:\n        /* \"#utility.yul\":23699:23703   */\n      dup7\n        /* \"#utility.yul\":23692:23773   */\n      sstore\n        /* \"#utility.yul\":23561:23783   */\n      pop\n        /* \"#utility.yul\":22896:23783   */\n      jump(tag_413)\n        /* \"#utility.yul\":22926:23544   */\n    tag_414:\n        /* \"#utility.yul\":22978:22982   */\n      0x1f\n        /* \"#utility.yul\":22974:22983   */\n      not\n        /* \"#utility.yul\":22966:22972   */\n      dup5\n        /* \"#utility.yul\":22962:22984   */\n      and\n        /* \"#utility.yul\":23012:23049   */\n      tag_417\n        /* \"#utility.yul\":23044:23048   */\n      dup7\n        /* \"#utility.yul\":23012:23049   */\n      tag_175\n      jump\t// in\n    tag_417:\n        /* \"#utility.yul\":23071:23072   */\n      0x00\n        /* \"#utility.yul\":23085:23293   */\n    tag_418:\n        /* \"#utility.yul\":23099:23106   */\n      dup3\n        /* \"#utility.yul\":23096:23097   */\n      dup2\n        /* \"#utility.yul\":23093:23107   */\n      lt\n        /* \"#utility.yul\":23085:23293   */\n      iszero\n      tag_420\n      jumpi\n        /* \"#utility.yul\":23178:23187   */\n      dup5\n        /* \"#utility.yul\":23173:23176   */\n      dup10\n        /* \"#utility.yul\":23169:23188   */\n      add\n        /* \"#utility.yul\":23163:23189   */\n      mload\n        /* \"#utility.yul\":23155:23161   */\n      dup3\n        /* \"#utility.yul\":23148:23190   */\n      sstore\n        /* \"#utility.yul\":23229:23230   */\n      0x01\n        /* \"#utility.yul\":23221:23227   */\n      dup3\n        /* \"#utility.yul\":23217:23231   */\n      add\n        /* \"#utility.yul\":23207:23231   */\n      swap2\n      pop\n        /* \"#utility.yul\":23276:23278   */\n      0x20\n        /* \"#utility.yul\":23265:23274   */\n      dup6\n        /* \"#utility.yul\":23261:23279   */\n      add\n        /* \"#utility.yul\":23248:23279   */\n      swap5\n      pop\n        /* \"#utility.yul\":23122:23126   */\n      0x20\n        /* \"#utility.yul\":23119:23120   */\n      dup2\n        /* \"#utility.yul\":23115:23127   */\n      add\n        /* \"#utility.yul\":23110:23127   */\n      swap1\n      pop\n        /* \"#utility.yul\":23085:23293   */\n      jump(tag_418)\n    tag_420:\n        /* \"#utility.yul\":23321:23327   */\n      dup7\n        /* \"#utility.yul\":23312:23319   */\n      dup4\n        /* \"#utility.yul\":23309:23328   */\n      lt\n        /* \"#utility.yul\":23306:23485   */\n      iszero\n      tag_421\n      jumpi\n        /* \"#utility.yul\":23379:23388   */\n      dup5\n        /* \"#utility.yul\":23374:23377   */\n      dup10\n        /* \"#utility.yul\":23370:23389   */\n      add\n        /* \"#utility.yul\":23364:23390   */\n      mload\n        /* \"#utility.yul\":23422:23470   */\n      tag_422\n        /* \"#utility.yul\":23464:23468   */\n      0x1f\n        /* \"#utility.yul\":23456:23462   */\n      dup10\n        /* \"#utility.yul\":23452:23469   */\n      and\n        /* \"#utility.yul\":23441:23450   */\n      dup3\n        /* \"#utility.yul\":23422:23470   */\n      tag_188\n      jump\t// in\n    tag_422:\n        /* \"#utility.yul\":23414:23420   */\n      dup4\n        /* \"#utility.yul\":23407:23471   */\n      sstore\n        /* \"#utility.yul\":23329:23485   */\n      pop\n        /* \"#utility.yul\":23306:23485   */\n    tag_421:\n        /* \"#utility.yul\":23531:23532   */\n      0x01\n        /* \"#utility.yul\":23527:23528   */\n      0x02\n        /* \"#utility.yul\":23519:23525   */\n      dup9\n        /* \"#utility.yul\":23515:23529   */\n      mul\n        /* \"#utility.yul\":23511:23533   */\n      add\n        /* \"#utility.yul\":23505:23509   */\n      dup9\n        /* \"#utility.yul\":23498:23534   */\n      sstore\n        /* \"#utility.yul\":22933:23544   */\n      pop\n      pop\n      pop\n        /* \"#utility.yul\":22896:23783   */\n    tag_413:\n      pop\n        /* \"#utility.yul\":22486:23789   */\n      pop\n      pop\n      pop\n        /* \"#utility.yul\":22394:23789   */\n      pop\n      pop\n      jump\t// out\n\n    auxdata: 0xa2646970667358221220f28f8fcf5e0c2887b9fb9375076b54f7780689931bade689e60e71e2c2b9301a64736f6c63430008180033\n}\n",
				"bytecode": {
					"linkReferences": {},
					"object": "60806040526101185f806101000a81548161ffff021916908361ffff16021790555034801561002c575f80fd5b50335f60026101000a81548173ffffffffffffffffffffffffffffffffffffffff021916908373ffffffffffffffffffffffffffffffffffffffff1602179055506117778061007a5f395ff3fe608060405234801561000f575f80fd5b5060043610610091575f3560e01c8063633782161161006457806363378216146101315780636eb107971461014d5780637c9cd2bc1461016b5780638da5cb5b14610187578063c3ad5ecb146101a557610091565b806305a1b4a91461009557806312e7ee1c146100c95780633d9b569f146100f957806358bfa4ab14610115575b5f80fd5b6100af60048036038101906100aa9190610c1f565b6101d5565b6040516100c0959493929190610d05565b60405180910390f35b6100e360048036038101906100de9190610d5d565b6102c6565b6040516100f09190610f1c565b60405180910390f35b610113600480360381019061010e9190610c1f565b610461565b005b61012f600480360381019061012a9190610f73565b610618565b005b61014b60048036038101906101469190610c1f565b6106c5565b005b6101556107dc565b6040516101629190610fad565b60405180910390f35b610185600480360381019061018091906110f2565b6107ed565b005b61018f6109a4565b60405161019c9190611139565b60405180910390f35b6101bf60048036038101906101ba9190611152565b6109c9565b6040516101cc91906111f0565b60405180910390f35b6001602052815f5260405f2081815481106101ee575f80fd5b905f5260205f2090600502015f9150915050805f015f9054906101000a900473ffffffffffffffffffffffffffffffffffffffff16908060010180546102339061123d565b80601f016020809104026020016040519081016040528092919081815260200182805461025f9061123d565b80156102aa5780601f10610281576101008083540402835291602001916102aa565b820191905f5260205f20905b81548152906001019060200180831161028d57829003601f168201915b5050505050908060020154908060030154908060040154905085565b606060015f8373ffffffffffffffffffffffffffffffffffffffff1673ffffffffffffffffffffffffffffffffffffffff1681526020019081526020015f20805480602002602001604051908101604052809291908181526020015f905b82821015610456578382905f5260205f2090600502016040518060a00160405290815f82015f9054906101000a900473ffffffffffffffffffffffffffffffffffffffff1673ffffffffffffffffffffffffffffffffffffffff1673ffffffffffffffffffffffffffffffffffffffff1681526020016001820180546103a99061123d565b80601f01602080910402602001604051908101604052809291908181526020018280546103d59061123d565b80156104205780601f106103f757610100808354040283529160200191610420565b820191905f5260205f20905b81548152906001019060200180831161040357829003601f168201915b50505050508152602001600282015481526020016003820154815260200160048201548152505081526020019060010190610324565b505050509050919050565b8060015f8473ffffffffffffffffffffffffffffffffffffffff1673ffffffffffffffffffffffffffffffffffffffff1681526020019081526020015f2082815481106104b1576104b061126d565b5b905f5260205f2090600502016004015414610501576040517f08c379a00000000000000000000000000000000000000000000000000000000081526004016104f8906112e4565b60405180910390fd5b5f60015f8473ffffffffffffffffffffffffffffffffffffffff1673ffffffffffffffffffffffffffffffffffffffff1681526020019081526020015f2082815481106105515761055061126d565b5b905f5260205f20906005020160030154116105a1576040517f08c379a00000000000000000000000000000000000000000000000000000000081526004016105989061134c565b60405180910390fd5b60015f8373ffffffffffffffffffffffffffffffffffffffff1673ffffffffffffffffffffffffffffffffffffffff1681526020019081526020015f2081815481106105f0576105ef61126d565b5b905f5260205f2090600502016003015f81548092919061060f90611397565b91905055505050565b5f60029054906101000a900473ffffffffffffffffffffffffffffffffffffffff1673ffffffffffffffffffffffffffffffffffffffff163373ffffffffffffffffffffffffffffffffffffffff16146106a7576040517f08c379a000000000000000000000000000000000000000000000000000000000815260040161069e90611408565b60405180910390fd5b805f806101000a81548161ffff021916908361ffff16021790555050565b8060015f8473ffffffffffffffffffffffffffffffffffffffff1673ffffffffffffffffffffffffffffffffffffffff1681526020019081526020015f2082815481106107155761071461126d565b5b905f5260205f2090600502016004015414610765576040517f08c379a000000000000000000000000000000000000000000000000000000000815260040161075c906112e4565b60405180910390fd5b60015f8373ffffffffffffffffffffffffffffffffffffffff1673ffffffffffffffffffffffffffffffffffffffff1681526020019081526020015f2081815481106107b4576107b361126d565b5b905f5260205f2090600502016003015f8154809291906107d390611426565b91905055505050565b5f8054906101000a900461ffff1681565b5f8054906101000a900461ffff1661ffff1681511115610842576040517f08c379a0000000000000000000000000000000000000000000000000000000008152600401610839906114b7565b60405180910390fd5b5f6040518060a001604052803373ffffffffffffffffffffffffffffffffffffffff1681526020018381526020014281526020015f815260200160015f3373ffffffffffffffffffffffffffffffffffffffff1673ffffffffffffffffffffffffffffffffffffffff1681526020019081526020015f2080549050815250905060015f3373ffffffffffffffffffffffffffffffffffffffff1673ffffffffffffffffffffffffffffffffffffffff1681526020019081526020015f2081908060018154018082558091505060019003905f5260205f2090600502015f909190919091505f820151815f015f6101000a81548173ffffffffffffffffffffffffffffffffffffffff021916908373ffffffffffffffffffffffffffffffffffffffff160217905550602082015181600101908161097f9190611672565b5060408201518160020155606082015181600301556080820151816004015550505050565b5f60029054906101000a900473ffffffffffffffffffffffffffffffffffffffff1681565b6109d1610b40565b60015f3373ffffffffffffffffffffffffffffffffffffffff1673ffffffffffffffffffffffffffffffffffffffff1681526020019081526020015f208281548110610a2057610a1f61126d565b5b905f5260205f2090600502016040518060a00160405290815f82015f9054906101000a900473ffffffffffffffffffffffffffffffffffffffff1673ffffffffffffffffffffffffffffffffffffffff1673ffffffffffffffffffffffffffffffffffffffff168152602001600182018054610a9b9061123d565b80601f0160208091040260200160405190810160405280929190818152602001828054610ac79061123d565b8015610b125780601f10610ae957610100808354040283529160200191610b12565b820191905f5260205f20905b815481529060010190602001808311610af557829003601f168201915b5050505050815260200160028201548152602001600382015481526020016004820154815250509050919050565b6040518060a001604052805f73ffffffffffffffffffffffffffffffffffffffff168152602001606081526020015f81526020015f81526020015f81525090565b5f604051905090565b5f80fd5b5f80fd5b5f73ffffffffffffffffffffffffffffffffffffffff82169050919050565b5f610bbb82610b92565b9050919050565b610bcb81610bb1565b8114610bd5575f80fd5b50565b5f81359050610be681610bc2565b92915050565b5f819050919050565b610bfe81610bec565b8114610c08575f80fd5b50565b5f81359050610c1981610bf5565b92915050565b5f8060408385031215610c3557610c34610b8a565b5b5f610c4285828601610bd8565b9250506020610c5385828601610c0b565b9150509250929050565b610c6681610bb1565b82525050565b5f81519050919050565b5f82825260208201905092915050565b5f5b83811015610ca3578082015181840152602081019050610c88565b5f8484015250505050565b5f601f19601f8301169050919050565b5f610cc882610c6c565b610cd28185610c76565b9350610ce2818560208601610c86565b610ceb81610cae565b840191505092915050565b610cff81610bec565b82525050565b5f60a082019050610d185f830188610c5d565b8181036020830152610d2a8187610cbe565b9050610d396040830186610cf6565b610d466060830185610cf6565b610d536080830184610cf6565b9695505050505050565b5f60208284031215610d7257610d71610b8a565b5b5f610d7f84828501610bd8565b91505092915050565b5f81519050919050565b5f82825260208201905092915050565b5f819050602082019050919050565b610dba81610bb1565b82525050565b5f82825260208201905092915050565b5f610dda82610c6c565b610de48185610dc0565b9350610df4818560208601610c86565b610dfd81610cae565b840191505092915050565b610e1181610bec565b82525050565b5f60a083015f830151610e2c5f860182610db1565b5060208301518482036020860152610e448282610dd0565b9150506040830151610e596040860182610e08565b506060830151610e6c6060860182610e08565b506080830151610e7f6080860182610e08565b508091505092915050565b5f610e958383610e17565b905092915050565b5f602082019050919050565b5f610eb382610d88565b610ebd8185610d92565b935083602082028501610ecf85610da2565b805f5b85811015610f0a5784840389528151610eeb8582610e8a565b9450610ef683610e9d565b925060208a01995050600181019050610ed2565b50829750879550505050505092915050565b5f6020820190508181035f830152610f348184610ea9565b905092915050565b5f61ffff82169050919050565b610f5281610f3c565b8114610f5c575f80fd5b50565b5f81359050610f6d81610f49565b92915050565b5f60208284031215610f8857610f87610b8a565b5b5f610f9584828501610f5f565b91505092915050565b610fa781610f3c565b82525050565b5f602082019050610fc05f830184610f9e565b92915050565b5f80fd5b5f80fd5b7f4e487b71000000000000000000000000000000000000000000000000000000005f52604160045260245ffd5b61100482610cae565b810181811067ffffffffffffffff8211171561102357611022610fce565b5b80604052505050565b5f611035610b81565b90506110418282610ffb565b919050565b5f67ffffffffffffffff8211156110605761105f610fce565b5b61106982610cae565b9050602081019050919050565b828183375f83830152505050565b5f61109661109184611046565b61102c565b9050828152602081018484840111156110b2576110b1610fca565b5b6110bd848285611076565b509392505050565b5f82601f8301126110d9576110d8610fc6565b5b81356110e9848260208601611084565b91505092915050565b5f6020828403121561110757611106610b8a565b5b5f82013567ffffffffffffffff81111561112457611123610b8e565b5b611130848285016110c5565b91505092915050565b5f60208201905061114c5f830184610c5d565b92915050565b5f6020828403121561116757611166610b8a565b5b5f61117484828501610c0b565b91505092915050565b5f60a083015f8301516111925f860182610db1565b50602083015184820360208601526111aa8282610dd0565b91505060408301516111bf6040860182610e08565b5060608301516111d26060860182610e08565b5060808301516111e56080860182610e08565b508091505092915050565b5f6020820190508181035f830152611208818461117d565b905092915050565b7f4e487b71000000000000000000000000000000000000000000000000000000005f52602260045260245ffd5b5f600282049050600182168061125457607f821691505b60208210810361126757611266611210565b5b50919050565b7f4e487b71000000000000000000000000000000000000000000000000000000005f52603260045260245ffd5b7f547765657420446f65736e7420657869737473210000000000000000000000005f82015250565b5f6112ce601483610c76565b91506112d98261129a565b602082019050919050565b5f6020820190508181035f8301526112fb816112c2565b9050919050565b7f547765657420646f65736e742068617665206c696b65730000000000000000005f82015250565b5f611336601783610c76565b915061134182611302565b602082019050919050565b5f6020820190508181035f8301526113638161132a565b9050919050565b7f4e487b71000000000000000000000000000000000000000000000000000000005f52601160045260245ffd5b5f6113a182610bec565b91505f82036113b3576113b261136a565b5b600182039050919050565b7f596f7520617265206e6f7420746865206f776e657221000000000000000000005f82015250565b5f6113f2601683610c76565b91506113fd826113be565b602082019050919050565b5f6020820190508181035f83015261141f816113e6565b9050919050565b5f61143082610bec565b91507fffffffffffffffffffffffffffffffffffffffffffffffffffffffffffffffff82036114625761146161136a565b5b600182019050919050565b7f547765657420697320746f6f206c6f6e672100000000000000000000000000005f82015250565b5f6114a1601283610c76565b91506114ac8261146d565b602082019050919050565b5f6020820190508181035f8301526114ce81611495565b9050919050565b5f819050815f5260205f209050919050565b5f6020601f8301049050919050565b5f82821b905092915050565b5f600883026115317fffffffffffffffffffffffffffffffffffffffffffffffffffffffffffffffff826114f6565b61153b86836114f6565b95508019841693508086168417925050509392505050565b5f819050919050565b5f61157661157161156c84610bec565b611553565b610bec565b9050919050565b5f819050919050565b61158f8361155c565b6115a361159b8261157d565b848454611502565b825550505050565b5f90565b6115b76115ab565b6115c2818484611586565b505050565b5b818110156115e5576115da5f826115af565b6001810190506115c8565b5050565b601f82111561162a576115fb816114d5565b611604846114e7565b81016020851015611613578190505b61162761161f856114e7565b8301826115c7565b50505b505050565b5f82821c905092915050565b5f61164a5f198460080261162f565b1980831691505092915050565b5f611662838361163b565b9150826002028217905092915050565b61167b82610c6c565b67ffffffffffffffff81111561169457611693610fce565b5b61169e825461123d565b6116a98282856115e9565b5f60209050601f8311600181146116da575f84156116c8578287015190505b6116d28582611657565b865550611739565b601f1984166116e8866114d5565b5f5b8281101561170f578489015182556001820191506020850194506020810190506116ea565b8683101561172c5784890151611728601f89168261163b565b8355505b6001600288020188555050505b50505050505056fea2646970667358221220f28f8fcf5e0c2887b9fb9375076b54f7780689931bade689e60e71e2c2b9301a64736f6c63430008180033",
					"opcodes": "PUSH1 0x80 PUSH1 0x40 MSTORE PUSH2 0x118 PUSH0 DUP1 PUSH2 0x100 EXP DUP2 SLOAD DUP2 PUSH2 0xFFFF MUL NOT AND SWAP1 DUP4 PUSH2 0xFFFF AND MUL OR SWAP1 SSTORE POP CALLVALUE DUP1 ISZERO PUSH2 0x2C JUMPI PUSH0 DUP1 REVERT JUMPDEST POP CALLER PUSH0 PUSH1 0x2 PUSH2 0x100 EXP DUP2 SLOAD DUP2 PUSH20 0xFFFFFFFFFFFFFFFFFFFFFFFFFFFFFFFFFFFFFFFF MUL NOT AND SWAP1 DUP4 PUSH20 0xFFFFFFFFFFFFFFFFFFFFFFFFFFFFFFFFFFFFFFFF AND MUL OR SWAP1 SSTORE POP PUSH2 0x1777 DUP1 PUSH2 0x7A PUSH0 CODECOPY PUSH0 RETURN INVALID PUSH1 0x80 PUSH1 0x40 MSTORE CALLVALUE DUP1 ISZERO PUSH2 0xF JUMPI PUSH0 DUP1 REVERT JUMPDEST POP PUSH1 0x4 CALLDATASIZE LT PUSH2 0x91 JUMPI PUSH0 CALLDATALOAD PUSH1 0xE0 SHR DUP1 PUSH4 0x63378216 GT PUSH2 0x64 JUMPI DUP1 PUSH4 0x63378216 EQ PUSH2 0x131 JUMPI DUP1 PUSH4 0x6EB10797 EQ PUSH2 0x14D JUMPI DUP1 PUSH4 0x7C9CD2BC EQ PUSH2 0x16B JUMPI DUP1 PUSH4 0x8DA5CB5B EQ PUSH2 0x187 JUMPI DUP1 PUSH4 0xC3AD5ECB EQ PUSH2 0x1A5 JUMPI PUSH2 0x91 JUMP JUMPDEST DUP1 PUSH4 0x5A1B4A9 EQ PUSH2 0x95 JUMPI DUP1 PUSH4 0x12E7EE1C EQ PUSH2 0xC9 JUMPI DUP1 PUSH4 0x3D9B569F EQ PUSH2 0xF9 JUMPI DUP1 PUSH4 0x58BFA4AB EQ PUSH2 0x115 JUMPI JUMPDEST PUSH0 DUP1 REVERT JUMPDEST PUSH2 0xAF PUSH1 0x4 DUP1 CALLDATASIZE SUB DUP2 ADD SWAP1 PUSH2 0xAA SWAP2 SWAP1 PUSH2 0xC1F JUMP JUMPDEST PUSH2 0x1D5 JUMP JUMPDEST PUSH1 0x40 MLOAD PUSH2 0xC0 SWAP6 SWAP5 SWAP4 SWAP3 SWAP2 SWAP1 PUSH2 0xD05 JUMP JUMPDEST PUSH1 0x40 MLOAD DUP1 SWAP2 SUB SWAP1 RETURN JUMPDEST PUSH2 0xE3 PUSH1 0x4 DUP1 CALLDATASIZE SUB DUP2 ADD SWAP1 PUSH2 0xDE SWAP2 SWAP1 PUSH2 0xD5D JUMP JUMPDEST PUSH2 0x2C6 JUMP JUMPDEST PUSH1 0x40 MLOAD PUSH2 0xF0 SWAP2 SWAP1 PUSH2 0xF1C JUMP JUMPDEST PUSH1 0x40 MLOAD DUP1 SWAP2 SUB SWAP1 RETURN JUMPDEST PUSH2 0x113 PUSH1 0x4 DUP1 CALLDATASIZE SUB DUP2 ADD SWAP1 PUSH2 0x10E SWAP2 SWAP1 PUSH2 0xC1F JUMP JUMPDEST PUSH2 0x461 JUMP JUMPDEST STOP JUMPDEST PUSH2 0x12F PUSH1 0x4 DUP1 CALLDATASIZE SUB DUP2 ADD SWAP1 PUSH2 0x12A SWAP2 SWAP1 PUSH2 0xF73 JUMP JUMPDEST PUSH2 0x618 JUMP JUMPDEST STOP JUMPDEST PUSH2 0x14B PUSH1 0x4 DUP1 CALLDATASIZE SUB DUP2 ADD SWAP1 PUSH2 0x146 SWAP2 SWAP1 PUSH2 0xC1F JUMP JUMPDEST PUSH2 0x6C5 JUMP JUMPDEST STOP JUMPDEST PUSH2 0x155 PUSH2 0x7DC JUMP JUMPDEST PUSH1 0x40 MLOAD PUSH2 0x162 SWAP2 SWAP1 PUSH2 0xFAD JUMP JUMPDEST PUSH1 0x40 MLOAD DUP1 SWAP2 SUB SWAP1 RETURN JUMPDEST PUSH2 0x185 PUSH1 0x4 DUP1 CALLDATASIZE SUB DUP2 ADD SWAP1 PUSH2 0x180 SWAP2 SWAP1 PUSH2 0x10F2 JUMP JUMPDEST PUSH2 0x7ED JUMP JUMPDEST STOP JUMPDEST PUSH2 0x18F PUSH2 0x9A4 JUMP JUMPDEST PUSH1 0x40 MLOAD PUSH2 0x19C SWAP2 SWAP1 PUSH2 0x1139 JUMP JUMPDEST PUSH1 0x40 MLOAD DUP1 SWAP2 SUB SWAP1 RETURN JUMPDEST PUSH2 0x1BF PUSH1 0x4 DUP1 CALLDATASIZE SUB DUP2 ADD SWAP1 PUSH2 0x1BA SWAP2 SWAP1 PUSH2 0x1152 JUMP JUMPDEST PUSH2 0x9C9 JUMP JUMPDEST PUSH1 0x40 MLOAD PUSH2 0x1CC SWAP2 SWAP1 PUSH2 0x11F0 JUMP JUMPDEST PUSH1 0x40 MLOAD DUP1 SWAP2 SUB SWAP1 RETURN JUMPDEST PUSH1 0x1 PUSH1 0x20 MSTORE DUP2 PUSH0 MSTORE PUSH1 0x40 PUSH0 KECCAK256 DUP2 DUP2 SLOAD DUP2 LT PUSH2 0x1EE JUMPI PUSH0 DUP1 REVERT JUMPDEST SWAP1 PUSH0 MSTORE PUSH1 0x20 PUSH0 KECCAK256 SWAP1 PUSH1 0x5 MUL ADD PUSH0 SWAP2 POP SWAP2 POP POP DUP1 PUSH0 ADD PUSH0 SWAP1 SLOAD SWAP1 PUSH2 0x100 EXP SWAP1 DIV PUSH20 0xFFFFFFFFFFFFFFFFFFFFFFFFFFFFFFFFFFFFFFFF AND SWAP1 DUP1 PUSH1 0x1 ADD DUP1 SLOAD PUSH2 0x233 SWAP1 PUSH2 0x123D JUMP JUMPDEST DUP1 PUSH1 0x1F ADD PUSH1 0x20 DUP1 SWAP2 DIV MUL PUSH1 0x20 ADD PUSH1 0x40 MLOAD SWAP1 DUP2 ADD PUSH1 0x40 MSTORE DUP1 SWAP3 SWAP2 SWAP1 DUP2 DUP2 MSTORE PUSH1 0x20 ADD DUP3 DUP1 SLOAD PUSH2 0x25F SWAP1 PUSH2 0x123D JUMP JUMPDEST DUP1 ISZERO PUSH2 0x2AA JUMPI DUP1 PUSH1 0x1F LT PUSH2 0x281 JUMPI PUSH2 0x100 DUP1 DUP4 SLOAD DIV MUL DUP4 MSTORE SWAP2 PUSH1 0x20 ADD SWAP2 PUSH2 0x2AA JUMP JUMPDEST DUP3 ADD SWAP2 SWAP1 PUSH0 MSTORE PUSH1 0x20 PUSH0 KECCAK256 SWAP1 JUMPDEST DUP2 SLOAD DUP2 MSTORE SWAP1 PUSH1 0x1 ADD SWAP1 PUSH1 0x20 ADD DUP1 DUP4 GT PUSH2 0x28D JUMPI DUP3 SWAP1 SUB PUSH1 0x1F AND DUP3 ADD SWAP2 JUMPDEST POP POP POP POP POP SWAP1 DUP1 PUSH1 0x2 ADD SLOAD SWAP1 DUP1 PUSH1 0x3 ADD SLOAD SWAP1 DUP1 PUSH1 0x4 ADD SLOAD SWAP1 POP DUP6 JUMP JUMPDEST PUSH1 0x60 PUSH1 0x1 PUSH0 DUP4 PUSH20 0xFFFFFFFFFFFFFFFFFFFFFFFFFFFFFFFFFFFFFFFF AND PUSH20 0xFFFFFFFFFFFFFFFFFFFFFFFFFFFFFFFFFFFFFFFF AND DUP2 MSTORE PUSH1 0x20 ADD SWAP1 DUP2 MSTORE PUSH1 0x20 ADD PUSH0 KECCAK256 DUP1 SLOAD DUP1 PUSH1 0x20 MUL PUSH1 0x20 ADD PUSH1 0x40 MLOAD SWAP1 DUP2 ADD PUSH1 0x40 MSTORE DUP1 SWAP3 SWAP2 SWAP1 DUP2 DUP2 MSTORE PUSH1 0x20 ADD PUSH0 SWAP1 JUMPDEST DUP3 DUP3 LT ISZERO PUSH2 0x456 JUMPI DUP4 DUP3 SWAP1 PUSH0 MSTORE PUSH1 0x20 PUSH0 KECCAK256 SWAP1 PUSH1 0x5 MUL ADD PUSH1 0x40 MLOAD DUP1 PUSH1 0xA0 ADD PUSH1 0x40 MSTORE SWAP1 DUP2 PUSH0 DUP3 ADD PUSH0 SWAP1 SLOAD SWAP1 PUSH2 0x100 EXP SWAP1 DIV PUSH20 0xFFFFFFFFFFFFFFFFFFFFFFFFFFFFFFFFFFFFFFFF AND PUSH20 0xFFFFFFFFFFFFFFFFFFFFFFFFFFFFFFFFFFFFFFFF AND PUSH20 0xFFFFFFFFFFFFFFFFFFFFFFFFFFFFFFFFFFFFFFFF AND DUP2 MSTORE PUSH1 0x20 ADD PUSH1 0x1 DUP3 ADD DUP1 SLOAD PUSH2 0x3A9 SWAP1 PUSH2 0x123D JUMP JUMPDEST DUP1 PUSH1 0x1F ADD PUSH1 0x20 DUP1 SWAP2 DIV MUL PUSH1 0x20 ADD PUSH1 0x40 MLOAD SWAP1 DUP2 ADD PUSH1 0x40 MSTORE DUP1 SWAP3 SWAP2 SWAP1 DUP2 DUP2 MSTORE PUSH1 0x20 ADD DUP3 DUP1 SLOAD PUSH2 0x3D5 SWAP1 PUSH2 0x123D JUMP JUMPDEST DUP1 ISZERO PUSH2 0x420 JUMPI DUP1 PUSH1 0x1F LT PUSH2 0x3F7 JUMPI PUSH2 0x100 DUP1 DUP4 SLOAD DIV MUL DUP4 MSTORE SWAP2 PUSH1 0x20 ADD SWAP2 PUSH2 0x420 JUMP JUMPDEST DUP3 ADD SWAP2 SWAP1 PUSH0 MSTORE PUSH1 0x20 PUSH0 KECCAK256 SWAP1 JUMPDEST DUP2 SLOAD DUP2 MSTORE SWAP1 PUSH1 0x1 ADD SWAP1 PUSH1 0x20 ADD DUP1 DUP4 GT PUSH2 0x403 JUMPI DUP3 SWAP1 SUB PUSH1 0x1F AND DUP3 ADD SWAP2 JUMPDEST POP POP POP POP POP DUP2 MSTORE PUSH1 0x20 ADD PUSH1 0x2 DUP3 ADD SLOAD DUP2 MSTORE PUSH1 0x20 ADD PUSH1 0x3 DUP3 ADD SLOAD DUP2 MSTORE PUSH1 0x20 ADD PUSH1 0x4 DUP3 ADD SLOAD DUP2 MSTORE POP POP DUP2 MSTORE PUSH1 0x20 ADD SWAP1 PUSH1 0x1 ADD SWAP1 PUSH2 0x324 JUMP JUMPDEST POP POP POP POP SWAP1 POP SWAP2 SWAP1 POP JUMP JUMPDEST DUP1 PUSH1 0x1 PUSH0 DUP5 PUSH20 0xFFFFFFFFFFFFFFFFFFFFFFFFFFFFFFFFFFFFFFFF AND PUSH20 0xFFFFFFFFFFFFFFFFFFFFFFFFFFFFFFFFFFFFFFFF AND DUP2 MSTORE PUSH1 0x20 ADD SWAP1 DUP2 MSTORE PUSH1 0x20 ADD PUSH0 KECCAK256 DUP3 DUP2 SLOAD DUP2 LT PUSH2 0x4B1 JUMPI PUSH2 0x4B0 PUSH2 0x126D JUMP JUMPDEST JUMPDEST SWAP1 PUSH0 MSTORE PUSH1 0x20 PUSH0 KECCAK256 SWAP1 PUSH1 0x5 MUL ADD PUSH1 0x4 ADD SLOAD EQ PUSH2 0x501 JUMPI PUSH1 0x40 MLOAD PUSH32 0x8C379A000000000000000000000000000000000000000000000000000000000 DUP2 MSTORE PUSH1 0x4 ADD PUSH2 0x4F8 SWAP1 PUSH2 0x12E4 JUMP JUMPDEST PUSH1 0x40 MLOAD DUP1 SWAP2 SUB SWAP1 REVERT JUMPDEST PUSH0 PUSH1 0x1 PUSH0 DUP5 PUSH20 0xFFFFFFFFFFFFFFFFFFFFFFFFFFFFFFFFFFFFFFFF AND PUSH20 0xFFFFFFFFFFFFFFFFFFFFFFFFFFFFFFFFFFFFFFFF AND DUP2 MSTORE PUSH1 0x20 ADD SWAP1 DUP2 MSTORE PUSH1 0x20 ADD PUSH0 KECCAK256 DUP3 DUP2 SLOAD DUP2 LT PUSH2 0x551 JUMPI PUSH2 0x550 PUSH2 0x126D JUMP JUMPDEST JUMPDEST SWAP1 PUSH0 MSTORE PUSH1 0x20 PUSH0 KECCAK256 SWAP1 PUSH1 0x5 MUL ADD PUSH1 0x3 ADD SLOAD GT PUSH2 0x5A1 JUMPI PUSH1 0x40 MLOAD PUSH32 0x8C379A000000000000000000000000000000000000000000000000000000000 DUP2 MSTORE PUSH1 0x4 ADD PUSH2 0x598 SWAP1 PUSH2 0x134C JUMP JUMPDEST PUSH1 0x40 MLOAD DUP1 SWAP2 SUB SWAP1 REVERT JUMPDEST PUSH1 0x1 PUSH0 DUP4 PUSH20 0xFFFFFFFFFFFFFFFFFFFFFFFFFFFFFFFFFFFFFFFF AND PUSH20 0xFFFFFFFFFFFFFFFFFFFFFFFFFFFFFFFFFFFFFFFF AND DUP2 MSTORE PUSH1 0x20 ADD SWAP1 DUP2 MSTORE PUSH1 0x20 ADD PUSH0 KECCAK256 DUP2 DUP2 SLOAD DUP2 LT PUSH2 0x5F0 JUMPI PUSH2 0x5EF PUSH2 0x126D JUMP JUMPDEST JUMPDEST SWAP1 PUSH0 MSTORE PUSH1 0x20 PUSH0 KECCAK256 SWAP1 PUSH1 0x5 MUL ADD PUSH1 0x3 ADD PUSH0 DUP2 SLOAD DUP1 SWAP3 SWAP2 SWAP1 PUSH2 0x60F SWAP1 PUSH2 0x1397 JUMP JUMPDEST SWAP2 SWAP1 POP SSTORE POP POP POP JUMP JUMPDEST PUSH0 PUSH1 0x2 SWAP1 SLOAD SWAP1 PUSH2 0x100 EXP SWAP1 DIV PUSH20 0xFFFFFFFFFFFFFFFFFFFFFFFFFFFFFFFFFFFFFFFF AND PUSH20 0xFFFFFFFFFFFFFFFFFFFFFFFFFFFFFFFFFFFFFFFF AND CALLER PUSH20 0xFFFFFFFFFFFFFFFFFFFFFFFFFFFFFFFFFFFFFFFF AND EQ PUSH2 0x6A7 JUMPI PUSH1 0x40 MLOAD PUSH32 0x8C379A000000000000000000000000000000000000000000000000000000000 DUP2 MSTORE PUSH1 0x4 ADD PUSH2 0x69E SWAP1 PUSH2 0x1408 JUMP JUMPDEST PUSH1 0x40 MLOAD DUP1 SWAP2 SUB SWAP1 REVERT JUMPDEST DUP1 PUSH0 DUP1 PUSH2 0x100 EXP DUP2 SLOAD DUP2 PUSH2 0xFFFF MUL NOT AND SWAP1 DUP4 PUSH2 0xFFFF AND MUL OR SWAP1 SSTORE POP POP JUMP JUMPDEST DUP1 PUSH1 0x1 PUSH0 DUP5 PUSH20 0xFFFFFFFFFFFFFFFFFFFFFFFFFFFFFFFFFFFFFFFF AND PUSH20 0xFFFFFFFFFFFFFFFFFFFFFFFFFFFFFFFFFFFFFFFF AND DUP2 MSTORE PUSH1 0x20 ADD SWAP1 DUP2 MSTORE PUSH1 0x20 ADD PUSH0 KECCAK256 DUP3 DUP2 SLOAD DUP2 LT PUSH2 0x715 JUMPI PUSH2 0x714 PUSH2 0x126D JUMP JUMPDEST JUMPDEST SWAP1 PUSH0 MSTORE PUSH1 0x20 PUSH0 KECCAK256 SWAP1 PUSH1 0x5 MUL ADD PUSH1 0x4 ADD SLOAD EQ PUSH2 0x765 JUMPI PUSH1 0x40 MLOAD PUSH32 0x8C379A000000000000000000000000000000000000000000000000000000000 DUP2 MSTORE PUSH1 0x4 ADD PUSH2 0x75C SWAP1 PUSH2 0x12E4 JUMP JUMPDEST PUSH1 0x40 MLOAD DUP1 SWAP2 SUB SWAP1 REVERT JUMPDEST PUSH1 0x1 PUSH0 DUP4 PUSH20 0xFFFFFFFFFFFFFFFFFFFFFFFFFFFFFFFFFFFFFFFF AND PUSH20 0xFFFFFFFFFFFFFFFFFFFFFFFFFFFFFFFFFFFFFFFF AND DUP2 MSTORE PUSH1 0x20 ADD SWAP1 DUP2 MSTORE PUSH1 0x20 ADD PUSH0 KECCAK256 DUP2 DUP2 SLOAD DUP2 LT PUSH2 0x7B4 JUMPI PUSH2 0x7B3 PUSH2 0x126D JUMP JUMPDEST JUMPDEST SWAP1 PUSH0 MSTORE PUSH1 0x20 PUSH0 KECCAK256 SWAP1 PUSH1 0x5 MUL ADD PUSH1 0x3 ADD PUSH0 DUP2 SLOAD DUP1 SWAP3 SWAP2 SWAP1 PUSH2 0x7D3 SWAP1 PUSH2 0x1426 JUMP JUMPDEST SWAP2 SWAP1 POP SSTORE POP POP POP JUMP JUMPDEST PUSH0 DUP1 SLOAD SWAP1 PUSH2 0x100 EXP SWAP1 DIV PUSH2 0xFFFF AND DUP2 JUMP JUMPDEST PUSH0 DUP1 SLOAD SWAP1 PUSH2 0x100 EXP SWAP1 DIV PUSH2 0xFFFF AND PUSH2 0xFFFF AND DUP2 MLOAD GT ISZERO PUSH2 0x842 JUMPI PUSH1 0x40 MLOAD PUSH32 0x8C379A000000000000000000000000000000000000000000000000000000000 DUP2 MSTORE PUSH1 0x4 ADD PUSH2 0x839 SWAP1 PUSH2 0x14B7 JUMP JUMPDEST PUSH1 0x40 MLOAD DUP1 SWAP2 SUB SWAP1 REVERT JUMPDEST PUSH0 PUSH1 0x40 MLOAD DUP1 PUSH1 0xA0 ADD PUSH1 0x40 MSTORE DUP1 CALLER PUSH20 0xFFFFFFFFFFFFFFFFFFFFFFFFFFFFFFFFFFFFFFFF AND DUP2 MSTORE PUSH1 0x20 ADD DUP4 DUP2 MSTORE PUSH1 0x20 ADD TIMESTAMP DUP2 MSTORE PUSH1 0x20 ADD PUSH0 DUP2 MSTORE PUSH1 0x20 ADD PUSH1 0x1 PUSH0 CALLER PUSH20 0xFFFFFFFFFFFFFFFFFFFFFFFFFFFFFFFFFFFFFFFF AND PUSH20 0xFFFFFFFFFFFFFFFFFFFFFFFFFFFFFFFFFFFFFFFF AND DUP2 MSTORE PUSH1 0x20 ADD SWAP1 DUP2 MSTORE PUSH1 0x20 ADD PUSH0 KECCAK256 DUP1 SLOAD SWAP1 POP DUP2 MSTORE POP SWAP1 POP PUSH1 0x1 PUSH0 CALLER PUSH20 0xFFFFFFFFFFFFFFFFFFFFFFFFFFFFFFFFFFFFFFFF AND PUSH20 0xFFFFFFFFFFFFFFFFFFFFFFFFFFFFFFFFFFFFFFFF AND DUP2 MSTORE PUSH1 0x20 ADD SWAP1 DUP2 MSTORE PUSH1 0x20 ADD PUSH0 KECCAK256 DUP2 SWAP1 DUP1 PUSH1 0x1 DUP2 SLOAD ADD DUP1 DUP3 SSTORE DUP1 SWAP2 POP POP PUSH1 0x1 SWAP1 SUB SWAP1 PUSH0 MSTORE PUSH1 0x20 PUSH0 KECCAK256 SWAP1 PUSH1 0x5 MUL ADD PUSH0 SWAP1 SWAP2 SWAP1 SWAP2 SWAP1 SWAP2 POP PUSH0 DUP3 ADD MLOAD DUP2 PUSH0 ADD PUSH0 PUSH2 0x100 EXP DUP2 SLOAD DUP2 PUSH20 0xFFFFFFFFFFFFFFFFFFFFFFFFFFFFFFFFFFFFFFFF MUL NOT AND SWAP1 DUP4 PUSH20 0xFFFFFFFFFFFFFFFFFFFFFFFFFFFFFFFFFFFFFFFF AND MUL OR SWAP1 SSTORE POP PUSH1 0x20 DUP3 ADD MLOAD DUP2 PUSH1 0x1 ADD SWAP1 DUP2 PUSH2 0x97F SWAP2 SWAP1 PUSH2 0x1672 JUMP JUMPDEST POP PUSH1 0x40 DUP3 ADD MLOAD DUP2 PUSH1 0x2 ADD SSTORE PUSH1 0x60 DUP3 ADD MLOAD DUP2 PUSH1 0x3 ADD SSTORE PUSH1 0x80 DUP3 ADD MLOAD DUP2 PUSH1 0x4 ADD SSTORE POP POP POP POP JUMP JUMPDEST PUSH0 PUSH1 0x2 SWAP1 SLOAD SWAP1 PUSH2 0x100 EXP SWAP1 DIV PUSH20 0xFFFFFFFFFFFFFFFFFFFFFFFFFFFFFFFFFFFFFFFF AND DUP2 JUMP JUMPDEST PUSH2 0x9D1 PUSH2 0xB40 JUMP JUMPDEST PUSH1 0x1 PUSH0 CALLER PUSH20 0xFFFFFFFFFFFFFFFFFFFFFFFFFFFFFFFFFFFFFFFF AND PUSH20 0xFFFFFFFFFFFFFFFFFFFFFFFFFFFFFFFFFFFFFFFF AND DUP2 MSTORE PUSH1 0x20 ADD SWAP1 DUP2 MSTORE PUSH1 0x20 ADD PUSH0 KECCAK256 DUP3 DUP2 SLOAD DUP2 LT PUSH2 0xA20 JUMPI PUSH2 0xA1F PUSH2 0x126D JUMP JUMPDEST JUMPDEST SWAP1 PUSH0 MSTORE PUSH1 0x20 PUSH0 KECCAK256 SWAP1 PUSH1 0x5 MUL ADD PUSH1 0x40 MLOAD DUP1 PUSH1 0xA0 ADD PUSH1 0x40 MSTORE SWAP1 DUP2 PUSH0 DUP3 ADD PUSH0 SWAP1 SLOAD SWAP1 PUSH2 0x100 EXP SWAP1 DIV PUSH20 0xFFFFFFFFFFFFFFFFFFFFFFFFFFFFFFFFFFFFFFFF AND PUSH20 0xFFFFFFFFFFFFFFFFFFFFFFFFFFFFFFFFFFFFFFFF AND PUSH20 0xFFFFFFFFFFFFFFFFFFFFFFFFFFFFFFFFFFFFFFFF AND DUP2 MSTORE PUSH1 0x20 ADD PUSH1 0x1 DUP3 ADD DUP1 SLOAD PUSH2 0xA9B SWAP1 PUSH2 0x123D JUMP JUMPDEST DUP1 PUSH1 0x1F ADD PUSH1 0x20 DUP1 SWAP2 DIV MUL PUSH1 0x20 ADD PUSH1 0x40 MLOAD SWAP1 DUP2 ADD PUSH1 0x40 MSTORE DUP1 SWAP3 SWAP2 SWAP1 DUP2 DUP2 MSTORE PUSH1 0x20 ADD DUP3 DUP1 SLOAD PUSH2 0xAC7 SWAP1 PUSH2 0x123D JUMP JUMPDEST DUP1 ISZERO PUSH2 0xB12 JUMPI DUP1 PUSH1 0x1F LT PUSH2 0xAE9 JUMPI PUSH2 0x100 DUP1 DUP4 SLOAD DIV MUL DUP4 MSTORE SWAP2 PUSH1 0x20 ADD SWAP2 PUSH2 0xB12 JUMP JUMPDEST DUP3 ADD SWAP2 SWAP1 PUSH0 MSTORE PUSH1 0x20 PUSH0 KECCAK256 SWAP1 JUMPDEST DUP2 SLOAD DUP2 MSTORE SWAP1 PUSH1 0x1 ADD SWAP1 PUSH1 0x20 ADD DUP1 DUP4 GT PUSH2 0xAF5 JUMPI DUP3 SWAP1 SUB PUSH1 0x1F AND DUP3 ADD SWAP2 JUMPDEST POP POP POP POP POP DUP2 MSTORE PUSH1 0x20 ADD PUSH1 0x2 DUP3 ADD SLOAD DUP2 MSTORE PUSH1 0x20 ADD PUSH1 0x3 DUP3 ADD SLOAD DUP2 MSTORE PUSH1 0x20 ADD PUSH1 0x4 DUP3 ADD SLOAD DUP2 MSTORE POP POP SWAP1 POP SWAP2 SWAP1 POP JUMP JUMPDEST PUSH1 0x40 MLOAD DUP1 PUSH1 0xA0 ADD PUSH1 0x40 MSTORE DUP1 PUSH0 PUSH20 0xFFFFFFFFFFFFFFFFFFFFFFFFFFFFFFFFFFFFFFFF AND DUP2 MSTORE PUSH1 0x20 ADD PUSH1 0x60 DUP2 MSTORE PUSH1 0x20 ADD PUSH0 DUP2 MSTORE PUSH1 0x20 ADD PUSH0 DUP2 MSTORE PUSH1 0x20 ADD PUSH0 DUP2 MSTORE POP SWAP1 JUMP JUMPDEST PUSH0 PUSH1 0x40 MLOAD SWAP1 POP SWAP1 JUMP JUMPDEST PUSH0 DUP1 REVERT JUMPDEST PUSH0 DUP1 REVERT JUMPDEST PUSH0 PUSH20 0xFFFFFFFFFFFFFFFFFFFFFFFFFFFFFFFFFFFFFFFF DUP3 AND SWAP1 POP SWAP2 SWAP1 POP JUMP JUMPDEST PUSH0 PUSH2 0xBBB DUP3 PUSH2 0xB92 JUMP JUMPDEST SWAP1 POP SWAP2 SWAP1 POP JUMP JUMPDEST PUSH2 0xBCB DUP2 PUSH2 0xBB1 JUMP JUMPDEST DUP2 EQ PUSH2 0xBD5 JUMPI PUSH0 DUP1 REVERT JUMPDEST POP JUMP JUMPDEST PUSH0 DUP2 CALLDATALOAD SWAP1 POP PUSH2 0xBE6 DUP2 PUSH2 0xBC2 JUMP JUMPDEST SWAP3 SWAP2 POP POP JUMP JUMPDEST PUSH0 DUP2 SWAP1 POP SWAP2 SWAP1 POP JUMP JUMPDEST PUSH2 0xBFE DUP2 PUSH2 0xBEC JUMP JUMPDEST DUP2 EQ PUSH2 0xC08 JUMPI PUSH0 DUP1 REVERT JUMPDEST POP JUMP JUMPDEST PUSH0 DUP2 CALLDATALOAD SWAP1 POP PUSH2 0xC19 DUP2 PUSH2 0xBF5 JUMP JUMPDEST SWAP3 SWAP2 POP POP JUMP JUMPDEST PUSH0 DUP1 PUSH1 0x40 DUP4 DUP6 SUB SLT ISZERO PUSH2 0xC35 JUMPI PUSH2 0xC34 PUSH2 0xB8A JUMP JUMPDEST JUMPDEST PUSH0 PUSH2 0xC42 DUP6 DUP3 DUP7 ADD PUSH2 0xBD8 JUMP JUMPDEST SWAP3 POP POP PUSH1 0x20 PUSH2 0xC53 DUP6 DUP3 DUP7 ADD PUSH2 0xC0B JUMP JUMPDEST SWAP2 POP POP SWAP3 POP SWAP3 SWAP1 POP JUMP JUMPDEST PUSH2 0xC66 DUP2 PUSH2 0xBB1 JUMP JUMPDEST DUP3 MSTORE POP POP JUMP JUMPDEST PUSH0 DUP2 MLOAD SWAP1 POP SWAP2 SWAP1 POP JUMP JUMPDEST PUSH0 DUP3 DUP3 MSTORE PUSH1 0x20 DUP3 ADD SWAP1 POP SWAP3 SWAP2 POP POP JUMP JUMPDEST PUSH0 JUMPDEST DUP4 DUP2 LT ISZERO PUSH2 0xCA3 JUMPI DUP1 DUP3 ADD MLOAD DUP2 DUP5 ADD MSTORE PUSH1 0x20 DUP2 ADD SWAP1 POP PUSH2 0xC88 JUMP JUMPDEST PUSH0 DUP5 DUP5 ADD MSTORE POP POP POP POP JUMP JUMPDEST PUSH0 PUSH1 0x1F NOT PUSH1 0x1F DUP4 ADD AND SWAP1 POP SWAP2 SWAP1 POP JUMP JUMPDEST PUSH0 PUSH2 0xCC8 DUP3 PUSH2 0xC6C JUMP JUMPDEST PUSH2 0xCD2 DUP2 DUP6 PUSH2 0xC76 JUMP JUMPDEST SWAP4 POP PUSH2 0xCE2 DUP2 DUP6 PUSH1 0x20 DUP7 ADD PUSH2 0xC86 JUMP JUMPDEST PUSH2 0xCEB DUP2 PUSH2 0xCAE JUMP JUMPDEST DUP5 ADD SWAP2 POP POP SWAP3 SWAP2 POP POP JUMP JUMPDEST PUSH2 0xCFF DUP2 PUSH2 0xBEC JUMP JUMPDEST DUP3 MSTORE POP POP JUMP JUMPDEST PUSH0 PUSH1 0xA0 DUP3 ADD SWAP1 POP PUSH2 0xD18 PUSH0 DUP4 ADD DUP9 PUSH2 0xC5D JUMP JUMPDEST DUP2 DUP2 SUB PUSH1 0x20 DUP4 ADD MSTORE PUSH2 0xD2A DUP2 DUP8 PUSH2 0xCBE JUMP JUMPDEST SWAP1 POP PUSH2 0xD39 PUSH1 0x40 DUP4 ADD DUP7 PUSH2 0xCF6 JUMP JUMPDEST PUSH2 0xD46 PUSH1 0x60 DUP4 ADD DUP6 PUSH2 0xCF6 JUMP JUMPDEST PUSH2 0xD53 PUSH1 0x80 DUP4 ADD DUP5 PUSH2 0xCF6 JUMP JUMPDEST SWAP7 SWAP6 POP POP POP POP POP POP JUMP JUMPDEST PUSH0 PUSH1 0x20 DUP3 DUP5 SUB SLT ISZERO PUSH2 0xD72 JUMPI PUSH2 0xD71 PUSH2 0xB8A JUMP JUMPDEST JUMPDEST PUSH0 PUSH2 0xD7F DUP5 DUP3 DUP6 ADD PUSH2 0xBD8 JUMP JUMPDEST SWAP2 POP POP SWAP3 SWAP2 POP POP JUMP JUMPDEST PUSH0 DUP2 MLOAD SWAP1 POP SWAP2 SWAP1 POP JUMP JUMPDEST PUSH0 DUP3 DUP3 MSTORE PUSH1 0x20 DUP3 ADD SWAP1 POP SWAP3 SWAP2 POP POP JUMP JUMPDEST PUSH0 DUP2 SWAP1 POP PUSH1 0x20 DUP3 ADD SWAP1 POP SWAP2 SWAP1 POP JUMP JUMPDEST PUSH2 0xDBA DUP2 PUSH2 0xBB1 JUMP JUMPDEST DUP3 MSTORE POP POP JUMP JUMPDEST PUSH0 DUP3 DUP3 MSTORE PUSH1 0x20 DUP3 ADD SWAP1 POP SWAP3 SWAP2 POP POP JUMP JUMPDEST PUSH0 PUSH2 0xDDA DUP3 PUSH2 0xC6C JUMP JUMPDEST PUSH2 0xDE4 DUP2 DUP6 PUSH2 0xDC0 JUMP JUMPDEST SWAP4 POP PUSH2 0xDF4 DUP2 DUP6 PUSH1 0x20 DUP7 ADD PUSH2 0xC86 JUMP JUMPDEST PUSH2 0xDFD DUP2 PUSH2 0xCAE JUMP JUMPDEST DUP5 ADD SWAP2 POP POP SWAP3 SWAP2 POP POP JUMP JUMPDEST PUSH2 0xE11 DUP2 PUSH2 0xBEC JUMP JUMPDEST DUP3 MSTORE POP POP JUMP JUMPDEST PUSH0 PUSH1 0xA0 DUP4 ADD PUSH0 DUP4 ADD MLOAD PUSH2 0xE2C PUSH0 DUP7 ADD DUP3 PUSH2 0xDB1 JUMP JUMPDEST POP PUSH1 0x20 DUP4 ADD MLOAD DUP5 DUP3 SUB PUSH1 0x20 DUP7 ADD MSTORE PUSH2 0xE44 DUP3 DUP3 PUSH2 0xDD0 JUMP JUMPDEST SWAP2 POP POP PUSH1 0x40 DUP4 ADD MLOAD PUSH2 0xE59 PUSH1 0x40 DUP7 ADD DUP3 PUSH2 0xE08 JUMP JUMPDEST POP PUSH1 0x60 DUP4 ADD MLOAD PUSH2 0xE6C PUSH1 0x60 DUP7 ADD DUP3 PUSH2 0xE08 JUMP JUMPDEST POP PUSH1 0x80 DUP4 ADD MLOAD PUSH2 0xE7F PUSH1 0x80 DUP7 ADD DUP3 PUSH2 0xE08 JUMP JUMPDEST POP DUP1 SWAP2 POP POP SWAP3 SWAP2 POP POP JUMP JUMPDEST PUSH0 PUSH2 0xE95 DUP4 DUP4 PUSH2 0xE17 JUMP JUMPDEST SWAP1 POP SWAP3 SWAP2 POP POP JUMP JUMPDEST PUSH0 PUSH1 0x20 DUP3 ADD SWAP1 POP SWAP2 SWAP1 POP JUMP JUMPDEST PUSH0 PUSH2 0xEB3 DUP3 PUSH2 0xD88 JUMP JUMPDEST PUSH2 0xEBD DUP2 DUP6 PUSH2 0xD92 JUMP JUMPDEST SWAP4 POP DUP4 PUSH1 0x20 DUP3 MUL DUP6 ADD PUSH2 0xECF DUP6 PUSH2 0xDA2 JUMP JUMPDEST DUP1 PUSH0 JUMPDEST DUP6 DUP2 LT ISZERO PUSH2 0xF0A JUMPI DUP5 DUP5 SUB DUP10 MSTORE DUP2 MLOAD PUSH2 0xEEB DUP6 DUP3 PUSH2 0xE8A JUMP JUMPDEST SWAP5 POP PUSH2 0xEF6 DUP4 PUSH2 0xE9D JUMP JUMPDEST SWAP3 POP PUSH1 0x20 DUP11 ADD SWAP10 POP POP PUSH1 0x1 DUP2 ADD SWAP1 POP PUSH2 0xED2 JUMP JUMPDEST POP DUP3 SWAP8 POP DUP8 SWAP6 POP POP POP POP POP POP SWAP3 SWAP2 POP POP JUMP JUMPDEST PUSH0 PUSH1 0x20 DUP3 ADD SWAP1 POP DUP2 DUP2 SUB PUSH0 DUP4 ADD MSTORE PUSH2 0xF34 DUP2 DUP5 PUSH2 0xEA9 JUMP JUMPDEST SWAP1 POP SWAP3 SWAP2 POP POP JUMP JUMPDEST PUSH0 PUSH2 0xFFFF DUP3 AND SWAP1 POP SWAP2 SWAP1 POP JUMP JUMPDEST PUSH2 0xF52 DUP2 PUSH2 0xF3C JUMP JUMPDEST DUP2 EQ PUSH2 0xF5C JUMPI PUSH0 DUP1 REVERT JUMPDEST POP JUMP JUMPDEST PUSH0 DUP2 CALLDATALOAD SWAP1 POP PUSH2 0xF6D DUP2 PUSH2 0xF49 JUMP JUMPDEST SWAP3 SWAP2 POP POP JUMP JUMPDEST PUSH0 PUSH1 0x20 DUP3 DUP5 SUB SLT ISZERO PUSH2 0xF88 JUMPI PUSH2 0xF87 PUSH2 0xB8A JUMP JUMPDEST JUMPDEST PUSH0 PUSH2 0xF95 DUP5 DUP3 DUP6 ADD PUSH2 0xF5F JUMP JUMPDEST SWAP2 POP POP SWAP3 SWAP2 POP POP JUMP JUMPDEST PUSH2 0xFA7 DUP2 PUSH2 0xF3C JUMP JUMPDEST DUP3 MSTORE POP POP JUMP JUMPDEST PUSH0 PUSH1 0x20 DUP3 ADD SWAP1 POP PUSH2 0xFC0 PUSH0 DUP4 ADD DUP5 PUSH2 0xF9E JUMP JUMPDEST SWAP3 SWAP2 POP POP JUMP JUMPDEST PUSH0 DUP1 REVERT JUMPDEST PUSH0 DUP1 REVERT JUMPDEST PUSH32 0x4E487B7100000000000000000000000000000000000000000000000000000000 PUSH0 MSTORE PUSH1 0x41 PUSH1 0x4 MSTORE PUSH1 0x24 PUSH0 REVERT JUMPDEST PUSH2 0x1004 DUP3 PUSH2 0xCAE JUMP JUMPDEST DUP2 ADD DUP2 DUP2 LT PUSH8 0xFFFFFFFFFFFFFFFF DUP3 GT OR ISZERO PUSH2 0x1023 JUMPI PUSH2 0x1022 PUSH2 0xFCE JUMP JUMPDEST JUMPDEST DUP1 PUSH1 0x40 MSTORE POP POP POP JUMP JUMPDEST PUSH0 PUSH2 0x1035 PUSH2 0xB81 JUMP JUMPDEST SWAP1 POP PUSH2 0x1041 DUP3 DUP3 PUSH2 0xFFB JUMP JUMPDEST SWAP2 SWAP1 POP JUMP JUMPDEST PUSH0 PUSH8 0xFFFFFFFFFFFFFFFF DUP3 GT ISZERO PUSH2 0x1060 JUMPI PUSH2 0x105F PUSH2 0xFCE JUMP JUMPDEST JUMPDEST PUSH2 0x1069 DUP3 PUSH2 0xCAE JUMP JUMPDEST SWAP1 POP PUSH1 0x20 DUP2 ADD SWAP1 POP SWAP2 SWAP1 POP JUMP JUMPDEST DUP3 DUP2 DUP4 CALLDATACOPY PUSH0 DUP4 DUP4 ADD MSTORE POP POP POP JUMP JUMPDEST PUSH0 PUSH2 0x1096 PUSH2 0x1091 DUP5 PUSH2 0x1046 JUMP JUMPDEST PUSH2 0x102C JUMP JUMPDEST SWAP1 POP DUP3 DUP2 MSTORE PUSH1 0x20 DUP2 ADD DUP5 DUP5 DUP5 ADD GT ISZERO PUSH2 0x10B2 JUMPI PUSH2 0x10B1 PUSH2 0xFCA JUMP JUMPDEST JUMPDEST PUSH2 0x10BD DUP5 DUP3 DUP6 PUSH2 0x1076 JUMP JUMPDEST POP SWAP4 SWAP3 POP POP POP JUMP JUMPDEST PUSH0 DUP3 PUSH1 0x1F DUP4 ADD SLT PUSH2 0x10D9 JUMPI PUSH2 0x10D8 PUSH2 0xFC6 JUMP JUMPDEST JUMPDEST DUP2 CALLDATALOAD PUSH2 0x10E9 DUP5 DUP3 PUSH1 0x20 DUP7 ADD PUSH2 0x1084 JUMP JUMPDEST SWAP2 POP POP SWAP3 SWAP2 POP POP JUMP JUMPDEST PUSH0 PUSH1 0x20 DUP3 DUP5 SUB SLT ISZERO PUSH2 0x1107 JUMPI PUSH2 0x1106 PUSH2 0xB8A JUMP JUMPDEST JUMPDEST PUSH0 DUP3 ADD CALLDATALOAD PUSH8 0xFFFFFFFFFFFFFFFF DUP2 GT ISZERO PUSH2 0x1124 JUMPI PUSH2 0x1123 PUSH2 0xB8E JUMP JUMPDEST JUMPDEST PUSH2 0x1130 DUP5 DUP3 DUP6 ADD PUSH2 0x10C5 JUMP JUMPDEST SWAP2 POP POP SWAP3 SWAP2 POP POP JUMP JUMPDEST PUSH0 PUSH1 0x20 DUP3 ADD SWAP1 POP PUSH2 0x114C PUSH0 DUP4 ADD DUP5 PUSH2 0xC5D JUMP JUMPDEST SWAP3 SWAP2 POP POP JUMP JUMPDEST PUSH0 PUSH1 0x20 DUP3 DUP5 SUB SLT ISZERO PUSH2 0x1167 JUMPI PUSH2 0x1166 PUSH2 0xB8A JUMP JUMPDEST JUMPDEST PUSH0 PUSH2 0x1174 DUP5 DUP3 DUP6 ADD PUSH2 0xC0B JUMP JUMPDEST SWAP2 POP POP SWAP3 SWAP2 POP POP JUMP JUMPDEST PUSH0 PUSH1 0xA0 DUP4 ADD PUSH0 DUP4 ADD MLOAD PUSH2 0x1192 PUSH0 DUP7 ADD DUP3 PUSH2 0xDB1 JUMP JUMPDEST POP PUSH1 0x20 DUP4 ADD MLOAD DUP5 DUP3 SUB PUSH1 0x20 DUP7 ADD MSTORE PUSH2 0x11AA DUP3 DUP3 PUSH2 0xDD0 JUMP JUMPDEST SWAP2 POP POP PUSH1 0x40 DUP4 ADD MLOAD PUSH2 0x11BF PUSH1 0x40 DUP7 ADD DUP3 PUSH2 0xE08 JUMP JUMPDEST POP PUSH1 0x60 DUP4 ADD MLOAD PUSH2 0x11D2 PUSH1 0x60 DUP7 ADD DUP3 PUSH2 0xE08 JUMP JUMPDEST POP PUSH1 0x80 DUP4 ADD MLOAD PUSH2 0x11E5 PUSH1 0x80 DUP7 ADD DUP3 PUSH2 0xE08 JUMP JUMPDEST POP DUP1 SWAP2 POP POP SWAP3 SWAP2 POP POP JUMP JUMPDEST PUSH0 PUSH1 0x20 DUP3 ADD SWAP1 POP DUP2 DUP2 SUB PUSH0 DUP4 ADD MSTORE PUSH2 0x1208 DUP2 DUP5 PUSH2 0x117D JUMP JUMPDEST SWAP1 POP SWAP3 SWAP2 POP POP JUMP JUMPDEST PUSH32 0x4E487B7100000000000000000000000000000000000000000000000000000000 PUSH0 MSTORE PUSH1 0x22 PUSH1 0x4 MSTORE PUSH1 0x24 PUSH0 REVERT JUMPDEST PUSH0 PUSH1 0x2 DUP3 DIV SWAP1 POP PUSH1 0x1 DUP3 AND DUP1 PUSH2 0x1254 JUMPI PUSH1 0x7F DUP3 AND SWAP2 POP JUMPDEST PUSH1 0x20 DUP3 LT DUP2 SUB PUSH2 0x1267 JUMPI PUSH2 0x1266 PUSH2 0x1210 JUMP JUMPDEST JUMPDEST POP SWAP2 SWAP1 POP JUMP JUMPDEST PUSH32 0x4E487B7100000000000000000000000000000000000000000000000000000000 PUSH0 MSTORE PUSH1 0x32 PUSH1 0x4 MSTORE PUSH1 0x24 PUSH0 REVERT JUMPDEST PUSH32 0x547765657420446F65736E742065786973747321000000000000000000000000 PUSH0 DUP3 ADD MSTORE POP JUMP JUMPDEST PUSH0 PUSH2 0x12CE PUSH1 0x14 DUP4 PUSH2 0xC76 JUMP JUMPDEST SWAP2 POP PUSH2 0x12D9 DUP3 PUSH2 0x129A JUMP JUMPDEST PUSH1 0x20 DUP3 ADD SWAP1 POP SWAP2 SWAP1 POP JUMP JUMPDEST PUSH0 PUSH1 0x20 DUP3 ADD SWAP1 POP DUP2 DUP2 SUB PUSH0 DUP4 ADD MSTORE PUSH2 0x12FB DUP2 PUSH2 0x12C2 JUMP JUMPDEST SWAP1 POP SWAP2 SWAP1 POP JUMP JUMPDEST PUSH32 0x547765657420646F65736E742068617665206C696B6573000000000000000000 PUSH0 DUP3 ADD MSTORE POP JUMP JUMPDEST PUSH0 PUSH2 0x1336 PUSH1 0x17 DUP4 PUSH2 0xC76 JUMP JUMPDEST SWAP2 POP PUSH2 0x1341 DUP3 PUSH2 0x1302 JUMP JUMPDEST PUSH1 0x20 DUP3 ADD SWAP1 POP SWAP2 SWAP1 POP JUMP JUMPDEST PUSH0 PUSH1 0x20 DUP3 ADD SWAP1 POP DUP2 DUP2 SUB PUSH0 DUP4 ADD MSTORE PUSH2 0x1363 DUP2 PUSH2 0x132A JUMP JUMPDEST SWAP1 POP SWAP2 SWAP1 POP JUMP JUMPDEST PUSH32 0x4E487B7100000000000000000000000000000000000000000000000000000000 PUSH0 MSTORE PUSH1 0x11 PUSH1 0x4 MSTORE PUSH1 0x24 PUSH0 REVERT JUMPDEST PUSH0 PUSH2 0x13A1 DUP3 PUSH2 0xBEC JUMP JUMPDEST SWAP2 POP PUSH0 DUP3 SUB PUSH2 0x13B3 JUMPI PUSH2 0x13B2 PUSH2 0x136A JUMP JUMPDEST JUMPDEST PUSH1 0x1 DUP3 SUB SWAP1 POP SWAP2 SWAP1 POP JUMP JUMPDEST PUSH32 0x596F7520617265206E6F7420746865206F776E65722100000000000000000000 PUSH0 DUP3 ADD MSTORE POP JUMP JUMPDEST PUSH0 PUSH2 0x13F2 PUSH1 0x16 DUP4 PUSH2 0xC76 JUMP JUMPDEST SWAP2 POP PUSH2 0x13FD DUP3 PUSH2 0x13BE JUMP JUMPDEST PUSH1 0x20 DUP3 ADD SWAP1 POP SWAP2 SWAP1 POP JUMP JUMPDEST PUSH0 PUSH1 0x20 DUP3 ADD SWAP1 POP DUP2 DUP2 SUB PUSH0 DUP4 ADD MSTORE PUSH2 0x141F DUP2 PUSH2 0x13E6 JUMP JUMPDEST SWAP1 POP SWAP2 SWAP1 POP JUMP JUMPDEST PUSH0 PUSH2 0x1430 DUP3 PUSH2 0xBEC JUMP JUMPDEST SWAP2 POP PUSH32 0xFFFFFFFFFFFFFFFFFFFFFFFFFFFFFFFFFFFFFFFFFFFFFFFFFFFFFFFFFFFFFFFF DUP3 SUB PUSH2 0x1462 JUMPI PUSH2 0x1461 PUSH2 0x136A JUMP JUMPDEST JUMPDEST PUSH1 0x1 DUP3 ADD SWAP1 POP SWAP2 SWAP1 POP JUMP JUMPDEST PUSH32 0x547765657420697320746F6F206C6F6E67210000000000000000000000000000 PUSH0 DUP3 ADD MSTORE POP JUMP JUMPDEST PUSH0 PUSH2 0x14A1 PUSH1 0x12 DUP4 PUSH2 0xC76 JUMP JUMPDEST SWAP2 POP PUSH2 0x14AC DUP3 PUSH2 0x146D JUMP JUMPDEST PUSH1 0x20 DUP3 ADD SWAP1 POP SWAP2 SWAP1 POP JUMP JUMPDEST PUSH0 PUSH1 0x20 DUP3 ADD SWAP1 POP DUP2 DUP2 SUB PUSH0 DUP4 ADD MSTORE PUSH2 0x14CE DUP2 PUSH2 0x1495 JUMP JUMPDEST SWAP1 POP SWAP2 SWAP1 POP JUMP JUMPDEST PUSH0 DUP2 SWAP1 POP DUP2 PUSH0 MSTORE PUSH1 0x20 PUSH0 KECCAK256 SWAP1 POP SWAP2 SWAP1 POP JUMP JUMPDEST PUSH0 PUSH1 0x20 PUSH1 0x1F DUP4 ADD DIV SWAP1 POP SWAP2 SWAP1 POP JUMP JUMPDEST PUSH0 DUP3 DUP3 SHL SWAP1 POP SWAP3 SWAP2 POP POP JUMP JUMPDEST PUSH0 PUSH1 0x8 DUP4 MUL PUSH2 0x1531 PUSH32 0xFFFFFFFFFFFFFFFFFFFFFFFFFFFFFFFFFFFFFFFFFFFFFFFFFFFFFFFFFFFFFFFF DUP3 PUSH2 0x14F6 JUMP JUMPDEST PUSH2 0x153B DUP7 DUP4 PUSH2 0x14F6 JUMP JUMPDEST SWAP6 POP DUP1 NOT DUP5 AND SWAP4 POP DUP1 DUP7 AND DUP5 OR SWAP3 POP POP POP SWAP4 SWAP3 POP POP POP JUMP JUMPDEST PUSH0 DUP2 SWAP1 POP SWAP2 SWAP1 POP JUMP JUMPDEST PUSH0 PUSH2 0x1576 PUSH2 0x1571 PUSH2 0x156C DUP5 PUSH2 0xBEC JUMP JUMPDEST PUSH2 0x1553 JUMP JUMPDEST PUSH2 0xBEC JUMP JUMPDEST SWAP1 POP SWAP2 SWAP1 POP JUMP JUMPDEST PUSH0 DUP2 SWAP1 POP SWAP2 SWAP1 POP JUMP JUMPDEST PUSH2 0x158F DUP4 PUSH2 0x155C JUMP JUMPDEST PUSH2 0x15A3 PUSH2 0x159B DUP3 PUSH2 0x157D JUMP JUMPDEST DUP5 DUP5 SLOAD PUSH2 0x1502 JUMP JUMPDEST DUP3 SSTORE POP POP POP POP JUMP JUMPDEST PUSH0 SWAP1 JUMP JUMPDEST PUSH2 0x15B7 PUSH2 0x15AB JUMP JUMPDEST PUSH2 0x15C2 DUP2 DUP5 DUP5 PUSH2 0x1586 JUMP JUMPDEST POP POP POP JUMP JUMPDEST JUMPDEST DUP2 DUP2 LT ISZERO PUSH2 0x15E5 JUMPI PUSH2 0x15DA PUSH0 DUP3 PUSH2 0x15AF JUMP JUMPDEST PUSH1 0x1 DUP2 ADD SWAP1 POP PUSH2 0x15C8 JUMP JUMPDEST POP POP JUMP JUMPDEST PUSH1 0x1F DUP3 GT ISZERO PUSH2 0x162A JUMPI PUSH2 0x15FB DUP2 PUSH2 0x14D5 JUMP JUMPDEST PUSH2 0x1604 DUP5 PUSH2 0x14E7 JUMP JUMPDEST DUP2 ADD PUSH1 0x20 DUP6 LT ISZERO PUSH2 0x1613 JUMPI DUP2 SWAP1 POP JUMPDEST PUSH2 0x1627 PUSH2 0x161F DUP6 PUSH2 0x14E7 JUMP JUMPDEST DUP4 ADD DUP3 PUSH2 0x15C7 JUMP JUMPDEST POP POP JUMPDEST POP POP POP JUMP JUMPDEST PUSH0 DUP3 DUP3 SHR SWAP1 POP SWAP3 SWAP2 POP POP JUMP JUMPDEST PUSH0 PUSH2 0x164A PUSH0 NOT DUP5 PUSH1 0x8 MUL PUSH2 0x162F JUMP JUMPDEST NOT DUP1 DUP4 AND SWAP2 POP POP SWAP3 SWAP2 POP POP JUMP JUMPDEST PUSH0 PUSH2 0x1662 DUP4 DUP4 PUSH2 0x163B JUMP JUMPDEST SWAP2 POP DUP3 PUSH1 0x2 MUL DUP3 OR SWAP1 POP SWAP3 SWAP2 POP POP JUMP JUMPDEST PUSH2 0x167B DUP3 PUSH2 0xC6C JUMP JUMPDEST PUSH8 0xFFFFFFFFFFFFFFFF DUP2 GT ISZERO PUSH2 0x1694 JUMPI PUSH2 0x1693 PUSH2 0xFCE JUMP JUMPDEST JUMPDEST PUSH2 0x169E DUP3 SLOAD PUSH2 0x123D JUMP JUMPDEST PUSH2 0x16A9 DUP3 DUP3 DUP6 PUSH2 0x15E9 JUMP JUMPDEST PUSH0 PUSH1 0x20 SWAP1 POP PUSH1 0x1F DUP4 GT PUSH1 0x1 DUP2 EQ PUSH2 0x16DA JUMPI PUSH0 DUP5 ISZERO PUSH2 0x16C8 JUMPI DUP3 DUP8 ADD MLOAD SWAP1 POP JUMPDEST PUSH2 0x16D2 DUP6 DUP3 PUSH2 0x1657 JUMP JUMPDEST DUP7 SSTORE POP PUSH2 0x1739 JUMP JUMPDEST PUSH1 0x1F NOT DUP5 AND PUSH2 0x16E8 DUP7 PUSH2 0x14D5 JUMP JUMPDEST PUSH0 JUMPDEST DUP3 DUP2 LT ISZERO PUSH2 0x170F JUMPI DUP5 DUP10 ADD MLOAD DUP3 SSTORE PUSH1 0x1 DUP3 ADD SWAP2 POP PUSH1 0x20 DUP6 ADD SWAP5 POP PUSH1 0x20 DUP2 ADD SWAP1 POP PUSH2 0x16EA JUMP JUMPDEST DUP7 DUP4 LT ISZERO PUSH2 0x172C JUMPI DUP5 DUP10 ADD MLOAD PUSH2 0x1728 PUSH1 0x1F DUP10 AND DUP3 PUSH2 0x163B JUMP JUMPDEST DUP4 SSTORE POP JUMPDEST PUSH1 0x1 PUSH1 0x2 DUP9 MUL ADD DUP9 SSTORE POP POP POP JUMPDEST POP POP POP POP POP POP JUMP INVALID LOG2 PUSH5 0x6970667358 0x22 SLT KECCAK256 CALLCODE DUP16 DUP16 0xCF MCOPY 0xC 0x28 DUP8 0xB9 0xFB SWAP4 PUSH22 0x76B54F7780689931BADE689E60E71E2C2B9301A6473 PUSH16 0x6C634300081800330000000000000000 "
				},
				"gasEstimates": {
					"creation": {
						"codeDepositCost": "1201400",
						"executionCost": "49827",
						"totalCost": "1251227"
					},
					"external": {
						"MAX_TWEET_LENGTH()": "2485",
						"changeTweetLength(uint16)": "26959",
						"createTweet(string)": "infinite",
						"getAllTweets(address)": "infinite",
						"getTweet(uint256)": "infinite",
						"likeTweet(address,uint256)": "infinite",
						"owner()": "2624",
						"tweets(address,uint256)": "infinite",
						"unlikeTweet(address,uint256)": "infinite"
					}
				},
				"methodIdentifiers": {
					"MAX_TWEET_LENGTH()": "6eb10797",
					"changeTweetLength(uint16)": "58bfa4ab",
					"createTweet(string)": "7c9cd2bc",
					"getAllTweets(address)": "12e7ee1c",
					"getTweet(uint256)": "c3ad5ecb",
					"likeTweet(address,uint256)": "63378216",
					"owner()": "8da5cb5b",
					"tweets(address,uint256)": "05a1b4a9",
					"unlikeTweet(address,uint256)": "3d9b569f"
				}
			},
			"storageLayout": {
				"storage": [
					{
						"astId": 4,
						"contract": "contracts/Twitter.sol:Twitter",
						"label": "MAX_TWEET_LENGTH",
						"offset": 0,
						"slot": "0",
						"type": "t_uint16"
					},
					{
						"astId": 17,
						"contract": "contracts/Twitter.sol:Twitter",
						"label": "owner",
						"offset": 2,
						"slot": "0",
						"type": "t_address"
					},
					{
						"astId": 23,
						"contract": "contracts/Twitter.sol:Twitter",
						"label": "tweets",
						"offset": 0,
						"slot": "1",
						"type": "t_mapping(t_address,t_array(t_struct(Tweet)15_storage)dyn_storage)"
					}
				],
				"types": {
					"t_address": {
						"encoding": "inplace",
						"label": "address",
						"numberOfBytes": "20"
					},
					"t_array(t_struct(Tweet)15_storage)dyn_storage": {
						"base": "t_struct(Tweet)15_storage",
						"encoding": "dynamic_array",
						"label": "struct Twitter.Tweet[]",
						"numberOfBytes": "32"
					},
					"t_mapping(t_address,t_array(t_struct(Tweet)15_storage)dyn_storage)": {
						"encoding": "mapping",
						"key": "t_address",
						"label": "mapping(address => struct Twitter.Tweet[])",
						"numberOfBytes": "32",
						"value": "t_array(t_struct(Tweet)15_storage)dyn_storage"
					},
					"t_string_storage": {
						"encoding": "bytes",
						"label": "string",
						"numberOfBytes": "32"
					},
					"t_struct(Tweet)15_storage": {
						"encoding": "inplace",
						"label": "struct Twitter.Tweet",
						"members": [
							{
								"astId": 6,
								"contract": "contracts/Twitter.sol:Twitter",
								"label": "author",
								"offset": 0,
								"slot": "0",
								"type": "t_address"
							},
							{
								"astId": 8,
								"contract": "contracts/Twitter.sol:Twitter",
								"label": "content",
								"offset": 0,
								"slot": "1",
								"type": "t_string_storage"
							},
							{
								"astId": 10,
								"contract": "contracts/Twitter.sol:Twitter",
								"label": "timestamp",
								"offset": 0,
								"slot": "2",
								"type": "t_uint256"
							},
							{
								"astId": 12,
								"contract": "contracts/Twitter.sol:Twitter",
								"label": "likes",
								"offset": 0,
								"slot": "3",
								"type": "t_uint256"
							},
							{
								"astId": 14,
								"contract": "contracts/Twitter.sol:Twitter",
								"label": "id",
								"offset": 0,
								"slot": "4",
								"type": "t_uint256"
							}
						],
						"numberOfBytes": "160"
					},
					"t_uint16": {
						"encoding": "inplace",
						"label": "uint16",
						"numberOfBytes": "2"
					},
					"t_uint256": {
						"encoding": "inplace",
						"label": "uint256",
						"numberOfBytes": "32"
					}
				}
			},
			"userdoc": {
				"kind": "user",
				"methods": {},
				"version": 1
			}
		}
	}
}