{
	"data": {
		"bytecode": {
			"linkReferences": {},
			"object": "60806040526101185f806101000a81548161ffff021916908361ffff16021790555034801561002c575f80fd5b50335f60026101000a81548173ffffffffffffffffffffffffffffffffffffffff021916908373ffffffffffffffffffffffffffffffffffffffff1602179055506119868061007a5f395ff3fe608060405234801561000f575f80fd5b5060043610610091575f3560e01c8063633782161161006457806363378216146101315780636eb107971461014d5780637c9cd2bc1461016b5780638da5cb5b14610187578063c3ad5ecb146101a557610091565b806305a1b4a91461009557806312e7ee1c146100c95780633d9b569f146100f957806358bfa4ab14610115575b5f80fd5b6100af60048036038101906100aa9190610da1565b6101d5565b6040516100c0959493929190610e87565b60405180910390f35b6100e360048036038101906100de9190610edf565b6102c6565b6040516100f0919061109e565b60405180910390f35b610113600480360381019061010e9190610da1565b610461565b005b61012f600480360381019061012a91906110f5565b6106b3565b005b61014b60048036038101906101469190610da1565b610760565b005b610155610912565b604051610162919061112f565b60405180910390f35b61018560048036038101906101809190611274565b610923565b005b61018f610b26565b60405161019c91906112bb565b60405180910390f35b6101bf60048036038101906101ba91906112d4565b610b4b565b6040516101cc9190611372565b60405180910390f35b6001602052815f5260405f2081815481106101ee575f80fd5b905f5260205f2090600502015f9150915050805f015f9054906101000a900473ffffffffffffffffffffffffffffffffffffffff1690806001018054610233906113bf565b80601f016020809104026020016040519081016040528092919081815260200182805461025f906113bf565b80156102aa5780601f10610281576101008083540402835291602001916102aa565b820191905f5260205f20905b81548152906001019060200180831161028d57829003601f168201915b5050505050908060020154908060030154908060040154905085565b606060015f8373ffffffffffffffffffffffffffffffffffffffff1673ffffffffffffffffffffffffffffffffffffffff1681526020019081526020015f20805480602002602001604051908101604052809291908181526020015f905b82821015610456578382905f5260205f2090600502016040518060a00160405290815f82015f9054906101000a900473ffffffffffffffffffffffffffffffffffffffff1673ffffffffffffffffffffffffffffffffffffffff1673ffffffffffffffffffffffffffffffffffffffff1681526020016001820180546103a9906113bf565b80601f01602080910402602001604051908101604052809291908181526020018280546103d5906113bf565b80156104205780601f106103f757610100808354040283529160200191610420565b820191905f5260205f20905b81548152906001019060200180831161040357829003601f168201915b50505050508152602001600282015481526020016003820154815260200160048201548152505081526020019060010190610324565b505050509050919050565b8060015f8473ffffffffffffffffffffffffffffffffffffffff1673ffffffffffffffffffffffffffffffffffffffff1681526020019081526020015f2082815481106104b1576104b06113ef565b5b905f5260205f2090600502016004015414610501576040517f08c379a00000000000000000000000000000000000000000000000000000000081526004016104f890611466565b60405180910390fd5b5f60015f8473ffffffffffffffffffffffffffffffffffffffff1673ffffffffffffffffffffffffffffffffffffffff1681526020019081526020015f208281548110610551576105506113ef565b5b905f5260205f20906005020160030154116105a1576040517f08c379a0000000000000000000000000000000000000000000000000000000008152600401610598906114ce565b60405180910390fd5b60015f8373ffffffffffffffffffffffffffffffffffffffff1673ffffffffffffffffffffffffffffffffffffffff1681526020019081526020015f2081815481106105f0576105ef6113ef565b5b905f5260205f2090600502016003015f81548092919061060f90611519565b91905055507f762c2616349603ac16eba0de8e6141b79129a07ab63bd99e0a80b3a47171694333838360015f8773ffffffffffffffffffffffffffffffffffffffff1673ffffffffffffffffffffffffffffffffffffffff1681526020019081526020015f208581548110610687576106866113ef565b5b905f5260205f209060050201600301546040516106a79493929190611540565b60405180910390a15050565b5f60029054906101000a900473ffffffffffffffffffffffffffffffffffffffff1673ffffffffffffffffffffffffffffffffffffffff163373ffffffffffffffffffffffffffffffffffffffff1614610742576040517f08c379a0000000000000000000000000000000000000000000000000000000008152600401610739906115cd565b60405180910390fd5b805f806101000a81548161ffff021916908361ffff16021790555050565b8060015f8473ffffffffffffffffffffffffffffffffffffffff1673ffffffffffffffffffffffffffffffffffffffff1681526020019081526020015f2082815481106107b0576107af6113ef565b5b905f5260205f2090600502016004015414610800576040517f08c379a00000000000000000000000000000000000000000000000000000000081526004016107f790611466565b60405180910390fd5b60015f8373ffffffffffffffffffffffffffffffffffffffff1673ffffffffffffffffffffffffffffffffffffffff1681526020019081526020015f20818154811061084f5761084e6113ef565b5b905f5260205f2090600502016003015f81548092919061086e906115eb565b91905055507fe8a76fc0f16d11a00d1e93b689b63d76cf60af914dd3d915375dc41d01a0c3c833838360015f8773ffffffffffffffffffffffffffffffffffffffff1673ffffffffffffffffffffffffffffffffffffffff1681526020019081526020015f2085815481106108e6576108e56113ef565b5b905f5260205f209060050201600301546040516109069493929190611540565b60405180910390a15050565b5f8054906101000a900461ffff1681565b5f8054906101000a900461ffff1661ffff1681511115610978576040517f08c379a000000000000000000000000000000000000000000000000000000000815260040161096f9061167c565b60405180910390fd5b5f6040518060a001604052803373ffffffffffffffffffffffffffffffffffffffff1681526020018381526020014281526020015f815260200160015f3373ffffffffffffffffffffffffffffffffffffffff1673ffffffffffffffffffffffffffffffffffffffff1681526020019081526020015f2080549050815250905060015f3373ffffffffffffffffffffffffffffffffffffffff1673ffffffffffffffffffffffffffffffffffffffff1681526020019081526020015f2081908060018154018082558091505060019003905f5260205f2090600502015f909190919091505f820151815f015f6101000a81548173ffffffffffffffffffffffffffffffffffffffff021916908373ffffffffffffffffffffffffffffffffffffffff1602179055506020820151816001019081610ab59190611837565b5060408201518160020155606082015181600301556080820151816004015550507f16fd3c13e9d46923e0a8bce11c7b473ec508a72e6c96cd2404b29ce972afc29e8160800151825f015183602001518460400151604051610b1a9493929190611906565b60405180910390a15050565b5f60029054906101000a900473ffffffffffffffffffffffffffffffffffffffff1681565b610b53610cc2565b60015f3373ffffffffffffffffffffffffffffffffffffffff1673ffffffffffffffffffffffffffffffffffffffff1681526020019081526020015f208281548110610ba257610ba16113ef565b5b905f5260205f2090600502016040518060a00160405290815f82015f9054906101000a900473ffffffffffffffffffffffffffffffffffffffff1673ffffffffffffffffffffffffffffffffffffffff1673ffffffffffffffffffffffffffffffffffffffff168152602001600182018054610c1d906113bf565b80601f0160208091040260200160405190810160405280929190818152602001828054610c49906113bf565b8015610c945780601f10610c6b57610100808354040283529160200191610c94565b820191905f5260205f20905b815481529060010190602001808311610c7757829003601f168201915b5050505050815260200160028201548152602001600382015481526020016004820154815250509050919050565b6040518060a001604052805f73ffffffffffffffffffffffffffffffffffffffff168152602001606081526020015f81526020015f81526020015f81525090565b5f604051905090565b5f80fd5b5f80fd5b5f73ffffffffffffffffffffffffffffffffffffffff82169050919050565b5f610d3d82610d14565b9050919050565b610d4d81610d33565b8114610d57575f80fd5b50565b5f81359050610d6881610d44565b92915050565b5f819050919050565b610d8081610d6e565b8114610d8a575f80fd5b50565b5f81359050610d9b81610d77565b92915050565b5f8060408385031215610db757610db6610d0c565b5b5f610dc485828601610d5a565b9250506020610dd585828601610d8d565b9150509250929050565b610de881610d33565b82525050565b5f81519050919050565b5f82825260208201905092915050565b5f5b83811015610e25578082015181840152602081019050610e0a565b5f8484015250505050565b5f601f19601f8301169050919050565b5f610e4a82610dee565b610e548185610df8565b9350610e64818560208601610e08565b610e6d81610e30565b840191505092915050565b610e8181610d6e565b82525050565b5f60a082019050610e9a5f830188610ddf565b8181036020830152610eac8187610e40565b9050610ebb6040830186610e78565b610ec86060830185610e78565b610ed56080830184610e78565b9695505050505050565b5f60208284031215610ef457610ef3610d0c565b5b5f610f0184828501610d5a565b91505092915050565b5f81519050919050565b5f82825260208201905092915050565b5f819050602082019050919050565b610f3c81610d33565b82525050565b5f82825260208201905092915050565b5f610f5c82610dee565b610f668185610f42565b9350610f76818560208601610e08565b610f7f81610e30565b840191505092915050565b610f9381610d6e565b82525050565b5f60a083015f830151610fae5f860182610f33565b5060208301518482036020860152610fc68282610f52565b9150506040830151610fdb6040860182610f8a565b506060830151610fee6060860182610f8a565b5060808301516110016080860182610f8a565b508091505092915050565b5f6110178383610f99565b905092915050565b5f602082019050919050565b5f61103582610f0a565b61103f8185610f14565b93508360208202850161105185610f24565b805f5b8581101561108c578484038952815161106d858261100c565b94506110788361101f565b925060208a01995050600181019050611054565b50829750879550505050505092915050565b5f6020820190508181035f8301526110b6818461102b565b905092915050565b5f61ffff82169050919050565b6110d4816110be565b81146110de575f80fd5b50565b5f813590506110ef816110cb565b92915050565b5f6020828403121561110a57611109610d0c565b5b5f611117848285016110e1565b91505092915050565b611129816110be565b82525050565b5f6020820190506111425f830184611120565b92915050565b5f80fd5b5f80fd5b7f4e487b71000000000000000000000000000000000000000000000000000000005f52604160045260245ffd5b61118682610e30565b810181811067ffffffffffffffff821117156111a5576111a4611150565b5b80604052505050565b5f6111b7610d03565b90506111c3828261117d565b919050565b5f67ffffffffffffffff8211156111e2576111e1611150565b5b6111eb82610e30565b9050602081019050919050565b828183375f83830152505050565b5f611218611213846111c8565b6111ae565b9050828152602081018484840111156112345761123361114c565b5b61123f8482856111f8565b509392505050565b5f82601f83011261125b5761125a611148565b5b813561126b848260208601611206565b91505092915050565b5f6020828403121561128957611288610d0c565b5b5f82013567ffffffffffffffff8111156112a6576112a5610d10565b5b6112b284828501611247565b91505092915050565b5f6020820190506112ce5f830184610ddf565b92915050565b5f602082840312156112e9576112e8610d0c565b5b5f6112f684828501610d8d565b91505092915050565b5f60a083015f8301516113145f860182610f33565b506020830151848203602086015261132c8282610f52565b91505060408301516113416040860182610f8a565b5060608301516113546060860182610f8a565b5060808301516113676080860182610f8a565b508091505092915050565b5f6020820190508181035f83015261138a81846112ff565b905092915050565b7f4e487b71000000000000000000000000000000000000000000000000000000005f52602260045260245ffd5b5f60028204905060018216806113d657607f821691505b6020821081036113e9576113e8611392565b5b50919050565b7f4e487b71000000000000000000000000000000000000000000000000000000005f52603260045260245ffd5b7f547765657420446f65736e7420657869737473210000000000000000000000005f82015250565b5f611450601483610df8565b915061145b8261141c565b602082019050919050565b5f6020820190508181035f83015261147d81611444565b9050919050565b7f547765657420646f65736e742068617665206c696b65730000000000000000005f82015250565b5f6114b8601783610df8565b91506114c382611484565b602082019050919050565b5f6020820190508181035f8301526114e5816114ac565b9050919050565b7f4e487b71000000000000000000000000000000000000000000000000000000005f52601160045260245ffd5b5f61152382610d6e565b91505f8203611535576115346114ec565b5b600182039050919050565b5f6080820190506115535f830187610ddf565b6115606020830186610ddf565b61156d6040830185610e78565b61157a6060830184610e78565b95945050505050565b7f596f7520617265206e6f7420746865206f776e657221000000000000000000005f82015250565b5f6115b7601683610df8565b91506115c282611583565b602082019050919050565b5f6020820190508181035f8301526115e4816115ab565b9050919050565b5f6115f582610d6e565b91507fffffffffffffffffffffffffffffffffffffffffffffffffffffffffffffffff8203611627576116266114ec565b5b600182019050919050565b7f547765657420697320746f6f206c6f6e672100000000000000000000000000005f82015250565b5f611666601283610df8565b915061167182611632565b602082019050919050565b5f6020820190508181035f8301526116938161165a565b9050919050565b5f819050815f5260205f209050919050565b5f6020601f8301049050919050565b5f82821b905092915050565b5f600883026116f67fffffffffffffffffffffffffffffffffffffffffffffffffffffffffffffffff826116bb565b61170086836116bb565b95508019841693508086168417925050509392505050565b5f819050919050565b5f61173b61173661173184610d6e565b611718565b610d6e565b9050919050565b5f819050919050565b61175483611721565b61176861176082611742565b8484546116c7565b825550505050565b5f90565b61177c611770565b61178781848461174b565b505050565b5b818110156117aa5761179f5f82611774565b60018101905061178d565b5050565b601f8211156117ef576117c08161169a565b6117c9846116ac565b810160208510156117d8578190505b6117ec6117e4856116ac565b83018261178c565b50505b505050565b5f82821c905092915050565b5f61180f5f19846008026117f4565b1980831691505092915050565b5f6118278383611800565b9150826002028217905092915050565b61184082610dee565b67ffffffffffffffff81111561185957611858611150565b5b61186382546113bf565b61186e8282856117ae565b5f60209050601f83116001811461189f575f841561188d578287015190505b611897858261181c565b8655506118fe565b601f1984166118ad8661169a565b5f5b828110156118d4578489015182556001820191506020850194506020810190506118af565b868310156118f157848901516118ed601f891682611800565b8355505b6001600288020188555050505b505050505050565b5f6080820190506119195f830187610e78565b6119266020830186610ddf565b81810360408301526119388185610e40565b90506119476060830184610e78565b9594505050505056fea2646970667358221220001b1f1e60d1a55a4a20aeffb1d6e9ecbbebfcc9811af0878c68c955621f0ffa64736f6c63430008180033",
			"opcodes": "PUSH1 0x80 PUSH1 0x40 MSTORE PUSH2 0x118 PUSH0 DUP1 PUSH2 0x100 EXP DUP2 SLOAD DUP2 PUSH2 0xFFFF MUL NOT AND SWAP1 DUP4 PUSH2 0xFFFF AND MUL OR SWAP1 SSTORE POP CALLVALUE DUP1 ISZERO PUSH2 0x2C JUMPI PUSH0 DUP1 REVERT JUMPDEST POP CALLER PUSH0 PUSH1 0x2 PUSH2 0x100 EXP DUP2 SLOAD DUP2 PUSH20 0xFFFFFFFFFFFFFFFFFFFFFFFFFFFFFFFFFFFFFFFF MUL NOT AND SWAP1 DUP4 PUSH20 0xFFFFFFFFFFFFFFFFFFFFFFFFFFFFFFFFFFFFFFFF AND MUL OR SWAP1 SSTORE POP PUSH2 0x1986 DUP1 PUSH2 0x7A PUSH0 CODECOPY PUSH0 RETURN INVALID PUSH1 0x80 PUSH1 0x40 MSTORE CALLVALUE DUP1 ISZERO PUSH2 0xF JUMPI PUSH0 DUP1 REVERT JUMPDEST POP PUSH1 0x4 CALLDATASIZE LT PUSH2 0x91 JUMPI PUSH0 CALLDATALOAD PUSH1 0xE0 SHR DUP1 PUSH4 0x63378216 GT PUSH2 0x64 JUMPI DUP1 PUSH4 0x63378216 EQ PUSH2 0x131 JUMPI DUP1 PUSH4 0x6EB10797 EQ PUSH2 0x14D JUMPI DUP1 PUSH4 0x7C9CD2BC EQ PUSH2 0x16B JUMPI DUP1 PUSH4 0x8DA5CB5B EQ PUSH2 0x187 JUMPI DUP1 PUSH4 0xC3AD5ECB EQ PUSH2 0x1A5 JUMPI PUSH2 0x91 JUMP JUMPDEST DUP1 PUSH4 0x5A1B4A9 EQ PUSH2 0x95 JUMPI DUP1 PUSH4 0x12E7EE1C EQ PUSH2 0xC9 JUMPI DUP1 PUSH4 0x3D9B569F EQ PUSH2 0xF9 JUMPI DUP1 PUSH4 0x58BFA4AB EQ PUSH2 0x115 JUMPI JUMPDEST PUSH0 DUP1 REVERT JUMPDEST PUSH2 0xAF PUSH1 0x4 DUP1 CALLDATASIZE SUB DUP2 ADD SWAP1 PUSH2 0xAA SWAP2 SWAP1 PUSH2 0xDA1 JUMP JUMPDEST PUSH2 0x1D5 JUMP JUMPDEST PUSH1 0x40 MLOAD PUSH2 0xC0 SWAP6 SWAP5 SWAP4 SWAP3 SWAP2 SWAP1 PUSH2 0xE87 JUMP JUMPDEST PUSH1 0x40 MLOAD DUP1 SWAP2 SUB SWAP1 RETURN JUMPDEST PUSH2 0xE3 PUSH1 0x4 DUP1 CALLDATASIZE SUB DUP2 ADD SWAP1 PUSH2 0xDE SWAP2 SWAP1 PUSH2 0xEDF JUMP JUMPDEST PUSH2 0x2C6 JUMP JUMPDEST PUSH1 0x40 MLOAD PUSH2 0xF0 SWAP2 SWAP1 PUSH2 0x109E JUMP JUMPDEST PUSH1 0x40 MLOAD DUP1 SWAP2 SUB SWAP1 RETURN JUMPDEST PUSH2 0x113 PUSH1 0x4 DUP1 CALLDATASIZE SUB DUP2 ADD SWAP1 PUSH2 0x10E SWAP2 SWAP1 PUSH2 0xDA1 JUMP JUMPDEST PUSH2 0x461 JUMP JUMPDEST STOP JUMPDEST PUSH2 0x12F PUSH1 0x4 DUP1 CALLDATASIZE SUB DUP2 ADD SWAP1 PUSH2 0x12A SWAP2 SWAP1 PUSH2 0x10F5 JUMP JUMPDEST PUSH2 0x6B3 JUMP JUMPDEST STOP JUMPDEST PUSH2 0x14B PUSH1 0x4 DUP1 CALLDATASIZE SUB DUP2 ADD SWAP1 PUSH2 0x146 SWAP2 SWAP1 PUSH2 0xDA1 JUMP JUMPDEST PUSH2 0x760 JUMP JUMPDEST STOP JUMPDEST PUSH2 0x155 PUSH2 0x912 JUMP JUMPDEST PUSH1 0x40 MLOAD PUSH2 0x162 SWAP2 SWAP1 PUSH2 0x112F JUMP JUMPDEST PUSH1 0x40 MLOAD DUP1 SWAP2 SUB SWAP1 RETURN JUMPDEST PUSH2 0x185 PUSH1 0x4 DUP1 CALLDATASIZE SUB DUP2 ADD SWAP1 PUSH2 0x180 SWAP2 SWAP1 PUSH2 0x1274 JUMP JUMPDEST PUSH2 0x923 JUMP JUMPDEST STOP JUMPDEST PUSH2 0x18F PUSH2 0xB26 JUMP JUMPDEST PUSH1 0x40 MLOAD PUSH2 0x19C SWAP2 SWAP1 PUSH2 0x12BB JUMP JUMPDEST PUSH1 0x40 MLOAD DUP1 SWAP2 SUB SWAP1 RETURN JUMPDEST PUSH2 0x1BF PUSH1 0x4 DUP1 CALLDATASIZE SUB DUP2 ADD SWAP1 PUSH2 0x1BA SWAP2 SWAP1 PUSH2 0x12D4 JUMP JUMPDEST PUSH2 0xB4B JUMP JUMPDEST PUSH1 0x40 MLOAD PUSH2 0x1CC SWAP2 SWAP1 PUSH2 0x1372 JUMP JUMPDEST PUSH1 0x40 MLOAD DUP1 SWAP2 SUB SWAP1 RETURN JUMPDEST PUSH1 0x1 PUSH1 0x20 MSTORE DUP2 PUSH0 MSTORE PUSH1 0x40 PUSH0 KECCAK256 DUP2 DUP2 SLOAD DUP2 LT PUSH2 0x1EE JUMPI PUSH0 DUP1 REVERT JUMPDEST SWAP1 PUSH0 MSTORE PUSH1 0x20 PUSH0 KECCAK256 SWAP1 PUSH1 0x5 MUL ADD PUSH0 SWAP2 POP SWAP2 POP POP DUP1 PUSH0 ADD PUSH0 SWAP1 SLOAD SWAP1 PUSH2 0x100 EXP SWAP1 DIV PUSH20 0xFFFFFFFFFFFFFFFFFFFFFFFFFFFFFFFFFFFFFFFF AND SWAP1 DUP1 PUSH1 0x1 ADD DUP1 SLOAD PUSH2 0x233 SWAP1 PUSH2 0x13BF JUMP JUMPDEST DUP1 PUSH1 0x1F ADD PUSH1 0x20 DUP1 SWAP2 DIV MUL PUSH1 0x20 ADD PUSH1 0x40 MLOAD SWAP1 DUP2 ADD PUSH1 0x40 MSTORE DUP1 SWAP3 SWAP2 SWAP1 DUP2 DUP2 MSTORE PUSH1 0x20 ADD DUP3 DUP1 SLOAD PUSH2 0x25F SWAP1 PUSH2 0x13BF JUMP JUMPDEST DUP1 ISZERO PUSH2 0x2AA JUMPI DUP1 PUSH1 0x1F LT PUSH2 0x281 JUMPI PUSH2 0x100 DUP1 DUP4 SLOAD DIV MUL DUP4 MSTORE SWAP2 PUSH1 0x20 ADD SWAP2 PUSH2 0x2AA JUMP JUMPDEST DUP3 ADD SWAP2 SWAP1 PUSH0 MSTORE PUSH1 0x20 PUSH0 KECCAK256 SWAP1 JUMPDEST DUP2 SLOAD DUP2 MSTORE SWAP1 PUSH1 0x1 ADD SWAP1 PUSH1 0x20 ADD DUP1 DUP4 GT PUSH2 0x28D JUMPI DUP3 SWAP1 SUB PUSH1 0x1F AND DUP3 ADD SWAP2 JUMPDEST POP POP POP POP POP SWAP1 DUP1 PUSH1 0x2 ADD SLOAD SWAP1 DUP1 PUSH1 0x3 ADD SLOAD SWAP1 DUP1 PUSH1 0x4 ADD SLOAD SWAP1 POP DUP6 JUMP JUMPDEST PUSH1 0x60 PUSH1 0x1 PUSH0 DUP4 PUSH20 0xFFFFFFFFFFFFFFFFFFFFFFFFFFFFFFFFFFFFFFFF AND PUSH20 0xFFFFFFFFFFFFFFFFFFFFFFFFFFFFFFFFFFFFFFFF AND DUP2 MSTORE PUSH1 0x20 ADD SWAP1 DUP2 MSTORE PUSH1 0x20 ADD PUSH0 KECCAK256 DUP1 SLOAD DUP1 PUSH1 0x20 MUL PUSH1 0x20 ADD PUSH1 0x40 MLOAD SWAP1 DUP2 ADD PUSH1 0x40 MSTORE DUP1 SWAP3 SWAP2 SWAP1 DUP2 DUP2 MSTORE PUSH1 0x20 ADD PUSH0 SWAP1 JUMPDEST DUP3 DUP3 LT ISZERO PUSH2 0x456 JUMPI DUP4 DUP3 SWAP1 PUSH0 MSTORE PUSH1 0x20 PUSH0 KECCAK256 SWAP1 PUSH1 0x5 MUL ADD PUSH1 0x40 MLOAD DUP1 PUSH1 0xA0 ADD PUSH1 0x40 MSTORE SWAP1 DUP2 PUSH0 DUP3 ADD PUSH0 SWAP1 SLOAD SWAP1 PUSH2 0x100 EXP SWAP1 DIV PUSH20 0xFFFFFFFFFFFFFFFFFFFFFFFFFFFFFFFFFFFFFFFF AND PUSH20 0xFFFFFFFFFFFFFFFFFFFFFFFFFFFFFFFFFFFFFFFF AND PUSH20 0xFFFFFFFFFFFFFFFFFFFFFFFFFFFFFFFFFFFFFFFF AND DUP2 MSTORE PUSH1 0x20 ADD PUSH1 0x1 DUP3 ADD DUP1 SLOAD PUSH2 0x3A9 SWAP1 PUSH2 0x13BF JUMP JUMPDEST DUP1 PUSH1 0x1F ADD PUSH1 0x20 DUP1 SWAP2 DIV MUL PUSH1 0x20 ADD PUSH1 0x40 MLOAD SWAP1 DUP2 ADD PUSH1 0x40 MSTORE DUP1 SWAP3 SWAP2 SWAP1 DUP2 DUP2 MSTORE PUSH1 0x20 ADD DUP3 DUP1 SLOAD PUSH2 0x3D5 SWAP1 PUSH2 0x13BF JUMP JUMPDEST DUP1 ISZERO PUSH2 0x420 JUMPI DUP1 PUSH1 0x1F LT PUSH2 0x3F7 JUMPI PUSH2 0x100 DUP1 DUP4 SLOAD DIV MUL DUP4 MSTORE SWAP2 PUSH1 0x20 ADD SWAP2 PUSH2 0x420 JUMP JUMPDEST DUP3 ADD SWAP2 SWAP1 PUSH0 MSTORE PUSH1 0x20 PUSH0 KECCAK256 SWAP1 JUMPDEST DUP2 SLOAD DUP2 MSTORE SWAP1 PUSH1 0x1 ADD SWAP1 PUSH1 0x20 ADD DUP1 DUP4 GT PUSH2 0x403 JUMPI DUP3 SWAP1 SUB PUSH1 0x1F AND DUP3 ADD SWAP2 JUMPDEST POP POP POP POP POP DUP2 MSTORE PUSH1 0x20 ADD PUSH1 0x2 DUP3 ADD SLOAD DUP2 MSTORE PUSH1 0x20 ADD PUSH1 0x3 DUP3 ADD SLOAD DUP2 MSTORE PUSH1 0x20 ADD PUSH1 0x4 DUP3 ADD SLOAD DUP2 MSTORE POP POP DUP2 MSTORE PUSH1 0x20 ADD SWAP1 PUSH1 0x1 ADD SWAP1 PUSH2 0x324 JUMP JUMPDEST POP POP POP POP SWAP1 POP SWAP2 SWAP1 POP JUMP JUMPDEST DUP1 PUSH1 0x1 PUSH0 DUP5 PUSH20 0xFFFFFFFFFFFFFFFFFFFFFFFFFFFFFFFFFFFFFFFF AND PUSH20 0xFFFFFFFFFFFFFFFFFFFFFFFFFFFFFFFFFFFFFFFF AND DUP2 MSTORE PUSH1 0x20 ADD SWAP1 DUP2 MSTORE PUSH1 0x20 ADD PUSH0 KECCAK256 DUP3 DUP2 SLOAD DUP2 LT PUSH2 0x4B1 JUMPI PUSH2 0x4B0 PUSH2 0x13EF JUMP JUMPDEST JUMPDEST SWAP1 PUSH0 MSTORE PUSH1 0x20 PUSH0 KECCAK256 SWAP1 PUSH1 0x5 MUL ADD PUSH1 0x4 ADD SLOAD EQ PUSH2 0x501 JUMPI PUSH1 0x40 MLOAD PUSH32 0x8C379A000000000000000000000000000000000000000000000000000000000 DUP2 MSTORE PUSH1 0x4 ADD PUSH2 0x4F8 SWAP1 PUSH2 0x1466 JUMP JUMPDEST PUSH1 0x40 MLOAD DUP1 SWAP2 SUB SWAP1 REVERT JUMPDEST PUSH0 PUSH1 0x1 PUSH0 DUP5 PUSH20 0xFFFFFFFFFFFFFFFFFFFFFFFFFFFFFFFFFFFFFFFF AND PUSH20 0xFFFFFFFFFFFFFFFFFFFFFFFFFFFFFFFFFFFFFFFF AND DUP2 MSTORE PUSH1 0x20 ADD SWAP1 DUP2 MSTORE PUSH1 0x20 ADD PUSH0 KECCAK256 DUP3 DUP2 SLOAD DUP2 LT PUSH2 0x551 JUMPI PUSH2 0x550 PUSH2 0x13EF JUMP JUMPDEST JUMPDEST SWAP1 PUSH0 MSTORE PUSH1 0x20 PUSH0 KECCAK256 SWAP1 PUSH1 0x5 MUL ADD PUSH1 0x3 ADD SLOAD GT PUSH2 0x5A1 JUMPI PUSH1 0x40 MLOAD PUSH32 0x8C379A000000000000000000000000000000000000000000000000000000000 DUP2 MSTORE PUSH1 0x4 ADD PUSH2 0x598 SWAP1 PUSH2 0x14CE JUMP JUMPDEST PUSH1 0x40 MLOAD DUP1 SWAP2 SUB SWAP1 REVERT JUMPDEST PUSH1 0x1 PUSH0 DUP4 PUSH20 0xFFFFFFFFFFFFFFFFFFFFFFFFFFFFFFFFFFFFFFFF AND PUSH20 0xFFFFFFFFFFFFFFFFFFFFFFFFFFFFFFFFFFFFFFFF AND DUP2 MSTORE PUSH1 0x20 ADD SWAP1 DUP2 MSTORE PUSH1 0x20 ADD PUSH0 KECCAK256 DUP2 DUP2 SLOAD DUP2 LT PUSH2 0x5F0 JUMPI PUSH2 0x5EF PUSH2 0x13EF JUMP JUMPDEST JUMPDEST SWAP1 PUSH0 MSTORE PUSH1 0x20 PUSH0 KECCAK256 SWAP1 PUSH1 0x5 MUL ADD PUSH1 0x3 ADD PUSH0 DUP2 SLOAD DUP1 SWAP3 SWAP2 SWAP1 PUSH2 0x60F SWAP1 PUSH2 0x1519 JUMP JUMPDEST SWAP2 SWAP1 POP SSTORE POP PUSH32 0x762C2616349603AC16EBA0DE8E6141B79129A07AB63BD99E0A80B3A471716943 CALLER DUP4 DUP4 PUSH1 0x1 PUSH0 DUP8 PUSH20 0xFFFFFFFFFFFFFFFFFFFFFFFFFFFFFFFFFFFFFFFF AND PUSH20 0xFFFFFFFFFFFFFFFFFFFFFFFFFFFFFFFFFFFFFFFF AND DUP2 MSTORE PUSH1 0x20 ADD SWAP1 DUP2 MSTORE PUSH1 0x20 ADD PUSH0 KECCAK256 DUP6 DUP2 SLOAD DUP2 LT PUSH2 0x687 JUMPI PUSH2 0x686 PUSH2 0x13EF JUMP JUMPDEST JUMPDEST SWAP1 PUSH0 MSTORE PUSH1 0x20 PUSH0 KECCAK256 SWAP1 PUSH1 0x5 MUL ADD PUSH1 0x3 ADD SLOAD PUSH1 0x40 MLOAD PUSH2 0x6A7 SWAP5 SWAP4 SWAP3 SWAP2 SWAP1 PUSH2 0x1540 JUMP JUMPDEST PUSH1 0x40 MLOAD DUP1 SWAP2 SUB SWAP1 LOG1 POP POP JUMP JUMPDEST PUSH0 PUSH1 0x2 SWAP1 SLOAD SWAP1 PUSH2 0x100 EXP SWAP1 DIV PUSH20 0xFFFFFFFFFFFFFFFFFFFFFFFFFFFFFFFFFFFFFFFF AND PUSH20 0xFFFFFFFFFFFFFFFFFFFFFFFFFFFFFFFFFFFFFFFF AND CALLER PUSH20 0xFFFFFFFFFFFFFFFFFFFFFFFFFFFFFFFFFFFFFFFF AND EQ PUSH2 0x742 JUMPI PUSH1 0x40 MLOAD PUSH32 0x8C379A000000000000000000000000000000000000000000000000000000000 DUP2 MSTORE PUSH1 0x4 ADD PUSH2 0x739 SWAP1 PUSH2 0x15CD JUMP JUMPDEST PUSH1 0x40 MLOAD DUP1 SWAP2 SUB SWAP1 REVERT JUMPDEST DUP1 PUSH0 DUP1 PUSH2 0x100 EXP DUP2 SLOAD DUP2 PUSH2 0xFFFF MUL NOT AND SWAP1 DUP4 PUSH2 0xFFFF AND MUL OR SWAP1 SSTORE POP POP JUMP JUMPDEST DUP1 PUSH1 0x1 PUSH0 DUP5 PUSH20 0xFFFFFFFFFFFFFFFFFFFFFFFFFFFFFFFFFFFFFFFF AND PUSH20 0xFFFFFFFFFFFFFFFFFFFFFFFFFFFFFFFFFFFFFFFF AND DUP2 MSTORE PUSH1 0x20 ADD SWAP1 DUP2 MSTORE PUSH1 0x20 ADD PUSH0 KECCAK256 DUP3 DUP2 SLOAD DUP2 LT PUSH2 0x7B0 JUMPI PUSH2 0x7AF PUSH2 0x13EF JUMP JUMPDEST JUMPDEST SWAP1 PUSH0 MSTORE PUSH1 0x20 PUSH0 KECCAK256 SWAP1 PUSH1 0x5 MUL ADD PUSH1 0x4 ADD SLOAD EQ PUSH2 0x800 JUMPI PUSH1 0x40 MLOAD PUSH32 0x8C379A000000000000000000000000000000000000000000000000000000000 DUP2 MSTORE PUSH1 0x4 ADD PUSH2 0x7F7 SWAP1 PUSH2 0x1466 JUMP JUMPDEST PUSH1 0x40 MLOAD DUP1 SWAP2 SUB SWAP1 REVERT JUMPDEST PUSH1 0x1 PUSH0 DUP4 PUSH20 0xFFFFFFFFFFFFFFFFFFFFFFFFFFFFFFFFFFFFFFFF AND PUSH20 0xFFFFFFFFFFFFFFFFFFFFFFFFFFFFFFFFFFFFFFFF AND DUP2 MSTORE PUSH1 0x20 ADD SWAP1 DUP2 MSTORE PUSH1 0x20 ADD PUSH0 KECCAK256 DUP2 DUP2 SLOAD DUP2 LT PUSH2 0x84F JUMPI PUSH2 0x84E PUSH2 0x13EF JUMP JUMPDEST JUMPDEST SWAP1 PUSH0 MSTORE PUSH1 0x20 PUSH0 KECCAK256 SWAP1 PUSH1 0x5 MUL ADD PUSH1 0x3 ADD PUSH0 DUP2 SLOAD DUP1 SWAP3 SWAP2 SWAP1 PUSH2 0x86E SWAP1 PUSH2 0x15EB JUMP JUMPDEST SWAP2 SWAP1 POP SSTORE POP PUSH32 0xE8A76FC0F16D11A00D1E93B689B63D76CF60AF914DD3D915375DC41D01A0C3C8 CALLER DUP4 DUP4 PUSH1 0x1 PUSH0 DUP8 PUSH20 0xFFFFFFFFFFFFFFFFFFFFFFFFFFFFFFFFFFFFFFFF AND PUSH20 0xFFFFFFFFFFFFFFFFFFFFFFFFFFFFFFFFFFFFFFFF AND DUP2 MSTORE PUSH1 0x20 ADD SWAP1 DUP2 MSTORE PUSH1 0x20 ADD PUSH0 KECCAK256 DUP6 DUP2 SLOAD DUP2 LT PUSH2 0x8E6 JUMPI PUSH2 0x8E5 PUSH2 0x13EF JUMP JUMPDEST JUMPDEST SWAP1 PUSH0 MSTORE PUSH1 0x20 PUSH0 KECCAK256 SWAP1 PUSH1 0x5 MUL ADD PUSH1 0x3 ADD SLOAD PUSH1 0x40 MLOAD PUSH2 0x906 SWAP5 SWAP4 SWAP3 SWAP2 SWAP1 PUSH2 0x1540 JUMP JUMPDEST PUSH1 0x40 MLOAD DUP1 SWAP2 SUB SWAP1 LOG1 POP POP JUMP JUMPDEST PUSH0 DUP1 SLOAD SWAP1 PUSH2 0x100 EXP SWAP1 DIV PUSH2 0xFFFF AND DUP2 JUMP JUMPDEST PUSH0 DUP1 SLOAD SWAP1 PUSH2 0x100 EXP SWAP1 DIV PUSH2 0xFFFF AND PUSH2 0xFFFF AND DUP2 MLOAD GT ISZERO PUSH2 0x978 JUMPI PUSH1 0x40 MLOAD PUSH32 0x8C379A000000000000000000000000000000000000000000000000000000000 DUP2 MSTORE PUSH1 0x4 ADD PUSH2 0x96F SWAP1 PUSH2 0x167C JUMP JUMPDEST PUSH1 0x40 MLOAD DUP1 SWAP2 SUB SWAP1 REVERT JUMPDEST PUSH0 PUSH1 0x40 MLOAD DUP1 PUSH1 0xA0 ADD PUSH1 0x40 MSTORE DUP1 CALLER PUSH20 0xFFFFFFFFFFFFFFFFFFFFFFFFFFFFFFFFFFFFFFFF AND DUP2 MSTORE PUSH1 0x20 ADD DUP4 DUP2 MSTORE PUSH1 0x20 ADD TIMESTAMP DUP2 MSTORE PUSH1 0x20 ADD PUSH0 DUP2 MSTORE PUSH1 0x20 ADD PUSH1 0x1 PUSH0 CALLER PUSH20 0xFFFFFFFFFFFFFFFFFFFFFFFFFFFFFFFFFFFFFFFF AND PUSH20 0xFFFFFFFFFFFFFFFFFFFFFFFFFFFFFFFFFFFFFFFF AND DUP2 MSTORE PUSH1 0x20 ADD SWAP1 DUP2 MSTORE PUSH1 0x20 ADD PUSH0 KECCAK256 DUP1 SLOAD SWAP1 POP DUP2 MSTORE POP SWAP1 POP PUSH1 0x1 PUSH0 CALLER PUSH20 0xFFFFFFFFFFFFFFFFFFFFFFFFFFFFFFFFFFFFFFFF AND PUSH20 0xFFFFFFFFFFFFFFFFFFFFFFFFFFFFFFFFFFFFFFFF AND DUP2 MSTORE PUSH1 0x20 ADD SWAP1 DUP2 MSTORE PUSH1 0x20 ADD PUSH0 KECCAK256 DUP2 SWAP1 DUP1 PUSH1 0x1 DUP2 SLOAD ADD DUP1 DUP3 SSTORE DUP1 SWAP2 POP POP PUSH1 0x1 SWAP1 SUB SWAP1 PUSH0 MSTORE PUSH1 0x20 PUSH0 KECCAK256 SWAP1 PUSH1 0x5 MUL ADD PUSH0 SWAP1 SWAP2 SWAP1 SWAP2 SWAP1 SWAP2 POP PUSH0 DUP3 ADD MLOAD DUP2 PUSH0 ADD PUSH0 PUSH2 0x100 EXP DUP2 SLOAD DUP2 PUSH20 0xFFFFFFFFFFFFFFFFFFFFFFFFFFFFFFFFFFFFFFFF MUL NOT AND SWAP1 DUP4 PUSH20 0xFFFFFFFFFFFFFFFFFFFFFFFFFFFFFFFFFFFFFFFF AND MUL OR SWAP1 SSTORE POP PUSH1 0x20 DUP3 ADD MLOAD DUP2 PUSH1 0x1 ADD SWAP1 DUP2 PUSH2 0xAB5 SWAP2 SWAP1 PUSH2 0x1837 JUMP JUMPDEST POP PUSH1 0x40 DUP3 ADD MLOAD DUP2 PUSH1 0x2 ADD SSTORE PUSH1 0x60 DUP3 ADD MLOAD DUP2 PUSH1 0x3 ADD SSTORE PUSH1 0x80 DUP3 ADD MLOAD DUP2 PUSH1 0x4 ADD SSTORE POP POP PUSH32 0x16FD3C13E9D46923E0A8BCE11C7B473EC508A72E6C96CD2404B29CE972AFC29E DUP2 PUSH1 0x80 ADD MLOAD DUP3 PUSH0 ADD MLOAD DUP4 PUSH1 0x20 ADD MLOAD DUP5 PUSH1 0x40 ADD MLOAD PUSH1 0x40 MLOAD PUSH2 0xB1A SWAP5 SWAP4 SWAP3 SWAP2 SWAP1 PUSH2 0x1906 JUMP JUMPDEST PUSH1 0x40 MLOAD DUP1 SWAP2 SUB SWAP1 LOG1 POP POP JUMP JUMPDEST PUSH0 PUSH1 0x2 SWAP1 SLOAD SWAP1 PUSH2 0x100 EXP SWAP1 DIV PUSH20 0xFFFFFFFFFFFFFFFFFFFFFFFFFFFFFFFFFFFFFFFF AND DUP2 JUMP JUMPDEST PUSH2 0xB53 PUSH2 0xCC2 JUMP JUMPDEST PUSH1 0x1 PUSH0 CALLER PUSH20 0xFFFFFFFFFFFFFFFFFFFFFFFFFFFFFFFFFFFFFFFF AND PUSH20 0xFFFFFFFFFFFFFFFFFFFFFFFFFFFFFFFFFFFFFFFF AND DUP2 MSTORE PUSH1 0x20 ADD SWAP1 DUP2 MSTORE PUSH1 0x20 ADD PUSH0 KECCAK256 DUP3 DUP2 SLOAD DUP2 LT PUSH2 0xBA2 JUMPI PUSH2 0xBA1 PUSH2 0x13EF JUMP JUMPDEST JUMPDEST SWAP1 PUSH0 MSTORE PUSH1 0x20 PUSH0 KECCAK256 SWAP1 PUSH1 0x5 MUL ADD PUSH1 0x40 MLOAD DUP1 PUSH1 0xA0 ADD PUSH1 0x40 MSTORE SWAP1 DUP2 PUSH0 DUP3 ADD PUSH0 SWAP1 SLOAD SWAP1 PUSH2 0x100 EXP SWAP1 DIV PUSH20 0xFFFFFFFFFFFFFFFFFFFFFFFFFFFFFFFFFFFFFFFF AND PUSH20 0xFFFFFFFFFFFFFFFFFFFFFFFFFFFFFFFFFFFFFFFF AND PUSH20 0xFFFFFFFFFFFFFFFFFFFFFFFFFFFFFFFFFFFFFFFF AND DUP2 MSTORE PUSH1 0x20 ADD PUSH1 0x1 DUP3 ADD DUP1 SLOAD PUSH2 0xC1D SWAP1 PUSH2 0x13BF JUMP JUMPDEST DUP1 PUSH1 0x1F ADD PUSH1 0x20 DUP1 SWAP2 DIV MUL PUSH1 0x20 ADD PUSH1 0x40 MLOAD SWAP1 DUP2 ADD PUSH1 0x40 MSTORE DUP1 SWAP3 SWAP2 SWAP1 DUP2 DUP2 MSTORE PUSH1 0x20 ADD DUP3 DUP1 SLOAD PUSH2 0xC49 SWAP1 PUSH2 0x13BF JUMP JUMPDEST DUP1 ISZERO PUSH2 0xC94 JUMPI DUP1 PUSH1 0x1F LT PUSH2 0xC6B JUMPI PUSH2 0x100 DUP1 DUP4 SLOAD DIV MUL DUP4 MSTORE SWAP2 PUSH1 0x20 ADD SWAP2 PUSH2 0xC94 JUMP JUMPDEST DUP3 ADD SWAP2 SWAP1 PUSH0 MSTORE PUSH1 0x20 PUSH0 KECCAK256 SWAP1 JUMPDEST DUP2 SLOAD DUP2 MSTORE SWAP1 PUSH1 0x1 ADD SWAP1 PUSH1 0x20 ADD DUP1 DUP4 GT PUSH2 0xC77 JUMPI DUP3 SWAP1 SUB PUSH1 0x1F AND DUP3 ADD SWAP2 JUMPDEST POP POP POP POP POP DUP2 MSTORE PUSH1 0x20 ADD PUSH1 0x2 DUP3 ADD SLOAD DUP2 MSTORE PUSH1 0x20 ADD PUSH1 0x3 DUP3 ADD SLOAD DUP2 MSTORE PUSH1 0x20 ADD PUSH1 0x4 DUP3 ADD SLOAD DUP2 MSTORE POP POP SWAP1 POP SWAP2 SWAP1 POP JUMP JUMPDEST PUSH1 0x40 MLOAD DUP1 PUSH1 0xA0 ADD PUSH1 0x40 MSTORE DUP1 PUSH0 PUSH20 0xFFFFFFFFFFFFFFFFFFFFFFFFFFFFFFFFFFFFFFFF AND DUP2 MSTORE PUSH1 0x20 ADD PUSH1 0x60 DUP2 MSTORE PUSH1 0x20 ADD PUSH0 DUP2 MSTORE PUSH1 0x20 ADD PUSH0 DUP2 MSTORE PUSH1 0x20 ADD PUSH0 DUP2 MSTORE POP SWAP1 JUMP JUMPDEST PUSH0 PUSH1 0x40 MLOAD SWAP1 POP SWAP1 JUMP JUMPDEST PUSH0 DUP1 REVERT JUMPDEST PUSH0 DUP1 REVERT JUMPDEST PUSH0 PUSH20 0xFFFFFFFFFFFFFFFFFFFFFFFFFFFFFFFFFFFFFFFF DUP3 AND SWAP1 POP SWAP2 SWAP1 POP JUMP JUMPDEST PUSH0 PUSH2 0xD3D DUP3 PUSH2 0xD14 JUMP JUMPDEST SWAP1 POP SWAP2 SWAP1 POP JUMP JUMPDEST PUSH2 0xD4D DUP2 PUSH2 0xD33 JUMP JUMPDEST DUP2 EQ PUSH2 0xD57 JUMPI PUSH0 DUP1 REVERT JUMPDEST POP JUMP JUMPDEST PUSH0 DUP2 CALLDATALOAD SWAP1 POP PUSH2 0xD68 DUP2 PUSH2 0xD44 JUMP JUMPDEST SWAP3 SWAP2 POP POP JUMP JUMPDEST PUSH0 DUP2 SWAP1 POP SWAP2 SWAP1 POP JUMP JUMPDEST PUSH2 0xD80 DUP2 PUSH2 0xD6E JUMP JUMPDEST DUP2 EQ PUSH2 0xD8A JUMPI PUSH0 DUP1 REVERT JUMPDEST POP JUMP JUMPDEST PUSH0 DUP2 CALLDATALOAD SWAP1 POP PUSH2 0xD9B DUP2 PUSH2 0xD77 JUMP JUMPDEST SWAP3 SWAP2 POP POP JUMP JUMPDEST PUSH0 DUP1 PUSH1 0x40 DUP4 DUP6 SUB SLT ISZERO PUSH2 0xDB7 JUMPI PUSH2 0xDB6 PUSH2 0xD0C JUMP JUMPDEST JUMPDEST PUSH0 PUSH2 0xDC4 DUP6 DUP3 DUP7 ADD PUSH2 0xD5A JUMP JUMPDEST SWAP3 POP POP PUSH1 0x20 PUSH2 0xDD5 DUP6 DUP3 DUP7 ADD PUSH2 0xD8D JUMP JUMPDEST SWAP2 POP POP SWAP3 POP SWAP3 SWAP1 POP JUMP JUMPDEST PUSH2 0xDE8 DUP2 PUSH2 0xD33 JUMP JUMPDEST DUP3 MSTORE POP POP JUMP JUMPDEST PUSH0 DUP2 MLOAD SWAP1 POP SWAP2 SWAP1 POP JUMP JUMPDEST PUSH0 DUP3 DUP3 MSTORE PUSH1 0x20 DUP3 ADD SWAP1 POP SWAP3 SWAP2 POP POP JUMP JUMPDEST PUSH0 JUMPDEST DUP4 DUP2 LT ISZERO PUSH2 0xE25 JUMPI DUP1 DUP3 ADD MLOAD DUP2 DUP5 ADD MSTORE PUSH1 0x20 DUP2 ADD SWAP1 POP PUSH2 0xE0A JUMP JUMPDEST PUSH0 DUP5 DUP5 ADD MSTORE POP POP POP POP JUMP JUMPDEST PUSH0 PUSH1 0x1F NOT PUSH1 0x1F DUP4 ADD AND SWAP1 POP SWAP2 SWAP1 POP JUMP JUMPDEST PUSH0 PUSH2 0xE4A DUP3 PUSH2 0xDEE JUMP JUMPDEST PUSH2 0xE54 DUP2 DUP6 PUSH2 0xDF8 JUMP JUMPDEST SWAP4 POP PUSH2 0xE64 DUP2 DUP6 PUSH1 0x20 DUP7 ADD PUSH2 0xE08 JUMP JUMPDEST PUSH2 0xE6D DUP2 PUSH2 0xE30 JUMP JUMPDEST DUP5 ADD SWAP2 POP POP SWAP3 SWAP2 POP POP JUMP JUMPDEST PUSH2 0xE81 DUP2 PUSH2 0xD6E JUMP JUMPDEST DUP3 MSTORE POP POP JUMP JUMPDEST PUSH0 PUSH1 0xA0 DUP3 ADD SWAP1 POP PUSH2 0xE9A PUSH0 DUP4 ADD DUP9 PUSH2 0xDDF JUMP JUMPDEST DUP2 DUP2 SUB PUSH1 0x20 DUP4 ADD MSTORE PUSH2 0xEAC DUP2 DUP8 PUSH2 0xE40 JUMP JUMPDEST SWAP1 POP PUSH2 0xEBB PUSH1 0x40 DUP4 ADD DUP7 PUSH2 0xE78 JUMP JUMPDEST PUSH2 0xEC8 PUSH1 0x60 DUP4 ADD DUP6 PUSH2 0xE78 JUMP JUMPDEST PUSH2 0xED5 PUSH1 0x80 DUP4 ADD DUP5 PUSH2 0xE78 JUMP JUMPDEST SWAP7 SWAP6 POP POP POP POP POP POP JUMP JUMPDEST PUSH0 PUSH1 0x20 DUP3 DUP5 SUB SLT ISZERO PUSH2 0xEF4 JUMPI PUSH2 0xEF3 PUSH2 0xD0C JUMP JUMPDEST JUMPDEST PUSH0 PUSH2 0xF01 DUP5 DUP3 DUP6 ADD PUSH2 0xD5A JUMP JUMPDEST SWAP2 POP POP SWAP3 SWAP2 POP POP JUMP JUMPDEST PUSH0 DUP2 MLOAD SWAP1 POP SWAP2 SWAP1 POP JUMP JUMPDEST PUSH0 DUP3 DUP3 MSTORE PUSH1 0x20 DUP3 ADD SWAP1 POP SWAP3 SWAP2 POP POP JUMP JUMPDEST PUSH0 DUP2 SWAP1 POP PUSH1 0x20 DUP3 ADD SWAP1 POP SWAP2 SWAP1 POP JUMP JUMPDEST PUSH2 0xF3C DUP2 PUSH2 0xD33 JUMP JUMPDEST DUP3 MSTORE POP POP JUMP JUMPDEST PUSH0 DUP3 DUP3 MSTORE PUSH1 0x20 DUP3 ADD SWAP1 POP SWAP3 SWAP2 POP POP JUMP JUMPDEST PUSH0 PUSH2 0xF5C DUP3 PUSH2 0xDEE JUMP JUMPDEST PUSH2 0xF66 DUP2 DUP6 PUSH2 0xF42 JUMP JUMPDEST SWAP4 POP PUSH2 0xF76 DUP2 DUP6 PUSH1 0x20 DUP7 ADD PUSH2 0xE08 JUMP JUMPDEST PUSH2 0xF7F DUP2 PUSH2 0xE30 JUMP JUMPDEST DUP5 ADD SWAP2 POP POP SWAP3 SWAP2 POP POP JUMP JUMPDEST PUSH2 0xF93 DUP2 PUSH2 0xD6E JUMP JUMPDEST DUP3 MSTORE POP POP JUMP JUMPDEST PUSH0 PUSH1 0xA0 DUP4 ADD PUSH0 DUP4 ADD MLOAD PUSH2 0xFAE PUSH0 DUP7 ADD DUP3 PUSH2 0xF33 JUMP JUMPDEST POP PUSH1 0x20 DUP4 ADD MLOAD DUP5 DUP3 SUB PUSH1 0x20 DUP7 ADD MSTORE PUSH2 0xFC6 DUP3 DUP3 PUSH2 0xF52 JUMP JUMPDEST SWAP2 POP POP PUSH1 0x40 DUP4 ADD MLOAD PUSH2 0xFDB PUSH1 0x40 DUP7 ADD DUP3 PUSH2 0xF8A JUMP JUMPDEST POP PUSH1 0x60 DUP4 ADD MLOAD PUSH2 0xFEE PUSH1 0x60 DUP7 ADD DUP3 PUSH2 0xF8A JUMP JUMPDEST POP PUSH1 0x80 DUP4 ADD MLOAD PUSH2 0x1001 PUSH1 0x80 DUP7 ADD DUP3 PUSH2 0xF8A JUMP JUMPDEST POP DUP1 SWAP2 POP POP SWAP3 SWAP2 POP POP JUMP JUMPDEST PUSH0 PUSH2 0x1017 DUP4 DUP4 PUSH2 0xF99 JUMP JUMPDEST SWAP1 POP SWAP3 SWAP2 POP POP JUMP JUMPDEST PUSH0 PUSH1 0x20 DUP3 ADD SWAP1 POP SWAP2 SWAP1 POP JUMP JUMPDEST PUSH0 PUSH2 0x1035 DUP3 PUSH2 0xF0A JUMP JUMPDEST PUSH2 0x103F DUP2 DUP6 PUSH2 0xF14 JUMP JUMPDEST SWAP4 POP DUP4 PUSH1 0x20 DUP3 MUL DUP6 ADD PUSH2 0x1051 DUP6 PUSH2 0xF24 JUMP JUMPDEST DUP1 PUSH0 JUMPDEST DUP6 DUP2 LT ISZERO PUSH2 0x108C JUMPI DUP5 DUP5 SUB DUP10 MSTORE DUP2 MLOAD PUSH2 0x106D DUP6 DUP3 PUSH2 0x100C JUMP JUMPDEST SWAP5 POP PUSH2 0x1078 DUP4 PUSH2 0x101F JUMP JUMPDEST SWAP3 POP PUSH1 0x20 DUP11 ADD SWAP10 POP POP PUSH1 0x1 DUP2 ADD SWAP1 POP PUSH2 0x1054 JUMP JUMPDEST POP DUP3 SWAP8 POP DUP8 SWAP6 POP POP POP POP POP POP SWAP3 SWAP2 POP POP JUMP JUMPDEST PUSH0 PUSH1 0x20 DUP3 ADD SWAP1 POP DUP2 DUP2 SUB PUSH0 DUP4 ADD MSTORE PUSH2 0x10B6 DUP2 DUP5 PUSH2 0x102B JUMP JUMPDEST SWAP1 POP SWAP3 SWAP2 POP POP JUMP JUMPDEST PUSH0 PUSH2 0xFFFF DUP3 AND SWAP1 POP SWAP2 SWAP1 POP JUMP JUMPDEST PUSH2 0x10D4 DUP2 PUSH2 0x10BE JUMP JUMPDEST DUP2 EQ PUSH2 0x10DE JUMPI PUSH0 DUP1 REVERT JUMPDEST POP JUMP JUMPDEST PUSH0 DUP2 CALLDATALOAD SWAP1 POP PUSH2 0x10EF DUP2 PUSH2 0x10CB JUMP JUMPDEST SWAP3 SWAP2 POP POP JUMP JUMPDEST PUSH0 PUSH1 0x20 DUP3 DUP5 SUB SLT ISZERO PUSH2 0x110A JUMPI PUSH2 0x1109 PUSH2 0xD0C JUMP JUMPDEST JUMPDEST PUSH0 PUSH2 0x1117 DUP5 DUP3 DUP6 ADD PUSH2 0x10E1 JUMP JUMPDEST SWAP2 POP POP SWAP3 SWAP2 POP POP JUMP JUMPDEST PUSH2 0x1129 DUP2 PUSH2 0x10BE JUMP JUMPDEST DUP3 MSTORE POP POP JUMP JUMPDEST PUSH0 PUSH1 0x20 DUP3 ADD SWAP1 POP PUSH2 0x1142 PUSH0 DUP4 ADD DUP5 PUSH2 0x1120 JUMP JUMPDEST SWAP3 SWAP2 POP POP JUMP JUMPDEST PUSH0 DUP1 REVERT JUMPDEST PUSH0 DUP1 REVERT JUMPDEST PUSH32 0x4E487B7100000000000000000000000000000000000000000000000000000000 PUSH0 MSTORE PUSH1 0x41 PUSH1 0x4 MSTORE PUSH1 0x24 PUSH0 REVERT JUMPDEST PUSH2 0x1186 DUP3 PUSH2 0xE30 JUMP JUMPDEST DUP2 ADD DUP2 DUP2 LT PUSH8 0xFFFFFFFFFFFFFFFF DUP3 GT OR ISZERO PUSH2 0x11A5 JUMPI PUSH2 0x11A4 PUSH2 0x1150 JUMP JUMPDEST JUMPDEST DUP1 PUSH1 0x40 MSTORE POP POP POP JUMP JUMPDEST PUSH0 PUSH2 0x11B7 PUSH2 0xD03 JUMP JUMPDEST SWAP1 POP PUSH2 0x11C3 DUP3 DUP3 PUSH2 0x117D JUMP JUMPDEST SWAP2 SWAP1 POP JUMP JUMPDEST PUSH0 PUSH8 0xFFFFFFFFFFFFFFFF DUP3 GT ISZERO PUSH2 0x11E2 JUMPI PUSH2 0x11E1 PUSH2 0x1150 JUMP JUMPDEST JUMPDEST PUSH2 0x11EB DUP3 PUSH2 0xE30 JUMP JUMPDEST SWAP1 POP PUSH1 0x20 DUP2 ADD SWAP1 POP SWAP2 SWAP1 POP JUMP JUMPDEST DUP3 DUP2 DUP4 CALLDATACOPY PUSH0 DUP4 DUP4 ADD MSTORE POP POP POP JUMP JUMPDEST PUSH0 PUSH2 0x1218 PUSH2 0x1213 DUP5 PUSH2 0x11C8 JUMP JUMPDEST PUSH2 0x11AE JUMP JUMPDEST SWAP1 POP DUP3 DUP2 MSTORE PUSH1 0x20 DUP2 ADD DUP5 DUP5 DUP5 ADD GT ISZERO PUSH2 0x1234 JUMPI PUSH2 0x1233 PUSH2 0x114C JUMP JUMPDEST JUMPDEST PUSH2 0x123F DUP5 DUP3 DUP6 PUSH2 0x11F8 JUMP JUMPDEST POP SWAP4 SWAP3 POP POP POP JUMP JUMPDEST PUSH0 DUP3 PUSH1 0x1F DUP4 ADD SLT PUSH2 0x125B JUMPI PUSH2 0x125A PUSH2 0x1148 JUMP JUMPDEST JUMPDEST DUP2 CALLDATALOAD PUSH2 0x126B DUP5 DUP3 PUSH1 0x20 DUP7 ADD PUSH2 0x1206 JUMP JUMPDEST SWAP2 POP POP SWAP3 SWAP2 POP POP JUMP JUMPDEST PUSH0 PUSH1 0x20 DUP3 DUP5 SUB SLT ISZERO PUSH2 0x1289 JUMPI PUSH2 0x1288 PUSH2 0xD0C JUMP JUMPDEST JUMPDEST PUSH0 DUP3 ADD CALLDATALOAD PUSH8 0xFFFFFFFFFFFFFFFF DUP2 GT ISZERO PUSH2 0x12A6 JUMPI PUSH2 0x12A5 PUSH2 0xD10 JUMP JUMPDEST JUMPDEST PUSH2 0x12B2 DUP5 DUP3 DUP6 ADD PUSH2 0x1247 JUMP JUMPDEST SWAP2 POP POP SWAP3 SWAP2 POP POP JUMP JUMPDEST PUSH0 PUSH1 0x20 DUP3 ADD SWAP1 POP PUSH2 0x12CE PUSH0 DUP4 ADD DUP5 PUSH2 0xDDF JUMP JUMPDEST SWAP3 SWAP2 POP POP JUMP JUMPDEST PUSH0 PUSH1 0x20 DUP3 DUP5 SUB SLT ISZERO PUSH2 0x12E9 JUMPI PUSH2 0x12E8 PUSH2 0xD0C JUMP JUMPDEST JUMPDEST PUSH0 PUSH2 0x12F6 DUP5 DUP3 DUP6 ADD PUSH2 0xD8D JUMP JUMPDEST SWAP2 POP POP SWAP3 SWAP2 POP POP JUMP JUMPDEST PUSH0 PUSH1 0xA0 DUP4 ADD PUSH0 DUP4 ADD MLOAD PUSH2 0x1314 PUSH0 DUP7 ADD DUP3 PUSH2 0xF33 JUMP JUMPDEST POP PUSH1 0x20 DUP4 ADD MLOAD DUP5 DUP3 SUB PUSH1 0x20 DUP7 ADD MSTORE PUSH2 0x132C DUP3 DUP3 PUSH2 0xF52 JUMP JUMPDEST SWAP2 POP POP PUSH1 0x40 DUP4 ADD MLOAD PUSH2 0x1341 PUSH1 0x40 DUP7 ADD DUP3 PUSH2 0xF8A JUMP JUMPDEST POP PUSH1 0x60 DUP4 ADD MLOAD PUSH2 0x1354 PUSH1 0x60 DUP7 ADD DUP3 PUSH2 0xF8A JUMP JUMPDEST POP PUSH1 0x80 DUP4 ADD MLOAD PUSH2 0x1367 PUSH1 0x80 DUP7 ADD DUP3 PUSH2 0xF8A JUMP JUMPDEST POP DUP1 SWAP2 POP POP SWAP3 SWAP2 POP POP JUMP JUMPDEST PUSH0 PUSH1 0x20 DUP3 ADD SWAP1 POP DUP2 DUP2 SUB PUSH0 DUP4 ADD MSTORE PUSH2 0x138A DUP2 DUP5 PUSH2 0x12FF JUMP JUMPDEST SWAP1 POP SWAP3 SWAP2 POP POP JUMP JUMPDEST PUSH32 0x4E487B7100000000000000000000000000000000000000000000000000000000 PUSH0 MSTORE PUSH1 0x22 PUSH1 0x4 MSTORE PUSH1 0x24 PUSH0 REVERT JUMPDEST PUSH0 PUSH1 0x2 DUP3 DIV SWAP1 POP PUSH1 0x1 DUP3 AND DUP1 PUSH2 0x13D6 JUMPI PUSH1 0x7F DUP3 AND SWAP2 POP JUMPDEST PUSH1 0x20 DUP3 LT DUP2 SUB PUSH2 0x13E9 JUMPI PUSH2 0x13E8 PUSH2 0x1392 JUMP JUMPDEST JUMPDEST POP SWAP2 SWAP1 POP JUMP JUMPDEST PUSH32 0x4E487B7100000000000000000000000000000000000000000000000000000000 PUSH0 MSTORE PUSH1 0x32 PUSH1 0x4 MSTORE PUSH1 0x24 PUSH0 REVERT JUMPDEST PUSH32 0x547765657420446F65736E742065786973747321000000000000000000000000 PUSH0 DUP3 ADD MSTORE POP JUMP JUMPDEST PUSH0 PUSH2 0x1450 PUSH1 0x14 DUP4 PUSH2 0xDF8 JUMP JUMPDEST SWAP2 POP PUSH2 0x145B DUP3 PUSH2 0x141C JUMP JUMPDEST PUSH1 0x20 DUP3 ADD SWAP1 POP SWAP2 SWAP1 POP JUMP JUMPDEST PUSH0 PUSH1 0x20 DUP3 ADD SWAP1 POP DUP2 DUP2 SUB PUSH0 DUP4 ADD MSTORE PUSH2 0x147D DUP2 PUSH2 0x1444 JUMP JUMPDEST SWAP1 POP SWAP2 SWAP1 POP JUMP JUMPDEST PUSH32 0x547765657420646F65736E742068617665206C696B6573000000000000000000 PUSH0 DUP3 ADD MSTORE POP JUMP JUMPDEST PUSH0 PUSH2 0x14B8 PUSH1 0x17 DUP4 PUSH2 0xDF8 JUMP JUMPDEST SWAP2 POP PUSH2 0x14C3 DUP3 PUSH2 0x1484 JUMP JUMPDEST PUSH1 0x20 DUP3 ADD SWAP1 POP SWAP2 SWAP1 POP JUMP JUMPDEST PUSH0 PUSH1 0x20 DUP3 ADD SWAP1 POP DUP2 DUP2 SUB PUSH0 DUP4 ADD MSTORE PUSH2 0x14E5 DUP2 PUSH2 0x14AC JUMP JUMPDEST SWAP1 POP SWAP2 SWAP1 POP JUMP JUMPDEST PUSH32 0x4E487B7100000000000000000000000000000000000000000000000000000000 PUSH0 MSTORE PUSH1 0x11 PUSH1 0x4 MSTORE PUSH1 0x24 PUSH0 REVERT JUMPDEST PUSH0 PUSH2 0x1523 DUP3 PUSH2 0xD6E JUMP JUMPDEST SWAP2 POP PUSH0 DUP3 SUB PUSH2 0x1535 JUMPI PUSH2 0x1534 PUSH2 0x14EC JUMP JUMPDEST JUMPDEST PUSH1 0x1 DUP3 SUB SWAP1 POP SWAP2 SWAP1 POP JUMP JUMPDEST PUSH0 PUSH1 0x80 DUP3 ADD SWAP1 POP PUSH2 0x1553 PUSH0 DUP4 ADD DUP8 PUSH2 0xDDF JUMP JUMPDEST PUSH2 0x1560 PUSH1 0x20 DUP4 ADD DUP7 PUSH2 0xDDF JUMP JUMPDEST PUSH2 0x156D PUSH1 0x40 DUP4 ADD DUP6 PUSH2 0xE78 JUMP JUMPDEST PUSH2 0x157A PUSH1 0x60 DUP4 ADD DUP5 PUSH2 0xE78 JUMP JUMPDEST SWAP6 SWAP5 POP POP POP POP POP JUMP JUMPDEST PUSH32 0x596F7520617265206E6F7420746865206F776E65722100000000000000000000 PUSH0 DUP3 ADD MSTORE POP JUMP JUMPDEST PUSH0 PUSH2 0x15B7 PUSH1 0x16 DUP4 PUSH2 0xDF8 JUMP JUMPDEST SWAP2 POP PUSH2 0x15C2 DUP3 PUSH2 0x1583 JUMP JUMPDEST PUSH1 0x20 DUP3 ADD SWAP1 POP SWAP2 SWAP1 POP JUMP JUMPDEST PUSH0 PUSH1 0x20 DUP3 ADD SWAP1 POP DUP2 DUP2 SUB PUSH0 DUP4 ADD MSTORE PUSH2 0x15E4 DUP2 PUSH2 0x15AB JUMP JUMPDEST SWAP1 POP SWAP2 SWAP1 POP JUMP JUMPDEST PUSH0 PUSH2 0x15F5 DUP3 PUSH2 0xD6E JUMP JUMPDEST SWAP2 POP PUSH32 0xFFFFFFFFFFFFFFFFFFFFFFFFFFFFFFFFFFFFFFFFFFFFFFFFFFFFFFFFFFFFFFFF DUP3 SUB PUSH2 0x1627 JUMPI PUSH2 0x1626 PUSH2 0x14EC JUMP JUMPDEST JUMPDEST PUSH1 0x1 DUP3 ADD SWAP1 POP SWAP2 SWAP1 POP JUMP JUMPDEST PUSH32 0x547765657420697320746F6F206C6F6E67210000000000000000000000000000 PUSH0 DUP3 ADD MSTORE POP JUMP JUMPDEST PUSH0 PUSH2 0x1666 PUSH1 0x12 DUP4 PUSH2 0xDF8 JUMP JUMPDEST SWAP2 POP PUSH2 0x1671 DUP3 PUSH2 0x1632 JUMP JUMPDEST PUSH1 0x20 DUP3 ADD SWAP1 POP SWAP2 SWAP1 POP JUMP JUMPDEST PUSH0 PUSH1 0x20 DUP3 ADD SWAP1 POP DUP2 DUP2 SUB PUSH0 DUP4 ADD MSTORE PUSH2 0x1693 DUP2 PUSH2 0x165A JUMP JUMPDEST SWAP1 POP SWAP2 SWAP1 POP JUMP JUMPDEST PUSH0 DUP2 SWAP1 POP DUP2 PUSH0 MSTORE PUSH1 0x20 PUSH0 KECCAK256 SWAP1 POP SWAP2 SWAP1 POP JUMP JUMPDEST PUSH0 PUSH1 0x20 PUSH1 0x1F DUP4 ADD DIV SWAP1 POP SWAP2 SWAP1 POP JUMP JUMPDEST PUSH0 DUP3 DUP3 SHL SWAP1 POP SWAP3 SWAP2 POP POP JUMP JUMPDEST PUSH0 PUSH1 0x8 DUP4 MUL PUSH2 0x16F6 PUSH32 0xFFFFFFFFFFFFFFFFFFFFFFFFFFFFFFFFFFFFFFFFFFFFFFFFFFFFFFFFFFFFFFFF DUP3 PUSH2 0x16BB JUMP JUMPDEST PUSH2 0x1700 DUP7 DUP4 PUSH2 0x16BB JUMP JUMPDEST SWAP6 POP DUP1 NOT DUP5 AND SWAP4 POP DUP1 DUP7 AND DUP5 OR SWAP3 POP POP POP SWAP4 SWAP3 POP POP POP JUMP JUMPDEST PUSH0 DUP2 SWAP1 POP SWAP2 SWAP1 POP JUMP JUMPDEST PUSH0 PUSH2 0x173B PUSH2 0x1736 PUSH2 0x1731 DUP5 PUSH2 0xD6E JUMP JUMPDEST PUSH2 0x1718 JUMP JUMPDEST PUSH2 0xD6E JUMP JUMPDEST SWAP1 POP SWAP2 SWAP1 POP JUMP JUMPDEST PUSH0 DUP2 SWAP1 POP SWAP2 SWAP1 POP JUMP JUMPDEST PUSH2 0x1754 DUP4 PUSH2 0x1721 JUMP JUMPDEST PUSH2 0x1768 PUSH2 0x1760 DUP3 PUSH2 0x1742 JUMP JUMPDEST DUP5 DUP5 SLOAD PUSH2 0x16C7 JUMP JUMPDEST DUP3 SSTORE POP POP POP POP JUMP JUMPDEST PUSH0 SWAP1 JUMP JUMPDEST PUSH2 0x177C PUSH2 0x1770 JUMP JUMPDEST PUSH2 0x1787 DUP2 DUP5 DUP5 PUSH2 0x174B JUMP JUMPDEST POP POP POP JUMP JUMPDEST JUMPDEST DUP2 DUP2 LT ISZERO PUSH2 0x17AA JUMPI PUSH2 0x179F PUSH0 DUP3 PUSH2 0x1774 JUMP JUMPDEST PUSH1 0x1 DUP2 ADD SWAP1 POP PUSH2 0x178D JUMP JUMPDEST POP POP JUMP JUMPDEST PUSH1 0x1F DUP3 GT ISZERO PUSH2 0x17EF JUMPI PUSH2 0x17C0 DUP2 PUSH2 0x169A JUMP JUMPDEST PUSH2 0x17C9 DUP5 PUSH2 0x16AC JUMP JUMPDEST DUP2 ADD PUSH1 0x20 DUP6 LT ISZERO PUSH2 0x17D8 JUMPI DUP2 SWAP1 POP JUMPDEST PUSH2 0x17EC PUSH2 0x17E4 DUP6 PUSH2 0x16AC JUMP JUMPDEST DUP4 ADD DUP3 PUSH2 0x178C JUMP JUMPDEST POP POP JUMPDEST POP POP POP JUMP JUMPDEST PUSH0 DUP3 DUP3 SHR SWAP1 POP SWAP3 SWAP2 POP POP JUMP JUMPDEST PUSH0 PUSH2 0x180F PUSH0 NOT DUP5 PUSH1 0x8 MUL PUSH2 0x17F4 JUMP JUMPDEST NOT DUP1 DUP4 AND SWAP2 POP POP SWAP3 SWAP2 POP POP JUMP JUMPDEST PUSH0 PUSH2 0x1827 DUP4 DUP4 PUSH2 0x1800 JUMP JUMPDEST SWAP2 POP DUP3 PUSH1 0x2 MUL DUP3 OR SWAP1 POP SWAP3 SWAP2 POP POP JUMP JUMPDEST PUSH2 0x1840 DUP3 PUSH2 0xDEE JUMP JUMPDEST PUSH8 0xFFFFFFFFFFFFFFFF DUP2 GT ISZERO PUSH2 0x1859 JUMPI PUSH2 0x1858 PUSH2 0x1150 JUMP JUMPDEST JUMPDEST PUSH2 0x1863 DUP3 SLOAD PUSH2 0x13BF JUMP JUMPDEST PUSH2 0x186E DUP3 DUP3 DUP6 PUSH2 0x17AE JUMP JUMPDEST PUSH0 PUSH1 0x20 SWAP1 POP PUSH1 0x1F DUP4 GT PUSH1 0x1 DUP2 EQ PUSH2 0x189F JUMPI PUSH0 DUP5 ISZERO PUSH2 0x188D JUMPI DUP3 DUP8 ADD MLOAD SWAP1 POP JUMPDEST PUSH2 0x1897 DUP6 DUP3 PUSH2 0x181C JUMP JUMPDEST DUP7 SSTORE POP PUSH2 0x18FE JUMP JUMPDEST PUSH1 0x1F NOT DUP5 AND PUSH2 0x18AD DUP7 PUSH2 0x169A JUMP JUMPDEST PUSH0 JUMPDEST DUP3 DUP2 LT ISZERO PUSH2 0x18D4 JUMPI DUP5 DUP10 ADD MLOAD DUP3 SSTORE PUSH1 0x1 DUP3 ADD SWAP2 POP PUSH1 0x20 DUP6 ADD SWAP5 POP PUSH1 0x20 DUP2 ADD SWAP1 POP PUSH2 0x18AF JUMP JUMPDEST DUP7 DUP4 LT ISZERO PUSH2 0x18F1 JUMPI DUP5 DUP10 ADD MLOAD PUSH2 0x18ED PUSH1 0x1F DUP10 AND DUP3 PUSH2 0x1800 JUMP JUMPDEST DUP4 SSTORE POP JUMPDEST PUSH1 0x1 PUSH1 0x2 DUP9 MUL ADD DUP9 SSTORE POP POP POP JUMPDEST POP POP POP POP POP POP JUMP JUMPDEST PUSH0 PUSH1 0x80 DUP3 ADD SWAP1 POP PUSH2 0x1919 PUSH0 DUP4 ADD DUP8 PUSH2 0xE78 JUMP JUMPDEST PUSH2 0x1926 PUSH1 0x20 DUP4 ADD DUP7 PUSH2 0xDDF JUMP JUMPDEST DUP2 DUP2 SUB PUSH1 0x40 DUP4 ADD MSTORE PUSH2 0x1938 DUP2 DUP6 PUSH2 0xE40 JUMP JUMPDEST SWAP1 POP PUSH2 0x1947 PUSH1 0x60 DUP4 ADD DUP5 PUSH2 0xE78 JUMP JUMPDEST SWAP6 SWAP5 POP POP POP POP POP JUMP INVALID LOG2 PUSH5 0x6970667358 0x22 SLT KECCAK256 STOP SHL 0x1F 0x1E PUSH1 0xD1 0xA5 GAS BLOBBASEFEE KECCAK256 0xAE SELFDESTRUCT 0xB1 0xD6 0xE9 0xEC 0xBB 0xEB 0xFC 0xC9 DUP2 BYTE CREATE DUP8 DUP13 PUSH9 0xC955621F0FFA64736F PUSH13 0x63430008180033000000000000 "
		},
		"gasEstimates": {
			"creation": {
				"codeDepositCost": "1306800",
				"executionCost": "49942",
				"totalCost": "1356742"
			},
			"external": {
				"MAX_TWEET_LENGTH()": "2485",
				"changeTweetLength(uint16)": "26959",
				"createTweet(string)": "infinite",
				"getAllTweets(address)": "infinite",
				"getTweet(uint256)": "infinite",
				"likeTweet(address,uint256)": "infinite",
				"owner()": "2624",
				"tweets(address,uint256)": "infinite",
				"unlikeTweet(address,uint256)": "infinite"
			}
		},
		"methodIdentifiers": {
			"MAX_TWEET_LENGTH()": "6eb10797",
			"changeTweetLength(uint16)": "58bfa4ab",
			"createTweet(string)": "7c9cd2bc",
			"getAllTweets(address)": "12e7ee1c",
			"getTweet(uint256)": "c3ad5ecb",
			"likeTweet(address,uint256)": "63378216",
			"owner()": "8da5cb5b",
			"tweets(address,uint256)": "05a1b4a9",
			"unlikeTweet(address,uint256)": "3d9b569f"
		}
	},
	"abi": [
		{
			"inputs": [],
			"stateMutability": "nonpayable",
			"type": "constructor"
		},
		{
			"anonymous": false,
			"inputs": [
				{
					"indexed": false,
					"internalType": "uint256",
					"name": "id",
					"type": "uint256"
				},
				{
					"indexed": false,
					"internalType": "address",
					"name": "author",
					"type": "address"
				},
				{
					"indexed": false,
					"internalType": "string",
					"name": "content",
					"type": "string"
				},
				{
					"indexed": false,
					"internalType": "uint256",
					"name": "timestamp",
					"type": "uint256"
				}
			],
			"name": "TweetCreated",
			"type": "event"
		},
		{
			"anonymous": false,
			"inputs": [
				{
					"indexed": false,
					"internalType": "address",
					"name": "liker",
					"type": "address"
				},
				{
					"indexed": false,
					"internalType": "address",
					"name": "tweetAuthor",
					"type": "address"
				},
				{
					"indexed": false,
					"internalType": "uint256",
					"name": "tweetId",
					"type": "uint256"
				},
				{
					"indexed": false,
					"internalType": "uint256",
					"name": "newLikeCount",
					"type": "uint256"
				}
			],
			"name": "TweetLiked",
			"type": "event"
		},
		{
			"anonymous": false,
			"inputs": [
				{
					"indexed": false,
					"internalType": "address",
					"name": "unliker",
					"type": "address"
				},
				{
					"indexed": false,
					"internalType": "address",
					"name": "tweetAuthor",
					"type": "address"
				},
				{
					"indexed": false,
					"internalType": "uint256",
					"name": "tweetId",
					"type": "uint256"
				},
				{
					"indexed": false,
					"internalType": "uint256",
					"name": "newLikeCount",
					"type": "uint256"
				}
			],
			"name": "TweetUnliked",
			"type": "event"
		},
		{
			"inputs": [],
			"name": "MAX_TWEET_LENGTH",
			"outputs": [
				{
					"internalType": "uint16",
					"name": "",
					"type": "uint16"
				}
			],
			"stateMutability": "view",
			"type": "function"
		},
		{
			"inputs": [
				{
					"internalType": "uint16",
					"name": "_newTweetLength",
					"type": "uint16"
				}
			],
			"name": "changeTweetLength",
			"outputs": [],
			"stateMutability": "nonpayable",
			"type": "function"
		},
		{
			"inputs": [
				{
					"internalType": "string",
					"name": "_tweet",
					"type": "string"
				}
			],
			"name": "createTweet",
			"outputs": [],
			"stateMutability": "nonpayable",
			"type": "function"
		},
		{
			"inputs": [
				{
					"internalType": "address",
					"name": "_owner",
					"type": "address"
				}
			],
			"name": "getAllTweets",
			"outputs": [
				{
					"components": [
						{
							"internalType": "address",
							"name": "author",
							"type": "address"
						},
						{
							"internalType": "string",
							"name": "content",
							"type": "string"
						},
						{
							"internalType": "uint256",
							"name": "timestamp",
							"type": "uint256"
						},
						{
							"internalType": "uint256",
							"name": "likes",
							"type": "uint256"
						},
						{
							"internalType": "uint256",
							"name": "id",
							"type": "uint256"
						}
					],
					"internalType": "struct Twitter.Tweet[]",
					"name": "",
					"type": "tuple[]"
				}
			],
			"stateMutability": "view",
			"type": "function"
		},
		{
			"inputs": [
				{
					"internalType": "uint256",
					"name": "_i",
					"type": "uint256"
				}
			],
			"name": "getTweet",
			"outputs": [
				{
					"components": [
						{
							"internalType": "address",
							"name": "author",
							"type": "address"
						},
						{
							"internalType": "string",
							"name": "content",
							"type": "string"
						},
						{
							"internalType": "uint256",
							"name": "timestamp",
							"type": "uint256"
						},
						{
							"internalType": "uint256",
							"name": "likes",
							"type": "uint256"
						},
						{
							"internalType": "uint256",
							"name": "id",
							"type": "uint256"
						}
					],
					"internalType": "struct Twitter.Tweet",
					"name": "",
					"type": "tuple"
				}
			],
			"stateMutability": "view",
			"type": "function"
		},
		{
			"inputs": [
				{
					"internalType": "address",
					"name": "author",
					"type": "address"
				},
				{
					"internalType": "uint256",
					"name": "id",
					"type": "uint256"
				}
			],
			"name": "likeTweet",
			"outputs": [],
			"stateMutability": "nonpayable",
			"type": "function"
		},
		{
			"inputs": [],
			"name": "owner",
			"outputs": [
				{
					"internalType": "address",
					"name": "",
					"type": "address"
				}
			],
			"stateMutability": "view",
			"type": "function"
		},
		{
			"inputs": [
				{
					"internalType": "address",
					"name": "",
					"type": "address"
				},
				{
					"internalType": "uint256",
					"name": "",
					"type": "uint256"
				}
			],
			"name": "tweets",
			"outputs": [
				{
					"internalType": "address",
					"name": "author",
					"type": "address"
				},
				{
					"internalType": "string",
					"name": "content",
					"type": "string"
				},
				{
					"internalType": "uint256",
					"name": "timestamp",
					"type": "uint256"
				},
				{
					"internalType": "uint256",
					"name": "likes",
					"type": "uint256"
				},
				{
					"internalType": "uint256",
					"name": "id",
					"type": "uint256"
				}
			],
			"stateMutability": "view",
			"type": "function"
		},
		{
			"inputs": [
				{
					"internalType": "address",
					"name": "author",
					"type": "address"
				},
				{
					"internalType": "uint256",
					"name": "id",
					"type": "uint256"
				}
			],
			"name": "unlikeTweet",
			"outputs": [],
			"stateMutability": "nonpayable",
			"type": "function"
		}
	]
}